{
    "EOF1_ContractCalls" : {
        "_info" : {
            "comment" : "",
            "filling-rpc-server" : "evm version 1.10.4-unstable-d601654b-20210621",
            "filling-tool-version" : "retesteth-0.1.1-eip1559+commit.5ad217c6.Linux.g++",
            "lllcversion" : "Version: 0.5.14-develop.2021.4.29+commit.14c9d5de.Linux.clang",
            "source" : "src/GeneralStateTestsFiller/stCallCodes/EOF1_ContractCallsFiller.yml",
            "sourceHash" : "39137c31825e66e25d610f6525a9fbea2703b13530a45c59cc8dfd9348f40624"
        },
        "env" : {
            "currentCoinbase" : "0x2adc25665018aa1fe0e6bc666dac8fc2697ff9ba",
            "currentDifficulty" : "0x020000",
            "currentNumber" : "0x01",
            "currentTimestamp" : "0x03e8",
            "previousHash" : "0x5e20a0453cecd065ea59c37ac63e079ee08998b6045136a8ce6635c7912ec0b6",
            "currentGasLimit" : "0x05500000",
            "currentBaseFee" : "0x0a"
        },
        "post" : {
            "Berlin" : [
                {
                    "indexes" : {
                        "data" : 0,
                        "gas" : 0,
                        "value" : 0
                    },
                    "hash" : "0x9cfe7a5b2f1d7b83cd0f096f5ee859a53120f0f5aaafe6eff94a3879d8b42264",
                    "txbytes" : "0xf874800a830aae6094b94f5374fce5edbc8e2a8697c15331677e6ebf0b8094c94f5374fce5edbc8e2a8697c15331677e6ebf0b1ba00f2fcdd4b12c82b225c6fa285c8bb5ec12173696d7e4dbca308a32dae03f2a8fa036144afe01bd2cba73e7afe4cefaeb5051f19c07cc4d81a508bdb50cfcd5451d",
                    "logs" : "0x1dcc4de8dec75d7aab85b567b6ccd41ad312451b948a7413f0a142fd40d49347"
                },
                {
                    "indexes" : {
                        "data" : 1,
                        "gas" : 0,
                        "value" : 0
                    },
                    "hash" : "0x9cfe7a5b2f1d7b83cd0f096f5ee859a53120f0f5aaafe6eff94a3879d8b42264",
                    "txbytes" : "0xf874800a830aae6094b94f5374fce5edbc8e2a8697c15331677e6ebf0b8094d94f5374fce5edbc8e2a8697c15331677e6ebf0b1ba0bbdf9288646d44d3c72bb330001f8fee4d4f89981a89ab4890bf99efd34fe019a06738f208dc53a57ec8d4924be148cb3242f8b85bbb468a02227b708ae8c3d79a",
                    "logs" : "0x1dcc4de8dec75d7aab85b567b6ccd41ad312451b948a7413f0a142fd40d49347"
                },
                {
                    "indexes" : {
                        "data" : 2,
                        "gas" : 0,
                        "value" : 0
                    },
                    "hash" : "0x9cfe7a5b2f1d7b83cd0f096f5ee859a53120f0f5aaafe6eff94a3879d8b42264",
                    "txbytes" : "0xf874800a830aae6094b94f5374fce5edbc8e2a8697c15331677e6ebf0b8094e94f5374fce5edbc8e2a8697c15331677e6ebf0b1ba0ac8623851b95b191cfc629b94bf57b258abf465dc37ea5ec02d116967f2c3586a011bfa4a965097b6c8941d8a88d5c186bbbb5a3872789c4d855c6dab61a10f457",
                    "logs" : "0x1dcc4de8dec75d7aab85b567b6ccd41ad312451b948a7413f0a142fd40d49347"
                },
                {
                    "indexes" : {
                        "data" : 3,
                        "gas" : 0,
                        "value" : 0
                    },
                    "hash" : "0x9cfe7a5b2f1d7b83cd0f096f5ee859a53120f0f5aaafe6eff94a3879d8b42264",
                    "txbytes" : "0xf874800a830aae6094b94f5374fce5edbc8e2a8697c15331677e6ebf0b8094f94f5374fce5edbc8e2a8697c15331677e6ebf0b1ba063f9af09465d66c0a7b3d7345d01b98b276a68e52a44c20b8ce3ba1b8e775b85a001484b795dcfe4eee973ec9c777e295653e3ce719e5c2f9ecb943e4d09990c0e",
                    "logs" : "0x1dcc4de8dec75d7aab85b567b6ccd41ad312451b948a7413f0a142fd40d49347"
                }
            ],
            "Byzantium" : [
                {
                    "indexes" : {
                        "data" : 0,
                        "gas" : 0,
                        "value" : 0
                    },
                    "hash" : "0x142a996fba35c362f82ef4723e6c5e468cd1bae911557d3fc0cc1f34f0b098ac",
                    "txbytes" : "0xf874800a830aae6094b94f5374fce5edbc8e2a8697c15331677e6ebf0b8094c94f5374fce5edbc8e2a8697c15331677e6ebf0b1ba00f2fcdd4b12c82b225c6fa285c8bb5ec12173696d7e4dbca308a32dae03f2a8fa036144afe01bd2cba73e7afe4cefaeb5051f19c07cc4d81a508bdb50cfcd5451d",
                    "logs" : "0x1dcc4de8dec75d7aab85b567b6ccd41ad312451b948a7413f0a142fd40d49347"
                },
                {
                    "indexes" : {
                        "data" : 1,
                        "gas" : 0,
                        "value" : 0
                    },
                    "hash" : "0x142a996fba35c362f82ef4723e6c5e468cd1bae911557d3fc0cc1f34f0b098ac",
                    "txbytes" : "0xf874800a830aae6094b94f5374fce5edbc8e2a8697c15331677e6ebf0b8094d94f5374fce5edbc8e2a8697c15331677e6ebf0b1ba0bbdf9288646d44d3c72bb330001f8fee4d4f89981a89ab4890bf99efd34fe019a06738f208dc53a57ec8d4924be148cb3242f8b85bbb468a02227b708ae8c3d79a",
                    "logs" : "0x1dcc4de8dec75d7aab85b567b6ccd41ad312451b948a7413f0a142fd40d49347"
                },
                {
                    "indexes" : {
                        "data" : 2,
                        "gas" : 0,
                        "value" : 0
                    },
                    "hash" : "0x142a996fba35c362f82ef4723e6c5e468cd1bae911557d3fc0cc1f34f0b098ac",
                    "txbytes" : "0xf874800a830aae6094b94f5374fce5edbc8e2a8697c15331677e6ebf0b8094e94f5374fce5edbc8e2a8697c15331677e6ebf0b1ba0ac8623851b95b191cfc629b94bf57b258abf465dc37ea5ec02d116967f2c3586a011bfa4a965097b6c8941d8a88d5c186bbbb5a3872789c4d855c6dab61a10f457",
                    "logs" : "0x1dcc4de8dec75d7aab85b567b6ccd41ad312451b948a7413f0a142fd40d49347"
                },
                {
                    "indexes" : {
                        "data" : 3,
                        "gas" : 0,
                        "value" : 0
                    },
                    "hash" : "0x142a996fba35c362f82ef4723e6c5e468cd1bae911557d3fc0cc1f34f0b098ac",
                    "txbytes" : "0xf874800a830aae6094b94f5374fce5edbc8e2a8697c15331677e6ebf0b8094f94f5374fce5edbc8e2a8697c15331677e6ebf0b1ba063f9af09465d66c0a7b3d7345d01b98b276a68e52a44c20b8ce3ba1b8e775b85a001484b795dcfe4eee973ec9c777e295653e3ce719e5c2f9ecb943e4d09990c0e",
                    "logs" : "0x1dcc4de8dec75d7aab85b567b6ccd41ad312451b948a7413f0a142fd40d49347"
                }
            ],
            "Constantinople" : [
                {
                    "indexes" : {
                        "data" : 0,
                        "gas" : 0,
                        "value" : 0
                    },
                    "hash" : "0x8f5bd91c51f36fb9d0a28d6fb0e6b1ee1cd64517a940f235be833a65ab152610",
                    "txbytes" : "0xf874800a830aae6094b94f5374fce5edbc8e2a8697c15331677e6ebf0b8094c94f5374fce5edbc8e2a8697c15331677e6ebf0b1ba00f2fcdd4b12c82b225c6fa285c8bb5ec12173696d7e4dbca308a32dae03f2a8fa036144afe01bd2cba73e7afe4cefaeb5051f19c07cc4d81a508bdb50cfcd5451d",
                    "logs" : "0x1dcc4de8dec75d7aab85b567b6ccd41ad312451b948a7413f0a142fd40d49347"
                },
                {
                    "indexes" : {
                        "data" : 1,
                        "gas" : 0,
                        "value" : 0
                    },
                    "hash" : "0x8f5bd91c51f36fb9d0a28d6fb0e6b1ee1cd64517a940f235be833a65ab152610",
                    "txbytes" : "0xf874800a830aae6094b94f5374fce5edbc8e2a8697c15331677e6ebf0b8094d94f5374fce5edbc8e2a8697c15331677e6ebf0b1ba0bbdf9288646d44d3c72bb330001f8fee4d4f89981a89ab4890bf99efd34fe019a06738f208dc53a57ec8d4924be148cb3242f8b85bbb468a02227b708ae8c3d79a",
                    "logs" : "0x1dcc4de8dec75d7aab85b567b6ccd41ad312451b948a7413f0a142fd40d49347"
                },
                {
                    "indexes" : {
                        "data" : 2,
                        "gas" : 0,
                        "value" : 0
                    },
                    "hash" : "0x8f5bd91c51f36fb9d0a28d6fb0e6b1ee1cd64517a940f235be833a65ab152610",
                    "txbytes" : "0xf874800a830aae6094b94f5374fce5edbc8e2a8697c15331677e6ebf0b8094e94f5374fce5edbc8e2a8697c15331677e6ebf0b1ba0ac8623851b95b191cfc629b94bf57b258abf465dc37ea5ec02d116967f2c3586a011bfa4a965097b6c8941d8a88d5c186bbbb5a3872789c4d855c6dab61a10f457",
                    "logs" : "0x1dcc4de8dec75d7aab85b567b6ccd41ad312451b948a7413f0a142fd40d49347"
                },
                {
                    "indexes" : {
                        "data" : 3,
                        "gas" : 0,
                        "value" : 0
                    },
                    "hash" : "0x8f5bd91c51f36fb9d0a28d6fb0e6b1ee1cd64517a940f235be833a65ab152610",
                    "txbytes" : "0xf874800a830aae6094b94f5374fce5edbc8e2a8697c15331677e6ebf0b8094f94f5374fce5edbc8e2a8697c15331677e6ebf0b1ba063f9af09465d66c0a7b3d7345d01b98b276a68e52a44c20b8ce3ba1b8e775b85a001484b795dcfe4eee973ec9c777e295653e3ce719e5c2f9ecb943e4d09990c0e",
                    "logs" : "0x1dcc4de8dec75d7aab85b567b6ccd41ad312451b948a7413f0a142fd40d49347"
                }
            ],
            "ConstantinopleFix" : [
                {
                    "indexes" : {
                        "data" : 0,
                        "gas" : 0,
                        "value" : 0
                    },
                    "hash" : "0x9ecc003d149769b972d3682de7629e820244d6b33d1be542bd8dac345e673fc2",
                    "txbytes" : "0xf874800a830aae6094b94f5374fce5edbc8e2a8697c15331677e6ebf0b8094c94f5374fce5edbc8e2a8697c15331677e6ebf0b1ba00f2fcdd4b12c82b225c6fa285c8bb5ec12173696d7e4dbca308a32dae03f2a8fa036144afe01bd2cba73e7afe4cefaeb5051f19c07cc4d81a508bdb50cfcd5451d",
                    "logs" : "0x1dcc4de8dec75d7aab85b567b6ccd41ad312451b948a7413f0a142fd40d49347"
                },
                {
                    "indexes" : {
                        "data" : 1,
                        "gas" : 0,
                        "value" : 0
                    },
                    "hash" : "0x9ecc003d149769b972d3682de7629e820244d6b33d1be542bd8dac345e673fc2",
                    "txbytes" : "0xf874800a830aae6094b94f5374fce5edbc8e2a8697c15331677e6ebf0b8094d94f5374fce5edbc8e2a8697c15331677e6ebf0b1ba0bbdf9288646d44d3c72bb330001f8fee4d4f89981a89ab4890bf99efd34fe019a06738f208dc53a57ec8d4924be148cb3242f8b85bbb468a02227b708ae8c3d79a",
                    "logs" : "0x1dcc4de8dec75d7aab85b567b6ccd41ad312451b948a7413f0a142fd40d49347"
                },
                {
                    "indexes" : {
                        "data" : 2,
                        "gas" : 0,
                        "value" : 0
                    },
                    "hash" : "0x9ecc003d149769b972d3682de7629e820244d6b33d1be542bd8dac345e673fc2",
                    "txbytes" : "0xf874800a830aae6094b94f5374fce5edbc8e2a8697c15331677e6ebf0b8094e94f5374fce5edbc8e2a8697c15331677e6ebf0b1ba0ac8623851b95b191cfc629b94bf57b258abf465dc37ea5ec02d116967f2c3586a011bfa4a965097b6c8941d8a88d5c186bbbb5a3872789c4d855c6dab61a10f457",
                    "logs" : "0x1dcc4de8dec75d7aab85b567b6ccd41ad312451b948a7413f0a142fd40d49347"
                },
                {
                    "indexes" : {
                        "data" : 3,
                        "gas" : 0,
                        "value" : 0
                    },
                    "hash" : "0x9ecc003d149769b972d3682de7629e820244d6b33d1be542bd8dac345e673fc2",
                    "txbytes" : "0xf874800a830aae6094b94f5374fce5edbc8e2a8697c15331677e6ebf0b8094f94f5374fce5edbc8e2a8697c15331677e6ebf0b1ba063f9af09465d66c0a7b3d7345d01b98b276a68e52a44c20b8ce3ba1b8e775b85a001484b795dcfe4eee973ec9c777e295653e3ce719e5c2f9ecb943e4d09990c0e",
                    "logs" : "0x1dcc4de8dec75d7aab85b567b6ccd41ad312451b948a7413f0a142fd40d49347"
                }
            ],
            "EIP150" : [
                {
                    "indexes" : {
                        "data" : 0,
                        "gas" : 0,
                        "value" : 0
                    },
                    "hash" : "0x142a996fba35c362f82ef4723e6c5e468cd1bae911557d3fc0cc1f34f0b098ac",
                    "txbytes" : "0xf874800a830aae6094b94f5374fce5edbc8e2a8697c15331677e6ebf0b8094c94f5374fce5edbc8e2a8697c15331677e6ebf0b1ba00f2fcdd4b12c82b225c6fa285c8bb5ec12173696d7e4dbca308a32dae03f2a8fa036144afe01bd2cba73e7afe4cefaeb5051f19c07cc4d81a508bdb50cfcd5451d",
                    "logs" : "0x1dcc4de8dec75d7aab85b567b6ccd41ad312451b948a7413f0a142fd40d49347"
                },
                {
                    "indexes" : {
                        "data" : 1,
                        "gas" : 0,
                        "value" : 0
                    },
                    "hash" : "0x142a996fba35c362f82ef4723e6c5e468cd1bae911557d3fc0cc1f34f0b098ac",
                    "txbytes" : "0xf874800a830aae6094b94f5374fce5edbc8e2a8697c15331677e6ebf0b8094d94f5374fce5edbc8e2a8697c15331677e6ebf0b1ba0bbdf9288646d44d3c72bb330001f8fee4d4f89981a89ab4890bf99efd34fe019a06738f208dc53a57ec8d4924be148cb3242f8b85bbb468a02227b708ae8c3d79a",
                    "logs" : "0x1dcc4de8dec75d7aab85b567b6ccd41ad312451b948a7413f0a142fd40d49347"
                },
                {
                    "indexes" : {
                        "data" : 2,
                        "gas" : 0,
                        "value" : 0
                    },
                    "hash" : "0x142a996fba35c362f82ef4723e6c5e468cd1bae911557d3fc0cc1f34f0b098ac",
                    "txbytes" : "0xf874800a830aae6094b94f5374fce5edbc8e2a8697c15331677e6ebf0b8094e94f5374fce5edbc8e2a8697c15331677e6ebf0b1ba0ac8623851b95b191cfc629b94bf57b258abf465dc37ea5ec02d116967f2c3586a011bfa4a965097b6c8941d8a88d5c186bbbb5a3872789c4d855c6dab61a10f457",
                    "logs" : "0x1dcc4de8dec75d7aab85b567b6ccd41ad312451b948a7413f0a142fd40d49347"
                },
                {
                    "indexes" : {
                        "data" : 3,
                        "gas" : 0,
                        "value" : 0
                    },
                    "hash" : "0x142a996fba35c362f82ef4723e6c5e468cd1bae911557d3fc0cc1f34f0b098ac",
                    "txbytes" : "0xf874800a830aae6094b94f5374fce5edbc8e2a8697c15331677e6ebf0b8094f94f5374fce5edbc8e2a8697c15331677e6ebf0b1ba063f9af09465d66c0a7b3d7345d01b98b276a68e52a44c20b8ce3ba1b8e775b85a001484b795dcfe4eee973ec9c777e295653e3ce719e5c2f9ecb943e4d09990c0e",
                    "logs" : "0x1dcc4de8dec75d7aab85b567b6ccd41ad312451b948a7413f0a142fd40d49347"
                }
            ],
            "EIP158" : [
                {
                    "indexes" : {
                        "data" : 0,
                        "gas" : 0,
                        "value" : 0
                    },
                    "hash" : "0x142a996fba35c362f82ef4723e6c5e468cd1bae911557d3fc0cc1f34f0b098ac",
                    "txbytes" : "0xf874800a830aae6094b94f5374fce5edbc8e2a8697c15331677e6ebf0b8094c94f5374fce5edbc8e2a8697c15331677e6ebf0b1ba00f2fcdd4b12c82b225c6fa285c8bb5ec12173696d7e4dbca308a32dae03f2a8fa036144afe01bd2cba73e7afe4cefaeb5051f19c07cc4d81a508bdb50cfcd5451d",
                    "logs" : "0x1dcc4de8dec75d7aab85b567b6ccd41ad312451b948a7413f0a142fd40d49347"
                },
                {
                    "indexes" : {
                        "data" : 1,
                        "gas" : 0,
                        "value" : 0
                    },
                    "hash" : "0x142a996fba35c362f82ef4723e6c5e468cd1bae911557d3fc0cc1f34f0b098ac",
                    "txbytes" : "0xf874800a830aae6094b94f5374fce5edbc8e2a8697c15331677e6ebf0b8094d94f5374fce5edbc8e2a8697c15331677e6ebf0b1ba0bbdf9288646d44d3c72bb330001f8fee4d4f89981a89ab4890bf99efd34fe019a06738f208dc53a57ec8d4924be148cb3242f8b85bbb468a02227b708ae8c3d79a",
                    "logs" : "0x1dcc4de8dec75d7aab85b567b6ccd41ad312451b948a7413f0a142fd40d49347"
                },
                {
                    "indexes" : {
                        "data" : 2,
                        "gas" : 0,
                        "value" : 0
                    },
                    "hash" : "0x142a996fba35c362f82ef4723e6c5e468cd1bae911557d3fc0cc1f34f0b098ac",
                    "txbytes" : "0xf874800a830aae6094b94f5374fce5edbc8e2a8697c15331677e6ebf0b8094e94f5374fce5edbc8e2a8697c15331677e6ebf0b1ba0ac8623851b95b191cfc629b94bf57b258abf465dc37ea5ec02d116967f2c3586a011bfa4a965097b6c8941d8a88d5c186bbbb5a3872789c4d855c6dab61a10f457",
                    "logs" : "0x1dcc4de8dec75d7aab85b567b6ccd41ad312451b948a7413f0a142fd40d49347"
                },
                {
                    "indexes" : {
                        "data" : 3,
                        "gas" : 0,
                        "value" : 0
                    },
                    "hash" : "0x142a996fba35c362f82ef4723e6c5e468cd1bae911557d3fc0cc1f34f0b098ac",
                    "txbytes" : "0xf874800a830aae6094b94f5374fce5edbc8e2a8697c15331677e6ebf0b8094f94f5374fce5edbc8e2a8697c15331677e6ebf0b1ba063f9af09465d66c0a7b3d7345d01b98b276a68e52a44c20b8ce3ba1b8e775b85a001484b795dcfe4eee973ec9c777e295653e3ce719e5c2f9ecb943e4d09990c0e",
                    "logs" : "0x1dcc4de8dec75d7aab85b567b6ccd41ad312451b948a7413f0a142fd40d49347"
                }
            ],
            "Frontier" : [
                {
                    "indexes" : {
                        "data" : 0,
                        "gas" : 0,
                        "value" : 0
                    },
                    "hash" : "0x142a996fba35c362f82ef4723e6c5e468cd1bae911557d3fc0cc1f34f0b098ac",
                    "txbytes" : "0xf874800a830aae6094b94f5374fce5edbc8e2a8697c15331677e6ebf0b8094c94f5374fce5edbc8e2a8697c15331677e6ebf0b1ba00f2fcdd4b12c82b225c6fa285c8bb5ec12173696d7e4dbca308a32dae03f2a8fa036144afe01bd2cba73e7afe4cefaeb5051f19c07cc4d81a508bdb50cfcd5451d",
                    "logs" : "0x1dcc4de8dec75d7aab85b567b6ccd41ad312451b948a7413f0a142fd40d49347"
                },
                {
                    "indexes" : {
                        "data" : 1,
                        "gas" : 0,
                        "value" : 0
                    },
                    "hash" : "0x142a996fba35c362f82ef4723e6c5e468cd1bae911557d3fc0cc1f34f0b098ac",
                    "txbytes" : "0xf874800a830aae6094b94f5374fce5edbc8e2a8697c15331677e6ebf0b8094d94f5374fce5edbc8e2a8697c15331677e6ebf0b1ba0bbdf9288646d44d3c72bb330001f8fee4d4f89981a89ab4890bf99efd34fe019a06738f208dc53a57ec8d4924be148cb3242f8b85bbb468a02227b708ae8c3d79a",
                    "logs" : "0x1dcc4de8dec75d7aab85b567b6ccd41ad312451b948a7413f0a142fd40d49347"
                },
                {
                    "indexes" : {
                        "data" : 2,
                        "gas" : 0,
                        "value" : 0
                    },
                    "hash" : "0x142a996fba35c362f82ef4723e6c5e468cd1bae911557d3fc0cc1f34f0b098ac",
                    "txbytes" : "0xf874800a830aae6094b94f5374fce5edbc8e2a8697c15331677e6ebf0b8094e94f5374fce5edbc8e2a8697c15331677e6ebf0b1ba0ac8623851b95b191cfc629b94bf57b258abf465dc37ea5ec02d116967f2c3586a011bfa4a965097b6c8941d8a88d5c186bbbb5a3872789c4d855c6dab61a10f457",
                    "logs" : "0x1dcc4de8dec75d7aab85b567b6ccd41ad312451b948a7413f0a142fd40d49347"
                },
                {
                    "indexes" : {
                        "data" : 3,
                        "gas" : 0,
                        "value" : 0
                    },
                    "hash" : "0x142a996fba35c362f82ef4723e6c5e468cd1bae911557d3fc0cc1f34f0b098ac",
                    "txbytes" : "0xf874800a830aae6094b94f5374fce5edbc8e2a8697c15331677e6ebf0b8094f94f5374fce5edbc8e2a8697c15331677e6ebf0b1ba063f9af09465d66c0a7b3d7345d01b98b276a68e52a44c20b8ce3ba1b8e775b85a001484b795dcfe4eee973ec9c777e295653e3ce719e5c2f9ecb943e4d09990c0e",
                    "logs" : "0x1dcc4de8dec75d7aab85b567b6ccd41ad312451b948a7413f0a142fd40d49347"
                }
            ],
            "Homestead" : [
                {
                    "indexes" : {
                        "data" : 0,
                        "gas" : 0,
                        "value" : 0
                    },
                    "hash" : "0x142a996fba35c362f82ef4723e6c5e468cd1bae911557d3fc0cc1f34f0b098ac",
                    "txbytes" : "0xf874800a830aae6094b94f5374fce5edbc8e2a8697c15331677e6ebf0b8094c94f5374fce5edbc8e2a8697c15331677e6ebf0b1ba00f2fcdd4b12c82b225c6fa285c8bb5ec12173696d7e4dbca308a32dae03f2a8fa036144afe01bd2cba73e7afe4cefaeb5051f19c07cc4d81a508bdb50cfcd5451d",
                    "logs" : "0x1dcc4de8dec75d7aab85b567b6ccd41ad312451b948a7413f0a142fd40d49347"
                },
                {
                    "indexes" : {
                        "data" : 1,
                        "gas" : 0,
                        "value" : 0
                    },
                    "hash" : "0x142a996fba35c362f82ef4723e6c5e468cd1bae911557d3fc0cc1f34f0b098ac",
                    "txbytes" : "0xf874800a830aae6094b94f5374fce5edbc8e2a8697c15331677e6ebf0b8094d94f5374fce5edbc8e2a8697c15331677e6ebf0b1ba0bbdf9288646d44d3c72bb330001f8fee4d4f89981a89ab4890bf99efd34fe019a06738f208dc53a57ec8d4924be148cb3242f8b85bbb468a02227b708ae8c3d79a",
                    "logs" : "0x1dcc4de8dec75d7aab85b567b6ccd41ad312451b948a7413f0a142fd40d49347"
                },
                {
                    "indexes" : {
                        "data" : 2,
                        "gas" : 0,
                        "value" : 0
                    },
                    "hash" : "0x142a996fba35c362f82ef4723e6c5e468cd1bae911557d3fc0cc1f34f0b098ac",
                    "txbytes" : "0xf874800a830aae6094b94f5374fce5edbc8e2a8697c15331677e6ebf0b8094e94f5374fce5edbc8e2a8697c15331677e6ebf0b1ba0ac8623851b95b191cfc629b94bf57b258abf465dc37ea5ec02d116967f2c3586a011bfa4a965097b6c8941d8a88d5c186bbbb5a3872789c4d855c6dab61a10f457",
                    "logs" : "0x1dcc4de8dec75d7aab85b567b6ccd41ad312451b948a7413f0a142fd40d49347"
                },
                {
                    "indexes" : {
                        "data" : 3,
                        "gas" : 0,
                        "value" : 0
                    },
                    "hash" : "0x142a996fba35c362f82ef4723e6c5e468cd1bae911557d3fc0cc1f34f0b098ac",
                    "txbytes" : "0xf874800a830aae6094b94f5374fce5edbc8e2a8697c15331677e6ebf0b8094f94f5374fce5edbc8e2a8697c15331677e6ebf0b1ba063f9af09465d66c0a7b3d7345d01b98b276a68e52a44c20b8ce3ba1b8e775b85a001484b795dcfe4eee973ec9c777e295653e3ce719e5c2f9ecb943e4d09990c0e",
                    "logs" : "0x1dcc4de8dec75d7aab85b567b6ccd41ad312451b948a7413f0a142fd40d49347"
                }
            ],
            "Istanbul" : [
                {
                    "indexes" : {
                        "data" : 0,
                        "gas" : 0,
                        "value" : 0
                    },
                    "hash" : "0xbfda7124b045994fee85510251ebec166ddc25e28d1046ada3048d7449e287e5",
                    "txbytes" : "0xf874800a830aae6094b94f5374fce5edbc8e2a8697c15331677e6ebf0b8094c94f5374fce5edbc8e2a8697c15331677e6ebf0b1ba00f2fcdd4b12c82b225c6fa285c8bb5ec12173696d7e4dbca308a32dae03f2a8fa036144afe01bd2cba73e7afe4cefaeb5051f19c07cc4d81a508bdb50cfcd5451d",
                    "logs" : "0x1dcc4de8dec75d7aab85b567b6ccd41ad312451b948a7413f0a142fd40d49347"
                },
                {
                    "indexes" : {
                        "data" : 1,
                        "gas" : 0,
                        "value" : 0
                    },
                    "hash" : "0xbfda7124b045994fee85510251ebec166ddc25e28d1046ada3048d7449e287e5",
                    "txbytes" : "0xf874800a830aae6094b94f5374fce5edbc8e2a8697c15331677e6ebf0b8094d94f5374fce5edbc8e2a8697c15331677e6ebf0b1ba0bbdf9288646d44d3c72bb330001f8fee4d4f89981a89ab4890bf99efd34fe019a06738f208dc53a57ec8d4924be148cb3242f8b85bbb468a02227b708ae8c3d79a",
                    "logs" : "0x1dcc4de8dec75d7aab85b567b6ccd41ad312451b948a7413f0a142fd40d49347"
                },
                {
                    "indexes" : {
                        "data" : 2,
                        "gas" : 0,
                        "value" : 0
                    },
                    "hash" : "0xbfda7124b045994fee85510251ebec166ddc25e28d1046ada3048d7449e287e5",
                    "txbytes" : "0xf874800a830aae6094b94f5374fce5edbc8e2a8697c15331677e6ebf0b8094e94f5374fce5edbc8e2a8697c15331677e6ebf0b1ba0ac8623851b95b191cfc629b94bf57b258abf465dc37ea5ec02d116967f2c3586a011bfa4a965097b6c8941d8a88d5c186bbbb5a3872789c4d855c6dab61a10f457",
                    "logs" : "0x1dcc4de8dec75d7aab85b567b6ccd41ad312451b948a7413f0a142fd40d49347"
                },
                {
                    "indexes" : {
                        "data" : 3,
                        "gas" : 0,
                        "value" : 0
                    },
                    "hash" : "0xbfda7124b045994fee85510251ebec166ddc25e28d1046ada3048d7449e287e5",
                    "txbytes" : "0xf874800a830aae6094b94f5374fce5edbc8e2a8697c15331677e6ebf0b8094f94f5374fce5edbc8e2a8697c15331677e6ebf0b1ba063f9af09465d66c0a7b3d7345d01b98b276a68e52a44c20b8ce3ba1b8e775b85a001484b795dcfe4eee973ec9c777e295653e3ce719e5c2f9ecb943e4d09990c0e",
                    "logs" : "0x1dcc4de8dec75d7aab85b567b6ccd41ad312451b948a7413f0a142fd40d49347"
                }
            ],
            "London" : [
                {
                    "indexes" : {
                        "data" : 0,
                        "gas" : 0,
                        "value" : 0
                    },
                    "hash" : "0x9b6d44f975573396c9d4f467743682428b69a27f282aabbaf96219f54c0649c9",
                    "txbytes" : "0xf874800a830aae6094b94f5374fce5edbc8e2a8697c15331677e6ebf0b8094c94f5374fce5edbc8e2a8697c15331677e6ebf0b1ba00f2fcdd4b12c82b225c6fa285c8bb5ec12173696d7e4dbca308a32dae03f2a8fa036144afe01bd2cba73e7afe4cefaeb5051f19c07cc4d81a508bdb50cfcd5451d",
                    "logs" : "0x1dcc4de8dec75d7aab85b567b6ccd41ad312451b948a7413f0a142fd40d49347"
                },
                {
                    "indexes" : {
                        "data" : 1,
                        "gas" : 0,
                        "value" : 0
                    },
                    "hash" : "0x9b6d44f975573396c9d4f467743682428b69a27f282aabbaf96219f54c0649c9",
                    "txbytes" : "0xf874800a830aae6094b94f5374fce5edbc8e2a8697c15331677e6ebf0b8094d94f5374fce5edbc8e2a8697c15331677e6ebf0b1ba0bbdf9288646d44d3c72bb330001f8fee4d4f89981a89ab4890bf99efd34fe019a06738f208dc53a57ec8d4924be148cb3242f8b85bbb468a02227b708ae8c3d79a",
                    "logs" : "0x1dcc4de8dec75d7aab85b567b6ccd41ad312451b948a7413f0a142fd40d49347"
                },
                {
                    "indexes" : {
                        "data" : 2,
                        "gas" : 0,
                        "value" : 0
                    },
                    "hash" : "0x9b6d44f975573396c9d4f467743682428b69a27f282aabbaf96219f54c0649c9",
                    "txbytes" : "0xf874800a830aae6094b94f5374fce5edbc8e2a8697c15331677e6ebf0b8094e94f5374fce5edbc8e2a8697c15331677e6ebf0b1ba0ac8623851b95b191cfc629b94bf57b258abf465dc37ea5ec02d116967f2c3586a011bfa4a965097b6c8941d8a88d5c186bbbb5a3872789c4d855c6dab61a10f457",
                    "logs" : "0x1dcc4de8dec75d7aab85b567b6ccd41ad312451b948a7413f0a142fd40d49347"
                },
                {
                    "indexes" : {
                        "data" : 3,
                        "gas" : 0,
                        "value" : 0
                    },
                    "hash" : "0x9b6d44f975573396c9d4f467743682428b69a27f282aabbaf96219f54c0649c9",
                    "txbytes" : "0xf874800a830aae6094b94f5374fce5edbc8e2a8697c15331677e6ebf0b8094f94f5374fce5edbc8e2a8697c15331677e6ebf0b1ba063f9af09465d66c0a7b3d7345d01b98b276a68e52a44c20b8ce3ba1b8e775b85a001484b795dcfe4eee973ec9c777e295653e3ce719e5c2f9ecb943e4d09990c0e",
                    "logs" : "0x1dcc4de8dec75d7aab85b567b6ccd41ad312451b948a7413f0a142fd40d49347"
                }
            ],
            "London+3540" : [
                {
                    "indexes" : {
                        "data" : 0,
                        "gas" : 0,
                        "value" : 0
                    },
                    "hash" : "0x8280b4c91e32218b76b85b032e30d4f23ddf155eee7bd83a01d607d684ae01a6",
                    "txbytes" : "0xf874800a830aae6094b94f5374fce5edbc8e2a8697c15331677e6ebf0b8094c94f5374fce5edbc8e2a8697c15331677e6ebf0b1ba00f2fcdd4b12c82b225c6fa285c8bb5ec12173696d7e4dbca308a32dae03f2a8fa036144afe01bd2cba73e7afe4cefaeb5051f19c07cc4d81a508bdb50cfcd5451d",
                    "logs" : "0x1dcc4de8dec75d7aab85b567b6ccd41ad312451b948a7413f0a142fd40d49347"
                },
                {
                    "indexes" : {
                        "data" : 1,
                        "gas" : 0,
                        "value" : 0
                    },
                    "hash" : "0x9b6d44f975573396c9d4f467743682428b69a27f282aabbaf96219f54c0649c9",
                    "txbytes" : "0xf874800a830aae6094b94f5374fce5edbc8e2a8697c15331677e6ebf0b8094d94f5374fce5edbc8e2a8697c15331677e6ebf0b1ba0bbdf9288646d44d3c72bb330001f8fee4d4f89981a89ab4890bf99efd34fe019a06738f208dc53a57ec8d4924be148cb3242f8b85bbb468a02227b708ae8c3d79a",
                    "logs" : "0x1dcc4de8dec75d7aab85b567b6ccd41ad312451b948a7413f0a142fd40d49347"
                },
                {
                    "indexes" : {
                        "data" : 2,
                        "gas" : 0,
                        "value" : 0
                    },
                    "hash" : "0x9b6d44f975573396c9d4f467743682428b69a27f282aabbaf96219f54c0649c9",
                    "txbytes" : "0xf874800a830aae6094b94f5374fce5edbc8e2a8697c15331677e6ebf0b8094e94f5374fce5edbc8e2a8697c15331677e6ebf0b1ba0ac8623851b95b191cfc629b94bf57b258abf465dc37ea5ec02d116967f2c3586a011bfa4a965097b6c8941d8a88d5c186bbbb5a3872789c4d855c6dab61a10f457",
                    "logs" : "0x1dcc4de8dec75d7aab85b567b6ccd41ad312451b948a7413f0a142fd40d49347"
                },
                {
                    "indexes" : {
                        "data" : 3,
                        "gas" : 0,
                        "value" : 0
                    },
                    "hash" : "0x9b6d44f975573396c9d4f467743682428b69a27f282aabbaf96219f54c0649c9",
                    "txbytes" : "0xf874800a830aae6094b94f5374fce5edbc8e2a8697c15331677e6ebf0b8094f94f5374fce5edbc8e2a8697c15331677e6ebf0b1ba063f9af09465d66c0a7b3d7345d01b98b276a68e52a44c20b8ce3ba1b8e775b85a001484b795dcfe4eee973ec9c777e295653e3ce719e5c2f9ecb943e4d09990c0e",
                    "logs" : "0x1dcc4de8dec75d7aab85b567b6ccd41ad312451b948a7413f0a142fd40d49347"
                }
            ]
        },
        "pre" : {
            "0xa94f5374fce5edbc8e2a8697c15331677e6ebf0b" : {
                "balance" : "0x989680",
                "code" : "0x",
                "nonce" : "0x00",
                "storage" : {
                }
            },
            "0xb94f5374fce5edbc8e2a8697c15331677e6ebf0b" : {
                "balance" : "0x00",
                "code" : "0x6000600060006000600060003560601c620186a0f1600055",
                "nonce" : "0x00",
                "storage" : {
                }
            },
            "0xc94f5374fce5edbc8e2a8697c15331677e6ebf0b" : {
                "balance" : "0x00",
                "code" : "0xefcafe0101000600600160005500",
                "nonce" : "0x00",
                "storage" : {
                }
            },
            "0xd94f5374fce5edbc8e2a8697c15331677e6ebf0b" : {
                "balance" : "0x00",
                "code" : "0xefcafe01010005006001600055",
                "nonce" : "0x00",
                "storage" : {
                }
            },
            "0xe94f5374fce5edbc8e2a8697c15331677e6ebf0b" : {
                "balance" : "0x00",
                "code" : "0xefcafe01010005020006006001600055600160015500",
                "nonce" : "0x00",
                "storage" : {
                }
            },
            "0xf94f5374fce5edbc8e2a8697c15331677e6ebf0b" : {
                "balance" : "0x00",
                "code" : "0xefcafe0101000402000800600f56005b600160005500",
                "nonce" : "0x00",
                "storage" : {
                }
            }
        },
        "transaction" : {
            "data" : [
                "0xc94f5374fce5edbc8e2a8697c15331677e6ebf0b",
                "0xd94f5374fce5edbc8e2a8697c15331677e6ebf0b",
                "0xe94f5374fce5edbc8e2a8697c15331677e6ebf0b",
                "0xf94f5374fce5edbc8e2a8697c15331677e6ebf0b"
            ],
            "gasPrice" : "0x0a",
            "gasLimit" : [
                "0x0aae60"
            ],
            "nonce" : "0x00",
            "secretKey" : "0x45a915e4d060149eb4365960e6a7a45f334393093061116b197e3240065ff2d8",
            "to" : "0xb94f5374fce5edbc8e2a8697c15331677e6ebf0b",
            "value" : [
                "0x00"
            ]
        }
    }
}