{
    "callDelegate_d0g0v0_Byzantium" : {
        "_info" : {
            "comment" : "",
            "filledwith" : "testeth 1.5.0-alpha.6",
            "lllcversion" : "Version: 0.5.0-develop.2018.11.8+commit.20481055.Linux.g++",
            "source" : "src/BlockchainTestsFiller/GeneralStateTests/stEWASMTests/callDelegate_d0g0v0Filler.json",
            "sourceHash" : "70e9a62c9d6eeb884e56b62945d228759ce8a66a83a8f386269935a44a8fe688"
        },
        "blocks" : [
            {
                "blockHeader" : {
                    "bloom" : "0x00000000000000000000000000000000000000000000000000000000000000000000000000000000000000000000000000000000000000000000000000000000000000000000000000000000000000000000000000000000000000000000000000000000000000000000000000000000000000000000000000000000000000000000000000000000000000000000000000000000000000000000000000000000000000000000000000000000000000000000000000000000000000000000000000000000000000000000000000000000000000000000000000000000000000000000000000000000000000000000000000000000000000000000000000000000",
                    "coinbase" : "0x2adc25665018aa1fe0e6bc666dac8fc2697ff9ba",
                    "difficulty" : "0x020000",
                    "extraData" : "",
                    "gasLimit" : "0x05500000",
                    "gasUsed" : "0xa2e6",
                    "hash" : "0x764e74c0e45151b9ed254a44ab778c89e8daf4ad5d9e4a9f0485e522559dea13",
                    "mixHash" : "0x0000000000000000000000000000000000000000000000000000000000000000",
                    "nonce" : "0x0000000000000000",
                    "number" : "0x01",
                    "parentHash" : "0xc2d38d523ca997876b1658c002e00a63989f12666b92dce83e429b7d869624ec",
                    "receiptTrie" : "0xf51d3ee05c2b5e348ae28734d42dd22ff3a0e41322164b7942be82fafbe14a88",
                    "stateRoot" : "0x5cde939c29b0bfc6d02e4a555839b728bc9ee486d68cff70c6f69abc82e2083f",
                    "timestamp" : "0x03e8",
                    "transactionsTrie" : "0xd2e11f5f045bd5dea6694faec6a17bfc5df167a25457b21ca53a063ecb1e9f48",
                    "uncleHash" : "0x1dcc4de8dec75d7aab85b567b6ccd41ad312451b948a7413f0a142fd40d49347"
                },
                "rlp" : "0xf90260f901f8a0c2d38d523ca997876b1658c002e00a63989f12666b92dce83e429b7d869624eca01dcc4de8dec75d7aab85b567b6ccd41ad312451b948a7413f0a142fd40d49347942adc25665018aa1fe0e6bc666dac8fc2697ff9baa05cde939c29b0bfc6d02e4a555839b728bc9ee486d68cff70c6f69abc82e2083fa0d2e11f5f045bd5dea6694faec6a17bfc5df167a25457b21ca53a063ecb1e9f48a0f51d3ee05c2b5e348ae28734d42dd22ff3a0e41322164b7942be82fafbe14a88b90100000000000000000000000000000000000000000000000000000000000000000000000000000000000000000000000000000000000000000000000000000000000000000000000000000000000000000000000000000000000000000000000000000000000000000000000000000000000000000000000000000000000000000000000000000000000000000000000000000000000000000000000000000000000000000000000000000000000000000000000000000000000000000000000000000000000000000000000000000000000000000000000000000000000000000000000000000000000000000000000000000000000000000000000000000000008302000001840550000082a2e68203e880a00000000000000000000000000000000000000000000000000000000000000000880000000000000000f862f86080018350000094b10000000000000000000000000000000000000180801ca0299b6399c811b27a175e2c6bab02feac5034711ec6ea518298f50e8e6b71bdbca033f93c3c16736a9cbc4960ab1515f60016ef39a1c90e79770c96c3b2717e498cc0",
                "transactions" : [
                    {
                        "data" : "0x",
                        "gasLimit" : "0x500000",
                        "gasPrice" : "0x01",
                        "nonce" : "0x00",
                        "r" : "0x299b6399c811b27a175e2c6bab02feac5034711ec6ea518298f50e8e6b71bdbc",
                        "s" : "0x33f93c3c16736a9cbc4960ab1515f60016ef39a1c90e79770c96c3b2717e498c",
                        "to" : "0xb100000000000000000000000000000000000001",
                        "v" : "0x1c",
                        "value" : "0x00"
                    }
                ],
                "uncleHeaders" : [
                ]
            }
        ],
        "genesisBlockHeader" : {
            "bloom" : "0x00000000000000000000000000000000000000000000000000000000000000000000000000000000000000000000000000000000000000000000000000000000000000000000000000000000000000000000000000000000000000000000000000000000000000000000000000000000000000000000000000000000000000000000000000000000000000000000000000000000000000000000000000000000000000000000000000000000000000000000000000000000000000000000000000000000000000000000000000000000000000000000000000000000000000000000000000000000000000000000000000000000000000000000000000000000",
            "coinbase" : "0x2adc25665018aa1fe0e6bc666dac8fc2697ff9ba",
            "difficulty" : "0x020000",
            "extraData" : "0x42",
            "gasLimit" : "0x05500000",
            "gasUsed" : "0x00",
            "hash" : "0xc2d38d523ca997876b1658c002e00a63989f12666b92dce83e429b7d869624ec",
            "mixHash" : "0x56e81f171bcc55a6ff8345e692c0f86e5b48e01b996cadc001622fb5e363b421",
            "nonce" : "0x0102030405060708",
            "number" : "0x00",
            "parentHash" : "0x0000000000000000000000000000000000000000000000000000000000000000",
            "receiptTrie" : "0x56e81f171bcc55a6ff8345e692c0f86e5b48e01b996cadc001622fb5e363b421",
            "stateRoot" : "0xf5e4f0cee31d4f2b558cc97a4b4134129d5ea7326bc20d49e4c9dd460b0c4c39",
            "timestamp" : "0x03b6",
            "transactionsTrie" : "0x56e81f171bcc55a6ff8345e692c0f86e5b48e01b996cadc001622fb5e363b421",
            "uncleHash" : "0x1dcc4de8dec75d7aab85b567b6ccd41ad312451b948a7413f0a142fd40d49347"
        },
        "genesisRLP" : "0xf901fbf901f6a00000000000000000000000000000000000000000000000000000000000000000a01dcc4de8dec75d7aab85b567b6ccd41ad312451b948a7413f0a142fd40d49347942adc25665018aa1fe0e6bc666dac8fc2697ff9baa0f5e4f0cee31d4f2b558cc97a4b4134129d5ea7326bc20d49e4c9dd460b0c4c39a056e81f171bcc55a6ff8345e692c0f86e5b48e01b996cadc001622fb5e363b421a056e81f171bcc55a6ff8345e692c0f86e5b48e01b996cadc001622fb5e363b421b901000000000000000000000000000000000000000000000000000000000000000000000000000000000000000000000000000000000000000000000000000000000000000000000000000000000000000000000000000000000000000000000000000000000000000000000000000000000000000000000000000000000000000000000000000000000000000000000000000000000000000000000000000000000000000000000000000000000000000000000000000000000000000000000000000000000000000000000000000000000000000000000000000000000000000000000000000000000000000000000000000000000000000000000000000000000083020000808405500000808203b642a056e81f171bcc55a6ff8345e692c0f86e5b48e01b996cadc001622fb5e363b421880102030405060708c0c0",
        "lastblockhash" : "0x764e74c0e45151b9ed254a44ab778c89e8daf4ad5d9e4a9f0485e522559dea13",
        "network" : "Byzantium",
        "postState" : {
            "0x2adc25665018aa1fe0e6bc666dac8fc2697ff9ba" : {
                "balance" : "0x29a2241af62ca2e6",
                "code" : "",
                "nonce" : "0x00",
                "storage" : {
                }
            },
            "0xa94f5374fce5edbc8e2a8697c15331677e6ebf0b" : {
                "balance" : "0x174876451a",
                "code" : "",
                "nonce" : "0x01",
                "storage" : {
                }
            },
            "0xb100000000000000000000000000000000000001" : {
                "balance" : "0x174876e800",
                "code" : "0x0061736d01000000010c0260047e7f7f7f017f60000002190108657468657265756d0c63616c6c44656c65676174650000030201010503010001071102046d61696e0001066d656d6f727902000a15011300413642c09a0c41004114410210003602000b0b21020041000b14c1000000000000000000000000000000000000010041140b021234",
                "nonce" : "0x00",
                "storage" : {
                    "0x00" : "0xb100000000000000000000000000000000000001000000000000000000000000"
                }
            },
            "0xc100000000000000000000000000000000000001" : {
                "balance" : "0x174876e800",
                "code" : "0x0061736d01000000010d0360017f0060027f7f0060000002410308657468657265756d0a67657441646472657373000008657468657265756d0c73746f7261676553746f7265000108657468657265756d0666696e6973680001030201020503010001071102046d61696e0003066d656d6f727902000a150113004120100041004120100141c000410210020b0b09010041c0000b023132",
                "nonce" : "0x00",
                "storage" : {
                }
            }
        },
        "pre" : {
            "0xa94f5374fce5edbc8e2a8697c15331677e6ebf0b" : {
                "balance" : "0x174876e800",
                "code" : "",
                "nonce" : "0x00",
                "storage" : {
                }
            },
            "0xb100000000000000000000000000000000000001" : {
                "balance" : "0x174876e800",
                "code" : "0x0061736d01000000010c0260047e7f7f7f017f60000002190108657468657265756d0c63616c6c44656c65676174650000030201010503010001071102046d61696e0001066d656d6f727902000a15011300413642c09a0c41004114410210003602000b0b21020041000b14c1000000000000000000000000000000000000010041140b021234",
                "nonce" : "0x00",
                "storage" : {
                }
            },
            "0xc100000000000000000000000000000000000001" : {
                "balance" : "0x174876e800",
                "code" : "0x0061736d01000000010d0360017f0060027f7f0060000002410308657468657265756d0a67657441646472657373000008657468657265756d0c73746f7261676553746f7265000108657468657265756d0666696e6973680001030201020503010001071102046d61696e0003066d656d6f727902000a150113004120100041004120100141c000410210020b0b09010041c0000b023132",
                "nonce" : "0x00",
                "storage" : {
                }
            }
        },
        "sealEngine" : "NoProof"
    }
}