{
    "callDelegateOOG_d0g0v0_Byzantium" : {
        "_info" : {
            "comment" : "",
            "filledwith" : "testeth 1.5.0-alpha.6",
            "lllcversion" : "Version: 0.5.0-develop.2018.11.8+commit.20481055.Linux.g++",
            "source" : "src/BlockchainTestsFiller/GeneralStateTests/stEWASMTests/callDelegateOOG_d0g0v0Filler.json",
            "sourceHash" : "206b0bdca465e286ad3fb2df330551f7777885bb5567b4a9be4051fc803558b3"
        },
        "blocks" : [
            {
                "blockHeader" : {
                    "bloom" : "0x00000000000000000000000000000000000000000000000000000000000000000000000000000000000000000000000000000000000000000000000000000000000000000000000000000000000000000000000000000000000000000000000000000000000000000000000000000000000000000000000000000000000000000000000000000000000000000000000000000000000000000000000000000000000000000000000000000000000000000000000000000000000000000000000000000000000000000000000000000000000000000000000000000000000000000000000000000000000000000000000000000000000000000000000000000000",
                    "coinbase" : "0x2adc25665018aa1fe0e6bc666dac8fc2697ff9ba",
                    "difficulty" : "0x020000",
                    "extraData" : "",
                    "gasLimit" : "0x05500000",
                    "gasUsed" : "0xf105",
                    "hash" : "0xbebe309cac4d2297516d6e872f3b3e6840fff99a18667167ba25fc5fd7d332f9",
                    "mixHash" : "0x0000000000000000000000000000000000000000000000000000000000000000",
                    "nonce" : "0x0000000000000000",
                    "number" : "0x01",
                    "parentHash" : "0xb9bf0a17bed1037c861ad1f89554e58b08da4d6177ac07e58f233de7c9821f86",
                    "receiptTrie" : "0x7ec87dfd467cd97f013a143b2212254144baf3a82d00f518743753eefeb550be",
                    "stateRoot" : "0x4e7690a078b37edabe5cd1bf7a0347438c33c50b98e58204b81aaf16ee9ddd48",
                    "timestamp" : "0x03e8",
                    "transactionsTrie" : "0xd2e11f5f045bd5dea6694faec6a17bfc5df167a25457b21ca53a063ecb1e9f48",
                    "uncleHash" : "0x1dcc4de8dec75d7aab85b567b6ccd41ad312451b948a7413f0a142fd40d49347"
                },
                "rlp" : "0xf90260f901f8a0b9bf0a17bed1037c861ad1f89554e58b08da4d6177ac07e58f233de7c9821f86a01dcc4de8dec75d7aab85b567b6ccd41ad312451b948a7413f0a142fd40d49347942adc25665018aa1fe0e6bc666dac8fc2697ff9baa04e7690a078b37edabe5cd1bf7a0347438c33c50b98e58204b81aaf16ee9ddd48a0d2e11f5f045bd5dea6694faec6a17bfc5df167a25457b21ca53a063ecb1e9f48a07ec87dfd467cd97f013a143b2212254144baf3a82d00f518743753eefeb550beb90100000000000000000000000000000000000000000000000000000000000000000000000000000000000000000000000000000000000000000000000000000000000000000000000000000000000000000000000000000000000000000000000000000000000000000000000000000000000000000000000000000000000000000000000000000000000000000000000000000000000000000000000000000000000000000000000000000000000000000000000000000000000000000000000000000000000000000000000000000000000000000000000000000000000000000000000000000000000000000000000000000000000000000000000000000000008302000001840550000082f1058203e880a00000000000000000000000000000000000000000000000000000000000000000880000000000000000f862f86080018350000094b10000000000000000000000000000000000000180801ca0299b6399c811b27a175e2c6bab02feac5034711ec6ea518298f50e8e6b71bdbca033f93c3c16736a9cbc4960ab1515f60016ef39a1c90e79770c96c3b2717e498cc0",
                "transactions" : [
                    {
                        "data" : "0x",
                        "gasLimit" : "0x500000",
                        "gasPrice" : "0x01",
                        "nonce" : "0x00",
                        "r" : "0x299b6399c811b27a175e2c6bab02feac5034711ec6ea518298f50e8e6b71bdbc",
                        "s" : "0x33f93c3c16736a9cbc4960ab1515f60016ef39a1c90e79770c96c3b2717e498c",
                        "to" : "0xb100000000000000000000000000000000000001",
                        "v" : "0x1c",
                        "value" : "0x00"
                    }
                ],
                "uncleHeaders" : [
                ]
            }
        ],
        "genesisBlockHeader" : {
            "bloom" : "0x00000000000000000000000000000000000000000000000000000000000000000000000000000000000000000000000000000000000000000000000000000000000000000000000000000000000000000000000000000000000000000000000000000000000000000000000000000000000000000000000000000000000000000000000000000000000000000000000000000000000000000000000000000000000000000000000000000000000000000000000000000000000000000000000000000000000000000000000000000000000000000000000000000000000000000000000000000000000000000000000000000000000000000000000000000000",
            "coinbase" : "0x2adc25665018aa1fe0e6bc666dac8fc2697ff9ba",
            "difficulty" : "0x020000",
            "extraData" : "0x42",
            "gasLimit" : "0x05500000",
            "gasUsed" : "0x00",
            "hash" : "0xb9bf0a17bed1037c861ad1f89554e58b08da4d6177ac07e58f233de7c9821f86",
            "mixHash" : "0x56e81f171bcc55a6ff8345e692c0f86e5b48e01b996cadc001622fb5e363b421",
            "nonce" : "0x0102030405060708",
            "number" : "0x00",
            "parentHash" : "0x0000000000000000000000000000000000000000000000000000000000000000",
            "receiptTrie" : "0x56e81f171bcc55a6ff8345e692c0f86e5b48e01b996cadc001622fb5e363b421",
            "stateRoot" : "0xac6428465d877b3d6292a587a3a9f08ca5e1e1fc17e1b594231103db1e350042",
            "timestamp" : "0x03b6",
            "transactionsTrie" : "0x56e81f171bcc55a6ff8345e692c0f86e5b48e01b996cadc001622fb5e363b421",
            "uncleHash" : "0x1dcc4de8dec75d7aab85b567b6ccd41ad312451b948a7413f0a142fd40d49347"
        },
        "genesisRLP" : "0xf901fbf901f6a00000000000000000000000000000000000000000000000000000000000000000a01dcc4de8dec75d7aab85b567b6ccd41ad312451b948a7413f0a142fd40d49347942adc25665018aa1fe0e6bc666dac8fc2697ff9baa0ac6428465d877b3d6292a587a3a9f08ca5e1e1fc17e1b594231103db1e350042a056e81f171bcc55a6ff8345e692c0f86e5b48e01b996cadc001622fb5e363b421a056e81f171bcc55a6ff8345e692c0f86e5b48e01b996cadc001622fb5e363b421b901000000000000000000000000000000000000000000000000000000000000000000000000000000000000000000000000000000000000000000000000000000000000000000000000000000000000000000000000000000000000000000000000000000000000000000000000000000000000000000000000000000000000000000000000000000000000000000000000000000000000000000000000000000000000000000000000000000000000000000000000000000000000000000000000000000000000000000000000000000000000000000000000000000000000000000000000000000000000000000000000000000000000000000000000000000000083020000808405500000808203b642a056e81f171bcc55a6ff8345e692c0f86e5b48e01b996cadc001622fb5e363b421880102030405060708c0c0",
        "lastblockhash" : "0xbebe309cac4d2297516d6e872f3b3e6840fff99a18667167ba25fc5fd7d332f9",
        "network" : "Byzantium",
        "postState" : {
            "0x2adc25665018aa1fe0e6bc666dac8fc2697ff9ba" : {
                "balance" : "0x29a2241af62cf105",
                "code" : "",
                "nonce" : "0x00",
                "storage" : {
                }
            },
            "0xa94f5374fce5edbc8e2a8697c15331677e6ebf0b" : {
                "balance" : "0x174875f6fb",
                "code" : "",
                "nonce" : "0x01",
                "storage" : {
                }
            },
            "0xb100000000000000000000000000000000000001" : {
                "balance" : "0x174876e800",
                "code" : "0x0061736d0100000001110360047e7f7f7f017f60027f7f0060000002310208657468657265756d0c63616c6c44656c6567617465000008657468657265756d0c73746f7261676553746f72650001030201020503010001071102046d61696e0002066d656d6f727902000a38013602057f017e42a19c0121054100210041142101410221024136210341d60021042003200520002001200210003602002004200310010b0b21020041000b14c1000000000000000000000000000000000000010041140b021234",
                "nonce" : "0x00",
                "storage" : {
                    "0x00" : "0x0100000000000000000000000000000000000000000000000000000000000000"
                }
            },
            "0xc100000000000000000000000000000000000001" : {
                "balance" : "0x174876e800",
                "code" : "0x0061736d01000000010d0360017f0060027f7f0060000002410308657468657265756d0a67657441646472657373000008657468657265756d0c73746f7261676553746f7265000108657468657265756d0666696e6973680001030201020503010001071102046d61696e0003066d656d6f727902000a150113004120100041004120100141c000410210020b0b09010041c0000b023132",
                "nonce" : "0x00",
                "storage" : {
                }
            }
        },
        "pre" : {
            "0xa94f5374fce5edbc8e2a8697c15331677e6ebf0b" : {
                "balance" : "0x174876e800",
                "code" : "",
                "nonce" : "0x00",
                "storage" : {
                }
            },
            "0xb100000000000000000000000000000000000001" : {
                "balance" : "0x174876e800",
                "code" : "0x0061736d0100000001110360047e7f7f7f017f60027f7f0060000002310208657468657265756d0c63616c6c44656c6567617465000008657468657265756d0c73746f7261676553746f72650001030201020503010001071102046d61696e0002066d656d6f727902000a38013602057f017e42a19c0121054100210041142101410221024136210341d60021042003200520002001200210003602002004200310010b0b21020041000b14c1000000000000000000000000000000000000010041140b021234",
                "nonce" : "0x00",
                "storage" : {
                }
            },
            "0xc100000000000000000000000000000000000001" : {
                "balance" : "0x174876e800",
                "code" : "0x0061736d01000000010d0360017f0060027f7f0060000002410308657468657265756d0a67657441646472657373000008657468657265756d0c73746f7261676553746f7265000108657468657265756d0666696e6973680001030201020503010001071102046d61696e0003066d656d6f727902000a150113004120100041004120100141c000410210020b0b09010041c0000b023132",
                "nonce" : "0x00",
                "storage" : {
                }
            }
        },
        "sealEngine" : "NoProof"
    }
}