{
    "callValueInStaticMode_d0g0v0_Byzantium" : {
        "_info" : {
            "comment" : "",
            "filledwith" : "testeth 1.5.0-alpha.6",
            "lllcversion" : "Version: 0.5.0-develop.2018.11.8+commit.20481055.Linux.g++",
            "source" : "src/BlockchainTestsFiller/GeneralStateTests/stEWASMTests/callValueInStaticMode_d0g0v0Filler.json",
            "sourceHash" : "4394a2468266f6b70f39305329ec806e6db9a54f700f1ef2d8246da4db7f5314"
        },
        "blocks" : [
            {
                "blockHeader" : {
                    "bloom" : "0x00000000000000000000000000000000000000000000000000000000000000000000000000000000000000000000000000000000000000000000000000000000000000000000000000000000000000000000000000000000000000000000000000000000000000000000000000000000000000000000000000000000000000000000000000000000000000000000000000000000000000000000000000000000000000000000000000000000000000000000000000000000000000000000000000000000000000000000000000000000000000000000000000000000000000000000000000000000000000000000000000000000000000000000000000000000",
                    "coinbase" : "0x2adc25665018aa1fe0e6bc666dac8fc2697ff9ba",
                    "difficulty" : "0x020000",
                    "extraData" : "",
                    "gasLimit" : "0x05500000",
                    "gasUsed" : "0x036204",
                    "hash" : "0x8adcc5b94524bc5a0f642276419cd0461f5e6c4a8486a0cf775c4bdc0ba4e2b7",
                    "mixHash" : "0x0000000000000000000000000000000000000000000000000000000000000000",
                    "nonce" : "0x0000000000000000",
                    "number" : "0x01",
                    "parentHash" : "0xd100f6f46b3af774400c40763572a9dbb9a595d45f5e720ba15d8241be3b00ec",
                    "receiptTrie" : "0xec234fca0502dc6965dd33a69c7a90c0cd88461c049a778fb989a95268384033",
                    "stateRoot" : "0x5166d481cf272251281b949319f348156f46b8a2509d0eeb0f416071681479da",
                    "timestamp" : "0x03e8",
                    "transactionsTrie" : "0x6eb4fedf0295e87e280496b54f5d44ce6323073c669a3b07863f12bb3459a699",
                    "uncleHash" : "0x1dcc4de8dec75d7aab85b567b6ccd41ad312451b948a7413f0a142fd40d49347"
                },
                "rlp" : "0xf90262f901f9a0d100f6f46b3af774400c40763572a9dbb9a595d45f5e720ba15d8241be3b00eca01dcc4de8dec75d7aab85b567b6ccd41ad312451b948a7413f0a142fd40d49347942adc25665018aa1fe0e6bc666dac8fc2697ff9baa05166d481cf272251281b949319f348156f46b8a2509d0eeb0f416071681479daa06eb4fedf0295e87e280496b54f5d44ce6323073c669a3b07863f12bb3459a699a0ec234fca0502dc6965dd33a69c7a90c0cd88461c049a778fb989a95268384033b901000000000000000000000000000000000000000000000000000000000000000000000000000000000000000000000000000000000000000000000000000000000000000000000000000000000000000000000000000000000000000000000000000000000000000000000000000000000000000000000000000000000000000000000000000000000000000000000000000000000000000000000000000000000000000000000000000000000000000000000000000000000000000000000000000000000000000000000000000000000000000000000000000000000000000000000000000000000000000000000000000000000000000000000000000000000083020000018405500000830362048203e880a00000000000000000000000000000000000000000000000000000000000000000880000000000000000f863f8618001840500000194deadbeef0000000000000000000000000000000080801ca0c7665499a4df8df60d5788720130e9c7a1670e11ab3f55612155b404d3aed41ea038494cb086ae71d94d921be06faa8088f905467fd4b03736d6cbb0251fa2bc73c0",
                "transactions" : [
                    {
                        "data" : "0x",
                        "gasLimit" : "0x05000001",
                        "gasPrice" : "0x01",
                        "nonce" : "0x00",
                        "r" : "0xc7665499a4df8df60d5788720130e9c7a1670e11ab3f55612155b404d3aed41e",
                        "s" : "0x38494cb086ae71d94d921be06faa8088f905467fd4b03736d6cbb0251fa2bc73",
                        "to" : "0xdeadbeef00000000000000000000000000000000",
                        "v" : "0x1c",
                        "value" : "0x00"
                    }
                ],
                "uncleHeaders" : [
                ]
            }
        ],
        "genesisBlockHeader" : {
            "bloom" : "0x00000000000000000000000000000000000000000000000000000000000000000000000000000000000000000000000000000000000000000000000000000000000000000000000000000000000000000000000000000000000000000000000000000000000000000000000000000000000000000000000000000000000000000000000000000000000000000000000000000000000000000000000000000000000000000000000000000000000000000000000000000000000000000000000000000000000000000000000000000000000000000000000000000000000000000000000000000000000000000000000000000000000000000000000000000000",
            "coinbase" : "0x2adc25665018aa1fe0e6bc666dac8fc2697ff9ba",
            "difficulty" : "0x020000",
            "extraData" : "0x42",
            "gasLimit" : "0x05500000",
            "gasUsed" : "0x00",
            "hash" : "0xd100f6f46b3af774400c40763572a9dbb9a595d45f5e720ba15d8241be3b00ec",
            "mixHash" : "0x56e81f171bcc55a6ff8345e692c0f86e5b48e01b996cadc001622fb5e363b421",
            "nonce" : "0x0102030405060708",
            "number" : "0x00",
            "parentHash" : "0x0000000000000000000000000000000000000000000000000000000000000000",
            "receiptTrie" : "0x56e81f171bcc55a6ff8345e692c0f86e5b48e01b996cadc001622fb5e363b421",
            "stateRoot" : "0x276b543fc4dcd5d9beb5f113b10bea4af80e853dbcedc573953b34c5a07dca0a",
            "timestamp" : "0x03b6",
            "transactionsTrie" : "0x56e81f171bcc55a6ff8345e692c0f86e5b48e01b996cadc001622fb5e363b421",
            "uncleHash" : "0x1dcc4de8dec75d7aab85b567b6ccd41ad312451b948a7413f0a142fd40d49347"
        },
        "genesisRLP" : "0xf901fbf901f6a00000000000000000000000000000000000000000000000000000000000000000a01dcc4de8dec75d7aab85b567b6ccd41ad312451b948a7413f0a142fd40d49347942adc25665018aa1fe0e6bc666dac8fc2697ff9baa0276b543fc4dcd5d9beb5f113b10bea4af80e853dbcedc573953b34c5a07dca0aa056e81f171bcc55a6ff8345e692c0f86e5b48e01b996cadc001622fb5e363b421a056e81f171bcc55a6ff8345e692c0f86e5b48e01b996cadc001622fb5e363b421b901000000000000000000000000000000000000000000000000000000000000000000000000000000000000000000000000000000000000000000000000000000000000000000000000000000000000000000000000000000000000000000000000000000000000000000000000000000000000000000000000000000000000000000000000000000000000000000000000000000000000000000000000000000000000000000000000000000000000000000000000000000000000000000000000000000000000000000000000000000000000000000000000000000000000000000000000000000000000000000000000000000000000000000000000000000000083020000808405500000808203b642a056e81f171bcc55a6ff8345e692c0f86e5b48e01b996cadc001622fb5e363b421880102030405060708c0c0",
        "lastblockhash" : "0x8adcc5b94524bc5a0f642276419cd0461f5e6c4a8486a0cf775c4bdc0ba4e2b7",
        "network" : "Byzantium",
        "postState" : {
            "0x2adc25665018aa1fe0e6bc666dac8fc2697ff9ba" : {
                "balance" : "0x29a2241af62f6204",
                "code" : "",
                "nonce" : "0x00",
                "storage" : {
                }
            },
            "0xa94f5374fce5edbc8e2a8697c15331677e6ebf0b" : {
                "balance" : "0x17487385fc",
                "code" : "",
                "nonce" : "0x01",
                "storage" : {
                }
            },
            "0xdeadbeef00000000000000000000000000000000" : {
                "balance" : "0x174876e800",
                "code" : "0x0061736d01000000010c0260047e7f7f7f017f60000002170108657468657265756d0a63616c6c5374617469630000030201010503010001071102046d61696e0001066d656d6f727902000a15011300411442c09a0c41004134410010003602000b0b1a010041000b14deadbeef00000000000000000000000000000001",
                "nonce" : "0x00",
                "storage" : {
                }
            },
            "0xdeadbeef00000000000000000000000000000001" : {
                "balance" : "0x174876e800",
                "code" : "0x0061736d01000000010d0260057e7f7f7f7f017f60000002110108657468657265756d0463616c6c0000030201010503010001071102066d656d6f72790200046d61696e00010a29012701037f4120210141c00021022001410a360200200042c09a0c410020012002410010003602000b0b1a010041000b14deadbeef00000000000000000000000000000002",
                "nonce" : "0x00",
                "storage" : {
                }
            },
            "0xdeadbeef00000000000000000000000000000002" : {
                "balance" : "0x174876e800",
                "code" : "",
                "nonce" : "0x00",
                "storage" : {
                }
            }
        },
        "pre" : {
            "0xa94f5374fce5edbc8e2a8697c15331677e6ebf0b" : {
                "balance" : "0x174876e800",
                "code" : "",
                "nonce" : "0x00",
                "storage" : {
                }
            },
            "0xdeadbeef00000000000000000000000000000000" : {
                "balance" : "0x174876e800",
                "code" : "0x0061736d01000000010c0260047e7f7f7f017f60000002170108657468657265756d0a63616c6c5374617469630000030201010503010001071102046d61696e0001066d656d6f727902000a15011300411442c09a0c41004134410010003602000b0b1a010041000b14deadbeef00000000000000000000000000000001",
                "nonce" : "0x00",
                "storage" : {
                }
            },
            "0xdeadbeef00000000000000000000000000000001" : {
                "balance" : "0x174876e800",
                "code" : "0x0061736d01000000010d0260057e7f7f7f7f017f60000002110108657468657265756d0463616c6c0000030201010503010001071102066d656d6f72790200046d61696e00010a29012701037f4120210141c00021022001410a360200200042c09a0c410020012002410010003602000b0b1a010041000b14deadbeef00000000000000000000000000000002",
                "nonce" : "0x00",
                "storage" : {
                }
            },
            "0xdeadbeef00000000000000000000000000000002" : {
                "balance" : "0x174876e800",
                "code" : "",
                "nonce" : "0x00",
                "storage" : {
                }
            }
        },
        "sealEngine" : "NoProof"
    }
}