{
    "callDataCopyInRust_d0g0v0_Byzantium" : {
        "_info" : {
            "comment" : "",
            "filledwith" : "testeth 1.5.0-alpha.6",
            "lllcversion" : "Version: 0.5.0-develop.2018.11.8+commit.20481055.Linux.g++",
            "source" : "src/BlockchainTestsFiller/GeneralStateTests/stEWASMTests/callDataCopyInRust_d0g0v0Filler.json",
            "sourceHash" : "9e6e2018d1c07cbb6b6ecd6a6784683b783d9079f619475c43999532ca971b10"
        },
        "blocks" : [
            {
                "blockHeader" : {
                    "bloom" : "0x00000000000000000000000000000000000000000000000000000000000000000000000000000000000000000000000000000000000000000000000000000000000000000000000000000000000000000000000000000000000000000000000000000000000000000000000000000000000000000000000000000000000000000000000000000000000000000000000000000000000000000000000000000000000000000000000000000000000000000000000000000000000000000000000000000000000000000000000000000000000000000000000000000000000000000000000000000000000000000000000000000000000000000000000000000000",
                    "coinbase" : "0x2adc25665018aa1fe0e6bc666dac8fc2697ff9ba",
                    "difficulty" : "0x020000",
                    "extraData" : "",
                    "gasLimit" : "0x05500000",
                    "gasUsed" : "0xa0b6",
                    "hash" : "0xdacd5f8209cc0a21f92421932346cfa31a5b18b8c900d97c4304337e471d8ae1",
                    "mixHash" : "0x0000000000000000000000000000000000000000000000000000000000000000",
                    "nonce" : "0x0000000000000000",
                    "number" : "0x01",
                    "parentHash" : "0x743dd978fc3c8c869723c92c19cd8dd524ab5752e3c9fbb6f1c06535b6be5193",
                    "receiptTrie" : "0xeddfd05753b3b8adf90a55fbc1c6229524623d4a39e35c8133db4264f3d1e7f3",
                    "stateRoot" : "0xd36f3c9f6c203e5f4c8bc1b12fbad2b166715ec58ce3d3200b2e0e2251889bce",
                    "timestamp" : "0x03e8",
                    "transactionsTrie" : "0x7261e885823ca640975effb9e8d78a31eb030c2038514915ea460874fb308537",
                    "uncleHash" : "0x1dcc4de8dec75d7aab85b567b6ccd41ad312451b948a7413f0a142fd40d49347"
                },
                "rlp" : "0xf90263f901f8a0743dd978fc3c8c869723c92c19cd8dd524ab5752e3c9fbb6f1c06535b6be5193a01dcc4de8dec75d7aab85b567b6ccd41ad312451b948a7413f0a142fd40d49347942adc25665018aa1fe0e6bc666dac8fc2697ff9baa0d36f3c9f6c203e5f4c8bc1b12fbad2b166715ec58ce3d3200b2e0e2251889bcea07261e885823ca640975effb9e8d78a31eb030c2038514915ea460874fb308537a0eddfd05753b3b8adf90a55fbc1c6229524623d4a39e35c8133db4264f3d1e7f3b90100000000000000000000000000000000000000000000000000000000000000000000000000000000000000000000000000000000000000000000000000000000000000000000000000000000000000000000000000000000000000000000000000000000000000000000000000000000000000000000000000000000000000000000000000000000000000000000000000000000000000000000000000000000000000000000000000000000000000000000000000000000000000000000000000000000000000000000000000000000000000000000000000000000000000000000000000000000000000000000000000000000000000000000000000000000008302000001840550000082a0b68203e880a00000000000000000000000000000000000000000000000000000000000000000880000000000000000f865f8638001840500000194deadbeef00000000000000000000000000000001808223451ba05d48f028e0abb45aff155cbb1e357a4709de4b922a52b2447c5c0edb8d833c31a00f595c27f798b28ac6c751f2d8ef46378258bf5ecfc1e60200378309d246894cc0",
                "transactions" : [
                    {
                        "data" : "0x2345",
                        "gasLimit" : "0x05000001",
                        "gasPrice" : "0x01",
                        "nonce" : "0x00",
                        "r" : "0x5d48f028e0abb45aff155cbb1e357a4709de4b922a52b2447c5c0edb8d833c31",
                        "s" : "0x0f595c27f798b28ac6c751f2d8ef46378258bf5ecfc1e60200378309d246894c",
                        "to" : "0xdeadbeef00000000000000000000000000000001",
                        "v" : "0x1b",
                        "value" : "0x00"
                    }
                ],
                "uncleHeaders" : [
                ]
            }
        ],
        "genesisBlockHeader" : {
            "bloom" : "0x00000000000000000000000000000000000000000000000000000000000000000000000000000000000000000000000000000000000000000000000000000000000000000000000000000000000000000000000000000000000000000000000000000000000000000000000000000000000000000000000000000000000000000000000000000000000000000000000000000000000000000000000000000000000000000000000000000000000000000000000000000000000000000000000000000000000000000000000000000000000000000000000000000000000000000000000000000000000000000000000000000000000000000000000000000000",
            "coinbase" : "0x2adc25665018aa1fe0e6bc666dac8fc2697ff9ba",
            "difficulty" : "0x020000",
            "extraData" : "0x42",
            "gasLimit" : "0x05500000",
            "gasUsed" : "0x00",
            "hash" : "0x743dd978fc3c8c869723c92c19cd8dd524ab5752e3c9fbb6f1c06535b6be5193",
            "mixHash" : "0x56e81f171bcc55a6ff8345e692c0f86e5b48e01b996cadc001622fb5e363b421",
            "nonce" : "0x0102030405060708",
            "number" : "0x00",
            "parentHash" : "0x0000000000000000000000000000000000000000000000000000000000000000",
            "receiptTrie" : "0x56e81f171bcc55a6ff8345e692c0f86e5b48e01b996cadc001622fb5e363b421",
            "stateRoot" : "0x2281d47d89c44ef488147b4c9e896c2482f5c6e83b08a7f0c08039cfeb5104a8",
            "timestamp" : "0x03b6",
            "transactionsTrie" : "0x56e81f171bcc55a6ff8345e692c0f86e5b48e01b996cadc001622fb5e363b421",
            "uncleHash" : "0x1dcc4de8dec75d7aab85b567b6ccd41ad312451b948a7413f0a142fd40d49347"
        },
        "genesisRLP" : "0xf901fbf901f6a00000000000000000000000000000000000000000000000000000000000000000a01dcc4de8dec75d7aab85b567b6ccd41ad312451b948a7413f0a142fd40d49347942adc25665018aa1fe0e6bc666dac8fc2697ff9baa02281d47d89c44ef488147b4c9e896c2482f5c6e83b08a7f0c08039cfeb5104a8a056e81f171bcc55a6ff8345e692c0f86e5b48e01b996cadc001622fb5e363b421a056e81f171bcc55a6ff8345e692c0f86e5b48e01b996cadc001622fb5e363b421b901000000000000000000000000000000000000000000000000000000000000000000000000000000000000000000000000000000000000000000000000000000000000000000000000000000000000000000000000000000000000000000000000000000000000000000000000000000000000000000000000000000000000000000000000000000000000000000000000000000000000000000000000000000000000000000000000000000000000000000000000000000000000000000000000000000000000000000000000000000000000000000000000000000000000000000000000000000000000000000000000000000000000000000000000000000000083020000808405500000808203b642a056e81f171bcc55a6ff8345e692c0f86e5b48e01b996cadc001622fb5e363b421880102030405060708c0c0",
        "lastblockhash" : "0xdacd5f8209cc0a21f92421932346cfa31a5b18b8c900d97c4304337e471d8ae1",
        "network" : "Byzantium",
        "postState" : {
            "0x2adc25665018aa1fe0e6bc666dac8fc2697ff9ba" : {
                "balance" : "0x29a2241af62ca0b6",
                "code" : "",
                "nonce" : "0x00",
                "storage" : {
                }
            },
            "0xa94f5374fce5edbc8e2a8697c15331677e6ebf0b" : {
                "balance" : "0x174876474a",
                "code" : "",
                "nonce" : "0x01",
                "storage" : {
                }
            },
            "0xdeadbeef00000000000000000000000000000001" : {
                "balance" : "0x174876e800",
                "code" : "0x0061736d01000000011a0560037f7f7f0060027f7f0060000060037f7f7f0060027f7f0002310208657468657265756d0c63616c6c44617461436f7079000308657468657265756d0c73746f7261676553746f72650004030201020404017000000503010011071102046d61696e0002066d656d6f727902000901000a860101830101017f4100410028020441c0006b2200360204200041186a4200370200200041106a4200370200200041086a420037020020004200370200200041206a41186a4200370200200041206a41106a4200370200200041206a41086a4200370200200042003702202000410041021000200041206a200010014100200041c0006a3602040b0b0a010041040b0410001000",
                "nonce" : "0x00",
                "storage" : {
                    "0x00" : "0x2345000000000000000000000000000000000000000000000000000000000000"
                }
            }
        },
        "pre" : {
            "0xa94f5374fce5edbc8e2a8697c15331677e6ebf0b" : {
                "balance" : "0x174876e800",
                "code" : "",
                "nonce" : "0x00",
                "storage" : {
                }
            },
            "0xdeadbeef00000000000000000000000000000001" : {
                "balance" : "0x174876e800",
                "code" : "0x0061736d01000000011a0560037f7f7f0060027f7f0060000060037f7f7f0060027f7f0002310208657468657265756d0c63616c6c44617461436f7079000308657468657265756d0c73746f7261676553746f72650004030201020404017000000503010011071102046d61696e0002066d656d6f727902000901000a860101830101017f4100410028020441c0006b2200360204200041186a4200370200200041106a4200370200200041086a420037020020004200370200200041206a41186a4200370200200041206a41106a4200370200200041206a41086a4200370200200042003702202000410041021000200041206a200010014100200041c0006a3602040b0b0a010041040b0410001000",
                "nonce" : "0x00",
                "storage" : {
                }
            }
        },
        "sealEngine" : "NoProof"
    }
}