{
    "callData_d0g0v0_Byzantium" : {
        "_info" : {
            "comment" : "",
            "filledwith" : "testeth 1.5.0-alpha.6",
            "lllcversion" : "Version: 0.5.0-develop.2018.11.8+commit.20481055.Linux.g++",
            "source" : "src/BlockchainTestsFiller/GeneralStateTests/stEWASMTests/callData_d0g0v0Filler.json",
            "sourceHash" : "485331daade6b3780f37252dc67a42989c05fa7712c8c96f20a05f8e8e7f9d35"
        },
        "blocks" : [
            {
                "blockHeader" : {
                    "bloom" : "0x00000000000000000000000000000000000000000000000000000000000000000000000000000000000000000000000000000000000000000000000000000000000000000000000000000000000000000000000000000000000000000000000000000000000000000000000000000000000000000000000000000000000000000000000000000000000000000000000000000000000000000000000000000000000000000000000000000000000000000000000000000000000000000000000000000000000000000000000000000000000000000000000000000000000000000000000000000000000000000000000000000000000000000000000000000000",
                    "coinbase" : "0x2adc25665018aa1fe0e6bc666dac8fc2697ff9ba",
                    "difficulty" : "0x020000",
                    "extraData" : "",
                    "gasLimit" : "0x05500000",
                    "gasUsed" : "0x010494",
                    "hash" : "0x63f6689d35ae905f93fc806c3a58990a5a528a8099986214de098963a12598db",
                    "mixHash" : "0x0000000000000000000000000000000000000000000000000000000000000000",
                    "nonce" : "0x0000000000000000",
                    "number" : "0x01",
                    "parentHash" : "0xa971fe00e14337f64a187e2216b8d152259ea56af9daad4d9a2abc9c306d9f2a",
                    "receiptTrie" : "0x4af7255d177658b59eaf5ebbffae788bc5dee816dc80f3276267e990ae9bd7a7",
                    "stateRoot" : "0xa0b8a08bfa3c99f7749bf83eddc498668e14f282bbfa6c7d1a86d33159fd8f3b",
                    "timestamp" : "0x03e8",
                    "transactionsTrie" : "0x05ddd80b5e3c46aa87d743841f86264cdea27175564d1fac771498761687de1c",
                    "uncleHash" : "0x1dcc4de8dec75d7aab85b567b6ccd41ad312451b948a7413f0a142fd40d49347"
                },
                "rlp" : "0xf90261f901f9a0a971fe00e14337f64a187e2216b8d152259ea56af9daad4d9a2abc9c306d9f2aa01dcc4de8dec75d7aab85b567b6ccd41ad312451b948a7413f0a142fd40d49347942adc25665018aa1fe0e6bc666dac8fc2697ff9baa0a0b8a08bfa3c99f7749bf83eddc498668e14f282bbfa6c7d1a86d33159fd8f3ba005ddd80b5e3c46aa87d743841f86264cdea27175564d1fac771498761687de1ca04af7255d177658b59eaf5ebbffae788bc5dee816dc80f3276267e990ae9bd7a7b901000000000000000000000000000000000000000000000000000000000000000000000000000000000000000000000000000000000000000000000000000000000000000000000000000000000000000000000000000000000000000000000000000000000000000000000000000000000000000000000000000000000000000000000000000000000000000000000000000000000000000000000000000000000000000000000000000000000000000000000000000000000000000000000000000000000000000000000000000000000000000000000000000000000000000000000000000000000000000000000000000000000000000000000000000000000083020000018405500000830104948203e880a00000000000000000000000000000000000000000000000000000000000000000880000000000000000f862f8600401836acfc094deadbeef0000000000000000000000000000000080801ba054fab9c25ddebd47f2c4d9ffe393cfbb4d189067d9957389c7b06ed5bf52b672a03760f513d0faba1640fbdc5def8a3d2d65f508b15eed071e41c4ad84b77a8f29c0",
                "transactions" : [
                    {
                        "data" : "0x",
                        "gasLimit" : "0x6acfc0",
                        "gasPrice" : "0x01",
                        "nonce" : "0x04",
                        "r" : "0x54fab9c25ddebd47f2c4d9ffe393cfbb4d189067d9957389c7b06ed5bf52b672",
                        "s" : "0x3760f513d0faba1640fbdc5def8a3d2d65f508b15eed071e41c4ad84b77a8f29",
                        "to" : "0xdeadbeef00000000000000000000000000000000",
                        "v" : "0x1b",
                        "value" : "0x00"
                    }
                ],
                "uncleHeaders" : [
                ]
            }
        ],
        "genesisBlockHeader" : {
            "bloom" : "0x00000000000000000000000000000000000000000000000000000000000000000000000000000000000000000000000000000000000000000000000000000000000000000000000000000000000000000000000000000000000000000000000000000000000000000000000000000000000000000000000000000000000000000000000000000000000000000000000000000000000000000000000000000000000000000000000000000000000000000000000000000000000000000000000000000000000000000000000000000000000000000000000000000000000000000000000000000000000000000000000000000000000000000000000000000000",
            "coinbase" : "0x2adc25665018aa1fe0e6bc666dac8fc2697ff9ba",
            "difficulty" : "0x020000",
            "extraData" : "0x42",
            "gasLimit" : "0x05500000",
            "gasUsed" : "0x00",
            "hash" : "0xa971fe00e14337f64a187e2216b8d152259ea56af9daad4d9a2abc9c306d9f2a",
            "mixHash" : "0x56e81f171bcc55a6ff8345e692c0f86e5b48e01b996cadc001622fb5e363b421",
            "nonce" : "0x0102030405060708",
            "number" : "0x00",
            "parentHash" : "0x0000000000000000000000000000000000000000000000000000000000000000",
            "receiptTrie" : "0x56e81f171bcc55a6ff8345e692c0f86e5b48e01b996cadc001622fb5e363b421",
            "stateRoot" : "0x12bec41d9938e2d5e6141a924d38bd83b9d8d87baccf988897952ca76f7635c7",
            "timestamp" : "0x03b6",
            "transactionsTrie" : "0x56e81f171bcc55a6ff8345e692c0f86e5b48e01b996cadc001622fb5e363b421",
            "uncleHash" : "0x1dcc4de8dec75d7aab85b567b6ccd41ad312451b948a7413f0a142fd40d49347"
        },
        "genesisRLP" : "0xf901fbf901f6a00000000000000000000000000000000000000000000000000000000000000000a01dcc4de8dec75d7aab85b567b6ccd41ad312451b948a7413f0a142fd40d49347942adc25665018aa1fe0e6bc666dac8fc2697ff9baa012bec41d9938e2d5e6141a924d38bd83b9d8d87baccf988897952ca76f7635c7a056e81f171bcc55a6ff8345e692c0f86e5b48e01b996cadc001622fb5e363b421a056e81f171bcc55a6ff8345e692c0f86e5b48e01b996cadc001622fb5e363b421b901000000000000000000000000000000000000000000000000000000000000000000000000000000000000000000000000000000000000000000000000000000000000000000000000000000000000000000000000000000000000000000000000000000000000000000000000000000000000000000000000000000000000000000000000000000000000000000000000000000000000000000000000000000000000000000000000000000000000000000000000000000000000000000000000000000000000000000000000000000000000000000000000000000000000000000000000000000000000000000000000000000000000000000000000000000000083020000808405500000808203b642a056e81f171bcc55a6ff8345e692c0f86e5b48e01b996cadc001622fb5e363b421880102030405060708c0c0",
        "lastblockhash" : "0x63f6689d35ae905f93fc806c3a58990a5a528a8099986214de098963a12598db",
        "network" : "Byzantium",
        "postState" : {
            "0x2adc25665018aa1fe0e6bc666dac8fc2697ff9ba" : {
                "balance" : "0x29a2241af62d0494",
                "code" : "",
                "nonce" : "0x00",
                "storage" : {
                }
            },
            "0xa94f5374fce5edbc8e2a8697c15331677e6ebf0b" : {
                "balance" : "0x174875e36c",
                "code" : "",
                "nonce" : "0x05",
                "storage" : {
                }
            },
            "0xdeadbeef00000000000000000000000000000000" : {
                "balance" : "0x174876e800",
                "code" : "0x0061736d0100000001120360057e7f7f7f7f017f60027f7f0060000002290208657468657265756d0463616c6c000008657468657265756d0c73746f7261676553746f72650001030201020503010001071102066d656d6f72790200046d61696e00020a4e014c01057f4120210020002101200041206a2102200041c0006a2103200041e0006a210420024100360200200341effd02360200200442c09a0c410020022003410210003602002001200410010b0b3f020041000b14deadbeef000000000000000000000000000000010041200b200100000000000000000000000000000000000000000000000000000000000000",
                "nonce" : "0x00",
                "storage" : {
                }
            },
            "0xdeadbeef00000000000000000000000000000001" : {
                "balance" : "0x174876e800",
                "code" : "0x0061736d010000000113046000017f60037f7f7f0060027f7f00600000024c0308657468657265756d0f67657443616c6c4461746153697a65000008657468657265756d0c63616c6c44617461436f7079000108657468657265756d0c73746f7261676553746f72650002030201030503010001071102066d656d6f72790200046d61696e00030a45014301067f418001210020002102200041206a2103200041c0006a2104200041e0006a2105100021012005200136020020022005100220044100200110012003200410020b0b4d02004180010b20000000000000000000000000000000000000000000000000000000000000000a0041a0010b20000000000000000000000000000000000000000000000000000000000000000b",
                "nonce" : "0x00",
                "storage" : {
                    "0x0a" : "0x0200000000000000000000000000000000000000000000000000000000000000",
                    "0x0b" : "0xefbe000000000000000000000000000000000000000000000000000000000000"
                }
            }
        },
        "pre" : {
            "0xa94f5374fce5edbc8e2a8697c15331677e6ebf0b" : {
                "balance" : "0x174876e800",
                "code" : "",
                "nonce" : "0x04",
                "storage" : {
                }
            },
            "0xdeadbeef00000000000000000000000000000000" : {
                "balance" : "0x174876e800",
                "code" : "0x0061736d0100000001120360057e7f7f7f7f017f60027f7f0060000002290208657468657265756d0463616c6c000008657468657265756d0c73746f7261676553746f72650001030201020503010001071102066d656d6f72790200046d61696e00020a4e014c01057f4120210020002101200041206a2102200041c0006a2103200041e0006a210420024100360200200341effd02360200200442c09a0c410020022003410210003602002001200410010b0b3f020041000b14deadbeef000000000000000000000000000000010041200b200100000000000000000000000000000000000000000000000000000000000000",
                "nonce" : "0x00",
                "storage" : {
                }
            },
            "0xdeadbeef00000000000000000000000000000001" : {
                "balance" : "0x174876e800",
                "code" : "0x0061736d010000000113046000017f60037f7f7f0060027f7f00600000024c0308657468657265756d0f67657443616c6c4461746153697a65000008657468657265756d0c63616c6c44617461436f7079000108657468657265756d0c73746f7261676553746f72650002030201030503010001071102066d656d6f72790200046d61696e00030a45014301067f418001210020002102200041206a2103200041c0006a2104200041e0006a2105100021012005200136020020022005100220044100200110012003200410020b0b4d02004180010b20000000000000000000000000000000000000000000000000000000000000000a0041a0010b20000000000000000000000000000000000000000000000000000000000000000b",
                "nonce" : "0x00",
                "storage" : {
                }
            }
        },
        "sealEngine" : "NoProof"
    }
}