{
    "callDepth_d0g0v0_Byzantium" : {
        "_info" : {
            "comment" : "",
            "filledwith" : "testeth 1.5.0-alpha.6",
            "lllcversion" : "Version: 0.5.0-develop.2018.11.8+commit.20481055.Linux.g++",
            "source" : "src/BlockchainTestsFiller/GeneralStateTests/stEWASMTests/callDepth_d0g0v0Filler.json",
            "sourceHash" : "5b3a6e904d74c6e08d2a676be0c9553e3f0e14ff99a36a09754f04ef0bf970b1"
        },
        "blocks" : [
            {
                "blockHeader" : {
                    "bloom" : "0x00000000000000000000000000000000000000000000000000000000000000000000000000000000000000000000000000000000000000000000000000000000000000000000000000000000000000000000000000000000000000000000000000000000000000000000000000000000000000000000000000000000000000000000000000000000000000000000000000000000000000000000000000000000000000000000000000000000000000000000000000000000000000000000000000000000000000000000000000000000000000000000000000000000000000000000000000000000000000000000000000000000000000000000000000000000",
                    "coinbase" : "0x2adc25665018aa1fe0e6bc666dac8fc2697ff9ba",
                    "difficulty" : "0x020000",
                    "extraData" : "",
                    "gasLimit" : "0x0f500000",
                    "gasUsed" : "0x060ad0",
                    "hash" : "0xaf93843fc845e56509b8889e986034b6c306746d7a8b491085229a7e711c73ac",
                    "mixHash" : "0x0000000000000000000000000000000000000000000000000000000000000000",
                    "nonce" : "0x0000000000000000",
                    "number" : "0x01",
                    "parentHash" : "0xcdd50e71cb8204babbdf11afc86a3fde4c0359177762c9c8bc792fd7bf6c05ec",
                    "receiptTrie" : "0xa59f23e9b3e092c8b3c89eaccd7956dd64381df04dee7457ffc87eba7f2b18dd",
                    "stateRoot" : "0x356def2f8064c7363422905d26944249bf51f6d214f67039210794e1d78c62d8",
                    "timestamp" : "0x03e8",
                    "transactionsTrie" : "0xd3479fee77b18b138f38a6ffb55e1b067ce48badb06c16ff16267e79e3b853f0",
                    "uncleHash" : "0x1dcc4de8dec75d7aab85b567b6ccd41ad312451b948a7413f0a142fd40d49347"
                },
                "rlp" : "0xf90262f901f9a0cdd50e71cb8204babbdf11afc86a3fde4c0359177762c9c8bc792fd7bf6c05eca01dcc4de8dec75d7aab85b567b6ccd41ad312451b948a7413f0a142fd40d49347942adc25665018aa1fe0e6bc666dac8fc2697ff9baa0356def2f8064c7363422905d26944249bf51f6d214f67039210794e1d78c62d8a0d3479fee77b18b138f38a6ffb55e1b067ce48badb06c16ff16267e79e3b853f0a0a59f23e9b3e092c8b3c89eaccd7956dd64381df04dee7457ffc87eba7f2b18ddb90100000000000000000000000000000000000000000000000000000000000000000000000000000000000000000000000000000000000000000000000000000000000000000000000000000000000000000000000000000000000000000000000000000000000000000000000000000000000000000000000000000000000000000000000000000000000000000000000000000000000000000000000000000000000000000000000000000000000000000000000000000000000000000000000000000000000000000000000000000000000000000000000000000000000000000000000000000000000000000000000000000000000000000000000000000000008302000001840f50000083060ad08203e880a00000000000000000000000000000000000000000000000000000000000000000880000000000000000f863f8618001840f50000094deadbeef0000000000000000000000000000000180801ba02f325b1b1484447c5fbcbbbf2953f2019df486d61e735ede3b67d00b55fb34c1a003056bbc1b7e11ba27f8b0e3880bad40e05f46190e414bc9af060cac67980469c0",
                "transactions" : [
                    {
                        "data" : "0x",
                        "gasLimit" : "0x0f500000",
                        "gasPrice" : "0x01",
                        "nonce" : "0x00",
                        "r" : "0x2f325b1b1484447c5fbcbbbf2953f2019df486d61e735ede3b67d00b55fb34c1",
                        "s" : "0x03056bbc1b7e11ba27f8b0e3880bad40e05f46190e414bc9af060cac67980469",
                        "to" : "0xdeadbeef00000000000000000000000000000001",
                        "v" : "0x1b",
                        "value" : "0x00"
                    }
                ],
                "uncleHeaders" : [
                ]
            }
        ],
        "genesisBlockHeader" : {
            "bloom" : "0x00000000000000000000000000000000000000000000000000000000000000000000000000000000000000000000000000000000000000000000000000000000000000000000000000000000000000000000000000000000000000000000000000000000000000000000000000000000000000000000000000000000000000000000000000000000000000000000000000000000000000000000000000000000000000000000000000000000000000000000000000000000000000000000000000000000000000000000000000000000000000000000000000000000000000000000000000000000000000000000000000000000000000000000000000000000",
            "coinbase" : "0x2adc25665018aa1fe0e6bc666dac8fc2697ff9ba",
            "difficulty" : "0x020000",
            "extraData" : "0x42",
            "gasLimit" : "0x0f500000",
            "gasUsed" : "0x00",
            "hash" : "0xcdd50e71cb8204babbdf11afc86a3fde4c0359177762c9c8bc792fd7bf6c05ec",
            "mixHash" : "0x56e81f171bcc55a6ff8345e692c0f86e5b48e01b996cadc001622fb5e363b421",
            "nonce" : "0x0102030405060708",
            "number" : "0x00",
            "parentHash" : "0x0000000000000000000000000000000000000000000000000000000000000000",
            "receiptTrie" : "0x56e81f171bcc55a6ff8345e692c0f86e5b48e01b996cadc001622fb5e363b421",
            "stateRoot" : "0x223b2eeddf8adf5bef430d7a95085d235a1328ea7b12d1c600bf2bc8cca314d4",
            "timestamp" : "0x03b6",
            "transactionsTrie" : "0x56e81f171bcc55a6ff8345e692c0f86e5b48e01b996cadc001622fb5e363b421",
            "uncleHash" : "0x1dcc4de8dec75d7aab85b567b6ccd41ad312451b948a7413f0a142fd40d49347"
        },
        "genesisRLP" : "0xf901fbf901f6a00000000000000000000000000000000000000000000000000000000000000000a01dcc4de8dec75d7aab85b567b6ccd41ad312451b948a7413f0a142fd40d49347942adc25665018aa1fe0e6bc666dac8fc2697ff9baa0223b2eeddf8adf5bef430d7a95085d235a1328ea7b12d1c600bf2bc8cca314d4a056e81f171bcc55a6ff8345e692c0f86e5b48e01b996cadc001622fb5e363b421a056e81f171bcc55a6ff8345e692c0f86e5b48e01b996cadc001622fb5e363b421b90100000000000000000000000000000000000000000000000000000000000000000000000000000000000000000000000000000000000000000000000000000000000000000000000000000000000000000000000000000000000000000000000000000000000000000000000000000000000000000000000000000000000000000000000000000000000000000000000000000000000000000000000000000000000000000000000000000000000000000000000000000000000000000000000000000000000000000000000000000000000000000000000000000000000000000000000000000000000000000000000000000000000000000000000000000000008302000080840f500000808203b642a056e81f171bcc55a6ff8345e692c0f86e5b48e01b996cadc001622fb5e363b421880102030405060708c0c0",
        "lastblockhash" : "0xaf93843fc845e56509b8889e986034b6c306746d7a8b491085229a7e711c73ac",
        "network" : "Byzantium",
        "postState" : {
            "0x2adc25665018aa1fe0e6bc666dac8fc2697ff9ba" : {
                "balance" : "0x29a2241af6320ad0",
                "code" : "",
                "nonce" : "0x00",
                "storage" : {
                }
            },
            "0xa94f5374fce5edbc8e2a8697c15331677e6ebf0b" : {
                "balance" : "0x174870dd30",
                "code" : "",
                "nonce" : "0x01",
                "storage" : {
                }
            },
            "0xdeadbeef00000000000000000000000000000001" : {
                "balance" : "0x174876e800",
                "code" : "0x0061736d01000000010d0260057e7f7f7f7f017f60000002110108657468657265756d0463616c6c0000030201010503010001071102066d656d6f72790200046d61696e00010a16011400428084afdf004100412041c000412010001a0b0b1a010041000b14deadbeef00000000000000000000000000000002",
                "nonce" : "0x00",
                "storage" : {
                }
            },
            "0xdeadbeef00000000000000000000000000000002" : {
                "balance" : "0x174876e800",
                "code" : "0x0061736d01000000010d0260057e7f7f7f7f017f60000002110108657468657265756d0463616c6c0000030201010503010001071102066d656d6f72790200046d61696e00010a16011400428084afdf004100412041c000412010001a0b0b1a010041000b14deadbeef00000000000000000000000000000001",
                "nonce" : "0x00",
                "storage" : {
                }
            }
        },
        "pre" : {
            "0xa94f5374fce5edbc8e2a8697c15331677e6ebf0b" : {
                "balance" : "0x174876e800",
                "code" : "",
                "nonce" : "0x00",
                "storage" : {
                }
            },
            "0xdeadbeef00000000000000000000000000000001" : {
                "balance" : "0x174876e800",
                "code" : "0x0061736d01000000010d0260057e7f7f7f7f017f60000002110108657468657265756d0463616c6c0000030201010503010001071102066d656d6f72790200046d61696e00010a16011400428084afdf004100412041c000412010001a0b0b1a010041000b14deadbeef00000000000000000000000000000002",
                "nonce" : "0x00",
                "storage" : {
                }
            },
            "0xdeadbeef00000000000000000000000000000002" : {
                "balance" : "0x174876e800",
                "code" : "0x0061736d01000000010d0260057e7f7f7f7f017f60000002110108657468657265756d0463616c6c0000030201010503010001071102066d656d6f72790200046d61696e00010a16011400428084afdf004100412041c000412010001a0b0b1a010041000b14deadbeef00000000000000000000000000000001",
                "nonce" : "0x00",
                "storage" : {
                }
            }
        },
        "sealEngine" : "NoProof"
    }
}