{
    "callValueExceeds64bit_d0g0v0_Byzantium" : {
        "_info" : {
            "comment" : "",
            "filledwith" : "testeth 1.5.0-alpha.6",
            "lllcversion" : "Version: 0.5.0-develop.2018.11.8+commit.20481055.Linux.g++",
            "source" : "src/BlockchainTestsFiller/GeneralStateTests/stEWASMTests/callValueExceeds64bit_d0g0v0Filler.json",
            "sourceHash" : "b3224562f61e08ed423aa92d02e9655db16f3aabbe63d7619a37b9b9cbc2e8da"
        },
        "blocks" : [
            {
                "blockHeader" : {
                    "bloom" : "0x00000000000000000000000000000000000000000000000000000000000000000000000000000000000000000000000000000000000000000000000000000000000000000000000000000000000000000000000000000000000000000000000000000000000000000000000000000000000000000000000000000000000000000000000000000000000000000000000000000000000000000000000000000000000000000000000000000000000000000000000000000000000000000000000000000000000000000000000000000000000000000000000000000000000000000000000000000000000000000000000000000000000000000000000000000000",
                    "coinbase" : "0x2adc25665018aa1fe0e6bc666dac8fc2697ff9ba",
                    "difficulty" : "0x020000",
                    "extraData" : "",
                    "gasLimit" : "0x05500000",
                    "gasUsed" : "0xa98d",
                    "hash" : "0x9c320e16d60368621c0361113aefd41eab4913ae9ff46f65fc656db0ddc3aed0",
                    "mixHash" : "0x0000000000000000000000000000000000000000000000000000000000000000",
                    "nonce" : "0x0000000000000000",
                    "number" : "0x01",
                    "parentHash" : "0xc48d99eb6d19b6eb4ce0da68c46d5c2a064810bd09db9191864c29daf3d9079d",
                    "receiptTrie" : "0x099636c022dd1c60e0500905d1683e98d1dd2d441cd40c875e1ccc7037f0a001",
                    "stateRoot" : "0x741637d82d139bc2836346a918e321117a0a1fd47d089a764b065e3d7f04af00",
                    "timestamp" : "0x03e8",
                    "transactionsTrie" : "0x05ddd80b5e3c46aa87d743841f86264cdea27175564d1fac771498761687de1c",
                    "uncleHash" : "0x1dcc4de8dec75d7aab85b567b6ccd41ad312451b948a7413f0a142fd40d49347"
                },
                "rlp" : "0xf90260f901f8a0c48d99eb6d19b6eb4ce0da68c46d5c2a064810bd09db9191864c29daf3d9079da01dcc4de8dec75d7aab85b567b6ccd41ad312451b948a7413f0a142fd40d49347942adc25665018aa1fe0e6bc666dac8fc2697ff9baa0741637d82d139bc2836346a918e321117a0a1fd47d089a764b065e3d7f04af00a005ddd80b5e3c46aa87d743841f86264cdea27175564d1fac771498761687de1ca0099636c022dd1c60e0500905d1683e98d1dd2d441cd40c875e1ccc7037f0a001b90100000000000000000000000000000000000000000000000000000000000000000000000000000000000000000000000000000000000000000000000000000000000000000000000000000000000000000000000000000000000000000000000000000000000000000000000000000000000000000000000000000000000000000000000000000000000000000000000000000000000000000000000000000000000000000000000000000000000000000000000000000000000000000000000000000000000000000000000000000000000000000000000000000000000000000000000000000000000000000000000000000000000000000000000000000000008302000001840550000082a98d8203e880a00000000000000000000000000000000000000000000000000000000000000000880000000000000000f862f8600401836acfc094deadbeef0000000000000000000000000000000080801ba054fab9c25ddebd47f2c4d9ffe393cfbb4d189067d9957389c7b06ed5bf52b672a03760f513d0faba1640fbdc5def8a3d2d65f508b15eed071e41c4ad84b77a8f29c0",
                "transactions" : [
                    {
                        "data" : "0x",
                        "gasLimit" : "0x6acfc0",
                        "gasPrice" : "0x01",
                        "nonce" : "0x04",
                        "r" : "0x54fab9c25ddebd47f2c4d9ffe393cfbb4d189067d9957389c7b06ed5bf52b672",
                        "s" : "0x3760f513d0faba1640fbdc5def8a3d2d65f508b15eed071e41c4ad84b77a8f29",
                        "to" : "0xdeadbeef00000000000000000000000000000000",
                        "v" : "0x1b",
                        "value" : "0x00"
                    }
                ],
                "uncleHeaders" : [
                ]
            }
        ],
        "genesisBlockHeader" : {
            "bloom" : "0x00000000000000000000000000000000000000000000000000000000000000000000000000000000000000000000000000000000000000000000000000000000000000000000000000000000000000000000000000000000000000000000000000000000000000000000000000000000000000000000000000000000000000000000000000000000000000000000000000000000000000000000000000000000000000000000000000000000000000000000000000000000000000000000000000000000000000000000000000000000000000000000000000000000000000000000000000000000000000000000000000000000000000000000000000000000",
            "coinbase" : "0x2adc25665018aa1fe0e6bc666dac8fc2697ff9ba",
            "difficulty" : "0x020000",
            "extraData" : "0x42",
            "gasLimit" : "0x05500000",
            "gasUsed" : "0x00",
            "hash" : "0xc48d99eb6d19b6eb4ce0da68c46d5c2a064810bd09db9191864c29daf3d9079d",
            "mixHash" : "0x56e81f171bcc55a6ff8345e692c0f86e5b48e01b996cadc001622fb5e363b421",
            "nonce" : "0x0102030405060708",
            "number" : "0x00",
            "parentHash" : "0x0000000000000000000000000000000000000000000000000000000000000000",
            "receiptTrie" : "0x56e81f171bcc55a6ff8345e692c0f86e5b48e01b996cadc001622fb5e363b421",
            "stateRoot" : "0x401461e3cecee357b619390af028967853770c9f879142c4eb43f977e86ee910",
            "timestamp" : "0x03b6",
            "transactionsTrie" : "0x56e81f171bcc55a6ff8345e692c0f86e5b48e01b996cadc001622fb5e363b421",
            "uncleHash" : "0x1dcc4de8dec75d7aab85b567b6ccd41ad312451b948a7413f0a142fd40d49347"
        },
        "genesisRLP" : "0xf901fbf901f6a00000000000000000000000000000000000000000000000000000000000000000a01dcc4de8dec75d7aab85b567b6ccd41ad312451b948a7413f0a142fd40d49347942adc25665018aa1fe0e6bc666dac8fc2697ff9baa0401461e3cecee357b619390af028967853770c9f879142c4eb43f977e86ee910a056e81f171bcc55a6ff8345e692c0f86e5b48e01b996cadc001622fb5e363b421a056e81f171bcc55a6ff8345e692c0f86e5b48e01b996cadc001622fb5e363b421b901000000000000000000000000000000000000000000000000000000000000000000000000000000000000000000000000000000000000000000000000000000000000000000000000000000000000000000000000000000000000000000000000000000000000000000000000000000000000000000000000000000000000000000000000000000000000000000000000000000000000000000000000000000000000000000000000000000000000000000000000000000000000000000000000000000000000000000000000000000000000000000000000000000000000000000000000000000000000000000000000000000000000000000000000000000000083020000808405500000808203b642a056e81f171bcc55a6ff8345e692c0f86e5b48e01b996cadc001622fb5e363b421880102030405060708c0c0",
        "lastblockhash" : "0x9c320e16d60368621c0361113aefd41eab4913ae9ff46f65fc656db0ddc3aed0",
        "network" : "Byzantium",
        "postState" : {
            "0x2adc25665018aa1fe0e6bc666dac8fc2697ff9ba" : {
                "balance" : "0x29a2241af62ca98d",
                "code" : "",
                "nonce" : "0x00",
                "storage" : {
                }
            },
            "0xa94f5374fce5edbc8e2a8697c15331677e6ebf0b" : {
                "balance" : "0x1748763e73",
                "code" : "",
                "nonce" : "0x05",
                "storage" : {
                }
            },
            "0xdeadbeef00000000000000000000000000000000" : {
                "balance" : "0x00",
                "code" : "0x0061736d0100000001120360057e7f7f7f7f017f60027f7f0060000002290208657468657265756d0463616c6c000008657468657265756d0c73746f7261676553746f72650001030201020503010001071102066d656d6f72790200046d61696e00020a61015f01067f4120210020002101200041206a2102200041286a2103200041c0006a2104200041e0006a210520014101360200200242003703002003420137030020044100360200200542c09a0c410020022004410010003602002001200510010b0b1a010041000b14deadbeef00000000000000000000000000000001",
                "nonce" : "0x00",
                "storage" : {
                }
            },
            "0xdeadbeef00000000000000000000000000000001" : {
                "balance" : "0x010000000000000000",
                "code" : "0x0061736d010000000113046000017f60037f7f7f0060027f7f00600000024c0308657468657265756d0f67657443616c6c4461746153697a65000008657468657265756d0c63616c6c44617461436f7079000108657468657265756d0c73746f7261676553746f72650002030201030503010001071102066d656d6f72790200046d61696e00030a45014301067f418001210020002102200041206a2103200041c0006a2104200041e0006a2105100021012005200136020020022005100220044100200110012003200410020b0b4d02004180010b200a000000000000000000000000000000000000000000000000000000000000000041a0010b200b00000000000000000000000000000000000000000000000000000000000000",
                "nonce" : "0x00",
                "storage" : {
                }
            }
        },
        "pre" : {
            "0xa94f5374fce5edbc8e2a8697c15331677e6ebf0b" : {
                "balance" : "0x174876e800",
                "code" : "",
                "nonce" : "0x04",
                "storage" : {
                }
            },
            "0xdeadbeef00000000000000000000000000000000" : {
                "balance" : "0x010000000000000000",
                "code" : "0x0061736d0100000001120360057e7f7f7f7f017f60027f7f0060000002290208657468657265756d0463616c6c000008657468657265756d0c73746f7261676553746f72650001030201020503010001071102066d656d6f72790200046d61696e00020a61015f01067f4120210020002101200041206a2102200041286a2103200041c0006a2104200041e0006a210520014101360200200242003703002003420137030020044100360200200542c09a0c410020022004410010003602002001200510010b0b1a010041000b14deadbeef00000000000000000000000000000001",
                "nonce" : "0x00",
                "storage" : {
                }
            },
            "0xdeadbeef00000000000000000000000000000001" : {
                "balance" : "0x00",
                "code" : "0x0061736d010000000113046000017f60037f7f7f0060027f7f00600000024c0308657468657265756d0f67657443616c6c4461746153697a65000008657468657265756d0c63616c6c44617461436f7079000108657468657265756d0c73746f7261676553746f72650002030201030503010001071102066d656d6f72790200046d61696e00030a45014301067f418001210020002102200041206a2103200041c0006a2104200041e0006a2105100021012005200136020020022005100220044100200110012003200410020b0b4d02004180010b200a000000000000000000000000000000000000000000000000000000000000000041a0010b200b00000000000000000000000000000000000000000000000000000000000000",
                "nonce" : "0x00",
                "storage" : {
                }
            }
        },
        "sealEngine" : "NoProof"
    }
}