{
    "callStatic_d0g0v0_Byzantium" : {
        "_info" : {
            "comment" : "",
            "filledwith" : "testeth 1.5.0-alpha.6",
            "lllcversion" : "Version: 0.5.0-develop.2018.11.8+commit.20481055.Linux.g++",
            "source" : "src/BlockchainTestsFiller/GeneralStateTests/stEWASMTests/callStatic_d0g0v0Filler.json",
            "sourceHash" : "caf973d77fa52b3a7f3757e3d8e6fe1e3608ccc6c790c7f261d68368e90be453"
        },
        "blocks" : [
            {
                "blockHeader" : {
                    "bloom" : "0x00000000000000000000000000000000000000000000000000000000000000000000000000000000000000000000000000000000000000000000000000000000000000000000000000000000000000000000000000000000000000000000000000000000000000000000000000000000000000000000000000000000000000000000000000000000000000000000000000000000000000000000000000000000000000000000000000000000000000000000000000000000000000000000000000000000000000000000000000000000000000000000000000000000000000000000000000000000000000000000000000000000000000000000000000000000",
                    "coinbase" : "0x2adc25665018aa1fe0e6bc666dac8fc2697ff9ba",
                    "difficulty" : "0x020000",
                    "extraData" : "",
                    "gasLimit" : "0x05500000",
                    "gasUsed" : "0x036204",
                    "hash" : "0xd68b3aff9e53f1295a90e3fee4b1224aeb87925236439678f40adbe5394d2623",
                    "mixHash" : "0x0000000000000000000000000000000000000000000000000000000000000000",
                    "nonce" : "0x0000000000000000",
                    "number" : "0x01",
                    "parentHash" : "0xa00521462665e4c60378dff29b047a66cfa2bc89b4840f61a388338e2cc5f56b",
                    "receiptTrie" : "0xec234fca0502dc6965dd33a69c7a90c0cd88461c049a778fb989a95268384033",
                    "stateRoot" : "0x1a6e01afb62d33f4cea7a2d7a14c9c1d3f2506640998f8eaebf4de53132f5edd",
                    "timestamp" : "0x03e8",
                    "transactionsTrie" : "0x82d32c39f6a49762ebe3b29259c8f263e2735713a1245f9ea7ef7a4575981d0f",
                    "uncleHash" : "0x1dcc4de8dec75d7aab85b567b6ccd41ad312451b948a7413f0a142fd40d49347"
                },
                "rlp" : "0xf90261f901f9a0a00521462665e4c60378dff29b047a66cfa2bc89b4840f61a388338e2cc5f56ba01dcc4de8dec75d7aab85b567b6ccd41ad312451b948a7413f0a142fd40d49347942adc25665018aa1fe0e6bc666dac8fc2697ff9baa01a6e01afb62d33f4cea7a2d7a14c9c1d3f2506640998f8eaebf4de53132f5edda082d32c39f6a49762ebe3b29259c8f263e2735713a1245f9ea7ef7a4575981d0fa0ec234fca0502dc6965dd33a69c7a90c0cd88461c049a778fb989a95268384033b901000000000000000000000000000000000000000000000000000000000000000000000000000000000000000000000000000000000000000000000000000000000000000000000000000000000000000000000000000000000000000000000000000000000000000000000000000000000000000000000000000000000000000000000000000000000000000000000000000000000000000000000000000000000000000000000000000000000000000000000000000000000000000000000000000000000000000000000000000000000000000000000000000000000000000000000000000000000000000000000000000000000000000000000000000000000083020000018405500000830362048203e880a00000000000000000000000000000000000000000000000000000000000000000880000000000000000f862f86080018350000094b94f5374fce5edbc8e2a8697c15331677e6ebf0b80801ca07d0243352d8abd1de483feac582ce5590e8168f192129f5decbfeb2e8b498ba9a04c570154c3b7487b2ce90daf1a92ffba7a3a4f4afad9e3e6811f5257a9793056c0",
                "transactions" : [
                    {
                        "data" : "0x",
                        "gasLimit" : "0x500000",
                        "gasPrice" : "0x01",
                        "nonce" : "0x00",
                        "r" : "0x7d0243352d8abd1de483feac582ce5590e8168f192129f5decbfeb2e8b498ba9",
                        "s" : "0x4c570154c3b7487b2ce90daf1a92ffba7a3a4f4afad9e3e6811f5257a9793056",
                        "to" : "0xb94f5374fce5edbc8e2a8697c15331677e6ebf0b",
                        "v" : "0x1c",
                        "value" : "0x00"
                    }
                ],
                "uncleHeaders" : [
                ]
            }
        ],
        "genesisBlockHeader" : {
            "bloom" : "0x00000000000000000000000000000000000000000000000000000000000000000000000000000000000000000000000000000000000000000000000000000000000000000000000000000000000000000000000000000000000000000000000000000000000000000000000000000000000000000000000000000000000000000000000000000000000000000000000000000000000000000000000000000000000000000000000000000000000000000000000000000000000000000000000000000000000000000000000000000000000000000000000000000000000000000000000000000000000000000000000000000000000000000000000000000000",
            "coinbase" : "0x2adc25665018aa1fe0e6bc666dac8fc2697ff9ba",
            "difficulty" : "0x020000",
            "extraData" : "0x42",
            "gasLimit" : "0x05500000",
            "gasUsed" : "0x00",
            "hash" : "0xa00521462665e4c60378dff29b047a66cfa2bc89b4840f61a388338e2cc5f56b",
            "mixHash" : "0x56e81f171bcc55a6ff8345e692c0f86e5b48e01b996cadc001622fb5e363b421",
            "nonce" : "0x0102030405060708",
            "number" : "0x00",
            "parentHash" : "0x0000000000000000000000000000000000000000000000000000000000000000",
            "receiptTrie" : "0x56e81f171bcc55a6ff8345e692c0f86e5b48e01b996cadc001622fb5e363b421",
            "stateRoot" : "0x0c62519feb0eb28630b0127852bcc38d76de79bba18194c9d17d798039ce91c1",
            "timestamp" : "0x03b6",
            "transactionsTrie" : "0x56e81f171bcc55a6ff8345e692c0f86e5b48e01b996cadc001622fb5e363b421",
            "uncleHash" : "0x1dcc4de8dec75d7aab85b567b6ccd41ad312451b948a7413f0a142fd40d49347"
        },
        "genesisRLP" : "0xf901fbf901f6a00000000000000000000000000000000000000000000000000000000000000000a01dcc4de8dec75d7aab85b567b6ccd41ad312451b948a7413f0a142fd40d49347942adc25665018aa1fe0e6bc666dac8fc2697ff9baa00c62519feb0eb28630b0127852bcc38d76de79bba18194c9d17d798039ce91c1a056e81f171bcc55a6ff8345e692c0f86e5b48e01b996cadc001622fb5e363b421a056e81f171bcc55a6ff8345e692c0f86e5b48e01b996cadc001622fb5e363b421b901000000000000000000000000000000000000000000000000000000000000000000000000000000000000000000000000000000000000000000000000000000000000000000000000000000000000000000000000000000000000000000000000000000000000000000000000000000000000000000000000000000000000000000000000000000000000000000000000000000000000000000000000000000000000000000000000000000000000000000000000000000000000000000000000000000000000000000000000000000000000000000000000000000000000000000000000000000000000000000000000000000000000000000000000000000000083020000808405500000808203b642a056e81f171bcc55a6ff8345e692c0f86e5b48e01b996cadc001622fb5e363b421880102030405060708c0c0",
        "lastblockhash" : "0xd68b3aff9e53f1295a90e3fee4b1224aeb87925236439678f40adbe5394d2623",
        "network" : "Byzantium",
        "postState" : {
            "0x2adc25665018aa1fe0e6bc666dac8fc2697ff9ba" : {
                "balance" : "0x29a2241af62f6204",
                "code" : "",
                "nonce" : "0x00",
                "storage" : {
                }
            },
            "0xa94f5374fce5edbc8e2a8697c15331677e6ebf0b" : {
                "balance" : "0x17487385fc",
                "code" : "",
                "nonce" : "0x01",
                "storage" : {
                }
            },
            "0xb94f5374fce5edbc8e2a8697c15331677e6ebf0b" : {
                "balance" : "0x174876e800",
                "code" : "0x0061736d01000000010c0260047e7f7f7f017f60000002170108657468657265756d0a63616c6c5374617469630000030201010503010001071102046d61696e0001066d656d6f727902000a15011300413642c09a0c41004114410210003602000b0b21020041000b14c94f5374fce5edbc8e2a8697c15331677e6ebf0b0041140b021234",
                "nonce" : "0x00",
                "storage" : {
                }
            },
            "0xc94f5374fce5edbc8e2a8697c15331677e6ebf0b" : {
                "balance" : "0x174876e800",
                "code" : "0x0061736d01000000010d0360017f0060027f7f00600000022f0208657468657265756d0a67657441646472657373000008657468657265756d0c73746f7261676553746f72650001030201020503010001071102046d61696e0002066d656d6f727902000a0f010d004120100041e200412010010b",
                "nonce" : "0x00",
                "storage" : {
                }
            }
        },
        "pre" : {
            "0xa94f5374fce5edbc8e2a8697c15331677e6ebf0b" : {
                "balance" : "0x174876e800",
                "code" : "",
                "nonce" : "0x00",
                "storage" : {
                }
            },
            "0xb94f5374fce5edbc8e2a8697c15331677e6ebf0b" : {
                "balance" : "0x174876e800",
                "code" : "0x0061736d01000000010c0260047e7f7f7f017f60000002170108657468657265756d0a63616c6c5374617469630000030201010503010001071102046d61696e0001066d656d6f727902000a15011300413642c09a0c41004114410210003602000b0b21020041000b14c94f5374fce5edbc8e2a8697c15331677e6ebf0b0041140b021234",
                "nonce" : "0x00",
                "storage" : {
                }
            },
            "0xc94f5374fce5edbc8e2a8697c15331677e6ebf0b" : {
                "balance" : "0x174876e800",
                "code" : "0x0061736d01000000010d0360017f0060027f7f00600000022f0208657468657265756d0a67657441646472657373000008657468657265756d0c73746f7261676553746f72650001030201020503010001071102046d61696e0002066d656d6f727902000a0f010d004120100041e200412010010b",
                "nonce" : "0x00",
                "storage" : {
                }
            }
        },
        "sealEngine" : "NoProof"
    }
}