{
    "callDataCopy_d0g0v0_Byzantium" : {
        "_info" : {
            "comment" : "",
            "filledwith" : "testeth 1.5.0-alpha.6",
            "lllcversion" : "Version: 0.5.0-develop.2018.11.8+commit.20481055.Linux.g++",
            "source" : "src/BlockchainTestsFiller/GeneralStateTests/stEWASMTests/callDataCopy_d0g0v0Filler.json",
            "sourceHash" : "ffda4c810b56a9df63db61995fd054b6a479bd1d1a3ba5ec8185bff490811a52"
        },
        "blocks" : [
            {
                "blockHeader" : {
                    "bloom" : "0x00000000000000000000000000000000000000000000000000000000000000000000000000000000000000000000000000000000000000000000000000000000000000000000000000000000000000000000000000000000000000000000000000000000000000000000000000000000000000000000000000000000000000000000000000000000000000000000000000000000000000000000000000000000000000000000000000000000000000000000000000000000000000000000000000000000000000000000000000000000000000000000000000000000000000000000000000000000000000000000000000000000000000000000000000000000",
                    "coinbase" : "0x2adc25665018aa1fe0e6bc666dac8fc2697ff9ba",
                    "difficulty" : "0x020000",
                    "extraData" : "",
                    "gasLimit" : "0x05500000",
                    "gasUsed" : "0xa0b6",
                    "hash" : "0x614f822ba4be51ad855719d49186cd1a44bcc1f42bb4a3476cb04f253da371b9",
                    "mixHash" : "0x0000000000000000000000000000000000000000000000000000000000000000",
                    "nonce" : "0x0000000000000000",
                    "number" : "0x01",
                    "parentHash" : "0x6ca656b9926d7ec1528ae449b2b6d71f0704a26d88e9673acf28666b947cf89a",
                    "receiptTrie" : "0xeddfd05753b3b8adf90a55fbc1c6229524623d4a39e35c8133db4264f3d1e7f3",
                    "stateRoot" : "0x506cb9e010d8cc9e66e58ae979e5d2e0bec97c9816548373aedfd2fb8fb8f941",
                    "timestamp" : "0x03e8",
                    "transactionsTrie" : "0xc8c18027846bd1c61c16978b326d3f9d593bcfca5812a304eb75bc24342d210a",
                    "uncleHash" : "0x1dcc4de8dec75d7aab85b567b6ccd41ad312451b948a7413f0a142fd40d49347"
                },
                "rlp" : "0xf90263f901f8a06ca656b9926d7ec1528ae449b2b6d71f0704a26d88e9673acf28666b947cf89aa01dcc4de8dec75d7aab85b567b6ccd41ad312451b948a7413f0a142fd40d49347942adc25665018aa1fe0e6bc666dac8fc2697ff9baa0506cb9e010d8cc9e66e58ae979e5d2e0bec97c9816548373aedfd2fb8fb8f941a0c8c18027846bd1c61c16978b326d3f9d593bcfca5812a304eb75bc24342d210aa0eddfd05753b3b8adf90a55fbc1c6229524623d4a39e35c8133db4264f3d1e7f3b90100000000000000000000000000000000000000000000000000000000000000000000000000000000000000000000000000000000000000000000000000000000000000000000000000000000000000000000000000000000000000000000000000000000000000000000000000000000000000000000000000000000000000000000000000000000000000000000000000000000000000000000000000000000000000000000000000000000000000000000000000000000000000000000000000000000000000000000000000000000000000000000000000000000000000000000000000000000000000000000000000000000000000000000000000000000008302000001840550000082a0b68203e880a00000000000000000000000000000000000000000000000000000000000000000880000000000000000f865f8638001840500000194abcdabcdabcdabcdabcdabcdabcdabcdabcdabcd808212341ba0b087058dfdb8d214b905622f15522cc742f9422d63a76e89db431ea9fa526b4ba0459e109b9fcab62f0e762a6452a98e6b7400257b0cdf003f2d3ed9f2fe25e047c0",
                "transactions" : [
                    {
                        "data" : "0x1234",
                        "gasLimit" : "0x05000001",
                        "gasPrice" : "0x01",
                        "nonce" : "0x00",
                        "r" : "0xb087058dfdb8d214b905622f15522cc742f9422d63a76e89db431ea9fa526b4b",
                        "s" : "0x459e109b9fcab62f0e762a6452a98e6b7400257b0cdf003f2d3ed9f2fe25e047",
                        "to" : "0xabcdabcdabcdabcdabcdabcdabcdabcdabcdabcd",
                        "v" : "0x1b",
                        "value" : "0x00"
                    }
                ],
                "uncleHeaders" : [
                ]
            }
        ],
        "genesisBlockHeader" : {
            "bloom" : "0x00000000000000000000000000000000000000000000000000000000000000000000000000000000000000000000000000000000000000000000000000000000000000000000000000000000000000000000000000000000000000000000000000000000000000000000000000000000000000000000000000000000000000000000000000000000000000000000000000000000000000000000000000000000000000000000000000000000000000000000000000000000000000000000000000000000000000000000000000000000000000000000000000000000000000000000000000000000000000000000000000000000000000000000000000000000",
            "coinbase" : "0x2adc25665018aa1fe0e6bc666dac8fc2697ff9ba",
            "difficulty" : "0x020000",
            "extraData" : "0x42",
            "gasLimit" : "0x05500000",
            "gasUsed" : "0x00",
            "hash" : "0x6ca656b9926d7ec1528ae449b2b6d71f0704a26d88e9673acf28666b947cf89a",
            "mixHash" : "0x56e81f171bcc55a6ff8345e692c0f86e5b48e01b996cadc001622fb5e363b421",
            "nonce" : "0x0102030405060708",
            "number" : "0x00",
            "parentHash" : "0x0000000000000000000000000000000000000000000000000000000000000000",
            "receiptTrie" : "0x56e81f171bcc55a6ff8345e692c0f86e5b48e01b996cadc001622fb5e363b421",
            "stateRoot" : "0xf86da66e34c83a32022130d49babcd96123bef79f7a94b396081018278caadbd",
            "timestamp" : "0x03b6",
            "transactionsTrie" : "0x56e81f171bcc55a6ff8345e692c0f86e5b48e01b996cadc001622fb5e363b421",
            "uncleHash" : "0x1dcc4de8dec75d7aab85b567b6ccd41ad312451b948a7413f0a142fd40d49347"
        },
        "genesisRLP" : "0xf901fbf901f6a00000000000000000000000000000000000000000000000000000000000000000a01dcc4de8dec75d7aab85b567b6ccd41ad312451b948a7413f0a142fd40d49347942adc25665018aa1fe0e6bc666dac8fc2697ff9baa0f86da66e34c83a32022130d49babcd96123bef79f7a94b396081018278caadbda056e81f171bcc55a6ff8345e692c0f86e5b48e01b996cadc001622fb5e363b421a056e81f171bcc55a6ff8345e692c0f86e5b48e01b996cadc001622fb5e363b421b901000000000000000000000000000000000000000000000000000000000000000000000000000000000000000000000000000000000000000000000000000000000000000000000000000000000000000000000000000000000000000000000000000000000000000000000000000000000000000000000000000000000000000000000000000000000000000000000000000000000000000000000000000000000000000000000000000000000000000000000000000000000000000000000000000000000000000000000000000000000000000000000000000000000000000000000000000000000000000000000000000000000000000000000000000000000083020000808405500000808203b642a056e81f171bcc55a6ff8345e692c0f86e5b48e01b996cadc001622fb5e363b421880102030405060708c0c0",
        "lastblockhash" : "0x614f822ba4be51ad855719d49186cd1a44bcc1f42bb4a3476cb04f253da371b9",
        "network" : "Byzantium",
        "postState" : {
            "0x2adc25665018aa1fe0e6bc666dac8fc2697ff9ba" : {
                "balance" : "0x29a2241af62ca0b6",
                "code" : "",
                "nonce" : "0x00",
                "storage" : {
                }
            },
            "0xa94f5374fce5edbc8e2a8697c15331677e6ebf0b" : {
                "balance" : "0x174876474a",
                "code" : "",
                "nonce" : "0x01",
                "storage" : {
                }
            },
            "0xabcdabcdabcdabcdabcdabcdabcdabcdabcdabcd" : {
                "balance" : "0x174876e800",
                "code" : "0x0061736d01000000010f0360037f7f7f0060027f7f0060000002310208657468657265756d0c63616c6c44617461436f7079000008657468657265756d0c73746f7261676553746f72650001030201020503010001071102046d61696e0002066d656d6f727902000a1201100041204100410210004100412010010b",
                "nonce" : "0x00",
                "storage" : {
                    "0x00" : "0x1234000000000000000000000000000000000000000000000000000000000000"
                }
            }
        },
        "pre" : {
            "0xa94f5374fce5edbc8e2a8697c15331677e6ebf0b" : {
                "balance" : "0x174876e800",
                "code" : "",
                "nonce" : "0x00",
                "storage" : {
                }
            },
            "0xabcdabcdabcdabcdabcdabcdabcdabcdabcdabcd" : {
                "balance" : "0x174876e800",
                "code" : "0x0061736d01000000010f0360037f7f7f0060027f7f0060000002310208657468657265756d0c63616c6c44617461436f7079000008657468657265756d0c73746f7261676553746f72650001030201020503010001071102046d61696e0002066d656d6f727902000a1201100041204100410210004100412010010b",
                "nonce" : "0x00",
                "storage" : {
                }
            }
        },
        "sealEngine" : "NoProof"
    }
}