{
    "callValueNonExistingAcct_d0g0v0_Byzantium" : {
        "_info" : {
            "comment" : "",
            "filledwith" : "testeth 1.5.0-alpha.6",
            "lllcversion" : "Version: 0.5.0-develop.2018.11.8+commit.20481055.Linux.g++",
            "source" : "src/BlockchainTestsFiller/GeneralStateTests/stEWASMTests/callValueNonExistingAcct_d0g0v0Filler.json",
            "sourceHash" : "1efdff55a582b5b3a8e9b266b2fb642a6a72be36fc08a308b84c9f15cf474fed"
        },
        "blocks" : [
            {
                "blockHeader" : {
                    "bloom" : "0x00000000000000000000000000000000000000000000000000000000000000000000000000000000000000000000000000000000000000000000000000000000000000000000000000000000000000000000000000000000000000000000000000000000000000000000000000000000000000000000000000000000000000000000000000000000000000000000000000000000000000000000000000000000000000000000000000000000000000000000000000000000000000000000000000000000000000000000000000000000000000000000000000000000000000000000000000000000000000000000000000000000000000000000000000000000",
                    "coinbase" : "0x2adc25665018aa1fe0e6bc666dac8fc2697ff9ba",
                    "difficulty" : "0x020000",
                    "extraData" : "",
                    "gasLimit" : "0x0f500000",
                    "gasUsed" : "0xd098",
                    "hash" : "0x33b07b79d65e3e7196d1a226ce70fab73e5ad04a4202ba736fd9b433594ff02c",
                    "mixHash" : "0x0000000000000000000000000000000000000000000000000000000000000000",
                    "nonce" : "0x0000000000000000",
                    "number" : "0x01",
                    "parentHash" : "0xad0bf76c67c07385bc622712f8f0b293a94157f69a194798735f574961e5673e",
                    "receiptTrie" : "0xec4cc2c3c792ef5865cfbedba8574a214dd1b42bcb3f10c27055db9b0e436bbb",
                    "stateRoot" : "0x98fa7e19f7e17f85b9279149f00711c7372c06bbfc052aef173f06313843f3d1",
                    "timestamp" : "0x03e8",
                    "transactionsTrie" : "0xd3479fee77b18b138f38a6ffb55e1b067ce48badb06c16ff16267e79e3b853f0",
                    "uncleHash" : "0x1dcc4de8dec75d7aab85b567b6ccd41ad312451b948a7413f0a142fd40d49347"
                },
                "rlp" : "0xf90261f901f8a0ad0bf76c67c07385bc622712f8f0b293a94157f69a194798735f574961e5673ea01dcc4de8dec75d7aab85b567b6ccd41ad312451b948a7413f0a142fd40d49347942adc25665018aa1fe0e6bc666dac8fc2697ff9baa098fa7e19f7e17f85b9279149f00711c7372c06bbfc052aef173f06313843f3d1a0d3479fee77b18b138f38a6ffb55e1b067ce48badb06c16ff16267e79e3b853f0a0ec4cc2c3c792ef5865cfbedba8574a214dd1b42bcb3f10c27055db9b0e436bbbb90100000000000000000000000000000000000000000000000000000000000000000000000000000000000000000000000000000000000000000000000000000000000000000000000000000000000000000000000000000000000000000000000000000000000000000000000000000000000000000000000000000000000000000000000000000000000000000000000000000000000000000000000000000000000000000000000000000000000000000000000000000000000000000000000000000000000000000000000000000000000000000000000000000000000000000000000000000000000000000000000000000000000000000000000000000000008302000001840f50000082d0988203e880a00000000000000000000000000000000000000000000000000000000000000000880000000000000000f863f8618001840f50000094deadbeef0000000000000000000000000000000180801ba02f325b1b1484447c5fbcbbbf2953f2019df486d61e735ede3b67d00b55fb34c1a003056bbc1b7e11ba27f8b0e3880bad40e05f46190e414bc9af060cac67980469c0",
                "transactions" : [
                    {
                        "data" : "0x",
                        "gasLimit" : "0x0f500000",
                        "gasPrice" : "0x01",
                        "nonce" : "0x00",
                        "r" : "0x2f325b1b1484447c5fbcbbbf2953f2019df486d61e735ede3b67d00b55fb34c1",
                        "s" : "0x03056bbc1b7e11ba27f8b0e3880bad40e05f46190e414bc9af060cac67980469",
                        "to" : "0xdeadbeef00000000000000000000000000000001",
                        "v" : "0x1b",
                        "value" : "0x00"
                    }
                ],
                "uncleHeaders" : [
                ]
            }
        ],
        "genesisBlockHeader" : {
            "bloom" : "0x00000000000000000000000000000000000000000000000000000000000000000000000000000000000000000000000000000000000000000000000000000000000000000000000000000000000000000000000000000000000000000000000000000000000000000000000000000000000000000000000000000000000000000000000000000000000000000000000000000000000000000000000000000000000000000000000000000000000000000000000000000000000000000000000000000000000000000000000000000000000000000000000000000000000000000000000000000000000000000000000000000000000000000000000000000000",
            "coinbase" : "0x2adc25665018aa1fe0e6bc666dac8fc2697ff9ba",
            "difficulty" : "0x020000",
            "extraData" : "0x42",
            "gasLimit" : "0x0f500000",
            "gasUsed" : "0x00",
            "hash" : "0xad0bf76c67c07385bc622712f8f0b293a94157f69a194798735f574961e5673e",
            "mixHash" : "0x56e81f171bcc55a6ff8345e692c0f86e5b48e01b996cadc001622fb5e363b421",
            "nonce" : "0x0102030405060708",
            "number" : "0x00",
            "parentHash" : "0x0000000000000000000000000000000000000000000000000000000000000000",
            "receiptTrie" : "0x56e81f171bcc55a6ff8345e692c0f86e5b48e01b996cadc001622fb5e363b421",
            "stateRoot" : "0xd79e4da67caabfb1b9f02f1d27794454bd45f2f69f0e1f39581645cf4eed664b",
            "timestamp" : "0x03b6",
            "transactionsTrie" : "0x56e81f171bcc55a6ff8345e692c0f86e5b48e01b996cadc001622fb5e363b421",
            "uncleHash" : "0x1dcc4de8dec75d7aab85b567b6ccd41ad312451b948a7413f0a142fd40d49347"
        },
        "genesisRLP" : "0xf901fbf901f6a00000000000000000000000000000000000000000000000000000000000000000a01dcc4de8dec75d7aab85b567b6ccd41ad312451b948a7413f0a142fd40d49347942adc25665018aa1fe0e6bc666dac8fc2697ff9baa0d79e4da67caabfb1b9f02f1d27794454bd45f2f69f0e1f39581645cf4eed664ba056e81f171bcc55a6ff8345e692c0f86e5b48e01b996cadc001622fb5e363b421a056e81f171bcc55a6ff8345e692c0f86e5b48e01b996cadc001622fb5e363b421b90100000000000000000000000000000000000000000000000000000000000000000000000000000000000000000000000000000000000000000000000000000000000000000000000000000000000000000000000000000000000000000000000000000000000000000000000000000000000000000000000000000000000000000000000000000000000000000000000000000000000000000000000000000000000000000000000000000000000000000000000000000000000000000000000000000000000000000000000000000000000000000000000000000000000000000000000000000000000000000000000000000000000000000000000000000000008302000080840f500000808203b642a056e81f171bcc55a6ff8345e692c0f86e5b48e01b996cadc001622fb5e363b421880102030405060708c0c0",
        "lastblockhash" : "0x33b07b79d65e3e7196d1a226ce70fab73e5ad04a4202ba736fd9b433594ff02c",
        "network" : "Byzantium",
        "postState" : {
            "0x2adc25665018aa1fe0e6bc666dac8fc2697ff9ba" : {
                "balance" : "0x29a2241af62cd098",
                "code" : "",
                "nonce" : "0x00",
                "storage" : {
                }
            },
            "0xa94f5374fce5edbc8e2a8697c15331677e6ebf0b" : {
                "balance" : "0x1748761768",
                "code" : "",
                "nonce" : "0x01",
                "storage" : {
                }
            },
            "0xdeadbeef00000000000000000000000000000001" : {
                "balance" : "0x174875e5fd",
                "code" : "0x0061736d01000000010d0260057e7f7f7f7f017f60000002110108657468657265756d0463616c6c0000030201010503010001071102066d656d6f72790200046d61696e00010a16011400428084afdf004100412041c000412010001a0b0b33020041000b14deadbeef000000000000000000000000000000020041200b140302010000000000000000000000000000000000",
                "nonce" : "0x00",
                "storage" : {
                }
            },
            "0xdeadbeef00000000000000000000000000000002" : {
                "balance" : "0x010203",
                "code" : "",
                "nonce" : "0x00",
                "storage" : {
                }
            }
        },
        "pre" : {
            "0xa94f5374fce5edbc8e2a8697c15331677e6ebf0b" : {
                "balance" : "0x174876e800",
                "code" : "",
                "nonce" : "0x00",
                "storage" : {
                }
            },
            "0xdeadbeef00000000000000000000000000000001" : {
                "balance" : "0x174876e800",
                "code" : "0x0061736d01000000010d0260057e7f7f7f7f017f60000002110108657468657265756d0463616c6c0000030201010503010001071102066d656d6f72790200046d61696e00010a16011400428084afdf004100412041c000412010001a0b0b33020041000b14deadbeef000000000000000000000000000000020041200b140302010000000000000000000000000000000000",
                "nonce" : "0x00",
                "storage" : {
                }
            }
        },
        "sealEngine" : "NoProof"
    }
}