{
    "callDataCopy256_d0g0v0_Byzantium" : {
        "_info" : {
            "comment" : "",
            "filledwith" : "testeth 1.5.0-alpha.6",
            "lllcversion" : "Version: 0.5.0-develop.2018.11.8+commit.20481055.Linux.g++",
            "source" : "src/BlockchainTestsFiller/GeneralStateTests/stEWASMTests/callDataCopy256_d0g0v0Filler.json",
            "sourceHash" : "4f702140618439cea062d72d15a58952d3815dbee2ae3f22e80e4575de0b9a94"
        },
        "blocks" : [
            {
                "blockHeader" : {
                    "bloom" : "0x00000000000000000000000000000000000000000000000000000000000000000000000000000000000000000000000000000000000000000000000000000000000000000000000000000000000000000000000000000000000000000000000000000000000000000000000000000000000000000000000000000000000000000000000000000000000000000000000000000000000000000000000000000000000000000000000000000000000000000000000000000000000000000000000000000000000000000000000000000000000000000000000000000000000000000000000000000000000000000000000000000000000000000000000000000000",
                    "coinbase" : "0x2adc25665018aa1fe0e6bc666dac8fc2697ff9ba",
                    "difficulty" : "0x020000",
                    "extraData" : "",
                    "gasLimit" : "0x05500000",
                    "gasUsed" : "0xa8ae",
                    "hash" : "0x5ae26a5d3eeb41141635275a06e1066c8a7d64f002bf052a692cc8867cda4643",
                    "mixHash" : "0x0000000000000000000000000000000000000000000000000000000000000000",
                    "nonce" : "0x0000000000000000",
                    "number" : "0x01",
                    "parentHash" : "0x91318820fd5a30d826651132dd76c5b7fe686fe5bc158362961b6382dcc7ade2",
                    "receiptTrie" : "0xa2547761d5f416d2202a4a962a69cdd86991ecd5804ed6faaf10c450848e46de",
                    "stateRoot" : "0xf6147a43c66b68a255c92067a3153a8e17e8d30968e11566799beaaab3b6a6ad",
                    "timestamp" : "0x03e8",
                    "transactionsTrie" : "0xafa72a03b84266c0ce654e04cef6a6531c904d450836a70a0e445513c4df065a",
                    "uncleHash" : "0x1dcc4de8dec75d7aab85b567b6ccd41ad312451b948a7413f0a142fd40d49347"
                },
                "rlp" : "0xf90281f901f8a091318820fd5a30d826651132dd76c5b7fe686fe5bc158362961b6382dcc7ade2a01dcc4de8dec75d7aab85b567b6ccd41ad312451b948a7413f0a142fd40d49347942adc25665018aa1fe0e6bc666dac8fc2697ff9baa0f6147a43c66b68a255c92067a3153a8e17e8d30968e11566799beaaab3b6a6ada0afa72a03b84266c0ce654e04cef6a6531c904d450836a70a0e445513c4df065aa0a2547761d5f416d2202a4a962a69cdd86991ecd5804ed6faaf10c450848e46deb90100000000000000000000000000000000000000000000000000000000000000000000000000000000000000000000000000000000000000000000000000000000000000000000000000000000000000000000000000000000000000000000000000000000000000000000000000000000000000000000000000000000000000000000000000000000000000000000000000000000000000000000000000000000000000000000000000000000000000000000000000000000000000000000000000000000000000000000000000000000000000000000000000000000000000000000000000000000000000000000000000000000000000000000000000000000008302000001840550000082a8ae8203e880a00000000000000000000000000000000000000000000000000000000000000000880000000000000000f883f8818001840500000194abcdabcdabcdabcdabcdabcdabcdabcdabcdabcd80a01234567890abcdef1a2a3a4a5a6a7a8a9aaa0102030405060708090a0b0c0d0e1ba0d02ccf19a6f7c2c3ea6757b0dc640d4ca681aa4e7c16c9a5491ae5f21d8bc118a03bdd3e918a8535cae7c3492211e9394bd76e1adf089d12971a27fb5c0f4a9ef2c0",
                "transactions" : [
                    {
                        "data" : "0x1234567890abcdef1a2a3a4a5a6a7a8a9aaa0102030405060708090a0b0c0d0e",
                        "gasLimit" : "0x05000001",
                        "gasPrice" : "0x01",
                        "nonce" : "0x00",
                        "r" : "0xd02ccf19a6f7c2c3ea6757b0dc640d4ca681aa4e7c16c9a5491ae5f21d8bc118",
                        "s" : "0x3bdd3e918a8535cae7c3492211e9394bd76e1adf089d12971a27fb5c0f4a9ef2",
                        "to" : "0xabcdabcdabcdabcdabcdabcdabcdabcdabcdabcd",
                        "v" : "0x1b",
                        "value" : "0x00"
                    }
                ],
                "uncleHeaders" : [
                ]
            }
        ],
        "genesisBlockHeader" : {
            "bloom" : "0x00000000000000000000000000000000000000000000000000000000000000000000000000000000000000000000000000000000000000000000000000000000000000000000000000000000000000000000000000000000000000000000000000000000000000000000000000000000000000000000000000000000000000000000000000000000000000000000000000000000000000000000000000000000000000000000000000000000000000000000000000000000000000000000000000000000000000000000000000000000000000000000000000000000000000000000000000000000000000000000000000000000000000000000000000000000",
            "coinbase" : "0x2adc25665018aa1fe0e6bc666dac8fc2697ff9ba",
            "difficulty" : "0x020000",
            "extraData" : "0x42",
            "gasLimit" : "0x05500000",
            "gasUsed" : "0x00",
            "hash" : "0x91318820fd5a30d826651132dd76c5b7fe686fe5bc158362961b6382dcc7ade2",
            "mixHash" : "0x56e81f171bcc55a6ff8345e692c0f86e5b48e01b996cadc001622fb5e363b421",
            "nonce" : "0x0102030405060708",
            "number" : "0x00",
            "parentHash" : "0x0000000000000000000000000000000000000000000000000000000000000000",
            "receiptTrie" : "0x56e81f171bcc55a6ff8345e692c0f86e5b48e01b996cadc001622fb5e363b421",
            "stateRoot" : "0xd6105bb0e9987aedcf00d44c8963a6b7216149461702b52bdb8d4b0b5e93dbd8",
            "timestamp" : "0x03b6",
            "transactionsTrie" : "0x56e81f171bcc55a6ff8345e692c0f86e5b48e01b996cadc001622fb5e363b421",
            "uncleHash" : "0x1dcc4de8dec75d7aab85b567b6ccd41ad312451b948a7413f0a142fd40d49347"
        },
        "genesisRLP" : "0xf901fbf901f6a00000000000000000000000000000000000000000000000000000000000000000a01dcc4de8dec75d7aab85b567b6ccd41ad312451b948a7413f0a142fd40d49347942adc25665018aa1fe0e6bc666dac8fc2697ff9baa0d6105bb0e9987aedcf00d44c8963a6b7216149461702b52bdb8d4b0b5e93dbd8a056e81f171bcc55a6ff8345e692c0f86e5b48e01b996cadc001622fb5e363b421a056e81f171bcc55a6ff8345e692c0f86e5b48e01b996cadc001622fb5e363b421b901000000000000000000000000000000000000000000000000000000000000000000000000000000000000000000000000000000000000000000000000000000000000000000000000000000000000000000000000000000000000000000000000000000000000000000000000000000000000000000000000000000000000000000000000000000000000000000000000000000000000000000000000000000000000000000000000000000000000000000000000000000000000000000000000000000000000000000000000000000000000000000000000000000000000000000000000000000000000000000000000000000000000000000000000000000000083020000808405500000808203b642a056e81f171bcc55a6ff8345e692c0f86e5b48e01b996cadc001622fb5e363b421880102030405060708c0c0",
        "lastblockhash" : "0x5ae26a5d3eeb41141635275a06e1066c8a7d64f002bf052a692cc8867cda4643",
        "network" : "Byzantium",
        "postState" : {
            "0x2adc25665018aa1fe0e6bc666dac8fc2697ff9ba" : {
                "balance" : "0x29a2241af62ca8ae",
                "code" : "",
                "nonce" : "0x00",
                "storage" : {
                }
            },
            "0xa94f5374fce5edbc8e2a8697c15331677e6ebf0b" : {
                "balance" : "0x1748763f52",
                "code" : "",
                "nonce" : "0x01",
                "storage" : {
                }
            },
            "0xabcdabcdabcdabcdabcdabcdabcdabcdabcdabcd" : {
                "balance" : "0x174876e800",
                "code" : "0x0061736d01000000010f0360037f7f7f0060027f7f0060000002310208657468657265756d0c63616c6c44617461436f7079000008657468657265756d0c73746f7261676553746f72650001030201020503010001071102046d61696e0002066d656d6f727902000a1201100041204100412010004100412010010b",
                "nonce" : "0x00",
                "storage" : {
                    "0x00" : "0x1234567890abcdef1a2a3a4a5a6a7a8a9aaa0102030405060708090a0b0c0d0e"
                }
            }
        },
        "pre" : {
            "0xa94f5374fce5edbc8e2a8697c15331677e6ebf0b" : {
                "balance" : "0x174876e800",
                "code" : "",
                "nonce" : "0x00",
                "storage" : {
                }
            },
            "0xabcdabcdabcdabcdabcdabcdabcdabcdabcdabcd" : {
                "balance" : "0x174876e800",
                "code" : "0x0061736d01000000010f0360037f7f7f0060027f7f0060000002310208657468657265756d0c63616c6c44617461436f7079000008657468657265756d0c73746f7261676553746f72650001030201020503010001071102046d61696e0002066d656d6f727902000a1201100041204100412010004100412010010b",
                "nonce" : "0x00",
                "storage" : {
                }
            }
        },
        "sealEngine" : "NoProof"
    }
}