{
    "codeCopyPartiallyOOB_d0g0v0_Byzantium" : {
        "_info" : {
            "comment" : "",
            "filledwith" : "testeth 1.5.0-alpha.6",
            "lllcversion" : "Version: 0.5.0-develop.2018.11.8+commit.20481055.Linux.g++",
            "source" : "src/BlockchainTestsFiller/GeneralStateTests/stEWASMTests/codeCopyPartiallyOOB_d0g0v0Filler.json",
            "sourceHash" : "f663d55e08fa37a4490c1ae2d226cdb8ca5073cd774d2d24e28182a8a45bfa61"
        },
        "blocks" : [
            {
                "blockHeader" : {
                    "bloom" : "0x00000000000000000000000000000000000000000000000000000000000000000000000000000000000000000000000000000000000000000000000000000000000000000000000000000000000000000000000000000000000000000000000000000000000000000000000000000000000000000000000000000000000000000000000000000000000000000000000000000000000000000000000000000000000000000000000000000000000000000000000000000000000000000000000000000000000000000000000000000000000000000000000000000000000000000000000000000000000000000000000000000000000000000000000000000000",
                    "coinbase" : "0x2adc25665018aa1fe0e6bc666dac8fc2697ff9ba",
                    "difficulty" : "0x020000",
                    "extraData" : "",
                    "gasLimit" : "0x05500000",
                    "gasUsed" : "0x05000001",
                    "hash" : "0x0bae63765720587fbe8f3ff9a0b8f435b525a3a0253bbf29616e4eae4e500c17",
                    "mixHash" : "0x0000000000000000000000000000000000000000000000000000000000000000",
                    "nonce" : "0x0000000000000000",
                    "number" : "0x01",
                    "parentHash" : "0xdc334bffbc589313c4b52d73277b2fbb6d0300c50a56d8b5cb44653e62a2bbcf",
                    "receiptTrie" : "0xadd511b2e236adfaa58861d2dbf9583d9a4670d94f3541f4c4742059aa9b731f",
                    "stateRoot" : "0x5f077070694283d38b056e3a6e75e82bdba62247b0c0e3849cca23d57df4503f",
                    "timestamp" : "0x03e8",
                    "transactionsTrie" : "0x544ce9c019a2f652c4bd2a7feb8be343c5012987e064fd4edad55b72ed4d57b6",
                    "uncleHash" : "0x1dcc4de8dec75d7aab85b567b6ccd41ad312451b948a7413f0a142fd40d49347"
                },
                "rlp" : "0xf90265f901faa0dc334bffbc589313c4b52d73277b2fbb6d0300c50a56d8b5cb44653e62a2bbcfa01dcc4de8dec75d7aab85b567b6ccd41ad312451b948a7413f0a142fd40d49347942adc25665018aa1fe0e6bc666dac8fc2697ff9baa05f077070694283d38b056e3a6e75e82bdba62247b0c0e3849cca23d57df4503fa0544ce9c019a2f652c4bd2a7feb8be343c5012987e064fd4edad55b72ed4d57b6a0add511b2e236adfaa58861d2dbf9583d9a4670d94f3541f4c4742059aa9b731fb90100000000000000000000000000000000000000000000000000000000000000000000000000000000000000000000000000000000000000000000000000000000000000000000000000000000000000000000000000000000000000000000000000000000000000000000000000000000000000000000000000000000000000000000000000000000000000000000000000000000000000000000000000000000000000000000000000000000000000000000000000000000000000000000000000000000000000000000000000000000000000000000000000000000000000000000000000000000000000000000000000000000000000000000000000000000008302000001840550000084050000018203e880a00000000000000000000000000000000000000000000000000000000000000000880000000000000000f865f8638001840500000194deadbeef000000000000000000000000000000008082ffff1ba04fdc8af8d0b7491007060a5ec0d354aa4244a6a0281dfe1bd9323004393098d4a024f0961320b1a07c63bb5eab1b6b1051bf51ce034068ee76556856d61b37570dc0",
                "transactions" : [
                    {
                        "data" : "0xffff",
                        "gasLimit" : "0x05000001",
                        "gasPrice" : "0x01",
                        "nonce" : "0x00",
                        "r" : "0x4fdc8af8d0b7491007060a5ec0d354aa4244a6a0281dfe1bd9323004393098d4",
                        "s" : "0x24f0961320b1a07c63bb5eab1b6b1051bf51ce034068ee76556856d61b37570d",
                        "to" : "0xdeadbeef00000000000000000000000000000000",
                        "v" : "0x1b",
                        "value" : "0x00"
                    }
                ],
                "uncleHeaders" : [
                ]
            }
        ],
        "genesisBlockHeader" : {
            "bloom" : "0x00000000000000000000000000000000000000000000000000000000000000000000000000000000000000000000000000000000000000000000000000000000000000000000000000000000000000000000000000000000000000000000000000000000000000000000000000000000000000000000000000000000000000000000000000000000000000000000000000000000000000000000000000000000000000000000000000000000000000000000000000000000000000000000000000000000000000000000000000000000000000000000000000000000000000000000000000000000000000000000000000000000000000000000000000000000",
            "coinbase" : "0x2adc25665018aa1fe0e6bc666dac8fc2697ff9ba",
            "difficulty" : "0x020000",
            "extraData" : "0x42",
            "gasLimit" : "0x05500000",
            "gasUsed" : "0x00",
            "hash" : "0xdc334bffbc589313c4b52d73277b2fbb6d0300c50a56d8b5cb44653e62a2bbcf",
            "mixHash" : "0x56e81f171bcc55a6ff8345e692c0f86e5b48e01b996cadc001622fb5e363b421",
            "nonce" : "0x0102030405060708",
            "number" : "0x00",
            "parentHash" : "0x0000000000000000000000000000000000000000000000000000000000000000",
            "receiptTrie" : "0x56e81f171bcc55a6ff8345e692c0f86e5b48e01b996cadc001622fb5e363b421",
            "stateRoot" : "0xbed4d959469ae52ba5e38de406cd1e26a12aa25643ec1e9a76205f176c795e15",
            "timestamp" : "0x03b6",
            "transactionsTrie" : "0x56e81f171bcc55a6ff8345e692c0f86e5b48e01b996cadc001622fb5e363b421",
            "uncleHash" : "0x1dcc4de8dec75d7aab85b567b6ccd41ad312451b948a7413f0a142fd40d49347"
        },
        "genesisRLP" : "0xf901fbf901f6a00000000000000000000000000000000000000000000000000000000000000000a01dcc4de8dec75d7aab85b567b6ccd41ad312451b948a7413f0a142fd40d49347942adc25665018aa1fe0e6bc666dac8fc2697ff9baa0bed4d959469ae52ba5e38de406cd1e26a12aa25643ec1e9a76205f176c795e15a056e81f171bcc55a6ff8345e692c0f86e5b48e01b996cadc001622fb5e363b421a056e81f171bcc55a6ff8345e692c0f86e5b48e01b996cadc001622fb5e363b421b901000000000000000000000000000000000000000000000000000000000000000000000000000000000000000000000000000000000000000000000000000000000000000000000000000000000000000000000000000000000000000000000000000000000000000000000000000000000000000000000000000000000000000000000000000000000000000000000000000000000000000000000000000000000000000000000000000000000000000000000000000000000000000000000000000000000000000000000000000000000000000000000000000000000000000000000000000000000000000000000000000000000000000000000000000000000083020000808405500000808203b642a056e81f171bcc55a6ff8345e692c0f86e5b48e01b996cadc001622fb5e363b421880102030405060708c0c0",
        "lastblockhash" : "0x0bae63765720587fbe8f3ff9a0b8f435b525a3a0253bbf29616e4eae4e500c17",
        "network" : "Byzantium",
        "postState" : {
            "0x2adc25665018aa1fe0e6bc666dac8fc2697ff9ba" : {
                "balance" : "0x29a2241afb2c0001",
                "code" : "",
                "nonce" : "0x00",
                "storage" : {
                }
            },
            "0xa94f5374fce5edbc8e2a8697c15331677e6ebf0b" : {
                "balance" : "0x174376e7ff",
                "code" : "",
                "nonce" : "0x01",
                "storage" : {
                }
            },
            "0xdeadbeef00000000000000000000000000000000" : {
                "balance" : "0x174876e800",
                "code" : "0x0061736d0100000001130460037f7f7f006000017f60027f7f0060000002440308657468657265756d08636f6465436f7079000008657468657265756d0b676574436f646553697a65000108657468657265756d0c73746f7261676553746f72650002030201030503010001071102066d656d6f72790200046d61696e00030a3a013801057f410021004120210141c000210241e000210320034101360200100121042002200441056b410a10002000200210022001200310020b0b4b020041000b2001000000000000000000000000000000000000000000000000000000000000000041200b200200000000000000000000000000000000000000000000000000000000000000",
                "nonce" : "0x00",
                "storage" : {
                }
            }
        },
        "pre" : {
            "0xa94f5374fce5edbc8e2a8697c15331677e6ebf0b" : {
                "balance" : "0x174876e800",
                "code" : "",
                "nonce" : "0x00",
                "storage" : {
                }
            },
            "0xdeadbeef00000000000000000000000000000000" : {
                "balance" : "0x174876e800",
                "code" : "0x0061736d0100000001130460037f7f7f006000017f60027f7f0060000002440308657468657265756d08636f6465436f7079000008657468657265756d0b676574436f646553697a65000108657468657265756d0c73746f7261676553746f72650002030201030503010001071102066d656d6f72790200046d61696e00030a3a013801057f410021004120210141c000210241e000210320034101360200100121042002200441056b410a10002000200210022001200310020b0b4b020041000b2001000000000000000000000000000000000000000000000000000000000000000041200b200200000000000000000000000000000000000000000000000000000000000000",
                "nonce" : "0x00",
                "storage" : {
                }
            }
        },
        "sealEngine" : "NoProof"
    }
}