{
    "codeCopy_d0g0v0_Byzantium" : {
        "_info" : {
            "comment" : "",
            "filledwith" : "testeth 1.5.0-alpha.6",
            "lllcversion" : "Version: 0.5.0-develop.2018.11.8+commit.20481055.Linux.g++",
            "source" : "src/BlockchainTestsFiller/GeneralStateTests/stEWASMTests/codeCopy_d0g0v0Filler.json",
            "sourceHash" : "8ee2077bfa9452a4a78da062ea5ba9d484b90b878db1aec6d1938fed2d800d8a"
        },
        "blocks" : [
            {
                "blockHeader" : {
                    "bloom" : "0x00000000000000000000000000000000000000000000000000000000000000000000000000000000000000000000000000000000000000000000000000000000000000000000000000000000000000000000000000000000000000000000000000000000000000000000000000000000000000000000000000000000000000000000000000000000000000000000000000000000000000000000000000000000000000000000000000000000000000000000000000000000000000000000000000000000000000000000000000000000000000000000000000000000000000000000000000000000000000000000000000000000000000000000000000000000",
                    "coinbase" : "0x2adc25665018aa1fe0e6bc666dac8fc2697ff9ba",
                    "difficulty" : "0x020000",
                    "extraData" : "",
                    "gasLimit" : "0x05500000",
                    "gasUsed" : "0xa0b6",
                    "hash" : "0x5af9f80315054e6b1fd3234b2b203979ee1dca41bd59d9264adb40b0bd3cf86f",
                    "mixHash" : "0x0000000000000000000000000000000000000000000000000000000000000000",
                    "nonce" : "0x0000000000000000",
                    "number" : "0x01",
                    "parentHash" : "0x43223f4be79dd6d29ff53c69708708b19eb665b8a3eb8a7e43b8be862c66cd0b",
                    "receiptTrie" : "0xeddfd05753b3b8adf90a55fbc1c6229524623d4a39e35c8133db4264f3d1e7f3",
                    "stateRoot" : "0x6a1cab23686bdc58c9b0f3c338cc52edce890e5d90c7fc367932639b378ee549",
                    "timestamp" : "0x03e8",
                    "transactionsTrie" : "0x544ce9c019a2f652c4bd2a7feb8be343c5012987e064fd4edad55b72ed4d57b6",
                    "uncleHash" : "0x1dcc4de8dec75d7aab85b567b6ccd41ad312451b948a7413f0a142fd40d49347"
                },
                "rlp" : "0xf90263f901f8a043223f4be79dd6d29ff53c69708708b19eb665b8a3eb8a7e43b8be862c66cd0ba01dcc4de8dec75d7aab85b567b6ccd41ad312451b948a7413f0a142fd40d49347942adc25665018aa1fe0e6bc666dac8fc2697ff9baa06a1cab23686bdc58c9b0f3c338cc52edce890e5d90c7fc367932639b378ee549a0544ce9c019a2f652c4bd2a7feb8be343c5012987e064fd4edad55b72ed4d57b6a0eddfd05753b3b8adf90a55fbc1c6229524623d4a39e35c8133db4264f3d1e7f3b90100000000000000000000000000000000000000000000000000000000000000000000000000000000000000000000000000000000000000000000000000000000000000000000000000000000000000000000000000000000000000000000000000000000000000000000000000000000000000000000000000000000000000000000000000000000000000000000000000000000000000000000000000000000000000000000000000000000000000000000000000000000000000000000000000000000000000000000000000000000000000000000000000000000000000000000000000000000000000000000000000000000000000000000000000000000008302000001840550000082a0b68203e880a00000000000000000000000000000000000000000000000000000000000000000880000000000000000f865f8638001840500000194deadbeef000000000000000000000000000000008082ffff1ba04fdc8af8d0b7491007060a5ec0d354aa4244a6a0281dfe1bd9323004393098d4a024f0961320b1a07c63bb5eab1b6b1051bf51ce034068ee76556856d61b37570dc0",
                "transactions" : [
                    {
                        "data" : "0xffff",
                        "gasLimit" : "0x05000001",
                        "gasPrice" : "0x01",
                        "nonce" : "0x00",
                        "r" : "0x4fdc8af8d0b7491007060a5ec0d354aa4244a6a0281dfe1bd9323004393098d4",
                        "s" : "0x24f0961320b1a07c63bb5eab1b6b1051bf51ce034068ee76556856d61b37570d",
                        "to" : "0xdeadbeef00000000000000000000000000000000",
                        "v" : "0x1b",
                        "value" : "0x00"
                    }
                ],
                "uncleHeaders" : [
                ]
            }
        ],
        "genesisBlockHeader" : {
            "bloom" : "0x00000000000000000000000000000000000000000000000000000000000000000000000000000000000000000000000000000000000000000000000000000000000000000000000000000000000000000000000000000000000000000000000000000000000000000000000000000000000000000000000000000000000000000000000000000000000000000000000000000000000000000000000000000000000000000000000000000000000000000000000000000000000000000000000000000000000000000000000000000000000000000000000000000000000000000000000000000000000000000000000000000000000000000000000000000000",
            "coinbase" : "0x2adc25665018aa1fe0e6bc666dac8fc2697ff9ba",
            "difficulty" : "0x020000",
            "extraData" : "0x42",
            "gasLimit" : "0x05500000",
            "gasUsed" : "0x00",
            "hash" : "0x43223f4be79dd6d29ff53c69708708b19eb665b8a3eb8a7e43b8be862c66cd0b",
            "mixHash" : "0x56e81f171bcc55a6ff8345e692c0f86e5b48e01b996cadc001622fb5e363b421",
            "nonce" : "0x0102030405060708",
            "number" : "0x00",
            "parentHash" : "0x0000000000000000000000000000000000000000000000000000000000000000",
            "receiptTrie" : "0x56e81f171bcc55a6ff8345e692c0f86e5b48e01b996cadc001622fb5e363b421",
            "stateRoot" : "0x3f36991ca5eee8cf436a483b19518c60155ce76d7f25f77a05a6a21e67cbb4ca",
            "timestamp" : "0x03b6",
            "transactionsTrie" : "0x56e81f171bcc55a6ff8345e692c0f86e5b48e01b996cadc001622fb5e363b421",
            "uncleHash" : "0x1dcc4de8dec75d7aab85b567b6ccd41ad312451b948a7413f0a142fd40d49347"
        },
        "genesisRLP" : "0xf901fbf901f6a00000000000000000000000000000000000000000000000000000000000000000a01dcc4de8dec75d7aab85b567b6ccd41ad312451b948a7413f0a142fd40d49347942adc25665018aa1fe0e6bc666dac8fc2697ff9baa03f36991ca5eee8cf436a483b19518c60155ce76d7f25f77a05a6a21e67cbb4caa056e81f171bcc55a6ff8345e692c0f86e5b48e01b996cadc001622fb5e363b421a056e81f171bcc55a6ff8345e692c0f86e5b48e01b996cadc001622fb5e363b421b901000000000000000000000000000000000000000000000000000000000000000000000000000000000000000000000000000000000000000000000000000000000000000000000000000000000000000000000000000000000000000000000000000000000000000000000000000000000000000000000000000000000000000000000000000000000000000000000000000000000000000000000000000000000000000000000000000000000000000000000000000000000000000000000000000000000000000000000000000000000000000000000000000000000000000000000000000000000000000000000000000000000000000000000000000000000083020000808405500000808203b642a056e81f171bcc55a6ff8345e692c0f86e5b48e01b996cadc001622fb5e363b421880102030405060708c0c0",
        "lastblockhash" : "0x5af9f80315054e6b1fd3234b2b203979ee1dca41bd59d9264adb40b0bd3cf86f",
        "network" : "Byzantium",
        "postState" : {
            "0x2adc25665018aa1fe0e6bc666dac8fc2697ff9ba" : {
                "balance" : "0x29a2241af62ca0b6",
                "code" : "",
                "nonce" : "0x00",
                "storage" : {
                }
            },
            "0xa94f5374fce5edbc8e2a8697c15331677e6ebf0b" : {
                "balance" : "0x174876474a",
                "code" : "",
                "nonce" : "0x01",
                "storage" : {
                }
            },
            "0xdeadbeef00000000000000000000000000000000" : {
                "balance" : "0x174876e800",
                "code" : "0x0061736d01000000010f0360037f7f7f0060027f7f00600000022d0208657468657265756d08636f6465436f7079000008657468657265756d0c73746f7261676553746f72650001030201020503010001071102066d656d6f72790200046d61696e00020a1301110041004100410a100041e400410010010b",
                "nonce" : "0x00",
                "storage" : {
                    "0x00" : "0x61736d01000000010f00000000000000000000000000000000000000000000"
                }
            }
        },
        "pre" : {
            "0xa94f5374fce5edbc8e2a8697c15331677e6ebf0b" : {
                "balance" : "0x174876e800",
                "code" : "",
                "nonce" : "0x00",
                "storage" : {
                }
            },
            "0xdeadbeef00000000000000000000000000000000" : {
                "balance" : "0x174876e800",
                "code" : "0x0061736d01000000010f0360037f7f7f0060027f7f00600000022d0208657468657265756d08636f6465436f7079000008657468657265756d0c73746f7261676553746f72650001030201020503010001071102066d656d6f72790200046d61696e00020a1301110041004100410a100041e400410010010b",
                "nonce" : "0x00",
                "storage" : {
                }
            }
        },
        "sealEngine" : "NoProof"
    }
}