{
    "createFromTransactionReturnZeroBytes_d0g0v0_Byzantium" : {
        "_info" : {
            "comment" : "",
            "filledwith" : "testeth 1.5.0-alpha.6",
            "lllcversion" : "Version: 0.5.0-develop.2018.11.8+commit.20481055.Linux.g++",
            "source" : "src/BlockchainTestsFiller/GeneralStateTests/stEWASMTests/createFromTransactionReturnZeroBytes_d0g0v0Filler.json",
            "sourceHash" : "1e17b6f906286d94dfa6192430326479a65ede80e34d50ef57bd2274da7077af"
        },
        "blocks" : [
            {
                "blockHeader" : {
                    "bloom" : "0x00000000000000000000000000000000000000000000000000000000000000000000000000000000000000000000000000000000000000000000000000000000000000000000000000000000000000000000000000000000000000000000000000000000000000000000000000000000000000000000000000000000000000000000000000000000000000000000000000000000000000000000000000000000000000000000000000000000000000000000000000000000000000000000000000000000000000000000000000000000000000000000000000000000000000000000000000000000000000000000000000000000000000000000000000000000",
                    "coinbase" : "0x2adc25665018aa1fe0e6bc666dac8fc2697ff9ba",
                    "difficulty" : "0x020000",
                    "extraData" : "",
                    "gasLimit" : "0x05500000",
                    "gasUsed" : "0xe048",
                    "hash" : "0x3b69d30e2c787742244cce1c1e28f87ff953f686f4a4868a95c85edb85634515",
                    "mixHash" : "0x0000000000000000000000000000000000000000000000000000000000000000",
                    "nonce" : "0x0000000000000000",
                    "number" : "0x01",
                    "parentHash" : "0x9b7ba1f3dfb4664f1ede285dbc488b8a686a0c479b89772e9f1368a65b2ea363",
                    "receiptTrie" : "0x05798c6bf7037a876abab5ba72653d287ba8a1a4d3cafd087e8e18e84c690936",
                    "stateRoot" : "0x5c1f87d9661607d4501e608cd043608e59cd47074d0a7a11930c6135cc2beb88",
                    "timestamp" : "0x03e8",
                    "transactionsTrie" : "0x31d0cd6c87ca48f747ad2168b074807fefa44923fbc10162605153c91accbd3f",
                    "uncleHash" : "0x1dcc4de8dec75d7aab85b567b6ccd41ad312451b948a7413f0a142fd40d49347"
                },
                "rlp" : "0xf9029ef901f8a09b7ba1f3dfb4664f1ede285dbc488b8a686a0c479b89772e9f1368a65b2ea363a01dcc4de8dec75d7aab85b567b6ccd41ad312451b948a7413f0a142fd40d49347942adc25665018aa1fe0e6bc666dac8fc2697ff9baa05c1f87d9661607d4501e608cd043608e59cd47074d0a7a11930c6135cc2beb88a031d0cd6c87ca48f747ad2168b074807fefa44923fbc10162605153c91accbd3fa005798c6bf7037a876abab5ba72653d287ba8a1a4d3cafd087e8e18e84c690936b90100000000000000000000000000000000000000000000000000000000000000000000000000000000000000000000000000000000000000000000000000000000000000000000000000000000000000000000000000000000000000000000000000000000000000000000000000000000000000000000000000000000000000000000000000000000000000000000000000000000000000000000000000000000000000000000000000000000000000000000000000000000000000000000000000000000000000000000000000000000000000000000000000000000000000000000000000000000000000000000000000000000000000000000000000000000008302000001840550000082e0488203e880a00000000000000000000000000000000000000000000000000000000000000000880000000000000000f8a0f89e800184050000018080b8500061736d0100000001090260027f7f0060000002130108657468657265756d0666696e6973680000030201010503010064071102066d656d6f72790200046d61696e00010a0a0108004100410010000b1ba002f2958182906a233d28cd364325ddcbecac5e4b4f67fcc2d65c4a1ca853a1cda04969c976a9ddacc03edfdb4916b534c4e1031f407bcd2253ab37abb97a94da8fc0",
                "transactions" : [
                    {
                        "data" : "0x0061736d0100000001090260027f7f0060000002130108657468657265756d0666696e6973680000030201010503010064071102066d656d6f72790200046d61696e00010a0a0108004100410010000b",
                        "gasLimit" : "0x05000001",
                        "gasPrice" : "0x01",
                        "nonce" : "0x00",
                        "r" : "0x02f2958182906a233d28cd364325ddcbecac5e4b4f67fcc2d65c4a1ca853a1cd",
                        "s" : "0x4969c976a9ddacc03edfdb4916b534c4e1031f407bcd2253ab37abb97a94da8f",
                        "to" : "",
                        "v" : "0x1b",
                        "value" : "0x00"
                    }
                ],
                "uncleHeaders" : [
                ]
            }
        ],
        "genesisBlockHeader" : {
            "bloom" : "0x00000000000000000000000000000000000000000000000000000000000000000000000000000000000000000000000000000000000000000000000000000000000000000000000000000000000000000000000000000000000000000000000000000000000000000000000000000000000000000000000000000000000000000000000000000000000000000000000000000000000000000000000000000000000000000000000000000000000000000000000000000000000000000000000000000000000000000000000000000000000000000000000000000000000000000000000000000000000000000000000000000000000000000000000000000000",
            "coinbase" : "0x2adc25665018aa1fe0e6bc666dac8fc2697ff9ba",
            "difficulty" : "0x020000",
            "extraData" : "0x42",
            "gasLimit" : "0x05500000",
            "gasUsed" : "0x00",
            "hash" : "0x9b7ba1f3dfb4664f1ede285dbc488b8a686a0c479b89772e9f1368a65b2ea363",
            "mixHash" : "0x56e81f171bcc55a6ff8345e692c0f86e5b48e01b996cadc001622fb5e363b421",
            "nonce" : "0x0102030405060708",
            "number" : "0x00",
            "parentHash" : "0x0000000000000000000000000000000000000000000000000000000000000000",
            "receiptTrie" : "0x56e81f171bcc55a6ff8345e692c0f86e5b48e01b996cadc001622fb5e363b421",
            "stateRoot" : "0x19fc38351a22fc05c8add29df0767dc26ab2635d0b4ed11caf7d7cb6fed2ea4d",
            "timestamp" : "0x03b6",
            "transactionsTrie" : "0x56e81f171bcc55a6ff8345e692c0f86e5b48e01b996cadc001622fb5e363b421",
            "uncleHash" : "0x1dcc4de8dec75d7aab85b567b6ccd41ad312451b948a7413f0a142fd40d49347"
        },
        "genesisRLP" : "0xf901fbf901f6a00000000000000000000000000000000000000000000000000000000000000000a01dcc4de8dec75d7aab85b567b6ccd41ad312451b948a7413f0a142fd40d49347942adc25665018aa1fe0e6bc666dac8fc2697ff9baa019fc38351a22fc05c8add29df0767dc26ab2635d0b4ed11caf7d7cb6fed2ea4da056e81f171bcc55a6ff8345e692c0f86e5b48e01b996cadc001622fb5e363b421a056e81f171bcc55a6ff8345e692c0f86e5b48e01b996cadc001622fb5e363b421b901000000000000000000000000000000000000000000000000000000000000000000000000000000000000000000000000000000000000000000000000000000000000000000000000000000000000000000000000000000000000000000000000000000000000000000000000000000000000000000000000000000000000000000000000000000000000000000000000000000000000000000000000000000000000000000000000000000000000000000000000000000000000000000000000000000000000000000000000000000000000000000000000000000000000000000000000000000000000000000000000000000000000000000000000000000000083020000808405500000808203b642a056e81f171bcc55a6ff8345e692c0f86e5b48e01b996cadc001622fb5e363b421880102030405060708c0c0",
        "lastblockhash" : "0x3b69d30e2c787742244cce1c1e28f87ff953f686f4a4868a95c85edb85634515",
        "network" : "Byzantium",
        "postState" : {
            "0x2adc25665018aa1fe0e6bc666dac8fc2697ff9ba" : {
                "balance" : "0x29a2241af62ce048",
                "code" : "",
                "nonce" : "0x00",
                "storage" : {
                }
            },
            "0x6295ee1b4f6dd65047762f924ecd367c17eabf8f" : {
                "balance" : "0x00",
                "code" : "",
                "nonce" : "0x01",
                "storage" : {
                }
            },
            "0xa94f5374fce5edbc8e2a8697c15331677e6ebf0b" : {
                "balance" : "0x17487607b8",
                "code" : "",
                "nonce" : "0x01",
                "storage" : {
                }
            }
        },
        "pre" : {
            "0xa94f5374fce5edbc8e2a8697c15331677e6ebf0b" : {
                "balance" : "0x174876e800",
                "code" : "",
                "nonce" : "0x00",
                "storage" : {
                }
            }
        },
        "sealEngine" : "NoProof"
    }
}