{
    "createCode_d0g0v0_Byzantium" : {
        "_info" : {
            "comment" : "",
            "filledwith" : "testeth 1.5.0-alpha.6",
            "lllcversion" : "Version: 0.5.0-develop.2018.11.8+commit.20481055.Linux.g++",
            "source" : "src/BlockchainTestsFiller/GeneralStateTests/stEWASMTests/createCode_d0g0v0Filler.json",
            "sourceHash" : "466c3c4e5d751b6457ddfcd429034401eefa193e9a67f4362d5844f2c5f301cf"
        },
        "blocks" : [
            {
                "blockHeader" : {
                    "bloom" : "0x00000000000000000000000000000000000000000000000000000000000000000000000000000000000000000000000000000000000000000000000000000000000000000000000000000000000000000000000000000000000000000000000000000000000000000000000000000000000000000000000000000000000000000000000000000000000000000000000000000000000000000000000000000000000000000000000000000000000000000000000000000000000000000000000000000000000000000000000000000000000000000000000000000000000000000000000000000000000000000000000000000000000000000000000000000000",
                    "coinbase" : "0x2adc25665018aa1fe0e6bc666dac8fc2697ff9ba",
                    "difficulty" : "0x020000",
                    "extraData" : "",
                    "gasLimit" : "0x05500000",
                    "gasUsed" : "0x013240",
                    "hash" : "0x5df62cce2e57f51bb9887d28509db94fe124ea459dd36fd08be5c9dd29f76ee3",
                    "mixHash" : "0x0000000000000000000000000000000000000000000000000000000000000000",
                    "nonce" : "0x0000000000000000",
                    "number" : "0x01",
                    "parentHash" : "0x6d471e2a4d779fab802412caa6df00c125768d89c847c73a5a21c00f4441cc0e",
                    "receiptTrie" : "0x6937852d6bbfed837f7a0fd5cf48c07bc0304b5aae4d552a82da71d7f0cee5ce",
                    "stateRoot" : "0xfe2c1319d0ac89b70bbf313ab0a44857bfad2344b7c9a6d8d3ca14eb07986740",
                    "timestamp" : "0x03e8",
                    "transactionsTrie" : "0x05ddd80b5e3c46aa87d743841f86264cdea27175564d1fac771498761687de1c",
                    "uncleHash" : "0x1dcc4de8dec75d7aab85b567b6ccd41ad312451b948a7413f0a142fd40d49347"
                },
                "rlp" : "0xf90261f901f9a06d471e2a4d779fab802412caa6df00c125768d89c847c73a5a21c00f4441cc0ea01dcc4de8dec75d7aab85b567b6ccd41ad312451b948a7413f0a142fd40d49347942adc25665018aa1fe0e6bc666dac8fc2697ff9baa0fe2c1319d0ac89b70bbf313ab0a44857bfad2344b7c9a6d8d3ca14eb07986740a005ddd80b5e3c46aa87d743841f86264cdea27175564d1fac771498761687de1ca06937852d6bbfed837f7a0fd5cf48c07bc0304b5aae4d552a82da71d7f0cee5ceb901000000000000000000000000000000000000000000000000000000000000000000000000000000000000000000000000000000000000000000000000000000000000000000000000000000000000000000000000000000000000000000000000000000000000000000000000000000000000000000000000000000000000000000000000000000000000000000000000000000000000000000000000000000000000000000000000000000000000000000000000000000000000000000000000000000000000000000000000000000000000000000000000000000000000000000000000000000000000000000000000000000000000000000000000000000000083020000018405500000830132408203e880a00000000000000000000000000000000000000000000000000000000000000000880000000000000000f862f8600401836acfc094deadbeef0000000000000000000000000000000080801ba054fab9c25ddebd47f2c4d9ffe393cfbb4d189067d9957389c7b06ed5bf52b672a03760f513d0faba1640fbdc5def8a3d2d65f508b15eed071e41c4ad84b77a8f29c0",
                "transactions" : [
                    {
                        "data" : "0x",
                        "gasLimit" : "0x6acfc0",
                        "gasPrice" : "0x01",
                        "nonce" : "0x04",
                        "r" : "0x54fab9c25ddebd47f2c4d9ffe393cfbb4d189067d9957389c7b06ed5bf52b672",
                        "s" : "0x3760f513d0faba1640fbdc5def8a3d2d65f508b15eed071e41c4ad84b77a8f29",
                        "to" : "0xdeadbeef00000000000000000000000000000000",
                        "v" : "0x1b",
                        "value" : "0x00"
                    }
                ],
                "uncleHeaders" : [
                ]
            }
        ],
        "genesisBlockHeader" : {
            "bloom" : "0x00000000000000000000000000000000000000000000000000000000000000000000000000000000000000000000000000000000000000000000000000000000000000000000000000000000000000000000000000000000000000000000000000000000000000000000000000000000000000000000000000000000000000000000000000000000000000000000000000000000000000000000000000000000000000000000000000000000000000000000000000000000000000000000000000000000000000000000000000000000000000000000000000000000000000000000000000000000000000000000000000000000000000000000000000000000",
            "coinbase" : "0x2adc25665018aa1fe0e6bc666dac8fc2697ff9ba",
            "difficulty" : "0x020000",
            "extraData" : "0x42",
            "gasLimit" : "0x05500000",
            "gasUsed" : "0x00",
            "hash" : "0x6d471e2a4d779fab802412caa6df00c125768d89c847c73a5a21c00f4441cc0e",
            "mixHash" : "0x56e81f171bcc55a6ff8345e692c0f86e5b48e01b996cadc001622fb5e363b421",
            "nonce" : "0x0102030405060708",
            "number" : "0x00",
            "parentHash" : "0x0000000000000000000000000000000000000000000000000000000000000000",
            "receiptTrie" : "0x56e81f171bcc55a6ff8345e692c0f86e5b48e01b996cadc001622fb5e363b421",
            "stateRoot" : "0xcb3fa541302660c52a5d081a6d792dc460a47ad3f9416881772e8214f59097b2",
            "timestamp" : "0x03b6",
            "transactionsTrie" : "0x56e81f171bcc55a6ff8345e692c0f86e5b48e01b996cadc001622fb5e363b421",
            "uncleHash" : "0x1dcc4de8dec75d7aab85b567b6ccd41ad312451b948a7413f0a142fd40d49347"
        },
        "genesisRLP" : "0xf901fbf901f6a00000000000000000000000000000000000000000000000000000000000000000a01dcc4de8dec75d7aab85b567b6ccd41ad312451b948a7413f0a142fd40d49347942adc25665018aa1fe0e6bc666dac8fc2697ff9baa0cb3fa541302660c52a5d081a6d792dc460a47ad3f9416881772e8214f59097b2a056e81f171bcc55a6ff8345e692c0f86e5b48e01b996cadc001622fb5e363b421a056e81f171bcc55a6ff8345e692c0f86e5b48e01b996cadc001622fb5e363b421b901000000000000000000000000000000000000000000000000000000000000000000000000000000000000000000000000000000000000000000000000000000000000000000000000000000000000000000000000000000000000000000000000000000000000000000000000000000000000000000000000000000000000000000000000000000000000000000000000000000000000000000000000000000000000000000000000000000000000000000000000000000000000000000000000000000000000000000000000000000000000000000000000000000000000000000000000000000000000000000000000000000000000000000000000000000000083020000808405500000808203b642a056e81f171bcc55a6ff8345e692c0f86e5b48e01b996cadc001622fb5e363b421880102030405060708c0c0",
        "lastblockhash" : "0x5df62cce2e57f51bb9887d28509db94fe124ea459dd36fd08be5c9dd29f76ee3",
        "network" : "Byzantium",
        "postState" : {
            "0x2adc25665018aa1fe0e6bc666dac8fc2697ff9ba" : {
                "balance" : "0x29a2241af62d3240",
                "code" : "",
                "nonce" : "0x00",
                "storage" : {
                }
            },
            "0xa94f5374fce5edbc8e2a8697c15331677e6ebf0b" : {
                "balance" : "0x174875b5c0",
                "code" : "",
                "nonce" : "0x05",
                "storage" : {
                }
            },
            "0xdeadbeef00000000000000000000000000000000" : {
                "balance" : "0x174876e800",
                "code" : "0x0061736d0100000001110360047f7f7f7f017f60027f7f00600000022b0208657468657265756d06637265617465000008657468657265756d0c73746f7261676553746f72650001030201020503010001071102066d656d6f72790200046d61696e00020a49014701077f418002210041e6002101410021024120210341c000210441e00021054180012106200441003602002006200420002001200510003602002002200610012003200510010b0bb70103004180020b660061736d0100000001090260027f7f0060000002130108657468657265756d0666696e6973680000030201010503010001071102066d656d6f72790200046d61696e00010a15011301027f4180042100410221012000200110000b0b0901004180040b02beef0041000b2000000000000000000000000000000000000000000000000000000000000000000041200b200000000000000000000000000000000000000000000000000000000000000001",
                "nonce" : "0x01",
                "storage" : {
                    "0x01" : "0xf2048c36a5536fea3bc71d49ed59f2c65c546eea000000000000000000000000"
                }
            },
            "0xf2048c36a5536fea3bc71d49ed59f2c65c546eea" : {
                "balance" : "0x00",
                "code" : "0xbeef",
                "nonce" : "0x01",
                "storage" : {
                }
            }
        },
        "pre" : {
            "0xa94f5374fce5edbc8e2a8697c15331677e6ebf0b" : {
                "balance" : "0x174876e800",
                "code" : "",
                "nonce" : "0x04",
                "storage" : {
                }
            },
            "0xdeadbeef00000000000000000000000000000000" : {
                "balance" : "0x174876e800",
                "code" : "0x0061736d0100000001110360047f7f7f7f017f60027f7f00600000022b0208657468657265756d06637265617465000008657468657265756d0c73746f7261676553746f72650001030201020503010001071102066d656d6f72790200046d61696e00020a49014701077f418002210041e6002101410021024120210341c000210441e00021054180012106200441003602002006200420002001200510003602002002200610012003200510010b0bb70103004180020b660061736d0100000001090260027f7f0060000002130108657468657265756d0666696e6973680000030201010503010001071102066d656d6f72790200046d61696e00010a15011301027f4180042100410221012000200110000b0b0901004180040b02beef0041000b2000000000000000000000000000000000000000000000000000000000000000000041200b200000000000000000000000000000000000000000000000000000000000000001",
                "nonce" : "0x00",
                "storage" : {
                }
            }
        },
        "sealEngine" : "NoProof"
    }
}