{
    "create_d0g0v0_Byzantium" : {
        "_info" : {
            "comment" : "",
            "filledwith" : "testeth 1.5.0-alpha.6",
            "lllcversion" : "Version: 0.5.0-develop.2018.11.8+commit.20481055.Linux.g++",
            "source" : "src/BlockchainTestsFiller/GeneralStateTests/stEWASMTests/create_d0g0v0Filler.json",
            "sourceHash" : "ba66bf3e60f5d77c8f584dcb03741b36e60bc3020c5040d0bfbf69d68163f1b0"
        },
        "blocks" : [
            {
                "blockHeader" : {
                    "bloom" : "0x00000000000000000000000000000000000000000000000000000000000000000000000000000000000000000000000000000000000000000000000000000000000000000000000000000000000000000000000000000000000000000000000000000000000000000000000000000000000000000000000000000000000000000000000000000000000000000000000000000000000000000000000000000000000000000000000000000000000000000000000000000000000000000000000000000000000000000000000000000000000000000000000000000000000000000000000000000000000000000000000000000000000000000000000000000000",
                    "coinbase" : "0x2adc25665018aa1fe0e6bc666dac8fc2697ff9ba",
                    "difficulty" : "0x020000",
                    "extraData" : "",
                    "gasLimit" : "0x05500000",
                    "gasUsed" : "0xcf08",
                    "hash" : "0x4f08d0e899cd6281a4ee796bcd0f7c4267ad14909610b0cb3b8641a25e148152",
                    "mixHash" : "0x0000000000000000000000000000000000000000000000000000000000000000",
                    "nonce" : "0x0000000000000000",
                    "number" : "0x01",
                    "parentHash" : "0xff7339a1394d8444a6f7539d1eb4e47765f7928f37c60b1bff0f801ea08cb3a6",
                    "receiptTrie" : "0x65c4d1b533902562730f0d110bcce51643ce4725ca03d85c33d5812c0ed308bf",
                    "stateRoot" : "0xde8618e205fbb56f5e21d4a89281dad0a27cb7f5e2f6982e945a37d8305e8ed5",
                    "timestamp" : "0x03e8",
                    "transactionsTrie" : "0x05ddd80b5e3c46aa87d743841f86264cdea27175564d1fac771498761687de1c",
                    "uncleHash" : "0x1dcc4de8dec75d7aab85b567b6ccd41ad312451b948a7413f0a142fd40d49347"
                },
                "rlp" : "0xf90260f901f8a0ff7339a1394d8444a6f7539d1eb4e47765f7928f37c60b1bff0f801ea08cb3a6a01dcc4de8dec75d7aab85b567b6ccd41ad312451b948a7413f0a142fd40d49347942adc25665018aa1fe0e6bc666dac8fc2697ff9baa0de8618e205fbb56f5e21d4a89281dad0a27cb7f5e2f6982e945a37d8305e8ed5a005ddd80b5e3c46aa87d743841f86264cdea27175564d1fac771498761687de1ca065c4d1b533902562730f0d110bcce51643ce4725ca03d85c33d5812c0ed308bfb90100000000000000000000000000000000000000000000000000000000000000000000000000000000000000000000000000000000000000000000000000000000000000000000000000000000000000000000000000000000000000000000000000000000000000000000000000000000000000000000000000000000000000000000000000000000000000000000000000000000000000000000000000000000000000000000000000000000000000000000000000000000000000000000000000000000000000000000000000000000000000000000000000000000000000000000000000000000000000000000000000000000000000000000000000000000008302000001840550000082cf088203e880a00000000000000000000000000000000000000000000000000000000000000000880000000000000000f862f8600401836acfc094deadbeef0000000000000000000000000000000080801ba054fab9c25ddebd47f2c4d9ffe393cfbb4d189067d9957389c7b06ed5bf52b672a03760f513d0faba1640fbdc5def8a3d2d65f508b15eed071e41c4ad84b77a8f29c0",
                "transactions" : [
                    {
                        "data" : "0x",
                        "gasLimit" : "0x6acfc0",
                        "gasPrice" : "0x01",
                        "nonce" : "0x04",
                        "r" : "0x54fab9c25ddebd47f2c4d9ffe393cfbb4d189067d9957389c7b06ed5bf52b672",
                        "s" : "0x3760f513d0faba1640fbdc5def8a3d2d65f508b15eed071e41c4ad84b77a8f29",
                        "to" : "0xdeadbeef00000000000000000000000000000000",
                        "v" : "0x1b",
                        "value" : "0x00"
                    }
                ],
                "uncleHeaders" : [
                ]
            }
        ],
        "genesisBlockHeader" : {
            "bloom" : "0x00000000000000000000000000000000000000000000000000000000000000000000000000000000000000000000000000000000000000000000000000000000000000000000000000000000000000000000000000000000000000000000000000000000000000000000000000000000000000000000000000000000000000000000000000000000000000000000000000000000000000000000000000000000000000000000000000000000000000000000000000000000000000000000000000000000000000000000000000000000000000000000000000000000000000000000000000000000000000000000000000000000000000000000000000000000",
            "coinbase" : "0x2adc25665018aa1fe0e6bc666dac8fc2697ff9ba",
            "difficulty" : "0x020000",
            "extraData" : "0x42",
            "gasLimit" : "0x05500000",
            "gasUsed" : "0x00",
            "hash" : "0xff7339a1394d8444a6f7539d1eb4e47765f7928f37c60b1bff0f801ea08cb3a6",
            "mixHash" : "0x56e81f171bcc55a6ff8345e692c0f86e5b48e01b996cadc001622fb5e363b421",
            "nonce" : "0x0102030405060708",
            "number" : "0x00",
            "parentHash" : "0x0000000000000000000000000000000000000000000000000000000000000000",
            "receiptTrie" : "0x56e81f171bcc55a6ff8345e692c0f86e5b48e01b996cadc001622fb5e363b421",
            "stateRoot" : "0xd7bf70a6176d509bd2e8de044b94893032e074d039bba8e898431d0331534afe",
            "timestamp" : "0x03b6",
            "transactionsTrie" : "0x56e81f171bcc55a6ff8345e692c0f86e5b48e01b996cadc001622fb5e363b421",
            "uncleHash" : "0x1dcc4de8dec75d7aab85b567b6ccd41ad312451b948a7413f0a142fd40d49347"
        },
        "genesisRLP" : "0xf901fbf901f6a00000000000000000000000000000000000000000000000000000000000000000a01dcc4de8dec75d7aab85b567b6ccd41ad312451b948a7413f0a142fd40d49347942adc25665018aa1fe0e6bc666dac8fc2697ff9baa0d7bf70a6176d509bd2e8de044b94893032e074d039bba8e898431d0331534afea056e81f171bcc55a6ff8345e692c0f86e5b48e01b996cadc001622fb5e363b421a056e81f171bcc55a6ff8345e692c0f86e5b48e01b996cadc001622fb5e363b421b901000000000000000000000000000000000000000000000000000000000000000000000000000000000000000000000000000000000000000000000000000000000000000000000000000000000000000000000000000000000000000000000000000000000000000000000000000000000000000000000000000000000000000000000000000000000000000000000000000000000000000000000000000000000000000000000000000000000000000000000000000000000000000000000000000000000000000000000000000000000000000000000000000000000000000000000000000000000000000000000000000000000000000000000000000000000083020000808405500000808203b642a056e81f171bcc55a6ff8345e692c0f86e5b48e01b996cadc001622fb5e363b421880102030405060708c0c0",
        "lastblockhash" : "0x4f08d0e899cd6281a4ee796bcd0f7c4267ad14909610b0cb3b8641a25e148152",
        "network" : "Byzantium",
        "postState" : {
            "0x2adc25665018aa1fe0e6bc666dac8fc2697ff9ba" : {
                "balance" : "0x29a2241af62ccf08",
                "code" : "",
                "nonce" : "0x00",
                "storage" : {
                }
            },
            "0xa94f5374fce5edbc8e2a8697c15331677e6ebf0b" : {
                "balance" : "0x17487618f8",
                "code" : "",
                "nonce" : "0x05",
                "storage" : {
                }
            },
            "0xdeadbeef00000000000000000000000000000000" : {
                "balance" : "0x174876e800",
                "code" : "0x0061736d01000000010c0260047f7f7f7f017f60000002130108657468657265756d066372656174650000030201010503010001071102066d656d6f72790200046d61696e00010a130111004120410041104100410010003602000b",
                "nonce" : "0x01",
                "storage" : {
                }
            },
            "0xf2048c36a5536fea3bc71d49ed59f2c65c546eea" : {
                "balance" : "0x00",
                "code" : "",
                "nonce" : "0x01",
                "storage" : {
                }
            }
        },
        "pre" : {
            "0xa94f5374fce5edbc8e2a8697c15331677e6ebf0b" : {
                "balance" : "0x174876e800",
                "code" : "",
                "nonce" : "0x04",
                "storage" : {
                }
            },
            "0xdeadbeef00000000000000000000000000000000" : {
                "balance" : "0x174876e800",
                "code" : "0x0061736d01000000010c0260047f7f7f7f017f60000002130108657468657265756d066372656174650000030201010503010001071102066d656d6f72790200046d61696e00010a130111004120410041104100410010003602000b",
                "nonce" : "0x00",
                "storage" : {
                }
            }
        },
        "sealEngine" : "NoProof"
    }
}