{
    "createNonzero_d0g0v0_Byzantium" : {
        "_info" : {
            "comment" : "",
            "filledwith" : "testeth 1.5.0-alpha.6",
            "lllcversion" : "Version: 0.5.0-develop.2018.11.8+commit.20481055.Linux.g++",
            "source" : "src/BlockchainTestsFiller/GeneralStateTests/stEWASMTests/createNonzero_d0g0v0Filler.json",
            "sourceHash" : "6e16cfad1f48e9242f8f26c6d2aaba3fddd35f1f0e3c6a2f0d03df05653542d2"
        },
        "blocks" : [
            {
                "blockHeader" : {
                    "bloom" : "0x00000000000000000000000000000000000000000000000000000000000000000000000000000000000000000000000000000000000000000000000000000000000000000000000000000000000000000000000000000000000000000000000000000000000000000000000000000000000000000000000000000000000000000000000000000000000000000000000000000000000000000000000000000000000000000000000000000000000000000000000000000000000000000000000000000000000000000000000000000000000000000000000000000000000000000000000000000000000000000000000000000000000000000000000000000000",
                    "coinbase" : "0x2adc25665018aa1fe0e6bc666dac8fc2697ff9ba",
                    "difficulty" : "0x020000",
                    "extraData" : "",
                    "gasLimit" : "0x05500000",
                    "gasUsed" : "0x0261f6",
                    "hash" : "0x16f99ae6bb147cca6027ea9fe44e19b53e5c6cd0edf23fa01f88fc729230d89c",
                    "mixHash" : "0x0000000000000000000000000000000000000000000000000000000000000000",
                    "nonce" : "0x0000000000000000",
                    "number" : "0x01",
                    "parentHash" : "0x414322bb4f5a515143ebaabe4d3874f6e9556594871401ff5e3a1e33f22172d0",
                    "receiptTrie" : "0x252d19d9d98189c01024f8cf0f431848dd207a6adacda0d10c81357540d24b9c",
                    "stateRoot" : "0x5a31c98fb4c28ec4f5bff4abd469a6b56028182afe666e8f85fd060982048e8b",
                    "timestamp" : "0x03e8",
                    "transactionsTrie" : "0x05ddd80b5e3c46aa87d743841f86264cdea27175564d1fac771498761687de1c",
                    "uncleHash" : "0x1dcc4de8dec75d7aab85b567b6ccd41ad312451b948a7413f0a142fd40d49347"
                },
                "rlp" : "0xf90261f901f9a0414322bb4f5a515143ebaabe4d3874f6e9556594871401ff5e3a1e33f22172d0a01dcc4de8dec75d7aab85b567b6ccd41ad312451b948a7413f0a142fd40d49347942adc25665018aa1fe0e6bc666dac8fc2697ff9baa05a31c98fb4c28ec4f5bff4abd469a6b56028182afe666e8f85fd060982048e8ba005ddd80b5e3c46aa87d743841f86264cdea27175564d1fac771498761687de1ca0252d19d9d98189c01024f8cf0f431848dd207a6adacda0d10c81357540d24b9cb901000000000000000000000000000000000000000000000000000000000000000000000000000000000000000000000000000000000000000000000000000000000000000000000000000000000000000000000000000000000000000000000000000000000000000000000000000000000000000000000000000000000000000000000000000000000000000000000000000000000000000000000000000000000000000000000000000000000000000000000000000000000000000000000000000000000000000000000000000000000000000000000000000000000000000000000000000000000000000000000000000000000000000000000000000000000083020000018405500000830261f68203e880a00000000000000000000000000000000000000000000000000000000000000000880000000000000000f862f8600401836acfc094deadbeef0000000000000000000000000000000080801ba054fab9c25ddebd47f2c4d9ffe393cfbb4d189067d9957389c7b06ed5bf52b672a03760f513d0faba1640fbdc5def8a3d2d65f508b15eed071e41c4ad84b77a8f29c0",
                "transactions" : [
                    {
                        "data" : "0x",
                        "gasLimit" : "0x6acfc0",
                        "gasPrice" : "0x01",
                        "nonce" : "0x04",
                        "r" : "0x54fab9c25ddebd47f2c4d9ffe393cfbb4d189067d9957389c7b06ed5bf52b672",
                        "s" : "0x3760f513d0faba1640fbdc5def8a3d2d65f508b15eed071e41c4ad84b77a8f29",
                        "to" : "0xdeadbeef00000000000000000000000000000000",
                        "v" : "0x1b",
                        "value" : "0x00"
                    }
                ],
                "uncleHeaders" : [
                ]
            }
        ],
        "genesisBlockHeader" : {
            "bloom" : "0x00000000000000000000000000000000000000000000000000000000000000000000000000000000000000000000000000000000000000000000000000000000000000000000000000000000000000000000000000000000000000000000000000000000000000000000000000000000000000000000000000000000000000000000000000000000000000000000000000000000000000000000000000000000000000000000000000000000000000000000000000000000000000000000000000000000000000000000000000000000000000000000000000000000000000000000000000000000000000000000000000000000000000000000000000000000",
            "coinbase" : "0x2adc25665018aa1fe0e6bc666dac8fc2697ff9ba",
            "difficulty" : "0x020000",
            "extraData" : "0x42",
            "gasLimit" : "0x05500000",
            "gasUsed" : "0x00",
            "hash" : "0x414322bb4f5a515143ebaabe4d3874f6e9556594871401ff5e3a1e33f22172d0",
            "mixHash" : "0x56e81f171bcc55a6ff8345e692c0f86e5b48e01b996cadc001622fb5e363b421",
            "nonce" : "0x0102030405060708",
            "number" : "0x00",
            "parentHash" : "0x0000000000000000000000000000000000000000000000000000000000000000",
            "receiptTrie" : "0x56e81f171bcc55a6ff8345e692c0f86e5b48e01b996cadc001622fb5e363b421",
            "stateRoot" : "0xab939c3dda95090662e2ecde2eab154fd13e5a6fa9870cab7345212d5f0eda96",
            "timestamp" : "0x03b6",
            "transactionsTrie" : "0x56e81f171bcc55a6ff8345e692c0f86e5b48e01b996cadc001622fb5e363b421",
            "uncleHash" : "0x1dcc4de8dec75d7aab85b567b6ccd41ad312451b948a7413f0a142fd40d49347"
        },
        "genesisRLP" : "0xf901fbf901f6a00000000000000000000000000000000000000000000000000000000000000000a01dcc4de8dec75d7aab85b567b6ccd41ad312451b948a7413f0a142fd40d49347942adc25665018aa1fe0e6bc666dac8fc2697ff9baa0ab939c3dda95090662e2ecde2eab154fd13e5a6fa9870cab7345212d5f0eda96a056e81f171bcc55a6ff8345e692c0f86e5b48e01b996cadc001622fb5e363b421a056e81f171bcc55a6ff8345e692c0f86e5b48e01b996cadc001622fb5e363b421b901000000000000000000000000000000000000000000000000000000000000000000000000000000000000000000000000000000000000000000000000000000000000000000000000000000000000000000000000000000000000000000000000000000000000000000000000000000000000000000000000000000000000000000000000000000000000000000000000000000000000000000000000000000000000000000000000000000000000000000000000000000000000000000000000000000000000000000000000000000000000000000000000000000000000000000000000000000000000000000000000000000000000000000000000000000000083020000808405500000808203b642a056e81f171bcc55a6ff8345e692c0f86e5b48e01b996cadc001622fb5e363b421880102030405060708c0c0",
        "lastblockhash" : "0x16f99ae6bb147cca6027ea9fe44e19b53e5c6cd0edf23fa01f88fc729230d89c",
        "network" : "Byzantium",
        "postState" : {
            "0x2adc25665018aa1fe0e6bc666dac8fc2697ff9ba" : {
                "balance" : "0x29a2241af62e61f6",
                "code" : "",
                "nonce" : "0x00",
                "storage" : {
                }
            },
            "0xa000000000000000000000000000000000000000" : {
                "balance" : "0x00",
                "code" : "0x0061736d0100000001190560027f7f0060017f0060017f017f60047f7f7f7f00600000027e0508657468657265756d0c73746f7261676553746f7265000008657468657265756d0c67657443616c6c56616c7565000108657468657265756d0666696e697368000008657468657265756d1367657445787465726e616c436f646553697a65000208657468657265756d1065787465726e616c436f6465436f70790003030201040503010001071102066d656d6f72790200046d61696e00050a48014601057f419404210041b404210141d4042103418003210241f404210420042003100336020020032002410020042802001004200010012001200010002002200428020010020b0b41020041d4040b14a0000000000000000000000000000000000000010041b4040b200000000000000000000000000000000000000000000000000000000000000003",
                "nonce" : "0x00",
                "storage" : {
                }
            },
            "0xa000000000000000000000000000000000000001" : {
                "balance" : "0x00",
                "code" : "0x0061736d0100000001090260027f7f0060000002190108657468657265756d0c73746f7261676553746f72650000030201010503010001071102066d656d6f72790200046d61696e00010a1f011d01027f41c005210041a0052101200141effd023602002000200110000b0b27010041c0050b200000000000000000000000000000000000000000000000000000000000000004",
                "nonce" : "0x00",
                "storage" : {
                }
            },
            "0xa94f5374fce5edbc8e2a8697c15331677e6ebf0b" : {
                "balance" : "0x174874860a",
                "code" : "",
                "nonce" : "0x05",
                "storage" : {
                }
            },
            "0xdeadbeef00000000000000000000000000000000" : {
                "balance" : "0x174876d5cc",
                "code" : "0x0061736d0100000001260660047f7f7f7f017f60027f7f0060057e7f7f7f7f017f60017f017f60047f7f7f7f0060000002760508657468657265756d06637265617465000008657468657265756d0c73746f7261676553746f7265000108657468657265756d0463616c6c000208657468657265756d1367657445787465726e616c436f646553697a65000308657468657265756d1065787465726e616c436f6465436f70790004030201050503010001071102066d656d6f72790200046d61696e00050a8c01018901010a7f41a00221004180022101410021024120210341c000210441e0002105418001210641a001210741c001210841850321092001200910033602002009200041002001280200100420064100360200200441b424360200200820042000200128020020051000360200200220081001200320051001200742c09a0c2005200620062006100210010b0b8b0104004185030b14a0000000000000000000000000000000000000000041000b2000000000000000000000000000000000000000000000000000000000000000000041200b2000000000000000000000000000000000000000000000000000000000000000010041c0000b200000000000000000000000000000000000000000000000000000000000000002",
                "nonce" : "0x01",
                "storage" : {
                    "0x01" : "0xf2048c36a5536fea3bc71d49ed59f2c65c546eea000000000000000000000000"
                }
            },
            "0xf2048c36a5536fea3bc71d49ed59f2c65c546eea" : {
                "balance" : "0x1234",
                "code" : "0x0061736d0100000001090260027f7f0060000002190108657468657265756d0c73746f7261676553746f72650000030201010503010001071102066d656d6f72790200046d61696e00010a1f011d01027f41c005210041a0052101200141effd023602002000200110000b0b27010041c0050b200000000000000000000000000000000000000000000000000000000000000004",
                "nonce" : "0x01",
                "storage" : {
                    "0x03" : "0x3412000000000000000000000000000000000000000000000000000000000000",
                    "0x04" : "0xefbe000000000000000000000000000000000000000000000000000000000000"
                }
            }
        },
        "pre" : {
            "0xa000000000000000000000000000000000000000" : {
                "balance" : "0x00",
                "code" : "0x0061736d0100000001190560027f7f0060017f0060017f017f60047f7f7f7f00600000027e0508657468657265756d0c73746f7261676553746f7265000008657468657265756d0c67657443616c6c56616c7565000108657468657265756d0666696e697368000008657468657265756d1367657445787465726e616c436f646553697a65000208657468657265756d1065787465726e616c436f6465436f70790003030201040503010001071102066d656d6f72790200046d61696e00050a48014601057f419404210041b404210141d4042103418003210241f404210420042003100336020020032002410020042802001004200010012001200010002002200428020010020b0b41020041d4040b14a0000000000000000000000000000000000000010041b4040b200000000000000000000000000000000000000000000000000000000000000003",
                "nonce" : "0x00",
                "storage" : {
                }
            },
            "0xa000000000000000000000000000000000000001" : {
                "balance" : "0x00",
                "code" : "0x0061736d0100000001090260027f7f0060000002190108657468657265756d0c73746f7261676553746f72650000030201010503010001071102066d656d6f72790200046d61696e00010a1f011d01027f41c005210041a0052101200141effd023602002000200110000b0b27010041c0050b200000000000000000000000000000000000000000000000000000000000000004",
                "nonce" : "0x00",
                "storage" : {
                }
            },
            "0xa94f5374fce5edbc8e2a8697c15331677e6ebf0b" : {
                "balance" : "0x174876e800",
                "code" : "",
                "nonce" : "0x04",
                "storage" : {
                }
            },
            "0xdeadbeef00000000000000000000000000000000" : {
                "balance" : "0x174876e800",
                "code" : "0x0061736d0100000001260660047f7f7f7f017f60027f7f0060057e7f7f7f7f017f60017f017f60047f7f7f7f0060000002760508657468657265756d06637265617465000008657468657265756d0c73746f7261676553746f7265000108657468657265756d0463616c6c000208657468657265756d1367657445787465726e616c436f646553697a65000308657468657265756d1065787465726e616c436f6465436f70790004030201050503010001071102066d656d6f72790200046d61696e00050a8c01018901010a7f41a00221004180022101410021024120210341c000210441e0002105418001210641a001210741c001210841850321092001200910033602002009200041002001280200100420064100360200200441b424360200200820042000200128020020051000360200200220081001200320051001200742c09a0c2005200620062006100210010b0b8b0104004185030b14a0000000000000000000000000000000000000000041000b2000000000000000000000000000000000000000000000000000000000000000000041200b2000000000000000000000000000000000000000000000000000000000000000010041c0000b200000000000000000000000000000000000000000000000000000000000000002",
                "nonce" : "0x00",
                "storage" : {
                }
            }
        },
        "sealEngine" : "NoProof"
    }
}