{
    "createFail_d0g0v0_Byzantium" : {
        "_info" : {
            "comment" : "",
            "filledwith" : "testeth 1.5.0-alpha.6",
            "lllcversion" : "Version: 0.5.0-develop.2018.11.8+commit.20481055.Linux.g++",
            "source" : "src/BlockchainTestsFiller/GeneralStateTests/stEWASMTests/createFail_d0g0v0Filler.json",
            "sourceHash" : "71402de3c159f5c0e23efb4f3b57df4c2ec8ec5f15725745dbe4dc1035df50bf"
        },
        "blocks" : [
            {
                "blockHeader" : {
                    "bloom" : "0x00000000000000000000000000000000000000000000000000000000000000000000000000000000000000000000000000000000000000000000000000000000000000000000000000000000000000000000000000000000000000000000000000000000000000000000000000000000000000000000000000000000000000000000000000000000000000000000000000000000000000000000000000000000000000000000000000000000000000000000000000000000000000000000000000000000000000000000000000000000000000000000000000000000000000000000000000000000000000000000000000000000000000000000000000000000",
                    "coinbase" : "0x2adc25665018aa1fe0e6bc666dac8fc2697ff9ba",
                    "difficulty" : "0x020000",
                    "extraData" : "",
                    "gasLimit" : "0x05500000",
                    "gasUsed" : "0x69897c",
                    "hash" : "0x23a4b6686d7e5103b0d875ac1bafc84967c07b4f5e25da7e6e0c37e38c94a857",
                    "mixHash" : "0x0000000000000000000000000000000000000000000000000000000000000000",
                    "nonce" : "0x0000000000000000",
                    "number" : "0x01",
                    "parentHash" : "0x19cec607141b9d4fe7844bf3982a01f6c65a0e672a5f05722873dbb5bceb7ca8",
                    "receiptTrie" : "0x5fd1fe572150ac237e5f203b06f46b522f098128d036860421db3df23486ae29",
                    "stateRoot" : "0xe1c0fcf6bf5986611451608600265961e7f6ec85f001294430530df27132259b",
                    "timestamp" : "0x03e8",
                    "transactionsTrie" : "0x05ddd80b5e3c46aa87d743841f86264cdea27175564d1fac771498761687de1c",
                    "uncleHash" : "0x1dcc4de8dec75d7aab85b567b6ccd41ad312451b948a7413f0a142fd40d49347"
                },
                "rlp" : "0xf90261f901f9a019cec607141b9d4fe7844bf3982a01f6c65a0e672a5f05722873dbb5bceb7ca8a01dcc4de8dec75d7aab85b567b6ccd41ad312451b948a7413f0a142fd40d49347942adc25665018aa1fe0e6bc666dac8fc2697ff9baa0e1c0fcf6bf5986611451608600265961e7f6ec85f001294430530df27132259ba005ddd80b5e3c46aa87d743841f86264cdea27175564d1fac771498761687de1ca05fd1fe572150ac237e5f203b06f46b522f098128d036860421db3df23486ae29b9010000000000000000000000000000000000000000000000000000000000000000000000000000000000000000000000000000000000000000000000000000000000000000000000000000000000000000000000000000000000000000000000000000000000000000000000000000000000000000000000000000000000000000000000000000000000000000000000000000000000000000000000000000000000000000000000000000000000000000000000000000000000000000000000000000000000000000000000000000000000000000000000000000000000000000000000000000000000000000000000000000000000000000000000000000000000830200000184055000008369897c8203e880a00000000000000000000000000000000000000000000000000000000000000000880000000000000000f862f8600401836acfc094deadbeef0000000000000000000000000000000080801ba054fab9c25ddebd47f2c4d9ffe393cfbb4d189067d9957389c7b06ed5bf52b672a03760f513d0faba1640fbdc5def8a3d2d65f508b15eed071e41c4ad84b77a8f29c0",
                "transactions" : [
                    {
                        "data" : "0x",
                        "gasLimit" : "0x6acfc0",
                        "gasPrice" : "0x01",
                        "nonce" : "0x04",
                        "r" : "0x54fab9c25ddebd47f2c4d9ffe393cfbb4d189067d9957389c7b06ed5bf52b672",
                        "s" : "0x3760f513d0faba1640fbdc5def8a3d2d65f508b15eed071e41c4ad84b77a8f29",
                        "to" : "0xdeadbeef00000000000000000000000000000000",
                        "v" : "0x1b",
                        "value" : "0x00"
                    }
                ],
                "uncleHeaders" : [
                ]
            }
        ],
        "genesisBlockHeader" : {
            "bloom" : "0x00000000000000000000000000000000000000000000000000000000000000000000000000000000000000000000000000000000000000000000000000000000000000000000000000000000000000000000000000000000000000000000000000000000000000000000000000000000000000000000000000000000000000000000000000000000000000000000000000000000000000000000000000000000000000000000000000000000000000000000000000000000000000000000000000000000000000000000000000000000000000000000000000000000000000000000000000000000000000000000000000000000000000000000000000000000",
            "coinbase" : "0x2adc25665018aa1fe0e6bc666dac8fc2697ff9ba",
            "difficulty" : "0x020000",
            "extraData" : "0x42",
            "gasLimit" : "0x05500000",
            "gasUsed" : "0x00",
            "hash" : "0x19cec607141b9d4fe7844bf3982a01f6c65a0e672a5f05722873dbb5bceb7ca8",
            "mixHash" : "0x56e81f171bcc55a6ff8345e692c0f86e5b48e01b996cadc001622fb5e363b421",
            "nonce" : "0x0102030405060708",
            "number" : "0x00",
            "parentHash" : "0x0000000000000000000000000000000000000000000000000000000000000000",
            "receiptTrie" : "0x56e81f171bcc55a6ff8345e692c0f86e5b48e01b996cadc001622fb5e363b421",
            "stateRoot" : "0x1684a5bf97a062852567358a32e4c64f08576ce586cdf1f13884953469735e06",
            "timestamp" : "0x03b6",
            "transactionsTrie" : "0x56e81f171bcc55a6ff8345e692c0f86e5b48e01b996cadc001622fb5e363b421",
            "uncleHash" : "0x1dcc4de8dec75d7aab85b567b6ccd41ad312451b948a7413f0a142fd40d49347"
        },
        "genesisRLP" : "0xf901fbf901f6a00000000000000000000000000000000000000000000000000000000000000000a01dcc4de8dec75d7aab85b567b6ccd41ad312451b948a7413f0a142fd40d49347942adc25665018aa1fe0e6bc666dac8fc2697ff9baa01684a5bf97a062852567358a32e4c64f08576ce586cdf1f13884953469735e06a056e81f171bcc55a6ff8345e692c0f86e5b48e01b996cadc001622fb5e363b421a056e81f171bcc55a6ff8345e692c0f86e5b48e01b996cadc001622fb5e363b421b901000000000000000000000000000000000000000000000000000000000000000000000000000000000000000000000000000000000000000000000000000000000000000000000000000000000000000000000000000000000000000000000000000000000000000000000000000000000000000000000000000000000000000000000000000000000000000000000000000000000000000000000000000000000000000000000000000000000000000000000000000000000000000000000000000000000000000000000000000000000000000000000000000000000000000000000000000000000000000000000000000000000000000000000000000000000083020000808405500000808203b642a056e81f171bcc55a6ff8345e692c0f86e5b48e01b996cadc001622fb5e363b421880102030405060708c0c0",
        "lastblockhash" : "0x23a4b6686d7e5103b0d875ac1bafc84967c07b4f5e25da7e6e0c37e38c94a857",
        "network" : "Byzantium",
        "postState" : {
            "0x2adc25665018aa1fe0e6bc666dac8fc2697ff9ba" : {
                "balance" : "0x29a2241af695897c",
                "code" : "",
                "nonce" : "0x00",
                "storage" : {
                }
            },
            "0xa000000000000000000000000000000000000001" : {
                "balance" : "0x00",
                "code" : "0x0061736d01000000010401600000030201000503010001071102066d656d6f72790200046d61696e00000a05010300000b",
                "nonce" : "0x00",
                "storage" : {
                }
            },
            "0xa94f5374fce5edbc8e2a8697c15331677e6ebf0b" : {
                "balance" : "0x17480d5e84",
                "code" : "",
                "nonce" : "0x05",
                "storage" : {
                }
            },
            "0xdeadbeef00000000000000000000000000000000" : {
                "balance" : "0x174876e800",
                "code" : "0x0061736d01000000011d0560047f7f7f7f017f60027f7f0060017f017f60047f7f7f7f0060000002660408657468657265756d06637265617465000008657468657265756d0c73746f7261676553746f7265000108657468657265756d1367657445787465726e616c436f646553697a65000208657468657265756d1065787465726e616c436f6465436f70790003030201040503010001071102066d656d6f72790200046d61696e00040a5f015d01087f418002210041db00210141e0012102410021034120210441c000210541e0002106418001210720021002210120022000410020011003200541b4243602002007200520002001200610003602002003200710012004200610010b0b65030041000b2000000000000000000000000000000000000000000000000000000000000000000041200b2000000000000000000000000000000000000000000000000000000000000000010041e0010b14a000000000000000000000000000000000000001",
                "nonce" : "0x01",
                "storage" : {
                    "0x00" : "0x0100000000000000000000000000000000000000000000000000000000000000"
                }
            }
        },
        "pre" : {
            "0xa000000000000000000000000000000000000001" : {
                "balance" : "0x00",
                "code" : "0x0061736d01000000010401600000030201000503010001071102066d656d6f72790200046d61696e00000a05010300000b",
                "nonce" : "0x00",
                "storage" : {
                }
            },
            "0xa94f5374fce5edbc8e2a8697c15331677e6ebf0b" : {
                "balance" : "0x174876e800",
                "code" : "",
                "nonce" : "0x04",
                "storage" : {
                }
            },
            "0xdeadbeef00000000000000000000000000000000" : {
                "balance" : "0x174876e800",
                "code" : "0x0061736d01000000011d0560047f7f7f7f017f60027f7f0060017f017f60047f7f7f7f0060000002660408657468657265756d06637265617465000008657468657265756d0c73746f7261676553746f7265000108657468657265756d1367657445787465726e616c436f646553697a65000208657468657265756d1065787465726e616c436f6465436f70790003030201040503010001071102066d656d6f72790200046d61696e00040a5f015d01087f418002210041db00210141e0012102410021034120210441c000210541e0002106418001210720021002210120022000410020011003200541b4243602002007200520002001200610003602002003200710012004200610010b0b65030041000b2000000000000000000000000000000000000000000000000000000000000000000041200b2000000000000000000000000000000000000000000000000000000000000000010041e0010b14a000000000000000000000000000000000000001",
                "nonce" : "0x00",
                "storage" : {
                }
            }
        },
        "sealEngine" : "NoProof"
    }
}