{
    "createNotEnoughBalance_d0g0v0_Byzantium" : {
        "_info" : {
            "comment" : "",
            "filledwith" : "testeth 1.5.0-alpha.6",
            "lllcversion" : "Version: 0.5.0-develop.2018.11.8+commit.20481055.Linux.g++",
            "source" : "src/BlockchainTestsFiller/GeneralStateTests/stEWASMTests/createNotEnoughBalance_d0g0v0Filler.json",
            "sourceHash" : "c509757aee0633224eddd83deb855909bb7c17f5ad9d2ffc835a2342723df673"
        },
        "blocks" : [
            {
                "blockHeader" : {
                    "bloom" : "0x00000000000000000000000000000000000000000000000000000000000000000000000000000000000000000000000000000000000000000000000000000000000000000000000000000000000000000000000000000000000000000000000000000000000000000000000000000000000000000000000000000000000000000000000000000000000000000000000000000000000000000000000000000000000000000000000000000000000000000000000000000000000000000000000000000000000000000000000000000000000000000000000000000000000000000000000000000000000000000000000000000000000000000000000000000000",
                    "coinbase" : "0x2adc25665018aa1fe0e6bc666dac8fc2697ff9ba",
                    "difficulty" : "0x020000",
                    "extraData" : "",
                    "gasLimit" : "0x05500000",
                    "gasUsed" : "0xd492",
                    "hash" : "0x0bbc83fd3192d927e3f931fc34a9eda2072b731c3f3f5ac1f04fa41364c7bae4",
                    "mixHash" : "0x0000000000000000000000000000000000000000000000000000000000000000",
                    "nonce" : "0x0000000000000000",
                    "number" : "0x01",
                    "parentHash" : "0xbba3aac5ae2430cc9d494082e30912541ae4a9c7efaa8762ba199b59a17ca978",
                    "receiptTrie" : "0x3a3c8203d11deeb33b867331114445f4761aedfb5b497fc5921c401b4dc390ed",
                    "stateRoot" : "0x08bd38b27a05ce84ec696085e34df84dbb6ed1269e38b12ee5146a238600ccd7",
                    "timestamp" : "0x03e8",
                    "transactionsTrie" : "0x05ddd80b5e3c46aa87d743841f86264cdea27175564d1fac771498761687de1c",
                    "uncleHash" : "0x1dcc4de8dec75d7aab85b567b6ccd41ad312451b948a7413f0a142fd40d49347"
                },
                "rlp" : "0xf90260f901f8a0bba3aac5ae2430cc9d494082e30912541ae4a9c7efaa8762ba199b59a17ca978a01dcc4de8dec75d7aab85b567b6ccd41ad312451b948a7413f0a142fd40d49347942adc25665018aa1fe0e6bc666dac8fc2697ff9baa008bd38b27a05ce84ec696085e34df84dbb6ed1269e38b12ee5146a238600ccd7a005ddd80b5e3c46aa87d743841f86264cdea27175564d1fac771498761687de1ca03a3c8203d11deeb33b867331114445f4761aedfb5b497fc5921c401b4dc390edb90100000000000000000000000000000000000000000000000000000000000000000000000000000000000000000000000000000000000000000000000000000000000000000000000000000000000000000000000000000000000000000000000000000000000000000000000000000000000000000000000000000000000000000000000000000000000000000000000000000000000000000000000000000000000000000000000000000000000000000000000000000000000000000000000000000000000000000000000000000000000000000000000000000000000000000000000000000000000000000000000000000000000000000000000000000000008302000001840550000082d4928203e880a00000000000000000000000000000000000000000000000000000000000000000880000000000000000f862f8600401836acfc094deadbeef0000000000000000000000000000000080801ba054fab9c25ddebd47f2c4d9ffe393cfbb4d189067d9957389c7b06ed5bf52b672a03760f513d0faba1640fbdc5def8a3d2d65f508b15eed071e41c4ad84b77a8f29c0",
                "transactions" : [
                    {
                        "data" : "0x",
                        "gasLimit" : "0x6acfc0",
                        "gasPrice" : "0x01",
                        "nonce" : "0x04",
                        "r" : "0x54fab9c25ddebd47f2c4d9ffe393cfbb4d189067d9957389c7b06ed5bf52b672",
                        "s" : "0x3760f513d0faba1640fbdc5def8a3d2d65f508b15eed071e41c4ad84b77a8f29",
                        "to" : "0xdeadbeef00000000000000000000000000000000",
                        "v" : "0x1b",
                        "value" : "0x00"
                    }
                ],
                "uncleHeaders" : [
                ]
            }
        ],
        "genesisBlockHeader" : {
            "bloom" : "0x00000000000000000000000000000000000000000000000000000000000000000000000000000000000000000000000000000000000000000000000000000000000000000000000000000000000000000000000000000000000000000000000000000000000000000000000000000000000000000000000000000000000000000000000000000000000000000000000000000000000000000000000000000000000000000000000000000000000000000000000000000000000000000000000000000000000000000000000000000000000000000000000000000000000000000000000000000000000000000000000000000000000000000000000000000000",
            "coinbase" : "0x2adc25665018aa1fe0e6bc666dac8fc2697ff9ba",
            "difficulty" : "0x020000",
            "extraData" : "0x42",
            "gasLimit" : "0x05500000",
            "gasUsed" : "0x00",
            "hash" : "0xbba3aac5ae2430cc9d494082e30912541ae4a9c7efaa8762ba199b59a17ca978",
            "mixHash" : "0x56e81f171bcc55a6ff8345e692c0f86e5b48e01b996cadc001622fb5e363b421",
            "nonce" : "0x0102030405060708",
            "number" : "0x00",
            "parentHash" : "0x0000000000000000000000000000000000000000000000000000000000000000",
            "receiptTrie" : "0x56e81f171bcc55a6ff8345e692c0f86e5b48e01b996cadc001622fb5e363b421",
            "stateRoot" : "0xe874e6b59308c7f440508c6332e2805c293d5bea4ae84aad62902dcc8af1c457",
            "timestamp" : "0x03b6",
            "transactionsTrie" : "0x56e81f171bcc55a6ff8345e692c0f86e5b48e01b996cadc001622fb5e363b421",
            "uncleHash" : "0x1dcc4de8dec75d7aab85b567b6ccd41ad312451b948a7413f0a142fd40d49347"
        },
        "genesisRLP" : "0xf901fbf901f6a00000000000000000000000000000000000000000000000000000000000000000a01dcc4de8dec75d7aab85b567b6ccd41ad312451b948a7413f0a142fd40d49347942adc25665018aa1fe0e6bc666dac8fc2697ff9baa0e874e6b59308c7f440508c6332e2805c293d5bea4ae84aad62902dcc8af1c457a056e81f171bcc55a6ff8345e692c0f86e5b48e01b996cadc001622fb5e363b421a056e81f171bcc55a6ff8345e692c0f86e5b48e01b996cadc001622fb5e363b421b901000000000000000000000000000000000000000000000000000000000000000000000000000000000000000000000000000000000000000000000000000000000000000000000000000000000000000000000000000000000000000000000000000000000000000000000000000000000000000000000000000000000000000000000000000000000000000000000000000000000000000000000000000000000000000000000000000000000000000000000000000000000000000000000000000000000000000000000000000000000000000000000000000000000000000000000000000000000000000000000000000000000000000000000000000000000083020000808405500000808203b642a056e81f171bcc55a6ff8345e692c0f86e5b48e01b996cadc001622fb5e363b421880102030405060708c0c0",
        "lastblockhash" : "0x0bbc83fd3192d927e3f931fc34a9eda2072b731c3f3f5ac1f04fa41364c7bae4",
        "network" : "Byzantium",
        "postState" : {
            "0x2adc25665018aa1fe0e6bc666dac8fc2697ff9ba" : {
                "balance" : "0x29a2241af62cd492",
                "code" : "",
                "nonce" : "0x00",
                "storage" : {
                }
            },
            "0xa000000000000000000000000000000000000001" : {
                "balance" : "0x174876e800",
                "code" : "0x0061736d01000000010d0360027f7f0060017f0060000002310208657468657265756d0c73746f7261676553746f7265000008657468657265756d0c67657443616c6c56616c75650001030201020503010001071102066d656d6f72790200046d61696e00020a1a011801027f418004210041a0042101200010012001200010000b0b27010041a0040b200000000000000000000000000000000000000000000000000000000000000002",
                "nonce" : "0x00",
                "storage" : {
                }
            },
            "0xa94f5374fce5edbc8e2a8697c15331677e6ebf0b" : {
                "balance" : "0x174876136e",
                "code" : "",
                "nonce" : "0x05",
                "storage" : {
                }
            },
            "0xdeadbeef00000000000000000000000000000000" : {
                "balance" : "0x00",
                "code" : "0x0061736d0100000001180460047f7f7f7f017f60017f017f60047f7f7f7f00600000024e0308657468657265756d06637265617465000008657468657265756d1367657445787465726e616c436f646553697a65000108657468657265756d1065787465726e616c436f6465436f70790002030201030503010001071102066d656d6f72790200046d61696e00030a3c013a01067f410021014120210341c000210441e00021054180022102200110012100200120024100200010022003200420022000200510003602000b0b34020041000b14a0000000000000000000000000000000000000010041c0000b14000000000000000000000000000000174876e800",
                "nonce" : "0x00",
                "storage" : {
                }
            }
        },
        "pre" : {
            "0xa000000000000000000000000000000000000001" : {
                "balance" : "0x174876e800",
                "code" : "0x0061736d01000000010d0360027f7f0060017f0060000002310208657468657265756d0c73746f7261676553746f7265000008657468657265756d0c67657443616c6c56616c75650001030201020503010001071102066d656d6f72790200046d61696e00020a1a011801027f418004210041a0042101200010012001200010000b0b27010041a0040b200000000000000000000000000000000000000000000000000000000000000002",
                "nonce" : "0x00",
                "storage" : {
                }
            },
            "0xa94f5374fce5edbc8e2a8697c15331677e6ebf0b" : {
                "balance" : "0x174876e800",
                "code" : "",
                "nonce" : "0x04",
                "storage" : {
                }
            },
            "0xdeadbeef00000000000000000000000000000000" : {
                "balance" : "0x00",
                "code" : "0x0061736d0100000001180460047f7f7f7f017f60017f017f60047f7f7f7f00600000024e0308657468657265756d06637265617465000008657468657265756d1367657445787465726e616c436f646553697a65000108657468657265756d1065787465726e616c436f6465436f70790002030201030503010001071102066d656d6f72790200046d61696e00030a3c013a01067f410021014120210341c000210441e00021054180022102200110012100200120024100200010022003200420022000200510003602000b0b34020041000b14a0000000000000000000000000000000000000010041c0000b14000000000000000000000000000000174876e800",
                "nonce" : "0x00",
                "storage" : {
                }
            }
        },
        "sealEngine" : "NoProof"
    }
}