{
    "createOOB1_d0g0v0_Byzantium" : {
        "_info" : {
            "comment" : "",
            "filledwith" : "testeth 1.5.0-alpha.6",
            "lllcversion" : "Version: 0.5.0-develop.2018.11.8+commit.20481055.Linux.g++",
            "source" : "src/BlockchainTestsFiller/GeneralStateTests/stEWASMTests/createOOB1_d0g0v0Filler.json",
            "sourceHash" : "cad417bfe75500d24c81e0c50b7242a2c03197fa917991a8c5df7dc8d375d3e8"
        },
        "blocks" : [
            {
                "blockHeader" : {
                    "bloom" : "0x00000000000000000000000000000000000000000000000000000000000000000000000000000000000000000000000000000000000000000000000000000000000000000000000000000000000000000000000000000000000000000000000000000000000000000000000000000000000000000000000000000000000000000000000000000000000000000000000000000000000000000000000000000000000000000000000000000000000000000000000000000000000000000000000000000000000000000000000000000000000000000000000000000000000000000000000000000000000000000000000000000000000000000000000000000000",
                    "coinbase" : "0x2adc25665018aa1fe0e6bc666dac8fc2697ff9ba",
                    "difficulty" : "0x020000",
                    "extraData" : "",
                    "gasLimit" : "0x05500000",
                    "gasUsed" : "0x023d0e",
                    "hash" : "0x70c3bdd439e15f6237fac31eafc565c3f642275abcaf5f1fa5a8ece0ad4953ca",
                    "mixHash" : "0x0000000000000000000000000000000000000000000000000000000000000000",
                    "nonce" : "0x0000000000000000",
                    "number" : "0x01",
                    "parentHash" : "0xa80d67c963dedc73cee21c655bd246eb1fd60e209d68ec4ea940bcb5eac157a8",
                    "receiptTrie" : "0x290ca9f203d17ee74f083f1889907e83ba040e5d10c964fa3805266e6f9a362e",
                    "stateRoot" : "0x6f41b979a318e62bd96b3c31b114c46b797c453d670f3b8e40f02ba6c49987f7",
                    "timestamp" : "0x03e8",
                    "transactionsTrie" : "0x882b1c358a1d87f01fabb237a81abe5a95042cf80da82598bd07e9872acb8711",
                    "uncleHash" : "0x1dcc4de8dec75d7aab85b567b6ccd41ad312451b948a7413f0a142fd40d49347"
                },
                "rlp" : "0xf90262f901f9a0a80d67c963dedc73cee21c655bd246eb1fd60e209d68ec4ea940bcb5eac157a8a01dcc4de8dec75d7aab85b567b6ccd41ad312451b948a7413f0a142fd40d49347942adc25665018aa1fe0e6bc666dac8fc2697ff9baa06f41b979a318e62bd96b3c31b114c46b797c453d670f3b8e40f02ba6c49987f7a0882b1c358a1d87f01fabb237a81abe5a95042cf80da82598bd07e9872acb8711a0290ca9f203d17ee74f083f1889907e83ba040e5d10c964fa3805266e6f9a362eb90100000000000000000000000000000000000000000000000000000000000000000000000000000000000000000000000000000000000000000000000000000000000000000000000000000000000000000000000000000000000000000000000000000000000000000000000000000000000000000000000000000000000000000000000000000000000000000000000000000000000000000000000000000000000000000000000000000000000000000000000000000000000000000000000000000000000000000000000000000000000000000000000000000000000000000000000000000000000000000000000000000000000000000000000000000000008302000001840550000083023d0e8203e880a00000000000000000000000000000000000000000000000000000000000000000880000000000000000f863f8618001840500000194abcdabcdabcdabcdabcdabcdabcdabcdabcdabcd80801ba0f807fae80e9698f65191da8f5313e9305935910cf97108e3102867a08513ed56a07b530915faf7b73ed7b8fa11e754b044dc8e9301aa1e635b687ee239fd03ee53c0",
                "transactions" : [
                    {
                        "data" : "0x",
                        "gasLimit" : "0x05000001",
                        "gasPrice" : "0x01",
                        "nonce" : "0x00",
                        "r" : "0xf807fae80e9698f65191da8f5313e9305935910cf97108e3102867a08513ed56",
                        "s" : "0x7b530915faf7b73ed7b8fa11e754b044dc8e9301aa1e635b687ee239fd03ee53",
                        "to" : "0xabcdabcdabcdabcdabcdabcdabcdabcdabcdabcd",
                        "v" : "0x1b",
                        "value" : "0x00"
                    }
                ],
                "uncleHeaders" : [
                ]
            }
        ],
        "genesisBlockHeader" : {
            "bloom" : "0x00000000000000000000000000000000000000000000000000000000000000000000000000000000000000000000000000000000000000000000000000000000000000000000000000000000000000000000000000000000000000000000000000000000000000000000000000000000000000000000000000000000000000000000000000000000000000000000000000000000000000000000000000000000000000000000000000000000000000000000000000000000000000000000000000000000000000000000000000000000000000000000000000000000000000000000000000000000000000000000000000000000000000000000000000000000",
            "coinbase" : "0x2adc25665018aa1fe0e6bc666dac8fc2697ff9ba",
            "difficulty" : "0x020000",
            "extraData" : "0x42",
            "gasLimit" : "0x05500000",
            "gasUsed" : "0x00",
            "hash" : "0xa80d67c963dedc73cee21c655bd246eb1fd60e209d68ec4ea940bcb5eac157a8",
            "mixHash" : "0x56e81f171bcc55a6ff8345e692c0f86e5b48e01b996cadc001622fb5e363b421",
            "nonce" : "0x0102030405060708",
            "number" : "0x00",
            "parentHash" : "0x0000000000000000000000000000000000000000000000000000000000000000",
            "receiptTrie" : "0x56e81f171bcc55a6ff8345e692c0f86e5b48e01b996cadc001622fb5e363b421",
            "stateRoot" : "0xb3a3338974362cba44253dfc8d2f25f505df63548bfee8711e7ace53502cc890",
            "timestamp" : "0x03b6",
            "transactionsTrie" : "0x56e81f171bcc55a6ff8345e692c0f86e5b48e01b996cadc001622fb5e363b421",
            "uncleHash" : "0x1dcc4de8dec75d7aab85b567b6ccd41ad312451b948a7413f0a142fd40d49347"
        },
        "genesisRLP" : "0xf901fbf901f6a00000000000000000000000000000000000000000000000000000000000000000a01dcc4de8dec75d7aab85b567b6ccd41ad312451b948a7413f0a142fd40d49347942adc25665018aa1fe0e6bc666dac8fc2697ff9baa0b3a3338974362cba44253dfc8d2f25f505df63548bfee8711e7ace53502cc890a056e81f171bcc55a6ff8345e692c0f86e5b48e01b996cadc001622fb5e363b421a056e81f171bcc55a6ff8345e692c0f86e5b48e01b996cadc001622fb5e363b421b901000000000000000000000000000000000000000000000000000000000000000000000000000000000000000000000000000000000000000000000000000000000000000000000000000000000000000000000000000000000000000000000000000000000000000000000000000000000000000000000000000000000000000000000000000000000000000000000000000000000000000000000000000000000000000000000000000000000000000000000000000000000000000000000000000000000000000000000000000000000000000000000000000000000000000000000000000000000000000000000000000000000000000000000000000000000083020000808405500000808203b642a056e81f171bcc55a6ff8345e692c0f86e5b48e01b996cadc001622fb5e363b421880102030405060708c0c0",
        "lastblockhash" : "0x70c3bdd439e15f6237fac31eafc565c3f642275abcaf5f1fa5a8ece0ad4953ca",
        "network" : "Byzantium",
        "postState" : {
            "0x2adc25665018aa1fe0e6bc666dac8fc2697ff9ba" : {
                "balance" : "0x29a2241af62e3d0e",
                "code" : "",
                "nonce" : "0x00",
                "storage" : {
                }
            },
            "0xa94f5374fce5edbc8e2a8697c15331677e6ebf0b" : {
                "balance" : "0x174874aaf2",
                "code" : "",
                "nonce" : "0x01",
                "storage" : {
                }
            },
            "0xabcdabcdabcdabcdabcdabcdabcdabcdabcdabcd" : {
                "balance" : "0x174876e800",
                "code" : "0x0061736d01000000011c0560057e7f7f7f7f017f60027f7f006000017f60037f7f7f0060000002600408657468657265756d0463616c6c000008657468657265756d0c73746f7261676553746f7265000108657468657265756d1167657452657475726e4461746153697a65000208657468657265756d0e72657475726e44617461436f70790003030201040503010001071102066d656d6f72790200046d61696e00040a48014601077f410021004120210141e0002103418001210441a001210541e0012106200342a08d0620002001200141011000360200200610023602002004200610012005200310010b0b66030041000b14deadbeef00000000000000000000000000000000004180010b2000000000000000000000000000000000000000000000000000000000000000000041a0010b200000000000000000000000000000000000000000000000000000000000000001",
                "nonce" : "0x00",
                "storage" : {
                    "0x01" : "0x0100000000000000000000000000000000000000000000000000000000000000"
                }
            },
            "0xdeadbeef00000000000000000000000000000000" : {
                "balance" : "0x174876e800",
                "code" : "0x0061736d01000000010c0260047f7f7f7f017f60000002130108657468657265756d066372656174650000030201010503010001071102066d656d6f72790200046d61696e00010a0f010d00417f41004100410010001a0b",
                "nonce" : "0x00",
                "storage" : {
                }
            }
        },
        "pre" : {
            "0xa94f5374fce5edbc8e2a8697c15331677e6ebf0b" : {
                "balance" : "0x174876e800",
                "code" : "",
                "nonce" : "0x00",
                "storage" : {
                }
            },
            "0xabcdabcdabcdabcdabcdabcdabcdabcdabcdabcd" : {
                "balance" : "0x174876e800",
                "code" : "0x0061736d01000000011c0560057e7f7f7f7f017f60027f7f006000017f60037f7f7f0060000002600408657468657265756d0463616c6c000008657468657265756d0c73746f7261676553746f7265000108657468657265756d1167657452657475726e4461746153697a65000208657468657265756d0e72657475726e44617461436f70790003030201040503010001071102066d656d6f72790200046d61696e00040a48014601077f410021004120210141e0002103418001210441a001210541e0012106200342a08d0620002001200141011000360200200610023602002004200610012005200310010b0b66030041000b14deadbeef00000000000000000000000000000000004180010b2000000000000000000000000000000000000000000000000000000000000000000041a0010b200000000000000000000000000000000000000000000000000000000000000001",
                "nonce" : "0x00",
                "storage" : {
                }
            },
            "0xdeadbeef00000000000000000000000000000000" : {
                "balance" : "0x174876e800",
                "code" : "0x0061736d01000000010c0260047f7f7f7f017f60000002130108657468657265756d066372656174650000030201010503010001071102066d656d6f72790200046d61696e00010a0f010d00417f41004100410010001a0b",
                "nonce" : "0x00",
                "storage" : {
                }
            }
        },
        "sealEngine" : "NoProof"
    }
}