{
    "createFromTransactionReturnRandomBytes_d0g0v0_Byzantium" : {
        "_info" : {
            "comment" : "",
            "filledwith" : "testeth 1.5.0-alpha.6",
            "lllcversion" : "Version: 0.5.0-develop.2018.11.8+commit.20481055.Linux.g++",
            "source" : "src/BlockchainTestsFiller/GeneralStateTests/stEWASMTests/createFromTransactionReturnRandomBytes_d0g0v0Filler.json",
            "sourceHash" : "d1aae6add485ef0253804efae892c469137262975e28f03a12aaeef350f2c7a0"
        },
        "blocks" : [
            {
                "blockHeader" : {
                    "bloom" : "0x00000000000000000000000000000000000000000000000000000000000000000000000000000000000000000000000000000000000000000000000000000000000000000000000000000000000000000000000000000000000000000000000000000000000000000000000000000000000000000000000000000000000000000000000000000000000000000000000000000000000000000000000000000000000000000000000000000000000000000000000000000000000000000000000000000000000000000000000000000000000000000000000000000000000000000000000000000000000000000000000000000000000000000000000000000000",
                    "coinbase" : "0x2adc25665018aa1fe0e6bc666dac8fc2697ff9ba",
                    "difficulty" : "0x020000",
                    "extraData" : "",
                    "gasLimit" : "0x05500000",
                    "gasUsed" : "0x01eef4",
                    "hash" : "0xafce878871f57d0110c9d52b4b25fc73fa099cfea251c261c47be78b385f525f",
                    "mixHash" : "0x0000000000000000000000000000000000000000000000000000000000000000",
                    "nonce" : "0x0000000000000000",
                    "number" : "0x01",
                    "parentHash" : "0x9b7ba1f3dfb4664f1ede285dbc488b8a686a0c479b89772e9f1368a65b2ea363",
                    "receiptTrie" : "0x0935e3d0998155999e690298e5884eb4e83adfa14f903417b18f2925a2a7bc0d",
                    "stateRoot" : "0x7f8f46fcc5292e348040c14c929e67b893da6325ab3758d2b984a609ae4afb05",
                    "timestamp" : "0x03e8",
                    "transactionsTrie" : "0x2d118ec278d506c08fecadc0f0b893e802325abdad4eb88bd93b085ba2d4ac34",
                    "uncleHash" : "0x1dcc4de8dec75d7aab85b567b6ccd41ad312451b948a7413f0a142fd40d49347"
                },
                "rlp" : "0xf903adf901f9a09b7ba1f3dfb4664f1ede285dbc488b8a686a0c479b89772e9f1368a65b2ea363a01dcc4de8dec75d7aab85b567b6ccd41ad312451b948a7413f0a142fd40d49347942adc25665018aa1fe0e6bc666dac8fc2697ff9baa07f8f46fcc5292e348040c14c929e67b893da6325ab3758d2b984a609ae4afb05a02d118ec278d506c08fecadc0f0b893e802325abdad4eb88bd93b085ba2d4ac34a00935e3d0998155999e690298e5884eb4e83adfa14f903417b18f2925a2a7bc0db9010000000000000000000000000000000000000000000000000000000000000000000000000000000000000000000000000000000000000000000000000000000000000000000000000000000000000000000000000000000000000000000000000000000000000000000000000000000000000000000000000000000000000000000000000000000000000000000000000000000000000000000000000000000000000000000000000000000000000000000000000000000000000000000000000000000000000000000000000000000000000000000000000000000000000000000000000000000000000000000000000000000000000000000000000000000000830200000184055000008301eef48203e880a00000000000000000000000000000000000000000000000000000000000000000880000000000000000f901adf901aa800184050000018080b9015b0061736d0100000001090260027f7f0060000002130108657468657265756d0666696e6973680000030201010503010064071102066d656d6f72790200046d61696e00010a0b010900410041800210000b0b8702010041000b800249090906966838a5681156a65487c345abe489c2687ccd8f254cdbb528aae732d2a30f2b918be72a409a88306a56525d289c490c2626f34f010525cfe0c445e3d9ff2842bc68c2d8ab2f9a24045930dafef5b1cd0e3a034b9cda1a99a75bb2ab157a945419dd0d3d6eb3ff09c4ac13ab782e22d8b2aa08bf1e8247184fab4e51651f1ab68482066ae759bf3f6a8a5a53ca7869aecff92fefb23206f57caaadcfef6f9e369daa9f62dfa76ac3da5394022778d87a85722a4265f84e1c98aed44a4ff3ccdf2aa0ddc88266bf5a13c9414ceae82b5f7f9e6a8bcbccb4f7715bd979a92e45f88f326e8f6c2bc3cb082f85345de446a02adc287ae830f21aa271e7411ba08e57e077b331e10620fa74329cb0b63ee7e079dbdf98b109e61081dd67df3c45a0095aa1b2df1f2f9f715b8802214b7bd36bf2acc5d310d1519a67b75ecf9810b1c0",
                "transactions" : [
                    {
                        "data" : "0x0061736d0100000001090260027f7f0060000002130108657468657265756d0666696e6973680000030201010503010064071102066d656d6f72790200046d61696e00010a0b010900410041800210000b0b8702010041000b800249090906966838a5681156a65487c345abe489c2687ccd8f254cdbb528aae732d2a30f2b918be72a409a88306a56525d289c490c2626f34f010525cfe0c445e3d9ff2842bc68c2d8ab2f9a24045930dafef5b1cd0e3a034b9cda1a99a75bb2ab157a945419dd0d3d6eb3ff09c4ac13ab782e22d8b2aa08bf1e8247184fab4e51651f1ab68482066ae759bf3f6a8a5a53ca7869aecff92fefb23206f57caaadcfef6f9e369daa9f62dfa76ac3da5394022778d87a85722a4265f84e1c98aed44a4ff3ccdf2aa0ddc88266bf5a13c9414ceae82b5f7f9e6a8bcbccb4f7715bd979a92e45f88f326e8f6c2bc3cb082f85345de446a02adc287ae830f21aa271e741",
                        "gasLimit" : "0x05000001",
                        "gasPrice" : "0x01",
                        "nonce" : "0x00",
                        "r" : "0x8e57e077b331e10620fa74329cb0b63ee7e079dbdf98b109e61081dd67df3c45",
                        "s" : "0x095aa1b2df1f2f9f715b8802214b7bd36bf2acc5d310d1519a67b75ecf9810b1",
                        "to" : "",
                        "v" : "0x1b",
                        "value" : "0x00"
                    }
                ],
                "uncleHeaders" : [
                ]
            }
        ],
        "genesisBlockHeader" : {
            "bloom" : "0x00000000000000000000000000000000000000000000000000000000000000000000000000000000000000000000000000000000000000000000000000000000000000000000000000000000000000000000000000000000000000000000000000000000000000000000000000000000000000000000000000000000000000000000000000000000000000000000000000000000000000000000000000000000000000000000000000000000000000000000000000000000000000000000000000000000000000000000000000000000000000000000000000000000000000000000000000000000000000000000000000000000000000000000000000000000",
            "coinbase" : "0x2adc25665018aa1fe0e6bc666dac8fc2697ff9ba",
            "difficulty" : "0x020000",
            "extraData" : "0x42",
            "gasLimit" : "0x05500000",
            "gasUsed" : "0x00",
            "hash" : "0x9b7ba1f3dfb4664f1ede285dbc488b8a686a0c479b89772e9f1368a65b2ea363",
            "mixHash" : "0x56e81f171bcc55a6ff8345e692c0f86e5b48e01b996cadc001622fb5e363b421",
            "nonce" : "0x0102030405060708",
            "number" : "0x00",
            "parentHash" : "0x0000000000000000000000000000000000000000000000000000000000000000",
            "receiptTrie" : "0x56e81f171bcc55a6ff8345e692c0f86e5b48e01b996cadc001622fb5e363b421",
            "stateRoot" : "0x19fc38351a22fc05c8add29df0767dc26ab2635d0b4ed11caf7d7cb6fed2ea4d",
            "timestamp" : "0x03b6",
            "transactionsTrie" : "0x56e81f171bcc55a6ff8345e692c0f86e5b48e01b996cadc001622fb5e363b421",
            "uncleHash" : "0x1dcc4de8dec75d7aab85b567b6ccd41ad312451b948a7413f0a142fd40d49347"
        },
        "genesisRLP" : "0xf901fbf901f6a00000000000000000000000000000000000000000000000000000000000000000a01dcc4de8dec75d7aab85b567b6ccd41ad312451b948a7413f0a142fd40d49347942adc25665018aa1fe0e6bc666dac8fc2697ff9baa019fc38351a22fc05c8add29df0767dc26ab2635d0b4ed11caf7d7cb6fed2ea4da056e81f171bcc55a6ff8345e692c0f86e5b48e01b996cadc001622fb5e363b421a056e81f171bcc55a6ff8345e692c0f86e5b48e01b996cadc001622fb5e363b421b901000000000000000000000000000000000000000000000000000000000000000000000000000000000000000000000000000000000000000000000000000000000000000000000000000000000000000000000000000000000000000000000000000000000000000000000000000000000000000000000000000000000000000000000000000000000000000000000000000000000000000000000000000000000000000000000000000000000000000000000000000000000000000000000000000000000000000000000000000000000000000000000000000000000000000000000000000000000000000000000000000000000000000000000000000000000083020000808405500000808203b642a056e81f171bcc55a6ff8345e692c0f86e5b48e01b996cadc001622fb5e363b421880102030405060708c0c0",
        "lastblockhash" : "0xafce878871f57d0110c9d52b4b25fc73fa099cfea251c261c47be78b385f525f",
        "network" : "Byzantium",
        "postState" : {
            "0x2adc25665018aa1fe0e6bc666dac8fc2697ff9ba" : {
                "balance" : "0x29a2241af62deef4",
                "code" : "",
                "nonce" : "0x00",
                "storage" : {
                }
            },
            "0x6295ee1b4f6dd65047762f924ecd367c17eabf8f" : {
                "balance" : "0x00",
                "code" : "0x49090906966838a5681156a65487c345abe489c2687ccd8f254cdbb528aae732d2a30f2b918be72a409a88306a56525d289c490c2626f34f010525cfe0c445e3d9ff2842bc68c2d8ab2f9a24045930dafef5b1cd0e3a034b9cda1a99a75bb2ab157a945419dd0d3d6eb3ff09c4ac13ab782e22d8b2aa08bf1e8247184fab4e51651f1ab68482066ae759bf3f6a8a5a53ca7869aecff92fefb23206f57caaadcfef6f9e369daa9f62dfa76ac3da5394022778d87a85722a4265f84e1c98aed44a4ff3ccdf2aa0ddc88266bf5a13c9414ceae82b5f7f9e6a8bcbccb4f7715bd979a92e45f88f326e8f6c2bc3cb082f85345de446a02adc287ae830f21aa271e741",
                "nonce" : "0x01",
                "storage" : {
                }
            },
            "0xa94f5374fce5edbc8e2a8697c15331677e6ebf0b" : {
                "balance" : "0x174874f90c",
                "code" : "",
                "nonce" : "0x01",
                "storage" : {
                }
            }
        },
        "pre" : {
            "0xa94f5374fce5edbc8e2a8697c15331677e6ebf0b" : {
                "balance" : "0x174876e800",
                "code" : "",
                "nonce" : "0x00",
                "storage" : {
                }
            }
        },
        "sealEngine" : "NoProof"
    }
}