{
    "createCodeWithRevert_d0g0v0_Byzantium" : {
        "_info" : {
            "comment" : "",
            "filledwith" : "testeth 1.5.0-alpha.6",
            "lllcversion" : "Version: 0.5.0-develop.2018.11.8+commit.20481055.Linux.g++",
            "source" : "src/BlockchainTestsFiller/GeneralStateTests/stEWASMTests/createCodeWithRevert_d0g0v0Filler.json",
            "sourceHash" : "a6cbc637c075ebd3ae26b84a5d47e6f4a26f76559ac44e15a57128bacb2982ca"
        },
        "blocks" : [
            {
                "blockHeader" : {
                    "bloom" : "0x00000000000000000000000000000000000000000000000000000000000000000000000000000000000000000000000000000000000000000000000000000000000000000000000000000000000000000000000000000000000000000000000000000000000000000000000000000000000000000000000000000000000000000000000000000000000000000000000000000000000000000000000000000000000000000000000000000000000000000000000000000000000000000000000000000000000000000000000000000000000000000000000000000000000000000000000000000000000000000000000000000000000000000000000000000000",
                    "coinbase" : "0x2adc25665018aa1fe0e6bc666dac8fc2697ff9ba",
                    "difficulty" : "0x020000",
                    "extraData" : "",
                    "gasLimit" : "0x05500000",
                    "gasUsed" : "0x013634",
                    "hash" : "0xe3b256f0b67155e1217afc5de90e5202e3349ce073293ee9a5f1c1e5ba582171",
                    "mixHash" : "0x0000000000000000000000000000000000000000000000000000000000000000",
                    "nonce" : "0x0000000000000000",
                    "number" : "0x01",
                    "parentHash" : "0x761ae84b0ec148ab80650c869372d74894253f8bd9052bbef7be51941693eba1",
                    "receiptTrie" : "0xf027c78eb2742ee7946326544ed74a185639a9b0d340e079d92342227f236b26",
                    "stateRoot" : "0x0750f79a9ea19857c7f3f508aec2eb62f7b8911ab7d9e8dddb0331daf491574a",
                    "timestamp" : "0x03e8",
                    "transactionsTrie" : "0x05ddd80b5e3c46aa87d743841f86264cdea27175564d1fac771498761687de1c",
                    "uncleHash" : "0x1dcc4de8dec75d7aab85b567b6ccd41ad312451b948a7413f0a142fd40d49347"
                },
                "rlp" : "0xf90261f901f9a0761ae84b0ec148ab80650c869372d74894253f8bd9052bbef7be51941693eba1a01dcc4de8dec75d7aab85b567b6ccd41ad312451b948a7413f0a142fd40d49347942adc25665018aa1fe0e6bc666dac8fc2697ff9baa00750f79a9ea19857c7f3f508aec2eb62f7b8911ab7d9e8dddb0331daf491574aa005ddd80b5e3c46aa87d743841f86264cdea27175564d1fac771498761687de1ca0f027c78eb2742ee7946326544ed74a185639a9b0d340e079d92342227f236b26b901000000000000000000000000000000000000000000000000000000000000000000000000000000000000000000000000000000000000000000000000000000000000000000000000000000000000000000000000000000000000000000000000000000000000000000000000000000000000000000000000000000000000000000000000000000000000000000000000000000000000000000000000000000000000000000000000000000000000000000000000000000000000000000000000000000000000000000000000000000000000000000000000000000000000000000000000000000000000000000000000000000000000000000000000000000000083020000018405500000830136348203e880a00000000000000000000000000000000000000000000000000000000000000000880000000000000000f862f8600401836acfc094deadbeef0000000000000000000000000000000080801ba054fab9c25ddebd47f2c4d9ffe393cfbb4d189067d9957389c7b06ed5bf52b672a03760f513d0faba1640fbdc5def8a3d2d65f508b15eed071e41c4ad84b77a8f29c0",
                "transactions" : [
                    {
                        "data" : "0x",
                        "gasLimit" : "0x6acfc0",
                        "gasPrice" : "0x01",
                        "nonce" : "0x04",
                        "r" : "0x54fab9c25ddebd47f2c4d9ffe393cfbb4d189067d9957389c7b06ed5bf52b672",
                        "s" : "0x3760f513d0faba1640fbdc5def8a3d2d65f508b15eed071e41c4ad84b77a8f29",
                        "to" : "0xdeadbeef00000000000000000000000000000000",
                        "v" : "0x1b",
                        "value" : "0x00"
                    }
                ],
                "uncleHeaders" : [
                ]
            }
        ],
        "genesisBlockHeader" : {
            "bloom" : "0x00000000000000000000000000000000000000000000000000000000000000000000000000000000000000000000000000000000000000000000000000000000000000000000000000000000000000000000000000000000000000000000000000000000000000000000000000000000000000000000000000000000000000000000000000000000000000000000000000000000000000000000000000000000000000000000000000000000000000000000000000000000000000000000000000000000000000000000000000000000000000000000000000000000000000000000000000000000000000000000000000000000000000000000000000000000",
            "coinbase" : "0x2adc25665018aa1fe0e6bc666dac8fc2697ff9ba",
            "difficulty" : "0x020000",
            "extraData" : "0x42",
            "gasLimit" : "0x05500000",
            "gasUsed" : "0x00",
            "hash" : "0x761ae84b0ec148ab80650c869372d74894253f8bd9052bbef7be51941693eba1",
            "mixHash" : "0x56e81f171bcc55a6ff8345e692c0f86e5b48e01b996cadc001622fb5e363b421",
            "nonce" : "0x0102030405060708",
            "number" : "0x00",
            "parentHash" : "0x0000000000000000000000000000000000000000000000000000000000000000",
            "receiptTrie" : "0x56e81f171bcc55a6ff8345e692c0f86e5b48e01b996cadc001622fb5e363b421",
            "stateRoot" : "0x8e1c8eb92e44c734588227a957511cd4a5e86be854451accf2c9f654270be888",
            "timestamp" : "0x03b6",
            "transactionsTrie" : "0x56e81f171bcc55a6ff8345e692c0f86e5b48e01b996cadc001622fb5e363b421",
            "uncleHash" : "0x1dcc4de8dec75d7aab85b567b6ccd41ad312451b948a7413f0a142fd40d49347"
        },
        "genesisRLP" : "0xf901fbf901f6a00000000000000000000000000000000000000000000000000000000000000000a01dcc4de8dec75d7aab85b567b6ccd41ad312451b948a7413f0a142fd40d49347942adc25665018aa1fe0e6bc666dac8fc2697ff9baa08e1c8eb92e44c734588227a957511cd4a5e86be854451accf2c9f654270be888a056e81f171bcc55a6ff8345e692c0f86e5b48e01b996cadc001622fb5e363b421a056e81f171bcc55a6ff8345e692c0f86e5b48e01b996cadc001622fb5e363b421b901000000000000000000000000000000000000000000000000000000000000000000000000000000000000000000000000000000000000000000000000000000000000000000000000000000000000000000000000000000000000000000000000000000000000000000000000000000000000000000000000000000000000000000000000000000000000000000000000000000000000000000000000000000000000000000000000000000000000000000000000000000000000000000000000000000000000000000000000000000000000000000000000000000000000000000000000000000000000000000000000000000000000000000000000000000000083020000808405500000808203b642a056e81f171bcc55a6ff8345e692c0f86e5b48e01b996cadc001622fb5e363b421880102030405060708c0c0",
        "lastblockhash" : "0xe3b256f0b67155e1217afc5de90e5202e3349ce073293ee9a5f1c1e5ba582171",
        "network" : "Byzantium",
        "postState" : {
            "0x2adc25665018aa1fe0e6bc666dac8fc2697ff9ba" : {
                "balance" : "0x29a2241af62d3634",
                "code" : "",
                "nonce" : "0x00",
                "storage" : {
                }
            },
            "0xa000000000000000000000000000000000000001" : {
                "balance" : "0x00",
                "code" : "0x0061736d0100000001090260027f7f0060000002130108657468657265756d067265766572740000030201010503010001071102066d656d6f72790200046d61696e00010a16011401027f418004210041022101418004410210000b0b0901004180040b02beef",
                "nonce" : "0x00",
                "storage" : {
                }
            },
            "0xa94f5374fce5edbc8e2a8697c15331677e6ebf0b" : {
                "balance" : "0x174875b1cc",
                "code" : "",
                "nonce" : "0x05",
                "storage" : {
                }
            },
            "0xdeadbeef00000000000000000000000000000000" : {
                "balance" : "0x174876e800",
                "code" : "0x0061736d01000000011d0560047f7f7f7f017f60027f7f0060017f017f60047f7f7f7f0060000002660408657468657265756d06637265617465000008657468657265756d0c73746f7261676553746f7265000108657468657265756d1367657445787465726e616c436f646553697a65000208657468657265756d1065787465726e616c436f6465436f70790003030201040503010001071102066d656d6f72790200046d61696e00040a6c016a01087f418002210041a001210141c0012102410021034120210441c000210541e00021064180012107200341003602002004410136020020054100360200200210022101200220004100200110032007200520002001200610003602002003200710012004200610010b0b1b010041c0010b14a000000000000000000000000000000000000001",
                "nonce" : "0x01",
                "storage" : {
                    "0x00" : "0x0200000000000000000000000000000000000000000000000000000000000000"
                }
            }
        },
        "pre" : {
            "0xa000000000000000000000000000000000000001" : {
                "balance" : "0x00",
                "code" : "0x0061736d0100000001090260027f7f0060000002130108657468657265756d067265766572740000030201010503010001071102066d656d6f72790200046d61696e00010a16011401027f418004210041022101418004410210000b0b0901004180040b02beef",
                "nonce" : "0x00",
                "storage" : {
                }
            },
            "0xa94f5374fce5edbc8e2a8697c15331677e6ebf0b" : {
                "balance" : "0x174876e800",
                "code" : "",
                "nonce" : "0x04",
                "storage" : {
                }
            },
            "0xdeadbeef00000000000000000000000000000000" : {
                "balance" : "0x174876e800",
                "code" : "0x0061736d01000000011d0560047f7f7f7f017f60027f7f0060017f017f60047f7f7f7f0060000002660408657468657265756d06637265617465000008657468657265756d0c73746f7261676553746f7265000108657468657265756d1367657445787465726e616c436f646553697a65000208657468657265756d1065787465726e616c436f6465436f70790003030201040503010001071102066d656d6f72790200046d61696e00040a6c016a01087f418002210041a001210141c0012102410021034120210441c000210541e00021064180012107200341003602002004410136020020054100360200200210022101200220004100200110032007200520002001200610003602002003200710012004200610010b0b1b010041c0010b14a000000000000000000000000000000000000001",
                "nonce" : "0x00",
                "storage" : {
                }
            }
        },
        "sealEngine" : "NoProof"
    }
}