{
    "createValue_d0g0v0_Byzantium" : {
        "_info" : {
            "comment" : "",
            "filledwith" : "testeth 1.5.0-alpha.6",
            "lllcversion" : "Version: 0.5.0-develop.2018.11.8+commit.20481055.Linux.g++",
            "source" : "src/BlockchainTestsFiller/GeneralStateTests/stEWASMTests/createValue_d0g0v0Filler.json",
            "sourceHash" : "940197b3fcc6c18199aad1cefa6138d27b88f899ea3d748bc226339d50af6b8c"
        },
        "blocks" : [
            {
                "blockHeader" : {
                    "bloom" : "0x00000000000000000000000000000000000000000000000000000000000000000000000000000000000000000000000000000000000000000000000000000000000000000000000000000000000000000000000000000000000000000000000000000000000000000000000000000000000000000000000000000000000000000000000000000000000000000000000000000000000000000000000000000000000000000000000000000000000000000000000000000000000000000000000000000000000000000000000000000000000000000000000000000000000000000000000000000000000000000000000000000000000000000000000000000000",
                    "coinbase" : "0x2adc25665018aa1fe0e6bc666dac8fc2697ff9ba",
                    "difficulty" : "0x020000",
                    "extraData" : "",
                    "gasLimit" : "0x05500000",
                    "gasUsed" : "0x017ed2",
                    "hash" : "0x05769ff734dc37cce7d63febd18bfa0b8f665f982b32f298017ec55c2fff0dc7",
                    "mixHash" : "0x0000000000000000000000000000000000000000000000000000000000000000",
                    "nonce" : "0x0000000000000000",
                    "number" : "0x01",
                    "parentHash" : "0x7cd7777f4de8fcf9ec9497a66cf1cdfcd978848ac701dba255510ad7033b4f64",
                    "receiptTrie" : "0x0c3bc6012e5fcf4d481def5087be1479ecfcecb99b3dda3e40b04f0b8310247e",
                    "stateRoot" : "0x7bc5dcc003c7c5dd96657611d49b0171cfeae7cd0f6013c559d8df6a5e4569d4",
                    "timestamp" : "0x03e8",
                    "transactionsTrie" : "0x05ddd80b5e3c46aa87d743841f86264cdea27175564d1fac771498761687de1c",
                    "uncleHash" : "0x1dcc4de8dec75d7aab85b567b6ccd41ad312451b948a7413f0a142fd40d49347"
                },
                "rlp" : "0xf90261f901f9a07cd7777f4de8fcf9ec9497a66cf1cdfcd978848ac701dba255510ad7033b4f64a01dcc4de8dec75d7aab85b567b6ccd41ad312451b948a7413f0a142fd40d49347942adc25665018aa1fe0e6bc666dac8fc2697ff9baa07bc5dcc003c7c5dd96657611d49b0171cfeae7cd0f6013c559d8df6a5e4569d4a005ddd80b5e3c46aa87d743841f86264cdea27175564d1fac771498761687de1ca00c3bc6012e5fcf4d481def5087be1479ecfcecb99b3dda3e40b04f0b8310247eb90100000000000000000000000000000000000000000000000000000000000000000000000000000000000000000000000000000000000000000000000000000000000000000000000000000000000000000000000000000000000000000000000000000000000000000000000000000000000000000000000000000000000000000000000000000000000000000000000000000000000000000000000000000000000000000000000000000000000000000000000000000000000000000000000000000000000000000000000000000000000000000000000000000000000000000000000000000000000000000000000000000000000000000000000000000000008302000001840550000083017ed28203e880a00000000000000000000000000000000000000000000000000000000000000000880000000000000000f862f8600401836acfc094deadbeef0000000000000000000000000000000080801ba054fab9c25ddebd47f2c4d9ffe393cfbb4d189067d9957389c7b06ed5bf52b672a03760f513d0faba1640fbdc5def8a3d2d65f508b15eed071e41c4ad84b77a8f29c0",
                "transactions" : [
                    {
                        "data" : "0x",
                        "gasLimit" : "0x6acfc0",
                        "gasPrice" : "0x01",
                        "nonce" : "0x04",
                        "r" : "0x54fab9c25ddebd47f2c4d9ffe393cfbb4d189067d9957389c7b06ed5bf52b672",
                        "s" : "0x3760f513d0faba1640fbdc5def8a3d2d65f508b15eed071e41c4ad84b77a8f29",
                        "to" : "0xdeadbeef00000000000000000000000000000000",
                        "v" : "0x1b",
                        "value" : "0x00"
                    }
                ],
                "uncleHeaders" : [
                ]
            }
        ],
        "genesisBlockHeader" : {
            "bloom" : "0x00000000000000000000000000000000000000000000000000000000000000000000000000000000000000000000000000000000000000000000000000000000000000000000000000000000000000000000000000000000000000000000000000000000000000000000000000000000000000000000000000000000000000000000000000000000000000000000000000000000000000000000000000000000000000000000000000000000000000000000000000000000000000000000000000000000000000000000000000000000000000000000000000000000000000000000000000000000000000000000000000000000000000000000000000000000",
            "coinbase" : "0x2adc25665018aa1fe0e6bc666dac8fc2697ff9ba",
            "difficulty" : "0x020000",
            "extraData" : "0x42",
            "gasLimit" : "0x05500000",
            "gasUsed" : "0x00",
            "hash" : "0x7cd7777f4de8fcf9ec9497a66cf1cdfcd978848ac701dba255510ad7033b4f64",
            "mixHash" : "0x56e81f171bcc55a6ff8345e692c0f86e5b48e01b996cadc001622fb5e363b421",
            "nonce" : "0x0102030405060708",
            "number" : "0x00",
            "parentHash" : "0x0000000000000000000000000000000000000000000000000000000000000000",
            "receiptTrie" : "0x56e81f171bcc55a6ff8345e692c0f86e5b48e01b996cadc001622fb5e363b421",
            "stateRoot" : "0xef6afcfaa0b84eea2aa1121def67c7939d93aea71ab712d325ec4a0a30d1bdb8",
            "timestamp" : "0x03b6",
            "transactionsTrie" : "0x56e81f171bcc55a6ff8345e692c0f86e5b48e01b996cadc001622fb5e363b421",
            "uncleHash" : "0x1dcc4de8dec75d7aab85b567b6ccd41ad312451b948a7413f0a142fd40d49347"
        },
        "genesisRLP" : "0xf901fbf901f6a00000000000000000000000000000000000000000000000000000000000000000a01dcc4de8dec75d7aab85b567b6ccd41ad312451b948a7413f0a142fd40d49347942adc25665018aa1fe0e6bc666dac8fc2697ff9baa0ef6afcfaa0b84eea2aa1121def67c7939d93aea71ab712d325ec4a0a30d1bdb8a056e81f171bcc55a6ff8345e692c0f86e5b48e01b996cadc001622fb5e363b421a056e81f171bcc55a6ff8345e692c0f86e5b48e01b996cadc001622fb5e363b421b901000000000000000000000000000000000000000000000000000000000000000000000000000000000000000000000000000000000000000000000000000000000000000000000000000000000000000000000000000000000000000000000000000000000000000000000000000000000000000000000000000000000000000000000000000000000000000000000000000000000000000000000000000000000000000000000000000000000000000000000000000000000000000000000000000000000000000000000000000000000000000000000000000000000000000000000000000000000000000000000000000000000000000000000000000000000083020000808405500000808203b642a056e81f171bcc55a6ff8345e692c0f86e5b48e01b996cadc001622fb5e363b421880102030405060708c0c0",
        "lastblockhash" : "0x05769ff734dc37cce7d63febd18bfa0b8f665f982b32f298017ec55c2fff0dc7",
        "network" : "Byzantium",
        "postState" : {
            "0x2adc25665018aa1fe0e6bc666dac8fc2697ff9ba" : {
                "balance" : "0x29a2241af62d7ed2",
                "code" : "",
                "nonce" : "0x00",
                "storage" : {
                }
            },
            "0xa94f5374fce5edbc8e2a8697c15331677e6ebf0b" : {
                "balance" : "0x174875692e",
                "code" : "",
                "nonce" : "0x05",
                "storage" : {
                }
            },
            "0xdeadbeef00000000000000000000000000000000" : {
                "balance" : "0x174876d5cc",
                "code" : "0x0061736d0100000001110360047f7f7f7f017f60027f7f00600000022b0208657468657265756d06637265617465000008657468657265756d0c73746f7261676553746f72650001030201020503010001071102066d656d6f72790200046d61696e00020a4a014801077f418002210041ab012101410021024120210341c000210441e00021054180012106200441b4243602002006200420002001200510003602002002200610012003200510010b0bfd0103004180020bab010061736d01000000010d0360027f7f0060017f0060000002310208657468657265756d0c73746f7261676553746f7265000008657468657265756d0c67657443616c6c56616c75650001030201020503010001071102066d656d6f72790200046d61696e00020a1a011801027f418004210041a0042101200010012001200010000b0b27010041a0040b2000000000000000000000000000000000000000000000000000000000000000020041000b2000000000000000000000000000000000000000000000000000000000000000000041200b200000000000000000000000000000000000000000000000000000000000000001",
                "nonce" : "0x01",
                "storage" : {
                    "0x01" : "0xf2048c36a5536fea3bc71d49ed59f2c65c546eea000000000000000000000000"
                }
            },
            "0xf2048c36a5536fea3bc71d49ed59f2c65c546eea" : {
                "balance" : "0x1234",
                "code" : "",
                "nonce" : "0x01",
                "storage" : {
                    "0x02" : "0x3412000000000000000000000000000000000000000000000000000000000000"
                }
            }
        },
        "pre" : {
            "0xa94f5374fce5edbc8e2a8697c15331677e6ebf0b" : {
                "balance" : "0x174876e800",
                "code" : "",
                "nonce" : "0x04",
                "storage" : {
                }
            },
            "0xdeadbeef00000000000000000000000000000000" : {
                "balance" : "0x174876e800",
                "code" : "0x0061736d0100000001110360047f7f7f7f017f60027f7f00600000022b0208657468657265756d06637265617465000008657468657265756d0c73746f7261676553746f72650001030201020503010001071102066d656d6f72790200046d61696e00020a4a014801077f418002210041ab012101410021024120210341c000210441e00021054180012106200441b4243602002006200420002001200510003602002002200610012003200510010b0bfd0103004180020bab010061736d01000000010d0360027f7f0060017f0060000002310208657468657265756d0c73746f7261676553746f7265000008657468657265756d0c67657443616c6c56616c75650001030201020503010001071102066d656d6f72790200046d61696e00020a1a011801027f418004210041a0042101200010012001200010000b0b27010041a0040b2000000000000000000000000000000000000000000000000000000000000000020041000b2000000000000000000000000000000000000000000000000000000000000000000041200b200000000000000000000000000000000000000000000000000000000000000001",
                "nonce" : "0x00",
                "storage" : {
                }
            }
        },
        "sealEngine" : "NoProof"
    }
}