{
    "createFromTransactionReturnTwoBytes_d0g0v0_Byzantium" : {
        "_info" : {
            "comment" : "",
            "filledwith" : "testeth 1.5.0-alpha.6",
            "lllcversion" : "Version: 0.5.0-develop.2018.11.8+commit.20481055.Linux.g++",
            "source" : "src/BlockchainTestsFiller/GeneralStateTests/stEWASMTests/createFromTransactionReturnTwoBytes_d0g0v0Filler.json",
            "sourceHash" : "c6d450d8893e7ef5a7878149c37d2ed1ca76f3340f0b53b8d4ce3c7b4086b993"
        },
        "blocks" : [
            {
                "blockHeader" : {
                    "bloom" : "0x00000000000000000000000000000000000000000000000000000000000000000000000000000000000000000000000000000000000000000000000000000000000000000000000000000000000000000000000000000000000000000000000000000000000000000000000000000000000000000000000000000000000000000000000000000000000000000000000000000000000000000000000000000000000000000000000000000000000000000000000000000000000000000000000000000000000000000000000000000000000000000000000000000000000000000000000000000000000000000000000000000000000000000000000000000000",
                    "coinbase" : "0x2adc25665018aa1fe0e6bc666dac8fc2697ff9ba",
                    "difficulty" : "0x020000",
                    "extraData" : "",
                    "gasLimit" : "0x05500000",
                    "gasUsed" : "0xe440",
                    "hash" : "0xa9dc3bb89a0002e68ef0b5ac627f48218f70c1bd3fbb18cc0e984229dd27e1ca",
                    "mixHash" : "0x0000000000000000000000000000000000000000000000000000000000000000",
                    "nonce" : "0x0000000000000000",
                    "number" : "0x01",
                    "parentHash" : "0x9b7ba1f3dfb4664f1ede285dbc488b8a686a0c479b89772e9f1368a65b2ea363",
                    "receiptTrie" : "0xd1bb9cd8694c1bfb4ed80c9fb9120727aad69951f2f2bf40b46c118f61aa451c",
                    "stateRoot" : "0x565b021b1a249ce0ac35da5575dc8a13d7d9e89f789730f6018ed2afb46ed41e",
                    "timestamp" : "0x03e8",
                    "transactionsTrie" : "0x459458164e2c7c51efcd25cb51713f0194ea11b43065aa539a6034240abf5e98",
                    "uncleHash" : "0x1dcc4de8dec75d7aab85b567b6ccd41ad312451b948a7413f0a142fd40d49347"
                },
                "rlp" : "0xf902a8f901f8a09b7ba1f3dfb4664f1ede285dbc488b8a686a0c479b89772e9f1368a65b2ea363a01dcc4de8dec75d7aab85b567b6ccd41ad312451b948a7413f0a142fd40d49347942adc25665018aa1fe0e6bc666dac8fc2697ff9baa0565b021b1a249ce0ac35da5575dc8a13d7d9e89f789730f6018ed2afb46ed41ea0459458164e2c7c51efcd25cb51713f0194ea11b43065aa539a6034240abf5e98a0d1bb9cd8694c1bfb4ed80c9fb9120727aad69951f2f2bf40b46c118f61aa451cb90100000000000000000000000000000000000000000000000000000000000000000000000000000000000000000000000000000000000000000000000000000000000000000000000000000000000000000000000000000000000000000000000000000000000000000000000000000000000000000000000000000000000000000000000000000000000000000000000000000000000000000000000000000000000000000000000000000000000000000000000000000000000000000000000000000000000000000000000000000000000000000000000000000000000000000000000000000000000000000000000000000000000000000000000000000000008302000001840550000082e4408203e880a00000000000000000000000000000000000000000000000000000000000000000880000000000000000f8aaf8a8800184050000018080b85a0061736d0100000001090260027f7f0060000002130108657468657265756d0666696e6973680000030201010503010064071102066d656d6f72790200046d61696e00010a0a0108004100410210000b0b08010041000b0260011ba0873835fa64bedc908910fdab9b0a4dfd36a2ae9dbfbf989a18f9a95f2aee8c92a0756ceb59ea58b0ca67c3aecd9704ee243a74ceefbfe5cf895c3c2febafca0e56c0",
                "transactions" : [
                    {
                        "data" : "0x0061736d0100000001090260027f7f0060000002130108657468657265756d0666696e6973680000030201010503010064071102066d656d6f72790200046d61696e00010a0a0108004100410210000b0b08010041000b026001",
                        "gasLimit" : "0x05000001",
                        "gasPrice" : "0x01",
                        "nonce" : "0x00",
                        "r" : "0x873835fa64bedc908910fdab9b0a4dfd36a2ae9dbfbf989a18f9a95f2aee8c92",
                        "s" : "0x756ceb59ea58b0ca67c3aecd9704ee243a74ceefbfe5cf895c3c2febafca0e56",
                        "to" : "",
                        "v" : "0x1b",
                        "value" : "0x00"
                    }
                ],
                "uncleHeaders" : [
                ]
            }
        ],
        "genesisBlockHeader" : {
            "bloom" : "0x00000000000000000000000000000000000000000000000000000000000000000000000000000000000000000000000000000000000000000000000000000000000000000000000000000000000000000000000000000000000000000000000000000000000000000000000000000000000000000000000000000000000000000000000000000000000000000000000000000000000000000000000000000000000000000000000000000000000000000000000000000000000000000000000000000000000000000000000000000000000000000000000000000000000000000000000000000000000000000000000000000000000000000000000000000000",
            "coinbase" : "0x2adc25665018aa1fe0e6bc666dac8fc2697ff9ba",
            "difficulty" : "0x020000",
            "extraData" : "0x42",
            "gasLimit" : "0x05500000",
            "gasUsed" : "0x00",
            "hash" : "0x9b7ba1f3dfb4664f1ede285dbc488b8a686a0c479b89772e9f1368a65b2ea363",
            "mixHash" : "0x56e81f171bcc55a6ff8345e692c0f86e5b48e01b996cadc001622fb5e363b421",
            "nonce" : "0x0102030405060708",
            "number" : "0x00",
            "parentHash" : "0x0000000000000000000000000000000000000000000000000000000000000000",
            "receiptTrie" : "0x56e81f171bcc55a6ff8345e692c0f86e5b48e01b996cadc001622fb5e363b421",
            "stateRoot" : "0x19fc38351a22fc05c8add29df0767dc26ab2635d0b4ed11caf7d7cb6fed2ea4d",
            "timestamp" : "0x03b6",
            "transactionsTrie" : "0x56e81f171bcc55a6ff8345e692c0f86e5b48e01b996cadc001622fb5e363b421",
            "uncleHash" : "0x1dcc4de8dec75d7aab85b567b6ccd41ad312451b948a7413f0a142fd40d49347"
        },
        "genesisRLP" : "0xf901fbf901f6a00000000000000000000000000000000000000000000000000000000000000000a01dcc4de8dec75d7aab85b567b6ccd41ad312451b948a7413f0a142fd40d49347942adc25665018aa1fe0e6bc666dac8fc2697ff9baa019fc38351a22fc05c8add29df0767dc26ab2635d0b4ed11caf7d7cb6fed2ea4da056e81f171bcc55a6ff8345e692c0f86e5b48e01b996cadc001622fb5e363b421a056e81f171bcc55a6ff8345e692c0f86e5b48e01b996cadc001622fb5e363b421b901000000000000000000000000000000000000000000000000000000000000000000000000000000000000000000000000000000000000000000000000000000000000000000000000000000000000000000000000000000000000000000000000000000000000000000000000000000000000000000000000000000000000000000000000000000000000000000000000000000000000000000000000000000000000000000000000000000000000000000000000000000000000000000000000000000000000000000000000000000000000000000000000000000000000000000000000000000000000000000000000000000000000000000000000000000000083020000808405500000808203b642a056e81f171bcc55a6ff8345e692c0f86e5b48e01b996cadc001622fb5e363b421880102030405060708c0c0",
        "lastblockhash" : "0xa9dc3bb89a0002e68ef0b5ac627f48218f70c1bd3fbb18cc0e984229dd27e1ca",
        "network" : "Byzantium",
        "postState" : {
            "0x2adc25665018aa1fe0e6bc666dac8fc2697ff9ba" : {
                "balance" : "0x29a2241af62ce440",
                "code" : "",
                "nonce" : "0x00",
                "storage" : {
                }
            },
            "0x6295ee1b4f6dd65047762f924ecd367c17eabf8f" : {
                "balance" : "0x00",
                "code" : "0x6001",
                "nonce" : "0x01",
                "storage" : {
                }
            },
            "0xa94f5374fce5edbc8e2a8697c15331677e6ebf0b" : {
                "balance" : "0x17487603c0",
                "code" : "",
                "nonce" : "0x01",
                "storage" : {
                }
            }
        },
        "pre" : {
            "0xa94f5374fce5edbc8e2a8697c15331677e6ebf0b" : {
                "balance" : "0x174876e800",
                "code" : "",
                "nonce" : "0x00",
                "storage" : {
                }
            }
        },
        "sealEngine" : "NoProof"
    }
}