{
    "deepInvalidMemoryAccess_d0g0v0_Byzantium" : {
        "_info" : {
            "comment" : "",
            "filledwith" : "testeth 1.5.0-alpha.6",
            "lllcversion" : "Version: 0.5.0-develop.2018.11.8+commit.20481055.Linux.g++",
            "source" : "src/BlockchainTestsFiller/GeneralStateTests/stEWASMTests/deepInvalidMemoryAccess_d0g0v0Filler.json",
            "sourceHash" : "e89370d51a9a6b38a5c8cccf25d34de5f4771d8500f1f5d54e9a320e96cc033d"
        },
        "blocks" : [
            {
                "blockHeader" : {
                    "bloom" : "0x00000000000000000000000000000000000000000000000000000000000000000000000000000000000000000000000000000000000000000000000000000000000000000000000000000000000000000000000000000000000000000000000000000000000000000000000000000000000000000000000000000000000000000000000000000000000000000000000000000000000000000000000000000000000000000000000000000000000000000000000000000000000000000000000000000000000000000000000000000000000000000000000000000000000000000000000000000000000000000000000000000000000000000000000000000000",
                    "coinbase" : "0x2adc25665018aa1fe0e6bc666dac8fc2697ff9ba",
                    "difficulty" : "0x020000",
                    "extraData" : "",
                    "gasLimit" : "0x05500000",
                    "gasUsed" : "0x0277a4",
                    "hash" : "0x860f82d3736e4ae2ef2c4e3b1c2cec7137657e25c7efc4d362a7acd1eb6e5677",
                    "mixHash" : "0x0000000000000000000000000000000000000000000000000000000000000000",
                    "nonce" : "0x0000000000000000",
                    "number" : "0x01",
                    "parentHash" : "0xb19dc2260db303ce86e87235fdec50b28acb13cd68f8e53cc94536c3b42c53d5",
                    "receiptTrie" : "0xa20294a4c3bfb465dc355f94cade04ff7b13cde16d8f70e7fd66a6ead0153f74",
                    "stateRoot" : "0xacb575e66d5ad38d92e9ad15869165c07ab5ae4eba95f10d8e8ed446a2575950",
                    "timestamp" : "0x03e8",
                    "transactionsTrie" : "0x05ddd80b5e3c46aa87d743841f86264cdea27175564d1fac771498761687de1c",
                    "uncleHash" : "0x1dcc4de8dec75d7aab85b567b6ccd41ad312451b948a7413f0a142fd40d49347"
                },
                "rlp" : "0xf90261f901f9a0b19dc2260db303ce86e87235fdec50b28acb13cd68f8e53cc94536c3b42c53d5a01dcc4de8dec75d7aab85b567b6ccd41ad312451b948a7413f0a142fd40d49347942adc25665018aa1fe0e6bc666dac8fc2697ff9baa0acb575e66d5ad38d92e9ad15869165c07ab5ae4eba95f10d8e8ed446a2575950a005ddd80b5e3c46aa87d743841f86264cdea27175564d1fac771498761687de1ca0a20294a4c3bfb465dc355f94cade04ff7b13cde16d8f70e7fd66a6ead0153f74b901000000000000000000000000000000000000000000000000000000000000000000000000000000000000000000000000000000000000000000000000000000000000000000000000000000000000000000000000000000000000000000000000000000000000000000000000000000000000000000000000000000000000000000000000000000000000000000000000000000000000000000000000000000000000000000000000000000000000000000000000000000000000000000000000000000000000000000000000000000000000000000000000000000000000000000000000000000000000000000000000000000000000000000000000000000000083020000018405500000830277a48203e880a00000000000000000000000000000000000000000000000000000000000000000880000000000000000f862f8600401836acfc094deadbeef0000000000000000000000000000000080801ba054fab9c25ddebd47f2c4d9ffe393cfbb4d189067d9957389c7b06ed5bf52b672a03760f513d0faba1640fbdc5def8a3d2d65f508b15eed071e41c4ad84b77a8f29c0",
                "transactions" : [
                    {
                        "data" : "0x",
                        "gasLimit" : "0x6acfc0",
                        "gasPrice" : "0x01",
                        "nonce" : "0x04",
                        "r" : "0x54fab9c25ddebd47f2c4d9ffe393cfbb4d189067d9957389c7b06ed5bf52b672",
                        "s" : "0x3760f513d0faba1640fbdc5def8a3d2d65f508b15eed071e41c4ad84b77a8f29",
                        "to" : "0xdeadbeef00000000000000000000000000000000",
                        "v" : "0x1b",
                        "value" : "0x00"
                    }
                ],
                "uncleHeaders" : [
                ]
            }
        ],
        "genesisBlockHeader" : {
            "bloom" : "0x00000000000000000000000000000000000000000000000000000000000000000000000000000000000000000000000000000000000000000000000000000000000000000000000000000000000000000000000000000000000000000000000000000000000000000000000000000000000000000000000000000000000000000000000000000000000000000000000000000000000000000000000000000000000000000000000000000000000000000000000000000000000000000000000000000000000000000000000000000000000000000000000000000000000000000000000000000000000000000000000000000000000000000000000000000000",
            "coinbase" : "0x2adc25665018aa1fe0e6bc666dac8fc2697ff9ba",
            "difficulty" : "0x020000",
            "extraData" : "0x42",
            "gasLimit" : "0x05500000",
            "gasUsed" : "0x00",
            "hash" : "0xb19dc2260db303ce86e87235fdec50b28acb13cd68f8e53cc94536c3b42c53d5",
            "mixHash" : "0x56e81f171bcc55a6ff8345e692c0f86e5b48e01b996cadc001622fb5e363b421",
            "nonce" : "0x0102030405060708",
            "number" : "0x00",
            "parentHash" : "0x0000000000000000000000000000000000000000000000000000000000000000",
            "receiptTrie" : "0x56e81f171bcc55a6ff8345e692c0f86e5b48e01b996cadc001622fb5e363b421",
            "stateRoot" : "0x947aa3ba8f4f7024e5b0c227786c206a7c37737d5152d8813e557620ad518d36",
            "timestamp" : "0x03b6",
            "transactionsTrie" : "0x56e81f171bcc55a6ff8345e692c0f86e5b48e01b996cadc001622fb5e363b421",
            "uncleHash" : "0x1dcc4de8dec75d7aab85b567b6ccd41ad312451b948a7413f0a142fd40d49347"
        },
        "genesisRLP" : "0xf901fbf901f6a00000000000000000000000000000000000000000000000000000000000000000a01dcc4de8dec75d7aab85b567b6ccd41ad312451b948a7413f0a142fd40d49347942adc25665018aa1fe0e6bc666dac8fc2697ff9baa0947aa3ba8f4f7024e5b0c227786c206a7c37737d5152d8813e557620ad518d36a056e81f171bcc55a6ff8345e692c0f86e5b48e01b996cadc001622fb5e363b421a056e81f171bcc55a6ff8345e692c0f86e5b48e01b996cadc001622fb5e363b421b901000000000000000000000000000000000000000000000000000000000000000000000000000000000000000000000000000000000000000000000000000000000000000000000000000000000000000000000000000000000000000000000000000000000000000000000000000000000000000000000000000000000000000000000000000000000000000000000000000000000000000000000000000000000000000000000000000000000000000000000000000000000000000000000000000000000000000000000000000000000000000000000000000000000000000000000000000000000000000000000000000000000000000000000000000000000083020000808405500000808203b642a056e81f171bcc55a6ff8345e692c0f86e5b48e01b996cadc001622fb5e363b421880102030405060708c0c0",
        "lastblockhash" : "0x860f82d3736e4ae2ef2c4e3b1c2cec7137657e25c7efc4d362a7acd1eb6e5677",
        "network" : "Byzantium",
        "postState" : {
            "0x2adc25665018aa1fe0e6bc666dac8fc2697ff9ba" : {
                "balance" : "0x29a2241af62e77a4",
                "code" : "",
                "nonce" : "0x00",
                "storage" : {
                }
            },
            "0xa94f5374fce5edbc8e2a8697c15331677e6ebf0b" : {
                "balance" : "0x174874705c",
                "code" : "",
                "nonce" : "0x05",
                "storage" : {
                }
            },
            "0xdeadbeef00000000000000000000000000000000" : {
                "balance" : "0x174876e800",
                "code" : "0x0061736d0100000001120360057e7f7f7f7f017f60027f7f0060000002290208657468657265756d0463616c6c000008657468657265756d0c73746f7261676553746f72650001030201020503010001071102066d656d6f72790200046d61696e00020a44014201057f4120210041c000210141e00021034180012104418004210220044101360200200342a08d06200241004100410010003602002000200310012001200410010b0b6603004180040b14deadbeef000000000000000000000000000000010041200b2000000000000000000000000000000000000000000000000000000000000000010041c0000b200000000000000000000000000000000000000000000000000000000000000002",
                "nonce" : "0x00",
                "storage" : {
                    "0x01" : "0x0100000000000000000000000000000000000000000000000000000000000000",
                    "0x02" : "0x0100000000000000000000000000000000000000000000000000000000000000"
                }
            },
            "0xdeadbeef00000000000000000000000000000001" : {
                "balance" : "0x00",
                "code" : "0x0061736d0100000001130460027f7f0060037f7f7f006000017f600000023e0308657468657265756d0666696e697368000008657468657265756d08636f6465436f7079000108657468657265756d0b676574436f646553697a650002030201030503010001071102066d656d6f72790200046d61696e00030a18011601017f1002210041002000410a10014100410010000b",
                "nonce" : "0x00",
                "storage" : {
                }
            }
        },
        "pre" : {
            "0xa94f5374fce5edbc8e2a8697c15331677e6ebf0b" : {
                "balance" : "0x174876e800",
                "code" : "",
                "nonce" : "0x04",
                "storage" : {
                }
            },
            "0xdeadbeef00000000000000000000000000000000" : {
                "balance" : "0x174876e800",
                "code" : "0x0061736d0100000001120360057e7f7f7f7f017f60027f7f0060000002290208657468657265756d0463616c6c000008657468657265756d0c73746f7261676553746f72650001030201020503010001071102066d656d6f72790200046d61696e00020a44014201057f4120210041c000210141e00021034180012104418004210220044101360200200342a08d06200241004100410010003602002000200310012001200410010b0b6603004180040b14deadbeef000000000000000000000000000000010041200b2000000000000000000000000000000000000000000000000000000000000000010041c0000b200000000000000000000000000000000000000000000000000000000000000002",
                "nonce" : "0x00",
                "storage" : {
                }
            },
            "0xdeadbeef00000000000000000000000000000001" : {
                "balance" : "0x00",
                "code" : "0x0061736d0100000001130460027f7f0060037f7f7f006000017f600000023e0308657468657265756d0666696e697368000008657468657265756d08636f6465436f7079000108657468657265756d0b676574436f646553697a650002030201030503010001071102066d656d6f72790200046d61696e00030a18011601017f1002210041002000410a10014100410010000b",
                "nonce" : "0x00",
                "storage" : {
                }
            }
        },
        "sealEngine" : "NoProof"
    }
}