{
    "extCodeCopyFullyOOB_d0g0v0_Byzantium" : {
        "_info" : {
            "comment" : "",
            "filledwith" : "testeth 1.5.0-alpha.6",
            "lllcversion" : "Version: 0.5.0-develop.2018.11.8+commit.20481055.Linux.g++",
            "source" : "src/BlockchainTestsFiller/GeneralStateTests/stEWASMTests/extCodeCopyFullyOOB_d0g0v0Filler.json",
            "sourceHash" : "84dd16545c1f6e1d028cda3baed8f37980a46d7292e0ab483cc6b4433fc41253"
        },
        "blocks" : [
            {
                "blockHeader" : {
                    "bloom" : "0x00000000000000000000000000000000000000000000000000000000000000000000000000000000000000000000000000000000000000000000000000000000000000000000000000000000000000000000000000000000000000000000000000000000000000000000000000000000000000000000000000000000000000000000000000000000000000000000000000000000000000000000000000000000000000000000000000000000000000000000000000000000000000000000000000000000000000000000000000000000000000000000000000000000000000000000000000000000000000000000000000000000000000000000000000000000",
                    "coinbase" : "0x2adc25665018aa1fe0e6bc666dac8fc2697ff9ba",
                    "difficulty" : "0x020000",
                    "extraData" : "",
                    "gasLimit" : "0x05500000",
                    "gasUsed" : "0x05000001",
                    "hash" : "0xa5c90f37d8e6729de861a0cfa321238e2a6cf20994b8725fa5b06b733228ca4e",
                    "mixHash" : "0x0000000000000000000000000000000000000000000000000000000000000000",
                    "nonce" : "0x0000000000000000",
                    "number" : "0x01",
                    "parentHash" : "0x73b08e17af28fdace187b1235456395609cde8431710f89e398601b17875f907",
                    "receiptTrie" : "0xadd511b2e236adfaa58861d2dbf9583d9a4670d94f3541f4c4742059aa9b731f",
                    "stateRoot" : "0xf910822d8e7acd37fc1d1338a01663a9f910ca14199689a7eaa21b0ebdc0080b",
                    "timestamp" : "0x03e8",
                    "transactionsTrie" : "0x6eb4fedf0295e87e280496b54f5d44ce6323073c669a3b07863f12bb3459a699",
                    "uncleHash" : "0x1dcc4de8dec75d7aab85b567b6ccd41ad312451b948a7413f0a142fd40d49347"
                },
                "rlp" : "0xf90263f901faa073b08e17af28fdace187b1235456395609cde8431710f89e398601b17875f907a01dcc4de8dec75d7aab85b567b6ccd41ad312451b948a7413f0a142fd40d49347942adc25665018aa1fe0e6bc666dac8fc2697ff9baa0f910822d8e7acd37fc1d1338a01663a9f910ca14199689a7eaa21b0ebdc0080ba06eb4fedf0295e87e280496b54f5d44ce6323073c669a3b07863f12bb3459a699a0add511b2e236adfaa58861d2dbf9583d9a4670d94f3541f4c4742059aa9b731fb90100000000000000000000000000000000000000000000000000000000000000000000000000000000000000000000000000000000000000000000000000000000000000000000000000000000000000000000000000000000000000000000000000000000000000000000000000000000000000000000000000000000000000000000000000000000000000000000000000000000000000000000000000000000000000000000000000000000000000000000000000000000000000000000000000000000000000000000000000000000000000000000000000000000000000000000000000000000000000000000000000000000000000000000000000000000008302000001840550000084050000018203e880a00000000000000000000000000000000000000000000000000000000000000000880000000000000000f863f8618001840500000194deadbeef0000000000000000000000000000000080801ca0c7665499a4df8df60d5788720130e9c7a1670e11ab3f55612155b404d3aed41ea038494cb086ae71d94d921be06faa8088f905467fd4b03736d6cbb0251fa2bc73c0",
                "transactions" : [
                    {
                        "data" : "0x",
                        "gasLimit" : "0x05000001",
                        "gasPrice" : "0x01",
                        "nonce" : "0x00",
                        "r" : "0xc7665499a4df8df60d5788720130e9c7a1670e11ab3f55612155b404d3aed41e",
                        "s" : "0x38494cb086ae71d94d921be06faa8088f905467fd4b03736d6cbb0251fa2bc73",
                        "to" : "0xdeadbeef00000000000000000000000000000000",
                        "v" : "0x1c",
                        "value" : "0x00"
                    }
                ],
                "uncleHeaders" : [
                ]
            }
        ],
        "genesisBlockHeader" : {
            "bloom" : "0x00000000000000000000000000000000000000000000000000000000000000000000000000000000000000000000000000000000000000000000000000000000000000000000000000000000000000000000000000000000000000000000000000000000000000000000000000000000000000000000000000000000000000000000000000000000000000000000000000000000000000000000000000000000000000000000000000000000000000000000000000000000000000000000000000000000000000000000000000000000000000000000000000000000000000000000000000000000000000000000000000000000000000000000000000000000",
            "coinbase" : "0x2adc25665018aa1fe0e6bc666dac8fc2697ff9ba",
            "difficulty" : "0x020000",
            "extraData" : "0x42",
            "gasLimit" : "0x05500000",
            "gasUsed" : "0x00",
            "hash" : "0x73b08e17af28fdace187b1235456395609cde8431710f89e398601b17875f907",
            "mixHash" : "0x56e81f171bcc55a6ff8345e692c0f86e5b48e01b996cadc001622fb5e363b421",
            "nonce" : "0x0102030405060708",
            "number" : "0x00",
            "parentHash" : "0x0000000000000000000000000000000000000000000000000000000000000000",
            "receiptTrie" : "0x56e81f171bcc55a6ff8345e692c0f86e5b48e01b996cadc001622fb5e363b421",
            "stateRoot" : "0x6b2a3c5eec88529eff26dadcb983f0e61fc181ffa921056260baa8c7fa8328f7",
            "timestamp" : "0x03b6",
            "transactionsTrie" : "0x56e81f171bcc55a6ff8345e692c0f86e5b48e01b996cadc001622fb5e363b421",
            "uncleHash" : "0x1dcc4de8dec75d7aab85b567b6ccd41ad312451b948a7413f0a142fd40d49347"
        },
        "genesisRLP" : "0xf901fbf901f6a00000000000000000000000000000000000000000000000000000000000000000a01dcc4de8dec75d7aab85b567b6ccd41ad312451b948a7413f0a142fd40d49347942adc25665018aa1fe0e6bc666dac8fc2697ff9baa06b2a3c5eec88529eff26dadcb983f0e61fc181ffa921056260baa8c7fa8328f7a056e81f171bcc55a6ff8345e692c0f86e5b48e01b996cadc001622fb5e363b421a056e81f171bcc55a6ff8345e692c0f86e5b48e01b996cadc001622fb5e363b421b901000000000000000000000000000000000000000000000000000000000000000000000000000000000000000000000000000000000000000000000000000000000000000000000000000000000000000000000000000000000000000000000000000000000000000000000000000000000000000000000000000000000000000000000000000000000000000000000000000000000000000000000000000000000000000000000000000000000000000000000000000000000000000000000000000000000000000000000000000000000000000000000000000000000000000000000000000000000000000000000000000000000000000000000000000000000083020000808405500000808203b642a056e81f171bcc55a6ff8345e692c0f86e5b48e01b996cadc001622fb5e363b421880102030405060708c0c0",
        "lastblockhash" : "0xa5c90f37d8e6729de861a0cfa321238e2a6cf20994b8725fa5b06b733228ca4e",
        "network" : "Byzantium",
        "postState" : {
            "0x2adc25665018aa1fe0e6bc666dac8fc2697ff9ba" : {
                "balance" : "0x29a2241afb2c0001",
                "code" : "",
                "nonce" : "0x00",
                "storage" : {
                }
            },
            "0xa94f5374fce5edbc8e2a8697c15331677e6ebf0b" : {
                "balance" : "0x174376e7ff",
                "code" : "",
                "nonce" : "0x01",
                "storage" : {
                }
            },
            "0xdeadbeef00000000000000000000000000000000" : {
                "balance" : "0x174876e800",
                "code" : "0x0061736d0100000001150460047f7f7f7f0060017f017f60027f7f0060000002540308657468657265756d1065787465726e616c436f6465436f7079000008657468657265756d1367657445787465726e616c436f646553697a65000108657468657265756d0c73746f7261676553746f72650002030201030503010001071102066d656d6f72790200046d61696e00030a40013e01067f410021004120210141c000210241e0002103418001210420044101360200200010012105200020022005410a10002001200210022003200410020b0b65030041000b1401000000000000000000000000000000efbeadde0041200b2001000000000000000000000000000000000000000000000000000000000000000041e0000b200200000000000000000000000000000000000000000000000000000000000000",
                "nonce" : "0x00",
                "storage" : {
                }
            },
            "0xdeadbeef00000000000000000000000000000001" : {
                "balance" : "0x174876e800",
                "code" : "0x0061736d01000000010401600000030201000503010001071102066d656d6f72790200046d61696e00000a05010300000b",
                "nonce" : "0x00",
                "storage" : {
                }
            }
        },
        "pre" : {
            "0xa94f5374fce5edbc8e2a8697c15331677e6ebf0b" : {
                "balance" : "0x174876e800",
                "code" : "",
                "nonce" : "0x00",
                "storage" : {
                }
            },
            "0xdeadbeef00000000000000000000000000000000" : {
                "balance" : "0x174876e800",
                "code" : "0x0061736d0100000001150460047f7f7f7f0060017f017f60027f7f0060000002540308657468657265756d1065787465726e616c436f6465436f7079000008657468657265756d1367657445787465726e616c436f646553697a65000108657468657265756d0c73746f7261676553746f72650002030201030503010001071102066d656d6f72790200046d61696e00030a40013e01067f410021004120210141c000210241e0002103418001210420044101360200200010012105200020022005410a10002001200210022003200410020b0b65030041000b1401000000000000000000000000000000efbeadde0041200b2001000000000000000000000000000000000000000000000000000000000000000041e0000b200200000000000000000000000000000000000000000000000000000000000000",
                "nonce" : "0x00",
                "storage" : {
                }
            },
            "0xdeadbeef00000000000000000000000000000001" : {
                "balance" : "0x174876e800",
                "code" : "0x0061736d01000000010401600000030201000503010001071102066d656d6f72790200046d61696e00000a05010300000b",
                "nonce" : "0x00",
                "storage" : {
                }
            }
        },
        "sealEngine" : "NoProof"
    }
}