{
    "getAddress_d0g0v0_Byzantium" : {
        "_info" : {
            "comment" : "",
            "filledwith" : "testeth 1.5.0-alpha.6",
            "lllcversion" : "Version: 0.5.0-develop.2018.11.8+commit.20481055.Linux.g++",
            "source" : "src/BlockchainTestsFiller/GeneralStateTests/stEWASMTests/getAddress_d0g0v0Filler.json",
            "sourceHash" : "5958dbabfe4e5208f4064a52ca0c05c745f2d8578eb288b9ea4f865fe533e6b1"
        },
        "blocks" : [
            {
                "blockHeader" : {
                    "bloom" : "0x00000000000000000000000000000000000000000000000000000000000000000000000000000000000000000000000000000000000000000000000000000000000000000000000000000000000000000000000000000000000000000000000000000000000000000000000000000000000000000000000000000000000000000000000000000000000000000000000000000000000000000000000000000000000000000000000000000000000000000000000000000000000000000000000000000000000000000000000000000000000000000000000000000000000000000000000000000000000000000000000000000000000000000000000000000000",
                    "coinbase" : "0x2adc25665018aa1fe0e6bc666dac8fc2697ff9ba",
                    "difficulty" : "0x020000",
                    "extraData" : "",
                    "gasLimit" : "0x05500000",
                    "gasUsed" : "0xa02a",
                    "hash" : "0x0f47f2ae56d95423d624eec92021314b12bd00ded4cf0fb0e2727f6a98015254",
                    "mixHash" : "0x0000000000000000000000000000000000000000000000000000000000000000",
                    "nonce" : "0x0000000000000000",
                    "number" : "0x01",
                    "parentHash" : "0x22fc1d85ff1479278105255faf1d01033220da64c32cfc24ac3066fec3f64608",
                    "receiptTrie" : "0xd05a773cab0f32ed1549a0ac7ed944b6c1df7105adcf263f70125b56a91e70e8",
                    "stateRoot" : "0xffbb382c52108c1b16201d1eae18f6615b44b019dfa731d77f89f5209f4d78fc",
                    "timestamp" : "0x03e8",
                    "transactionsTrie" : "0x5ded1f7fe58c8d7136ff694da829142b84f61ac74a8bb7c838d31153fde15977",
                    "uncleHash" : "0x1dcc4de8dec75d7aab85b567b6ccd41ad312451b948a7413f0a142fd40d49347"
                },
                "rlp" : "0xf90261f901f8a022fc1d85ff1479278105255faf1d01033220da64c32cfc24ac3066fec3f64608a01dcc4de8dec75d7aab85b567b6ccd41ad312451b948a7413f0a142fd40d49347942adc25665018aa1fe0e6bc666dac8fc2697ff9baa0ffbb382c52108c1b16201d1eae18f6615b44b019dfa731d77f89f5209f4d78fca05ded1f7fe58c8d7136ff694da829142b84f61ac74a8bb7c838d31153fde15977a0d05a773cab0f32ed1549a0ac7ed944b6c1df7105adcf263f70125b56a91e70e8b90100000000000000000000000000000000000000000000000000000000000000000000000000000000000000000000000000000000000000000000000000000000000000000000000000000000000000000000000000000000000000000000000000000000000000000000000000000000000000000000000000000000000000000000000000000000000000000000000000000000000000000000000000000000000000000000000000000000000000000000000000000000000000000000000000000000000000000000000000000000000000000000000000000000000000000000000000000000000000000000000000000000000000000000000000000000008302000001840550000082a02a8203e880a00000000000000000000000000000000000000000000000000000000000000000880000000000000000f863f8618001840500000194b94f5374fce5edbc8e2a8697c15331677e6ebf0b80801ca0d580067a71e891b3eb9d00858225ac024e99eed5ec731c82414ab9b735161c90a00681f984a463efc98ac83bbe803816f6eb972a6e8d49d87defae73e4d37632b7c0",
                "transactions" : [
                    {
                        "data" : "0x",
                        "gasLimit" : "0x05000001",
                        "gasPrice" : "0x01",
                        "nonce" : "0x00",
                        "r" : "0xd580067a71e891b3eb9d00858225ac024e99eed5ec731c82414ab9b735161c90",
                        "s" : "0x0681f984a463efc98ac83bbe803816f6eb972a6e8d49d87defae73e4d37632b7",
                        "to" : "0xb94f5374fce5edbc8e2a8697c15331677e6ebf0b",
                        "v" : "0x1c",
                        "value" : "0x00"
                    }
                ],
                "uncleHeaders" : [
                ]
            }
        ],
        "genesisBlockHeader" : {
            "bloom" : "0x00000000000000000000000000000000000000000000000000000000000000000000000000000000000000000000000000000000000000000000000000000000000000000000000000000000000000000000000000000000000000000000000000000000000000000000000000000000000000000000000000000000000000000000000000000000000000000000000000000000000000000000000000000000000000000000000000000000000000000000000000000000000000000000000000000000000000000000000000000000000000000000000000000000000000000000000000000000000000000000000000000000000000000000000000000000",
            "coinbase" : "0x2adc25665018aa1fe0e6bc666dac8fc2697ff9ba",
            "difficulty" : "0x020000",
            "extraData" : "0x42",
            "gasLimit" : "0x05500000",
            "gasUsed" : "0x00",
            "hash" : "0x22fc1d85ff1479278105255faf1d01033220da64c32cfc24ac3066fec3f64608",
            "mixHash" : "0x56e81f171bcc55a6ff8345e692c0f86e5b48e01b996cadc001622fb5e363b421",
            "nonce" : "0x0102030405060708",
            "number" : "0x00",
            "parentHash" : "0x0000000000000000000000000000000000000000000000000000000000000000",
            "receiptTrie" : "0x56e81f171bcc55a6ff8345e692c0f86e5b48e01b996cadc001622fb5e363b421",
            "stateRoot" : "0xeb7a2a33d23b8260066eb3a6861f3ab3100ac892e3bbed4bf2ea0438e4e627e7",
            "timestamp" : "0x03b6",
            "transactionsTrie" : "0x56e81f171bcc55a6ff8345e692c0f86e5b48e01b996cadc001622fb5e363b421",
            "uncleHash" : "0x1dcc4de8dec75d7aab85b567b6ccd41ad312451b948a7413f0a142fd40d49347"
        },
        "genesisRLP" : "0xf901fbf901f6a00000000000000000000000000000000000000000000000000000000000000000a01dcc4de8dec75d7aab85b567b6ccd41ad312451b948a7413f0a142fd40d49347942adc25665018aa1fe0e6bc666dac8fc2697ff9baa0eb7a2a33d23b8260066eb3a6861f3ab3100ac892e3bbed4bf2ea0438e4e627e7a056e81f171bcc55a6ff8345e692c0f86e5b48e01b996cadc001622fb5e363b421a056e81f171bcc55a6ff8345e692c0f86e5b48e01b996cadc001622fb5e363b421b901000000000000000000000000000000000000000000000000000000000000000000000000000000000000000000000000000000000000000000000000000000000000000000000000000000000000000000000000000000000000000000000000000000000000000000000000000000000000000000000000000000000000000000000000000000000000000000000000000000000000000000000000000000000000000000000000000000000000000000000000000000000000000000000000000000000000000000000000000000000000000000000000000000000000000000000000000000000000000000000000000000000000000000000000000000000083020000808405500000808203b642a056e81f171bcc55a6ff8345e692c0f86e5b48e01b996cadc001622fb5e363b421880102030405060708c0c0",
        "lastblockhash" : "0x0f47f2ae56d95423d624eec92021314b12bd00ded4cf0fb0e2727f6a98015254",
        "network" : "Byzantium",
        "postState" : {
            "0x2adc25665018aa1fe0e6bc666dac8fc2697ff9ba" : {
                "balance" : "0x29a2241af62ca02a",
                "code" : "",
                "nonce" : "0x00",
                "storage" : {
                }
            },
            "0xa94f5374fce5edbc8e2a8697c15331677e6ebf0b" : {
                "balance" : "0x17487647d6",
                "code" : "",
                "nonce" : "0x01",
                "storage" : {
                }
            },
            "0xb94f5374fce5edbc8e2a8697c15331677e6ebf0b" : {
                "balance" : "0x174876e800",
                "code" : "0x0061736d01000000010d0360027f7f0060017f00600000022f0208657468657265756d0c73746f7261676553746f7265000008657468657265756d0a676574416464726573730001030201020503010001071102046d61696e0002066d656d6f727902000a18011601027f4120210041002101200010012001200010000b",
                "nonce" : "0x00",
                "storage" : {
                    "0x00" : "0xb94f5374fce5edbc8e2a8697c15331677e6ebf0b000000000000000000000000"
                }
            }
        },
        "pre" : {
            "0xa94f5374fce5edbc8e2a8697c15331677e6ebf0b" : {
                "balance" : "0x174876e800",
                "code" : "",
                "nonce" : "0x00",
                "storage" : {
                }
            },
            "0xb94f5374fce5edbc8e2a8697c15331677e6ebf0b" : {
                "balance" : "0x174876e800",
                "code" : "0x0061736d01000000010d0360027f7f0060017f00600000022f0208657468657265756d0c73746f7261676553746f7265000008657468657265756d0a676574416464726573730001030201020503010001071102046d61696e0002066d656d6f727902000a18011601027f4120210041002101200010012001200010000b",
                "nonce" : "0x00",
                "storage" : {
                }
            }
        },
        "sealEngine" : "NoProof"
    }
}