{
    "getBalanceExt_d0g0v0_Byzantium" : {
        "_info" : {
            "comment" : "",
            "filledwith" : "testeth 1.5.0-alpha.6",
            "lllcversion" : "Version: 0.5.0-develop.2018.11.8+commit.20481055.Linux.g++",
            "source" : "src/BlockchainTestsFiller/GeneralStateTests/stEWASMTests/getBalanceExt_d0g0v0Filler.json",
            "sourceHash" : "ac2ab3eafce595dad470b9f48c900ab47935bc490010d0264c0baf00c9767c3e"
        },
        "blocks" : [
            {
                "blockHeader" : {
                    "bloom" : "0x00000000000000000000000000000000000000000000000000000000000000000000000000000000000000000000000000000000000000000000000000000000000000000000000000000000000000000000000000000000000000000000000000000000000000000000000000000000000000000000000000000000000000000000000000000000000000000000000000000000000000000000000000000000000000000000000000000000000000000000000000000000000000000000000000000000000000000000000000000000000000000000000000000000000000000000000000000000000000000000000000000000000000000000000000000000",
                    "coinbase" : "0x2adc25665018aa1fe0e6bc666dac8fc2697ff9ba",
                    "difficulty" : "0x020000",
                    "extraData" : "",
                    "gasLimit" : "0x05500000",
                    "gasUsed" : "0xa1b8",
                    "hash" : "0x9af4f9c06f27c48bae4cedb231fb40ff3642b67753609873ce23078c6940e3d8",
                    "mixHash" : "0x0000000000000000000000000000000000000000000000000000000000000000",
                    "nonce" : "0x0000000000000000",
                    "number" : "0x01",
                    "parentHash" : "0x7dac15cdc6920494e46714aa42c27653021bb50fa8c6d026be88125a094cc5ca",
                    "receiptTrie" : "0x5d6df2f123ff1900f33c730c5ab8b4bfa7e17d6e76c3c417c2e5a30fd30a4e61",
                    "stateRoot" : "0x063d26e666d63b6423ebb5ea1254342dc6fa8fca1df6c18ae9a338944fe343e4",
                    "timestamp" : "0x03e8",
                    "transactionsTrie" : "0x4ff143dc1839525c468c24bd900cfc58a01417ec66aeb9803d4c6e0aba577b47",
                    "uncleHash" : "0x1dcc4de8dec75d7aab85b567b6ccd41ad312451b948a7413f0a142fd40d49347"
                },
                "rlp" : "0xf90260f901f8a07dac15cdc6920494e46714aa42c27653021bb50fa8c6d026be88125a094cc5caa01dcc4de8dec75d7aab85b567b6ccd41ad312451b948a7413f0a142fd40d49347942adc25665018aa1fe0e6bc666dac8fc2697ff9baa0063d26e666d63b6423ebb5ea1254342dc6fa8fca1df6c18ae9a338944fe343e4a04ff143dc1839525c468c24bd900cfc58a01417ec66aeb9803d4c6e0aba577b47a05d6df2f123ff1900f33c730c5ab8b4bfa7e17d6e76c3c417c2e5a30fd30a4e61b90100000000000000000000000000000000000000000000000000000000000000000000000000000000000000000000000000000000000000000000000000000000000000000000000000000000000000000000000000000000000000000000000000000000000000000000000000000000000000000000000000000000000000000000000000000000000000000000000000000000000000000000000000000000000000000000000000000000000000000000000000000000000000000000000000000000000000000000000000000000000000000000000000000000000000000000000000000000000000000000000000000000000000000000000000000000008302000001840550000082a1b88203e880a00000000000000000000000000000000000000000000000000000000000000000880000000000000000f862f8608001836acfc094deadbeef0000000000000000000000000000000180801ba0e81c13b51a6a2df9215168e700284304399d5eb304024fe54dc37acf81d910e1a00c142a34f7a5f1afac9125fa84a21e3224cffc91559595c77e9d21712055cda1c0",
                "transactions" : [
                    {
                        "data" : "0x",
                        "gasLimit" : "0x6acfc0",
                        "gasPrice" : "0x01",
                        "nonce" : "0x00",
                        "r" : "0xe81c13b51a6a2df9215168e700284304399d5eb304024fe54dc37acf81d910e1",
                        "s" : "0x0c142a34f7a5f1afac9125fa84a21e3224cffc91559595c77e9d21712055cda1",
                        "to" : "0xdeadbeef00000000000000000000000000000001",
                        "v" : "0x1b",
                        "value" : "0x00"
                    }
                ],
                "uncleHeaders" : [
                ]
            }
        ],
        "genesisBlockHeader" : {
            "bloom" : "0x00000000000000000000000000000000000000000000000000000000000000000000000000000000000000000000000000000000000000000000000000000000000000000000000000000000000000000000000000000000000000000000000000000000000000000000000000000000000000000000000000000000000000000000000000000000000000000000000000000000000000000000000000000000000000000000000000000000000000000000000000000000000000000000000000000000000000000000000000000000000000000000000000000000000000000000000000000000000000000000000000000000000000000000000000000000",
            "coinbase" : "0x2adc25665018aa1fe0e6bc666dac8fc2697ff9ba",
            "difficulty" : "0x020000",
            "extraData" : "0x42",
            "gasLimit" : "0x05500000",
            "gasUsed" : "0x00",
            "hash" : "0x7dac15cdc6920494e46714aa42c27653021bb50fa8c6d026be88125a094cc5ca",
            "mixHash" : "0x56e81f171bcc55a6ff8345e692c0f86e5b48e01b996cadc001622fb5e363b421",
            "nonce" : "0x0102030405060708",
            "number" : "0x00",
            "parentHash" : "0x0000000000000000000000000000000000000000000000000000000000000000",
            "receiptTrie" : "0x56e81f171bcc55a6ff8345e692c0f86e5b48e01b996cadc001622fb5e363b421",
            "stateRoot" : "0x12c62f00efd0805ec79231e05b8795afcc1257c0d49af495207424e6ec24c2b7",
            "timestamp" : "0x03b6",
            "transactionsTrie" : "0x56e81f171bcc55a6ff8345e692c0f86e5b48e01b996cadc001622fb5e363b421",
            "uncleHash" : "0x1dcc4de8dec75d7aab85b567b6ccd41ad312451b948a7413f0a142fd40d49347"
        },
        "genesisRLP" : "0xf901fbf901f6a00000000000000000000000000000000000000000000000000000000000000000a01dcc4de8dec75d7aab85b567b6ccd41ad312451b948a7413f0a142fd40d49347942adc25665018aa1fe0e6bc666dac8fc2697ff9baa012c62f00efd0805ec79231e05b8795afcc1257c0d49af495207424e6ec24c2b7a056e81f171bcc55a6ff8345e692c0f86e5b48e01b996cadc001622fb5e363b421a056e81f171bcc55a6ff8345e692c0f86e5b48e01b996cadc001622fb5e363b421b901000000000000000000000000000000000000000000000000000000000000000000000000000000000000000000000000000000000000000000000000000000000000000000000000000000000000000000000000000000000000000000000000000000000000000000000000000000000000000000000000000000000000000000000000000000000000000000000000000000000000000000000000000000000000000000000000000000000000000000000000000000000000000000000000000000000000000000000000000000000000000000000000000000000000000000000000000000000000000000000000000000000000000000000000000000000083020000808405500000808203b642a056e81f171bcc55a6ff8345e692c0f86e5b48e01b996cadc001622fb5e363b421880102030405060708c0c0",
        "lastblockhash" : "0x9af4f9c06f27c48bae4cedb231fb40ff3642b67753609873ce23078c6940e3d8",
        "network" : "Byzantium",
        "postState" : {
            "0x2adc25665018aa1fe0e6bc666dac8fc2697ff9ba" : {
                "balance" : "0x29a2241af62ca1b8",
                "code" : "",
                "nonce" : "0x00",
                "storage" : {
                }
            },
            "0xa94f5374fce5edbc8e2a8697c15331677e6ebf0b" : {
                "balance" : "0x1748764648",
                "code" : "",
                "nonce" : "0x01",
                "storage" : {
                }
            },
            "0xdeadbeef00000000000000000000000000000000" : {
                "balance" : "0x1234",
                "code" : "",
                "nonce" : "0x01",
                "storage" : {
                }
            },
            "0xdeadbeef00000000000000000000000000000001" : {
                "balance" : "0x174876e800",
                "code" : "0x0061736d0100000001090260027f7f0060000002370208657468657265756d1267657445787465726e616c42616c616e6365000008657468657265756d0c73746f7261676553746f72650000030201010503010001071102066d656d6f72790200046d61696e00020a13011100410041e400100041c80141e40010010b0b1a010041000b14deadbeef00000000000000000000000000000000",
                "nonce" : "0x00",
                "storage" : {
                    "0x00" : "0x3412000000000000000000000000000000000000000000000000000000000000"
                }
            }
        },
        "pre" : {
            "0xa94f5374fce5edbc8e2a8697c15331677e6ebf0b" : {
                "balance" : "0x174876e800",
                "code" : "",
                "nonce" : "0x00",
                "storage" : {
                }
            },
            "0xdeadbeef00000000000000000000000000000000" : {
                "balance" : "0x1234",
                "code" : "",
                "nonce" : "0x01",
                "storage" : {
                }
            },
            "0xdeadbeef00000000000000000000000000000001" : {
                "balance" : "0x174876e800",
                "code" : "0x0061736d0100000001090260027f7f0060000002370208657468657265756d1267657445787465726e616c42616c616e6365000008657468657265756d0c73746f7261676553746f72650000030201010503010001071102066d656d6f72790200046d61696e00020a13011100410041e400100041c80141e40010010b0b1a010041000b14deadbeef00000000000000000000000000000000",
                "nonce" : "0x00",
                "storage" : {
                }
            }
        },
        "sealEngine" : "NoProof"
    }
}