{
    "getBlockDifficulty_d0g0v0_Byzantium" : {
        "_info" : {
            "comment" : "",
            "filledwith" : "testeth 1.5.0-alpha.6",
            "lllcversion" : "Version: 0.5.0-develop.2018.11.8+commit.20481055.Linux.g++",
            "source" : "src/BlockchainTestsFiller/GeneralStateTests/stEWASMTests/getBlockDifficulty_d0g0v0Filler.json",
            "sourceHash" : "393d03e793f953afcf44f35567ca40fe9c32a3d070b0a84b678e83f2eaf5b8a3"
        },
        "blocks" : [
            {
                "blockHeader" : {
                    "bloom" : "0x00000000000000000000000000000000000000000000000000000000000000000000000000000000000000000000000000000000000000000000000000000000000000000000000000000000000000000000000000000000000000000000000000000000000000000000000000000000000000000000000000000000000000000000000000000000000000000000000000000000000000000000000000000000000000000000000000000000000000000000000000000000000000000000000000000000000000000000000000000000000000000000000000000000000000000000000000000000000000000000000000000000000000000000000000000000",
                    "coinbase" : "0x2adc25665018aa1fe0e6bc666dac8fc2697ff9ba",
                    "difficulty" : "0x020000",
                    "extraData" : "",
                    "gasLimit" : "0x05500000",
                    "gasUsed" : "0xa02a",
                    "hash" : "0xb6632a6d76bc56e722bb153f90829b98049cd4564092493b171e10cddbc51cdd",
                    "mixHash" : "0x0000000000000000000000000000000000000000000000000000000000000000",
                    "nonce" : "0x0000000000000000",
                    "number" : "0x01",
                    "parentHash" : "0x13f9707cabaae0011dc26a8df2c2fbf74025071810de6a2915ff8fd6275b5ade",
                    "receiptTrie" : "0xd05a773cab0f32ed1549a0ac7ed944b6c1df7105adcf263f70125b56a91e70e8",
                    "stateRoot" : "0xc0e796a4b0128511d4476fe81e81bfe65012a2b45113847f90cd475635402946",
                    "timestamp" : "0x03e8",
                    "transactionsTrie" : "0x5ded1f7fe58c8d7136ff694da829142b84f61ac74a8bb7c838d31153fde15977",
                    "uncleHash" : "0x1dcc4de8dec75d7aab85b567b6ccd41ad312451b948a7413f0a142fd40d49347"
                },
                "rlp" : "0xf90261f901f8a013f9707cabaae0011dc26a8df2c2fbf74025071810de6a2915ff8fd6275b5adea01dcc4de8dec75d7aab85b567b6ccd41ad312451b948a7413f0a142fd40d49347942adc25665018aa1fe0e6bc666dac8fc2697ff9baa0c0e796a4b0128511d4476fe81e81bfe65012a2b45113847f90cd475635402946a05ded1f7fe58c8d7136ff694da829142b84f61ac74a8bb7c838d31153fde15977a0d05a773cab0f32ed1549a0ac7ed944b6c1df7105adcf263f70125b56a91e70e8b90100000000000000000000000000000000000000000000000000000000000000000000000000000000000000000000000000000000000000000000000000000000000000000000000000000000000000000000000000000000000000000000000000000000000000000000000000000000000000000000000000000000000000000000000000000000000000000000000000000000000000000000000000000000000000000000000000000000000000000000000000000000000000000000000000000000000000000000000000000000000000000000000000000000000000000000000000000000000000000000000000000000000000000000000000000000008302000001840550000082a02a8203e880a00000000000000000000000000000000000000000000000000000000000000000880000000000000000f863f8618001840500000194b94f5374fce5edbc8e2a8697c15331677e6ebf0b80801ca0d580067a71e891b3eb9d00858225ac024e99eed5ec731c82414ab9b735161c90a00681f984a463efc98ac83bbe803816f6eb972a6e8d49d87defae73e4d37632b7c0",
                "transactions" : [
                    {
                        "data" : "0x",
                        "gasLimit" : "0x05000001",
                        "gasPrice" : "0x01",
                        "nonce" : "0x00",
                        "r" : "0xd580067a71e891b3eb9d00858225ac024e99eed5ec731c82414ab9b735161c90",
                        "s" : "0x0681f984a463efc98ac83bbe803816f6eb972a6e8d49d87defae73e4d37632b7",
                        "to" : "0xb94f5374fce5edbc8e2a8697c15331677e6ebf0b",
                        "v" : "0x1c",
                        "value" : "0x00"
                    }
                ],
                "uncleHeaders" : [
                ]
            }
        ],
        "genesisBlockHeader" : {
            "bloom" : "0x00000000000000000000000000000000000000000000000000000000000000000000000000000000000000000000000000000000000000000000000000000000000000000000000000000000000000000000000000000000000000000000000000000000000000000000000000000000000000000000000000000000000000000000000000000000000000000000000000000000000000000000000000000000000000000000000000000000000000000000000000000000000000000000000000000000000000000000000000000000000000000000000000000000000000000000000000000000000000000000000000000000000000000000000000000000",
            "coinbase" : "0x2adc25665018aa1fe0e6bc666dac8fc2697ff9ba",
            "difficulty" : "0x020000",
            "extraData" : "0x42",
            "gasLimit" : "0x05500000",
            "gasUsed" : "0x00",
            "hash" : "0x13f9707cabaae0011dc26a8df2c2fbf74025071810de6a2915ff8fd6275b5ade",
            "mixHash" : "0x56e81f171bcc55a6ff8345e692c0f86e5b48e01b996cadc001622fb5e363b421",
            "nonce" : "0x0102030405060708",
            "number" : "0x00",
            "parentHash" : "0x0000000000000000000000000000000000000000000000000000000000000000",
            "receiptTrie" : "0x56e81f171bcc55a6ff8345e692c0f86e5b48e01b996cadc001622fb5e363b421",
            "stateRoot" : "0x1d52595bcf00b4b368c74b32f3b21168c68137bad79291653c1fbd81882a3c9c",
            "timestamp" : "0x03b6",
            "transactionsTrie" : "0x56e81f171bcc55a6ff8345e692c0f86e5b48e01b996cadc001622fb5e363b421",
            "uncleHash" : "0x1dcc4de8dec75d7aab85b567b6ccd41ad312451b948a7413f0a142fd40d49347"
        },
        "genesisRLP" : "0xf901fbf901f6a00000000000000000000000000000000000000000000000000000000000000000a01dcc4de8dec75d7aab85b567b6ccd41ad312451b948a7413f0a142fd40d49347942adc25665018aa1fe0e6bc666dac8fc2697ff9baa01d52595bcf00b4b368c74b32f3b21168c68137bad79291653c1fbd81882a3c9ca056e81f171bcc55a6ff8345e692c0f86e5b48e01b996cadc001622fb5e363b421a056e81f171bcc55a6ff8345e692c0f86e5b48e01b996cadc001622fb5e363b421b901000000000000000000000000000000000000000000000000000000000000000000000000000000000000000000000000000000000000000000000000000000000000000000000000000000000000000000000000000000000000000000000000000000000000000000000000000000000000000000000000000000000000000000000000000000000000000000000000000000000000000000000000000000000000000000000000000000000000000000000000000000000000000000000000000000000000000000000000000000000000000000000000000000000000000000000000000000000000000000000000000000000000000000000000000000000083020000808405500000808203b642a056e81f171bcc55a6ff8345e692c0f86e5b48e01b996cadc001622fb5e363b421880102030405060708c0c0",
        "lastblockhash" : "0xb6632a6d76bc56e722bb153f90829b98049cd4564092493b171e10cddbc51cdd",
        "network" : "Byzantium",
        "postState" : {
            "0x2adc25665018aa1fe0e6bc666dac8fc2697ff9ba" : {
                "balance" : "0x29a2241af62ca02a",
                "code" : "",
                "nonce" : "0x00",
                "storage" : {
                }
            },
            "0xa94f5374fce5edbc8e2a8697c15331677e6ebf0b" : {
                "balance" : "0x17487647d6",
                "code" : "",
                "nonce" : "0x01",
                "storage" : {
                }
            },
            "0xb94f5374fce5edbc8e2a8697c15331677e6ebf0b" : {
                "balance" : "0x174876e800",
                "code" : "0x0061736d01000000010d0360027f7f0060017f0060000002370208657468657265756d0c73746f7261676553746f7265000008657468657265756d12676574426c6f636b446966666963756c74790001030201020503010001071102046d61696e0002066d656d6f727902000a0e010c00412010014100412010000b",
                "nonce" : "0x00",
                "storage" : {
                    "0x00" : "0x020000000000000000000000000000000000000000000000000000000000"
                }
            }
        },
        "pre" : {
            "0xa94f5374fce5edbc8e2a8697c15331677e6ebf0b" : {
                "balance" : "0x174876e800",
                "code" : "",
                "nonce" : "0x00",
                "storage" : {
                }
            },
            "0xb94f5374fce5edbc8e2a8697c15331677e6ebf0b" : {
                "balance" : "0x174876e800",
                "code" : "0x0061736d01000000010d0360027f7f0060017f0060000002370208657468657265756d0c73746f7261676553746f7265000008657468657265756d12676574426c6f636b446966666963756c74790001030201020503010001071102046d61696e0002066d656d6f727902000a0e010c00412010014100412010000b",
                "nonce" : "0x00",
                "storage" : {
                }
            }
        },
        "sealEngine" : "NoProof"
    }
}