{
    "getBlockGasLimit_d0g0v0_Byzantium" : {
        "_info" : {
            "comment" : "",
            "filledwith" : "testeth 1.5.0-alpha.6",
            "lllcversion" : "Version: 0.5.0-develop.2018.11.8+commit.20481055.Linux.g++",
            "source" : "src/BlockchainTestsFiller/GeneralStateTests/stEWASMTests/getBlockGasLimit_d0g0v0Filler.json",
            "sourceHash" : "e8ac220bccf45491b05503cdaf86c8dbb27dd46b89beee474d6b5ef56923368b"
        },
        "blocks" : [
            {
                "blockHeader" : {
                    "bloom" : "0x00000000000000000000000000000000000000000000000000000000000000000000000000000000000000000000000000000000000000000000000000000000000000000000000000000000000000000000000000000000000000000000000000000000000000000000000000000000000000000000000000000000000000000000000000000000000000000000000000000000000000000000000000000000000000000000000000000000000000000000000000000000000000000000000000000000000000000000000000000000000000000000000000000000000000000000000000000000000000000000000000000000000000000000000000000000",
                    "coinbase" : "0x2adc25665018aa1fe0e6bc666dac8fc2697ff9ba",
                    "difficulty" : "0x020000",
                    "extraData" : "",
                    "gasLimit" : "0x05500000",
                    "gasUsed" : "0xa02a",
                    "hash" : "0xea53928fd23e15075d40eb71714ae71df23e66aef28ac632369734e679f00304",
                    "mixHash" : "0x0000000000000000000000000000000000000000000000000000000000000000",
                    "nonce" : "0x0000000000000000",
                    "number" : "0x01",
                    "parentHash" : "0xac5d76ce44a9734e489b608cc36ad35eee5e1fe15809bcb1124a4d02c28397dc",
                    "receiptTrie" : "0xd05a773cab0f32ed1549a0ac7ed944b6c1df7105adcf263f70125b56a91e70e8",
                    "stateRoot" : "0x808540004a86ef28fc343a7e310151284493328d3c0ea1e6700e0a0ca4952000",
                    "timestamp" : "0x03e8",
                    "transactionsTrie" : "0x6eb4fedf0295e87e280496b54f5d44ce6323073c669a3b07863f12bb3459a699",
                    "uncleHash" : "0x1dcc4de8dec75d7aab85b567b6ccd41ad312451b948a7413f0a142fd40d49347"
                },
                "rlp" : "0xf90261f901f8a0ac5d76ce44a9734e489b608cc36ad35eee5e1fe15809bcb1124a4d02c28397dca01dcc4de8dec75d7aab85b567b6ccd41ad312451b948a7413f0a142fd40d49347942adc25665018aa1fe0e6bc666dac8fc2697ff9baa0808540004a86ef28fc343a7e310151284493328d3c0ea1e6700e0a0ca4952000a06eb4fedf0295e87e280496b54f5d44ce6323073c669a3b07863f12bb3459a699a0d05a773cab0f32ed1549a0ac7ed944b6c1df7105adcf263f70125b56a91e70e8b90100000000000000000000000000000000000000000000000000000000000000000000000000000000000000000000000000000000000000000000000000000000000000000000000000000000000000000000000000000000000000000000000000000000000000000000000000000000000000000000000000000000000000000000000000000000000000000000000000000000000000000000000000000000000000000000000000000000000000000000000000000000000000000000000000000000000000000000000000000000000000000000000000000000000000000000000000000000000000000000000000000000000000000000000000000000008302000001840550000082a02a8203e880a00000000000000000000000000000000000000000000000000000000000000000880000000000000000f863f8618001840500000194deadbeef0000000000000000000000000000000080801ca0c7665499a4df8df60d5788720130e9c7a1670e11ab3f55612155b404d3aed41ea038494cb086ae71d94d921be06faa8088f905467fd4b03736d6cbb0251fa2bc73c0",
                "transactions" : [
                    {
                        "data" : "0x",
                        "gasLimit" : "0x05000001",
                        "gasPrice" : "0x01",
                        "nonce" : "0x00",
                        "r" : "0xc7665499a4df8df60d5788720130e9c7a1670e11ab3f55612155b404d3aed41e",
                        "s" : "0x38494cb086ae71d94d921be06faa8088f905467fd4b03736d6cbb0251fa2bc73",
                        "to" : "0xdeadbeef00000000000000000000000000000000",
                        "v" : "0x1c",
                        "value" : "0x00"
                    }
                ],
                "uncleHeaders" : [
                ]
            }
        ],
        "genesisBlockHeader" : {
            "bloom" : "0x00000000000000000000000000000000000000000000000000000000000000000000000000000000000000000000000000000000000000000000000000000000000000000000000000000000000000000000000000000000000000000000000000000000000000000000000000000000000000000000000000000000000000000000000000000000000000000000000000000000000000000000000000000000000000000000000000000000000000000000000000000000000000000000000000000000000000000000000000000000000000000000000000000000000000000000000000000000000000000000000000000000000000000000000000000000",
            "coinbase" : "0x2adc25665018aa1fe0e6bc666dac8fc2697ff9ba",
            "difficulty" : "0x020000",
            "extraData" : "0x42",
            "gasLimit" : "0x05500000",
            "gasUsed" : "0x00",
            "hash" : "0xac5d76ce44a9734e489b608cc36ad35eee5e1fe15809bcb1124a4d02c28397dc",
            "mixHash" : "0x56e81f171bcc55a6ff8345e692c0f86e5b48e01b996cadc001622fb5e363b421",
            "nonce" : "0x0102030405060708",
            "number" : "0x00",
            "parentHash" : "0x0000000000000000000000000000000000000000000000000000000000000000",
            "receiptTrie" : "0x56e81f171bcc55a6ff8345e692c0f86e5b48e01b996cadc001622fb5e363b421",
            "stateRoot" : "0xf0640eb4d50d19d48f81805f6257b07fc5253402e4d5f722add99d9845396fe0",
            "timestamp" : "0x03b6",
            "transactionsTrie" : "0x56e81f171bcc55a6ff8345e692c0f86e5b48e01b996cadc001622fb5e363b421",
            "uncleHash" : "0x1dcc4de8dec75d7aab85b567b6ccd41ad312451b948a7413f0a142fd40d49347"
        },
        "genesisRLP" : "0xf901fbf901f6a00000000000000000000000000000000000000000000000000000000000000000a01dcc4de8dec75d7aab85b567b6ccd41ad312451b948a7413f0a142fd40d49347942adc25665018aa1fe0e6bc666dac8fc2697ff9baa0f0640eb4d50d19d48f81805f6257b07fc5253402e4d5f722add99d9845396fe0a056e81f171bcc55a6ff8345e692c0f86e5b48e01b996cadc001622fb5e363b421a056e81f171bcc55a6ff8345e692c0f86e5b48e01b996cadc001622fb5e363b421b901000000000000000000000000000000000000000000000000000000000000000000000000000000000000000000000000000000000000000000000000000000000000000000000000000000000000000000000000000000000000000000000000000000000000000000000000000000000000000000000000000000000000000000000000000000000000000000000000000000000000000000000000000000000000000000000000000000000000000000000000000000000000000000000000000000000000000000000000000000000000000000000000000000000000000000000000000000000000000000000000000000000000000000000000000000000083020000808405500000808203b642a056e81f171bcc55a6ff8345e692c0f86e5b48e01b996cadc001622fb5e363b421880102030405060708c0c0",
        "lastblockhash" : "0xea53928fd23e15075d40eb71714ae71df23e66aef28ac632369734e679f00304",
        "network" : "Byzantium",
        "postState" : {
            "0x2adc25665018aa1fe0e6bc666dac8fc2697ff9ba" : {
                "balance" : "0x29a2241af62ca02a",
                "code" : "",
                "nonce" : "0x00",
                "storage" : {
                }
            },
            "0xa94f5374fce5edbc8e2a8697c15331677e6ebf0b" : {
                "balance" : "0x17487647d6",
                "code" : "",
                "nonce" : "0x01",
                "storage" : {
                }
            },
            "0xdeadbeef00000000000000000000000000000000" : {
                "balance" : "0x174876e800",
                "code" : "0x0061736d01000000010d036000017e60027f7f0060000002350208657468657265756d10676574426c6f636b4761734c696d6974000008657468657265756d0c73746f7261676553746f72650001030201020503010001071102066d656d6f72790200046d61696e00020a120110004100100037030041e400410010010b",
                "nonce" : "0x00",
                "storage" : {
                    "0x00" : "0x500500000000000000000000000000000000000000000000000000000000"
                }
            }
        },
        "pre" : {
            "0xa94f5374fce5edbc8e2a8697c15331677e6ebf0b" : {
                "balance" : "0x174876e800",
                "code" : "",
                "nonce" : "0x00",
                "storage" : {
                }
            },
            "0xdeadbeef00000000000000000000000000000000" : {
                "balance" : "0x174876e800",
                "code" : "0x0061736d01000000010d036000017e60027f7f0060000002350208657468657265756d10676574426c6f636b4761734c696d6974000008657468657265756d0c73746f7261676553746f72650001030201020503010001071102066d656d6f72790200046d61696e00020a120110004100100037030041e400410010010b",
                "nonce" : "0x00",
                "storage" : {
                }
            }
        },
        "sealEngine" : "NoProof"
    }
}