{
    "getBlockNumber_d0g0v0_Byzantium" : {
        "_info" : {
            "comment" : "",
            "filledwith" : "testeth 1.5.0-alpha.6",
            "lllcversion" : "Version: 0.5.0-develop.2018.11.8+commit.20481055.Linux.g++",
            "source" : "src/BlockchainTestsFiller/GeneralStateTests/stEWASMTests/getBlockNumber_d0g0v0Filler.json",
            "sourceHash" : "affff1d13a5ef0ba21a3d6118a35d79fff554491ccb1ed69e38aba036eeb41a6"
        },
        "blocks" : [
            {
                "blockHeader" : {
                    "bloom" : "0x00000000000000000000000000000000000000000000000000000000000000000000000000000000000000000000000000000000000000000000000000000000000000000000000000000000000000000000000000000000000000000000000000000000000000000000000000000000000000000000000000000000000000000000000000000000000000000000000000000000000000000000000000000000000000000000000000000000000000000000000000000000000000000000000000000000000000000000000000000000000000000000000000000000000000000000000000000000000000000000000000000000000000000000000000000000",
                    "coinbase" : "0x2adc25665018aa1fe0e6bc666dac8fc2697ff9ba",
                    "difficulty" : "0x020000",
                    "extraData" : "",
                    "gasLimit" : "0x05500000",
                    "gasUsed" : "0xa02a",
                    "hash" : "0x6dd05b586f653bf595ecf590e7625581ee9a8d932cb748ca27fa1a695ce3c237",
                    "mixHash" : "0x0000000000000000000000000000000000000000000000000000000000000000",
                    "nonce" : "0x0000000000000000",
                    "number" : "0x01",
                    "parentHash" : "0xabe25a923e557b9752ec917adb7df214e8956afaa5c6c8c8593c69b7606d47fe",
                    "receiptTrie" : "0xd05a773cab0f32ed1549a0ac7ed944b6c1df7105adcf263f70125b56a91e70e8",
                    "stateRoot" : "0x377b8c07f7592e564f029cd6d16255b1e976e4a4987004604b5c1fc7b5bc6ba5",
                    "timestamp" : "0x03e8",
                    "transactionsTrie" : "0x82d32c39f6a49762ebe3b29259c8f263e2735713a1245f9ea7ef7a4575981d0f",
                    "uncleHash" : "0x1dcc4de8dec75d7aab85b567b6ccd41ad312451b948a7413f0a142fd40d49347"
                },
                "rlp" : "0xf90260f901f8a0abe25a923e557b9752ec917adb7df214e8956afaa5c6c8c8593c69b7606d47fea01dcc4de8dec75d7aab85b567b6ccd41ad312451b948a7413f0a142fd40d49347942adc25665018aa1fe0e6bc666dac8fc2697ff9baa0377b8c07f7592e564f029cd6d16255b1e976e4a4987004604b5c1fc7b5bc6ba5a082d32c39f6a49762ebe3b29259c8f263e2735713a1245f9ea7ef7a4575981d0fa0d05a773cab0f32ed1549a0ac7ed944b6c1df7105adcf263f70125b56a91e70e8b90100000000000000000000000000000000000000000000000000000000000000000000000000000000000000000000000000000000000000000000000000000000000000000000000000000000000000000000000000000000000000000000000000000000000000000000000000000000000000000000000000000000000000000000000000000000000000000000000000000000000000000000000000000000000000000000000000000000000000000000000000000000000000000000000000000000000000000000000000000000000000000000000000000000000000000000000000000000000000000000000000000000000000000000000000000000008302000001840550000082a02a8203e880a00000000000000000000000000000000000000000000000000000000000000000880000000000000000f862f86080018350000094b94f5374fce5edbc8e2a8697c15331677e6ebf0b80801ca07d0243352d8abd1de483feac582ce5590e8168f192129f5decbfeb2e8b498ba9a04c570154c3b7487b2ce90daf1a92ffba7a3a4f4afad9e3e6811f5257a9793056c0",
                "transactions" : [
                    {
                        "data" : "0x",
                        "gasLimit" : "0x500000",
                        "gasPrice" : "0x01",
                        "nonce" : "0x00",
                        "r" : "0x7d0243352d8abd1de483feac582ce5590e8168f192129f5decbfeb2e8b498ba9",
                        "s" : "0x4c570154c3b7487b2ce90daf1a92ffba7a3a4f4afad9e3e6811f5257a9793056",
                        "to" : "0xb94f5374fce5edbc8e2a8697c15331677e6ebf0b",
                        "v" : "0x1c",
                        "value" : "0x00"
                    }
                ],
                "uncleHeaders" : [
                ]
            }
        ],
        "genesisBlockHeader" : {
            "bloom" : "0x00000000000000000000000000000000000000000000000000000000000000000000000000000000000000000000000000000000000000000000000000000000000000000000000000000000000000000000000000000000000000000000000000000000000000000000000000000000000000000000000000000000000000000000000000000000000000000000000000000000000000000000000000000000000000000000000000000000000000000000000000000000000000000000000000000000000000000000000000000000000000000000000000000000000000000000000000000000000000000000000000000000000000000000000000000000",
            "coinbase" : "0x2adc25665018aa1fe0e6bc666dac8fc2697ff9ba",
            "difficulty" : "0x020000",
            "extraData" : "0x42",
            "gasLimit" : "0x05500000",
            "gasUsed" : "0x00",
            "hash" : "0xabe25a923e557b9752ec917adb7df214e8956afaa5c6c8c8593c69b7606d47fe",
            "mixHash" : "0x56e81f171bcc55a6ff8345e692c0f86e5b48e01b996cadc001622fb5e363b421",
            "nonce" : "0x0102030405060708",
            "number" : "0x00",
            "parentHash" : "0x0000000000000000000000000000000000000000000000000000000000000000",
            "receiptTrie" : "0x56e81f171bcc55a6ff8345e692c0f86e5b48e01b996cadc001622fb5e363b421",
            "stateRoot" : "0x12e464abc9ecfec6603ad5fd7ef59c29544e8947d2f6c3505d020c4887d4a2ba",
            "timestamp" : "0x03b6",
            "transactionsTrie" : "0x56e81f171bcc55a6ff8345e692c0f86e5b48e01b996cadc001622fb5e363b421",
            "uncleHash" : "0x1dcc4de8dec75d7aab85b567b6ccd41ad312451b948a7413f0a142fd40d49347"
        },
        "genesisRLP" : "0xf901fbf901f6a00000000000000000000000000000000000000000000000000000000000000000a01dcc4de8dec75d7aab85b567b6ccd41ad312451b948a7413f0a142fd40d49347942adc25665018aa1fe0e6bc666dac8fc2697ff9baa012e464abc9ecfec6603ad5fd7ef59c29544e8947d2f6c3505d020c4887d4a2baa056e81f171bcc55a6ff8345e692c0f86e5b48e01b996cadc001622fb5e363b421a056e81f171bcc55a6ff8345e692c0f86e5b48e01b996cadc001622fb5e363b421b901000000000000000000000000000000000000000000000000000000000000000000000000000000000000000000000000000000000000000000000000000000000000000000000000000000000000000000000000000000000000000000000000000000000000000000000000000000000000000000000000000000000000000000000000000000000000000000000000000000000000000000000000000000000000000000000000000000000000000000000000000000000000000000000000000000000000000000000000000000000000000000000000000000000000000000000000000000000000000000000000000000000000000000000000000000000083020000808405500000808203b642a056e81f171bcc55a6ff8345e692c0f86e5b48e01b996cadc001622fb5e363b421880102030405060708c0c0",
        "lastblockhash" : "0x6dd05b586f653bf595ecf590e7625581ee9a8d932cb748ca27fa1a695ce3c237",
        "network" : "Byzantium",
        "postState" : {
            "0x2adc25665018aa1fe0e6bc666dac8fc2697ff9ba" : {
                "balance" : "0x29a2241af62ca02a",
                "code" : "",
                "nonce" : "0x00",
                "storage" : {
                }
            },
            "0xa94f5374fce5edbc8e2a8697c15331677e6ebf0b" : {
                "balance" : "0x17487647d6",
                "code" : "",
                "nonce" : "0x01",
                "storage" : {
                }
            },
            "0xb94f5374fce5edbc8e2a8697c15331677e6ebf0b" : {
                "balance" : "0x174876e800",
                "code" : "0x0061736d01000000010d0360027f7f006000017e60000002330208657468657265756d0c73746f7261676553746f7265000008657468657265756d0e676574426c6f636b4e756d6265720001030201020503010001071102046d61696e0002066d656d6f727902000a11010f00412010013703004100412010000b",
                "nonce" : "0x00",
                "storage" : {
                    "0x00" : "0x0100000000000000000000000000000000000000000000000000000000000000"
                }
            }
        },
        "pre" : {
            "0xa94f5374fce5edbc8e2a8697c15331677e6ebf0b" : {
                "balance" : "0x174876e800",
                "code" : "",
                "nonce" : "0x00",
                "storage" : {
                }
            },
            "0xb94f5374fce5edbc8e2a8697c15331677e6ebf0b" : {
                "balance" : "0x174876e800",
                "code" : "0x0061736d01000000010d0360027f7f006000017e60000002330208657468657265756d0c73746f7261676553746f7265000008657468657265756d0e676574426c6f636b4e756d6265720001030201020503010001071102046d61696e0002066d656d6f727902000a11010f00412010013703004100412010000b",
                "nonce" : "0x00",
                "storage" : {
                }
            }
        },
        "sealEngine" : "NoProof"
    }
}