{
    "getCallDataSize_d0g0v0_Byzantium" : {
        "_info" : {
            "comment" : "",
            "filledwith" : "testeth 1.5.0-alpha.6",
            "lllcversion" : "Version: 0.5.0-develop.2018.11.8+commit.20481055.Linux.g++",
            "source" : "src/BlockchainTestsFiller/GeneralStateTests/stEWASMTests/getCallDataSize_d0g0v0Filler.json",
            "sourceHash" : "1fbc07e6ddce6c9dc1eba1ab999f27bc5f90ec810638f400d409d5127156925d"
        },
        "blocks" : [
            {
                "blockHeader" : {
                    "bloom" : "0x00000000000000000000000000000000000000000000000000000000000000000000000000000000000000000000000000000000000000000000000000000000000000000000000000000000000000000000000000000000000000000000000000000000000000000000000000000000000000000000000000000000000000000000000000000000000000000000000000000000000000000000000000000000000000000000000000000000000000000000000000000000000000000000000000000000000000000000000000000000000000000000000000000000000000000000000000000000000000000000000000000000000000000000000000000000",
                    "coinbase" : "0x2adc25665018aa1fe0e6bc666dac8fc2697ff9ba",
                    "difficulty" : "0x020000",
                    "extraData" : "",
                    "gasLimit" : "0x05500000",
                    "gasUsed" : "0xa46a",
                    "hash" : "0x62f3b938bbeffc2148fc98e2151351c11c026cf89cdd355712f17122ae1b2118",
                    "mixHash" : "0x0000000000000000000000000000000000000000000000000000000000000000",
                    "nonce" : "0x0000000000000000",
                    "number" : "0x01",
                    "parentHash" : "0xbeae8d919ceb594578b86542334dda98b9e0788f5c33642390adab41ae2b110d",
                    "receiptTrie" : "0xbd08fd41b1e253f3442cf83ad21bda0a94dfed1a1ad63839ffd2fe08cf0e0dad",
                    "stateRoot" : "0x5a04bb779e761cde7b8130091a5c7bc79e6049a8a263d120acb4804abe4721b4",
                    "timestamp" : "0x03e8",
                    "transactionsTrie" : "0x19df0f6a176e118c674d17483ede3e7549ad56112298c6a9a6cc8f0bf3e6d410",
                    "uncleHash" : "0x1dcc4de8dec75d7aab85b567b6ccd41ad312451b948a7413f0a142fd40d49347"
                },
                "rlp" : "0xf90271f901f8a0beae8d919ceb594578b86542334dda98b9e0788f5c33642390adab41ae2b110da01dcc4de8dec75d7aab85b567b6ccd41ad312451b948a7413f0a142fd40d49347942adc25665018aa1fe0e6bc666dac8fc2697ff9baa05a04bb779e761cde7b8130091a5c7bc79e6049a8a263d120acb4804abe4721b4a019df0f6a176e118c674d17483ede3e7549ad56112298c6a9a6cc8f0bf3e6d410a0bd08fd41b1e253f3442cf83ad21bda0a94dfed1a1ad63839ffd2fe08cf0e0dadb90100000000000000000000000000000000000000000000000000000000000000000000000000000000000000000000000000000000000000000000000000000000000000000000000000000000000000000000000000000000000000000000000000000000000000000000000000000000000000000000000000000000000000000000000000000000000000000000000000000000000000000000000000000000000000000000000000000000000000000000000000000000000000000000000000000000000000000000000000000000000000000000000000000000000000000000000000000000000000000000000000000000000000000000000000000000008302000001840550000082a46a8203e880a00000000000000000000000000000000000000000000000000000000000000000880000000000000000f873f8718001840500000194deadbeef000000000000000000000000000000008090ffffffffffffffffffffffffffffffff1ba0f904bab7b96d8992585070b7334f9d81ca9f642818b57f973c51d146a824c356a07ac38eb0ea3879791f783f1d7176ecb90e89d2f1304a04766464e4a005195d62c0",
                "transactions" : [
                    {
                        "data" : "0xffffffffffffffffffffffffffffffff",
                        "gasLimit" : "0x05000001",
                        "gasPrice" : "0x01",
                        "nonce" : "0x00",
                        "r" : "0xf904bab7b96d8992585070b7334f9d81ca9f642818b57f973c51d146a824c356",
                        "s" : "0x7ac38eb0ea3879791f783f1d7176ecb90e89d2f1304a04766464e4a005195d62",
                        "to" : "0xdeadbeef00000000000000000000000000000000",
                        "v" : "0x1b",
                        "value" : "0x00"
                    }
                ],
                "uncleHeaders" : [
                ]
            }
        ],
        "genesisBlockHeader" : {
            "bloom" : "0x00000000000000000000000000000000000000000000000000000000000000000000000000000000000000000000000000000000000000000000000000000000000000000000000000000000000000000000000000000000000000000000000000000000000000000000000000000000000000000000000000000000000000000000000000000000000000000000000000000000000000000000000000000000000000000000000000000000000000000000000000000000000000000000000000000000000000000000000000000000000000000000000000000000000000000000000000000000000000000000000000000000000000000000000000000000",
            "coinbase" : "0x2adc25665018aa1fe0e6bc666dac8fc2697ff9ba",
            "difficulty" : "0x020000",
            "extraData" : "0x42",
            "gasLimit" : "0x05500000",
            "gasUsed" : "0x00",
            "hash" : "0xbeae8d919ceb594578b86542334dda98b9e0788f5c33642390adab41ae2b110d",
            "mixHash" : "0x56e81f171bcc55a6ff8345e692c0f86e5b48e01b996cadc001622fb5e363b421",
            "nonce" : "0x0102030405060708",
            "number" : "0x00",
            "parentHash" : "0x0000000000000000000000000000000000000000000000000000000000000000",
            "receiptTrie" : "0x56e81f171bcc55a6ff8345e692c0f86e5b48e01b996cadc001622fb5e363b421",
            "stateRoot" : "0x2f8462a751866137ce2c4946646e8a20669f903e5b6a0ed45f60c2926f756ffa",
            "timestamp" : "0x03b6",
            "transactionsTrie" : "0x56e81f171bcc55a6ff8345e692c0f86e5b48e01b996cadc001622fb5e363b421",
            "uncleHash" : "0x1dcc4de8dec75d7aab85b567b6ccd41ad312451b948a7413f0a142fd40d49347"
        },
        "genesisRLP" : "0xf901fbf901f6a00000000000000000000000000000000000000000000000000000000000000000a01dcc4de8dec75d7aab85b567b6ccd41ad312451b948a7413f0a142fd40d49347942adc25665018aa1fe0e6bc666dac8fc2697ff9baa02f8462a751866137ce2c4946646e8a20669f903e5b6a0ed45f60c2926f756ffaa056e81f171bcc55a6ff8345e692c0f86e5b48e01b996cadc001622fb5e363b421a056e81f171bcc55a6ff8345e692c0f86e5b48e01b996cadc001622fb5e363b421b901000000000000000000000000000000000000000000000000000000000000000000000000000000000000000000000000000000000000000000000000000000000000000000000000000000000000000000000000000000000000000000000000000000000000000000000000000000000000000000000000000000000000000000000000000000000000000000000000000000000000000000000000000000000000000000000000000000000000000000000000000000000000000000000000000000000000000000000000000000000000000000000000000000000000000000000000000000000000000000000000000000000000000000000000000000000083020000808405500000808203b642a056e81f171bcc55a6ff8345e692c0f86e5b48e01b996cadc001622fb5e363b421880102030405060708c0c0",
        "lastblockhash" : "0x62f3b938bbeffc2148fc98e2151351c11c026cf89cdd355712f17122ae1b2118",
        "network" : "Byzantium",
        "postState" : {
            "0x2adc25665018aa1fe0e6bc666dac8fc2697ff9ba" : {
                "balance" : "0x29a2241af62ca46a",
                "code" : "",
                "nonce" : "0x00",
                "storage" : {
                }
            },
            "0xa94f5374fce5edbc8e2a8697c15331677e6ebf0b" : {
                "balance" : "0x1748764396",
                "code" : "",
                "nonce" : "0x01",
                "storage" : {
                }
            },
            "0xdeadbeef00000000000000000000000000000000" : {
                "balance" : "0x174876e800",
                "code" : "0x0061736d01000000010d036000017f60027f7f0060000002340208657468657265756d0f67657443616c6c4461746153697a65000008657468657265756d0c73746f7261676553746f72650001030201020503010001071102046d61696e0002066d656d6f727902000a11010f00412010003602004100412010010b",
                "nonce" : "0x00",
                "storage" : {
                    "0x00" : "0x1000000000000000000000000000000000000000000000000000000000000000"
                }
            }
        },
        "pre" : {
            "0xa94f5374fce5edbc8e2a8697c15331677e6ebf0b" : {
                "balance" : "0x174876e800",
                "code" : "",
                "nonce" : "0x00",
                "storage" : {
                }
            },
            "0xdeadbeef00000000000000000000000000000000" : {
                "balance" : "0x174876e800",
                "code" : "0x0061736d01000000010d036000017f60027f7f0060000002340208657468657265756d0f67657443616c6c4461746153697a65000008657468657265756d0c73746f7261676553746f72650001030201020503010001071102046d61696e0002066d656d6f727902000a11010f00412010003602004100412010010b",
                "nonce" : "0x00",
                "storage" : {
                }
            }
        },
        "sealEngine" : "NoProof"
    }
}