{
    "getCallValue_d0g0v0_Byzantium" : {
        "_info" : {
            "comment" : "",
            "filledwith" : "testeth 1.5.0-alpha.6",
            "lllcversion" : "Version: 0.5.0-develop.2018.11.8+commit.20481055.Linux.g++",
            "source" : "src/BlockchainTestsFiller/GeneralStateTests/stEWASMTests/getCallValue_d0g0v0Filler.json",
            "sourceHash" : "b6e97f701168c6e812cb59ca437c7f10d137edc977fbe3d98e2ab45edc87de2a"
        },
        "blocks" : [
            {
                "blockHeader" : {
                    "bloom" : "0x00000000000000000000000000000000000000000000000000000000000000000000000000000000000000000000000000000000000000000000000000000000000000000000000000000000000000000000000000000000000000000000000000000000000000000000000000000000000000000000000000000000000000000000000000000000000000000000000000000000000000000000000000000000000000000000000000000000000000000000000000000000000000000000000000000000000000000000000000000000000000000000000000000000000000000000000000000000000000000000000000000000000000000000000000000000",
                    "coinbase" : "0x2adc25665018aa1fe0e6bc666dac8fc2697ff9ba",
                    "difficulty" : "0x020000",
                    "extraData" : "",
                    "gasLimit" : "0x05500000",
                    "gasUsed" : "0xa0b2",
                    "hash" : "0xec1934906df463284c2c6a5f49fbf802de9455515c91d10c81e0f969c2524a4c",
                    "mixHash" : "0x0000000000000000000000000000000000000000000000000000000000000000",
                    "nonce" : "0x0000000000000000",
                    "number" : "0x01",
                    "parentHash" : "0x6caa28158899dec3db3ad90ad5f411fea6813d7b6c56b43e87ee334d50e0d7d9",
                    "receiptTrie" : "0xfd979275362ef9c5fbd5709164e16351e8b007d39badd3d4ea8d3fa895cd684f",
                    "stateRoot" : "0x0f200f991a78eb0bae06b01bc2ef55313520de50dffe883041b6369dc39f8d00",
                    "timestamp" : "0x03e8",
                    "transactionsTrie" : "0x4e68233119b96234463d0ba8b5197434416cd54571383cfb3ad5c9c308e9bd29",
                    "uncleHash" : "0x1dcc4de8dec75d7aab85b567b6ccd41ad312451b948a7413f0a142fd40d49347"
                },
                "rlp" : "0xf90265f901f8a06caa28158899dec3db3ad90ad5f411fea6813d7b6c56b43e87ee334d50e0d7d9a01dcc4de8dec75d7aab85b567b6ccd41ad312451b948a7413f0a142fd40d49347942adc25665018aa1fe0e6bc666dac8fc2697ff9baa00f200f991a78eb0bae06b01bc2ef55313520de50dffe883041b6369dc39f8d00a04e68233119b96234463d0ba8b5197434416cd54571383cfb3ad5c9c308e9bd29a0fd979275362ef9c5fbd5709164e16351e8b007d39badd3d4ea8d3fa895cd684fb90100000000000000000000000000000000000000000000000000000000000000000000000000000000000000000000000000000000000000000000000000000000000000000000000000000000000000000000000000000000000000000000000000000000000000000000000000000000000000000000000000000000000000000000000000000000000000000000000000000000000000000000000000000000000000000000000000000000000000000000000000000000000000000000000000000000000000000000000000000000000000000000000000000000000000000000000000000000000000000000000000000000000000000000000000000000008302000001840550000082a0b28203e880a00000000000000000000000000000000000000000000000000000000000000000880000000000000000f867f8658001840500000194abcdabcdabcdabcdabcdabcdabcdabcdabcdabcd82123482ffff1ba067dcaffe09ba4575339c0bef6209d7e6b1eb03c701d25dae6c9e5998bd0d0d6da05b4e383b02bfaf92a0c17d262f71bb3c9d819e8df550c1c3b4214bdbcee5b388c0",
                "transactions" : [
                    {
                        "data" : "0xffff",
                        "gasLimit" : "0x05000001",
                        "gasPrice" : "0x01",
                        "nonce" : "0x00",
                        "r" : "0x67dcaffe09ba4575339c0bef6209d7e6b1eb03c701d25dae6c9e5998bd0d0d6d",
                        "s" : "0x5b4e383b02bfaf92a0c17d262f71bb3c9d819e8df550c1c3b4214bdbcee5b388",
                        "to" : "0xabcdabcdabcdabcdabcdabcdabcdabcdabcdabcd",
                        "v" : "0x1b",
                        "value" : "0x1234"
                    }
                ],
                "uncleHeaders" : [
                ]
            }
        ],
        "genesisBlockHeader" : {
            "bloom" : "0x00000000000000000000000000000000000000000000000000000000000000000000000000000000000000000000000000000000000000000000000000000000000000000000000000000000000000000000000000000000000000000000000000000000000000000000000000000000000000000000000000000000000000000000000000000000000000000000000000000000000000000000000000000000000000000000000000000000000000000000000000000000000000000000000000000000000000000000000000000000000000000000000000000000000000000000000000000000000000000000000000000000000000000000000000000000",
            "coinbase" : "0x2adc25665018aa1fe0e6bc666dac8fc2697ff9ba",
            "difficulty" : "0x020000",
            "extraData" : "0x42",
            "gasLimit" : "0x05500000",
            "gasUsed" : "0x00",
            "hash" : "0x6caa28158899dec3db3ad90ad5f411fea6813d7b6c56b43e87ee334d50e0d7d9",
            "mixHash" : "0x56e81f171bcc55a6ff8345e692c0f86e5b48e01b996cadc001622fb5e363b421",
            "nonce" : "0x0102030405060708",
            "number" : "0x00",
            "parentHash" : "0x0000000000000000000000000000000000000000000000000000000000000000",
            "receiptTrie" : "0x56e81f171bcc55a6ff8345e692c0f86e5b48e01b996cadc001622fb5e363b421",
            "stateRoot" : "0x52f6400903e21c13a542b11b6946db79078aba1daea5cda077bb5f5b3883e336",
            "timestamp" : "0x03b6",
            "transactionsTrie" : "0x56e81f171bcc55a6ff8345e692c0f86e5b48e01b996cadc001622fb5e363b421",
            "uncleHash" : "0x1dcc4de8dec75d7aab85b567b6ccd41ad312451b948a7413f0a142fd40d49347"
        },
        "genesisRLP" : "0xf901fbf901f6a00000000000000000000000000000000000000000000000000000000000000000a01dcc4de8dec75d7aab85b567b6ccd41ad312451b948a7413f0a142fd40d49347942adc25665018aa1fe0e6bc666dac8fc2697ff9baa052f6400903e21c13a542b11b6946db79078aba1daea5cda077bb5f5b3883e336a056e81f171bcc55a6ff8345e692c0f86e5b48e01b996cadc001622fb5e363b421a056e81f171bcc55a6ff8345e692c0f86e5b48e01b996cadc001622fb5e363b421b901000000000000000000000000000000000000000000000000000000000000000000000000000000000000000000000000000000000000000000000000000000000000000000000000000000000000000000000000000000000000000000000000000000000000000000000000000000000000000000000000000000000000000000000000000000000000000000000000000000000000000000000000000000000000000000000000000000000000000000000000000000000000000000000000000000000000000000000000000000000000000000000000000000000000000000000000000000000000000000000000000000000000000000000000000000000083020000808405500000808203b642a056e81f171bcc55a6ff8345e692c0f86e5b48e01b996cadc001622fb5e363b421880102030405060708c0c0",
        "lastblockhash" : "0xec1934906df463284c2c6a5f49fbf802de9455515c91d10c81e0f969c2524a4c",
        "network" : "Byzantium",
        "postState" : {
            "0x2adc25665018aa1fe0e6bc666dac8fc2697ff9ba" : {
                "balance" : "0x29a2241af62ca0b2",
                "code" : "",
                "nonce" : "0x00",
                "storage" : {
                }
            },
            "0xa94f5374fce5edbc8e2a8697c15331677e6ebf0b" : {
                "balance" : "0x174876351a",
                "code" : "",
                "nonce" : "0x01",
                "storage" : {
                }
            },
            "0xabcdabcdabcdabcdabcdabcdabcdabcdabcdabcd" : {
                "balance" : "0x174876fa34",
                "code" : "0x0061736d01000000010d0360017f0060027f7f0060000002310208657468657265756d0c67657443616c6c56616c7565000008657468657265756d0c73746f7261676553746f72650001030201020503010001071102046d61696e0002066d656d6f727902000a0e010c00412010004100412010010b",
                "nonce" : "0x00",
                "storage" : {
                    "0x00" : "0x3412000000000000000000000000000000000000000000000000000000000000"
                }
            }
        },
        "pre" : {
            "0xa94f5374fce5edbc8e2a8697c15331677e6ebf0b" : {
                "balance" : "0x174876e800",
                "code" : "",
                "nonce" : "0x00",
                "storage" : {
                }
            },
            "0xabcdabcdabcdabcdabcdabcdabcdabcdabcdabcd" : {
                "balance" : "0x174876e800",
                "code" : "0x0061736d01000000010d0360017f0060027f7f0060000002310208657468657265756d0c67657443616c6c56616c7565000008657468657265756d0c73746f7261676553746f72650001030201020503010001071102046d61696e0002066d656d6f727902000a0e010c00412010004100412010010b",
                "nonce" : "0x00",
                "storage" : {
                }
            }
        },
        "sealEngine" : "NoProof"
    }
}