{
    "getCallDataSizeInRust_d0g0v0_Byzantium" : {
        "_info" : {
            "comment" : "",
            "filledwith" : "testeth 1.5.0-alpha.6",
            "lllcversion" : "Version: 0.5.0-develop.2018.11.8+commit.20481055.Linux.g++",
            "source" : "src/BlockchainTestsFiller/GeneralStateTests/stEWASMTests/getCallDataSizeInRust_d0g0v0Filler.json",
            "sourceHash" : "40f599503658abc0dd6a4a56368eb938c9f61aa775bde7c26e73bad106647f79"
        },
        "blocks" : [
            {
                "blockHeader" : {
                    "bloom" : "0x00000000000000000000000000000000000000000000000000000000000000000000000000000000000000000000000000000000000000000000000000000000000000000000000000000000000000000000000000000000000000000000000000000000000000000000000000000000000000000000000000000000000000000000000000000000000000000000000000000000000000000000000000000000000000000000000000000000000000000000000000000000000000000000000000000000000000000000000000000000000000000000000000000000000000000000000000000000000000000000000000000000000000000000000000000000",
                    "coinbase" : "0x2adc25665018aa1fe0e6bc666dac8fc2697ff9ba",
                    "difficulty" : "0x020000",
                    "extraData" : "",
                    "gasLimit" : "0x05500000",
                    "gasUsed" : "0xa46a",
                    "hash" : "0x95226a74249d312496d22c80072023ce108a6b711126f98997ec2dc258fdadf2",
                    "mixHash" : "0x0000000000000000000000000000000000000000000000000000000000000000",
                    "nonce" : "0x0000000000000000",
                    "number" : "0x01",
                    "parentHash" : "0xe77ec1f4acea1e10a4602909d1f8d33062109c08da8e3b523a3fd97128876f90",
                    "receiptTrie" : "0xbd08fd41b1e253f3442cf83ad21bda0a94dfed1a1ad63839ffd2fe08cf0e0dad",
                    "stateRoot" : "0xb413db67b2a6d4eeb1c83eacc4dfa3fa28caedf8892d249a94048fc224d57274",
                    "timestamp" : "0x03e8",
                    "transactionsTrie" : "0x8adc2c3bf4c837e7b7a77205193c73e2088f7284bf374e25fc7437a57518adec",
                    "uncleHash" : "0x1dcc4de8dec75d7aab85b567b6ccd41ad312451b948a7413f0a142fd40d49347"
                },
                "rlp" : "0xf90271f901f8a0e77ec1f4acea1e10a4602909d1f8d33062109c08da8e3b523a3fd97128876f90a01dcc4de8dec75d7aab85b567b6ccd41ad312451b948a7413f0a142fd40d49347942adc25665018aa1fe0e6bc666dac8fc2697ff9baa0b413db67b2a6d4eeb1c83eacc4dfa3fa28caedf8892d249a94048fc224d57274a08adc2c3bf4c837e7b7a77205193c73e2088f7284bf374e25fc7437a57518adeca0bd08fd41b1e253f3442cf83ad21bda0a94dfed1a1ad63839ffd2fe08cf0e0dadb90100000000000000000000000000000000000000000000000000000000000000000000000000000000000000000000000000000000000000000000000000000000000000000000000000000000000000000000000000000000000000000000000000000000000000000000000000000000000000000000000000000000000000000000000000000000000000000000000000000000000000000000000000000000000000000000000000000000000000000000000000000000000000000000000000000000000000000000000000000000000000000000000000000000000000000000000000000000000000000000000000000000000000000000000000000000008302000001840550000082a46a8203e880a00000000000000000000000000000000000000000000000000000000000000000880000000000000000f873f8718001840500000194a94f5374fce5edbc8e2a8697c15331677e6ebf0b8090ffffffffffffffffffffffffffffffff1ca05356e096b396985f7e3653d42ff7ad481f665a5f10358d4388e5ca8e60c8eeb5a027721c6df0dffb98549a581d953982f33a950a03eb93496cd691d96eedc6c82dc0",
                "transactions" : [
                    {
                        "data" : "0xffffffffffffffffffffffffffffffff",
                        "gasLimit" : "0x05000001",
                        "gasPrice" : "0x01",
                        "nonce" : "0x00",
                        "r" : "0x5356e096b396985f7e3653d42ff7ad481f665a5f10358d4388e5ca8e60c8eeb5",
                        "s" : "0x27721c6df0dffb98549a581d953982f33a950a03eb93496cd691d96eedc6c82d",
                        "to" : "0xa94f5374fce5edbc8e2a8697c15331677e6ebf0b",
                        "v" : "0x1c",
                        "value" : "0x00"
                    }
                ],
                "uncleHeaders" : [
                ]
            }
        ],
        "genesisBlockHeader" : {
            "bloom" : "0x00000000000000000000000000000000000000000000000000000000000000000000000000000000000000000000000000000000000000000000000000000000000000000000000000000000000000000000000000000000000000000000000000000000000000000000000000000000000000000000000000000000000000000000000000000000000000000000000000000000000000000000000000000000000000000000000000000000000000000000000000000000000000000000000000000000000000000000000000000000000000000000000000000000000000000000000000000000000000000000000000000000000000000000000000000000",
            "coinbase" : "0x2adc25665018aa1fe0e6bc666dac8fc2697ff9ba",
            "difficulty" : "0x020000",
            "extraData" : "0x42",
            "gasLimit" : "0x05500000",
            "gasUsed" : "0x00",
            "hash" : "0xe77ec1f4acea1e10a4602909d1f8d33062109c08da8e3b523a3fd97128876f90",
            "mixHash" : "0x56e81f171bcc55a6ff8345e692c0f86e5b48e01b996cadc001622fb5e363b421",
            "nonce" : "0x0102030405060708",
            "number" : "0x00",
            "parentHash" : "0x0000000000000000000000000000000000000000000000000000000000000000",
            "receiptTrie" : "0x56e81f171bcc55a6ff8345e692c0f86e5b48e01b996cadc001622fb5e363b421",
            "stateRoot" : "0xf38615293a23340dbdf8f242c84cdc011a010e54e5e6885003c256335d0a69e7",
            "timestamp" : "0x03b6",
            "transactionsTrie" : "0x56e81f171bcc55a6ff8345e692c0f86e5b48e01b996cadc001622fb5e363b421",
            "uncleHash" : "0x1dcc4de8dec75d7aab85b567b6ccd41ad312451b948a7413f0a142fd40d49347"
        },
        "genesisRLP" : "0xf901fbf901f6a00000000000000000000000000000000000000000000000000000000000000000a01dcc4de8dec75d7aab85b567b6ccd41ad312451b948a7413f0a142fd40d49347942adc25665018aa1fe0e6bc666dac8fc2697ff9baa0f38615293a23340dbdf8f242c84cdc011a010e54e5e6885003c256335d0a69e7a056e81f171bcc55a6ff8345e692c0f86e5b48e01b996cadc001622fb5e363b421a056e81f171bcc55a6ff8345e692c0f86e5b48e01b996cadc001622fb5e363b421b901000000000000000000000000000000000000000000000000000000000000000000000000000000000000000000000000000000000000000000000000000000000000000000000000000000000000000000000000000000000000000000000000000000000000000000000000000000000000000000000000000000000000000000000000000000000000000000000000000000000000000000000000000000000000000000000000000000000000000000000000000000000000000000000000000000000000000000000000000000000000000000000000000000000000000000000000000000000000000000000000000000000000000000000000000000000083020000808405500000808203b642a056e81f171bcc55a6ff8345e692c0f86e5b48e01b996cadc001622fb5e363b421880102030405060708c0c0",
        "lastblockhash" : "0x95226a74249d312496d22c80072023ce108a6b711126f98997ec2dc258fdadf2",
        "network" : "Byzantium",
        "postState" : {
            "0x2adc25665018aa1fe0e6bc666dac8fc2697ff9ba" : {
                "balance" : "0x29a2241af62ca46a",
                "code" : "",
                "nonce" : "0x00",
                "storage" : {
                }
            },
            "0xa94f5374fce5edbc8e2a8697c15331677e6ebf0b" : {
                "balance" : "0x1748764396",
                "code" : "0x0061736d010000000116056000017f60027f7f006000006000017f60027f7f0002340208657468657265756d0f67657443616c6c4461746153697a65000308657468657265756d0c73746f7261676553746f72650004030201020404017000000503010011071102046d61696e0002066d656d6f727902000901000a57015501017f4100410028020441306b22003602042000100036020c200041286a4200370200200041206a4200370200200041186a420037020020004200370210200041106a2000410c6a10014100200041306a3602040b0b0a010041040b0410001000",
                "nonce" : "0x01",
                "storage" : {
                    "0x00" : "0x1000000000000000000000000000000000000000000000000000000000000000"
                }
            }
        },
        "pre" : {
            "0xa94f5374fce5edbc8e2a8697c15331677e6ebf0b" : {
                "balance" : "0x174876e800",
                "code" : "0x0061736d010000000116056000017f60027f7f006000006000017f60027f7f0002340208657468657265756d0f67657443616c6c4461746153697a65000308657468657265756d0c73746f7261676553746f72650004030201020404017000000503010011071102046d61696e0002066d656d6f727902000901000a57015501017f4100410028020441306b22003602042000100036020c200041286a4200370200200041206a4200370200200041186a420037020020004200370210200041106a2000410c6a10014100200041306a3602040b0b0a010041040b0410001000",
                "nonce" : "0x00",
                "storage" : {
                }
            }
        },
        "sealEngine" : "NoProof"
    }
}