{
    "getExternalCodeSize_d0g0v0_Byzantium" : {
        "_info" : {
            "comment" : "",
            "filledwith" : "testeth 1.5.0-alpha.6",
            "lllcversion" : "Version: 0.5.0-develop.2018.11.8+commit.20481055.Linux.g++",
            "source" : "src/BlockchainTestsFiller/GeneralStateTests/stEWASMTests/getExternalCodeSize_d0g0v0Filler.json",
            "sourceHash" : "a1f02fce4c0b2b8419d78a3ac7bc82f3d155533987e5fcdb14d1e0950cfa3d59"
        },
        "blocks" : [
            {
                "blockHeader" : {
                    "bloom" : "0x00000000000000000000000000000000000000000000000000000000000000000000000000000000000000000000000000000000000000000000000000000000000000000000000000000000000000000000000000000000000000000000000000000000000000000000000000000000000000000000000000000000000000000000000000000000000000000000000000000000000000000000000000000000000000000000000000000000000000000000000000000000000000000000000000000000000000000000000000000000000000000000000000000000000000000000000000000000000000000000000000000000000000000000000000000000",
                    "coinbase" : "0x2adc25665018aa1fe0e6bc666dac8fc2697ff9ba",
                    "difficulty" : "0x020000",
                    "extraData" : "",
                    "gasLimit" : "0x05500000",
                    "gasUsed" : "0xa2e4",
                    "hash" : "0x66440b215f6502de6782670e45f4cc15261b5de7ffd392001c36ba38dbd84803",
                    "mixHash" : "0x0000000000000000000000000000000000000000000000000000000000000000",
                    "nonce" : "0x0000000000000000",
                    "number" : "0x01",
                    "parentHash" : "0x47bdfbfd8db31cbef658d8aa51cbf23ab7e187117203ab39222a0c756b9d1349",
                    "receiptTrie" : "0xa84fbdd5182f1939afffd5a09b4fb8a486fb215b4e92c50cd1d3ce382d406d7c",
                    "stateRoot" : "0x7f59296e37a0ee6a39d5ae6ff6f46874bde62ae531cbd08d6ecf5e6c2287e717",
                    "timestamp" : "0x03e8",
                    "transactionsTrie" : "0x882b1c358a1d87f01fabb237a81abe5a95042cf80da82598bd07e9872acb8711",
                    "uncleHash" : "0x1dcc4de8dec75d7aab85b567b6ccd41ad312451b948a7413f0a142fd40d49347"
                },
                "rlp" : "0xf90261f901f8a047bdfbfd8db31cbef658d8aa51cbf23ab7e187117203ab39222a0c756b9d1349a01dcc4de8dec75d7aab85b567b6ccd41ad312451b948a7413f0a142fd40d49347942adc25665018aa1fe0e6bc666dac8fc2697ff9baa07f59296e37a0ee6a39d5ae6ff6f46874bde62ae531cbd08d6ecf5e6c2287e717a0882b1c358a1d87f01fabb237a81abe5a95042cf80da82598bd07e9872acb8711a0a84fbdd5182f1939afffd5a09b4fb8a486fb215b4e92c50cd1d3ce382d406d7cb90100000000000000000000000000000000000000000000000000000000000000000000000000000000000000000000000000000000000000000000000000000000000000000000000000000000000000000000000000000000000000000000000000000000000000000000000000000000000000000000000000000000000000000000000000000000000000000000000000000000000000000000000000000000000000000000000000000000000000000000000000000000000000000000000000000000000000000000000000000000000000000000000000000000000000000000000000000000000000000000000000000000000000000000000000000000008302000001840550000082a2e48203e880a00000000000000000000000000000000000000000000000000000000000000000880000000000000000f863f8618001840500000194abcdabcdabcdabcdabcdabcdabcdabcdabcdabcd80801ba0f807fae80e9698f65191da8f5313e9305935910cf97108e3102867a08513ed56a07b530915faf7b73ed7b8fa11e754b044dc8e9301aa1e635b687ee239fd03ee53c0",
                "transactions" : [
                    {
                        "data" : "0x",
                        "gasLimit" : "0x05000001",
                        "gasPrice" : "0x01",
                        "nonce" : "0x00",
                        "r" : "0xf807fae80e9698f65191da8f5313e9305935910cf97108e3102867a08513ed56",
                        "s" : "0x7b530915faf7b73ed7b8fa11e754b044dc8e9301aa1e635b687ee239fd03ee53",
                        "to" : "0xabcdabcdabcdabcdabcdabcdabcdabcdabcdabcd",
                        "v" : "0x1b",
                        "value" : "0x00"
                    }
                ],
                "uncleHeaders" : [
                ]
            }
        ],
        "genesisBlockHeader" : {
            "bloom" : "0x00000000000000000000000000000000000000000000000000000000000000000000000000000000000000000000000000000000000000000000000000000000000000000000000000000000000000000000000000000000000000000000000000000000000000000000000000000000000000000000000000000000000000000000000000000000000000000000000000000000000000000000000000000000000000000000000000000000000000000000000000000000000000000000000000000000000000000000000000000000000000000000000000000000000000000000000000000000000000000000000000000000000000000000000000000000",
            "coinbase" : "0x2adc25665018aa1fe0e6bc666dac8fc2697ff9ba",
            "difficulty" : "0x020000",
            "extraData" : "0x42",
            "gasLimit" : "0x05500000",
            "gasUsed" : "0x00",
            "hash" : "0x47bdfbfd8db31cbef658d8aa51cbf23ab7e187117203ab39222a0c756b9d1349",
            "mixHash" : "0x56e81f171bcc55a6ff8345e692c0f86e5b48e01b996cadc001622fb5e363b421",
            "nonce" : "0x0102030405060708",
            "number" : "0x00",
            "parentHash" : "0x0000000000000000000000000000000000000000000000000000000000000000",
            "receiptTrie" : "0x56e81f171bcc55a6ff8345e692c0f86e5b48e01b996cadc001622fb5e363b421",
            "stateRoot" : "0x2c1c9ea3c61fa2e0982a88d3a52b1965d1a84df4070e5fbc4bf0d927d9ed3d55",
            "timestamp" : "0x03b6",
            "transactionsTrie" : "0x56e81f171bcc55a6ff8345e692c0f86e5b48e01b996cadc001622fb5e363b421",
            "uncleHash" : "0x1dcc4de8dec75d7aab85b567b6ccd41ad312451b948a7413f0a142fd40d49347"
        },
        "genesisRLP" : "0xf901fbf901f6a00000000000000000000000000000000000000000000000000000000000000000a01dcc4de8dec75d7aab85b567b6ccd41ad312451b948a7413f0a142fd40d49347942adc25665018aa1fe0e6bc666dac8fc2697ff9baa02c1c9ea3c61fa2e0982a88d3a52b1965d1a84df4070e5fbc4bf0d927d9ed3d55a056e81f171bcc55a6ff8345e692c0f86e5b48e01b996cadc001622fb5e363b421a056e81f171bcc55a6ff8345e692c0f86e5b48e01b996cadc001622fb5e363b421b901000000000000000000000000000000000000000000000000000000000000000000000000000000000000000000000000000000000000000000000000000000000000000000000000000000000000000000000000000000000000000000000000000000000000000000000000000000000000000000000000000000000000000000000000000000000000000000000000000000000000000000000000000000000000000000000000000000000000000000000000000000000000000000000000000000000000000000000000000000000000000000000000000000000000000000000000000000000000000000000000000000000000000000000000000000000083020000808405500000808203b642a056e81f171bcc55a6ff8345e692c0f86e5b48e01b996cadc001622fb5e363b421880102030405060708c0c0",
        "lastblockhash" : "0x66440b215f6502de6782670e45f4cc15261b5de7ffd392001c36ba38dbd84803",
        "network" : "Byzantium",
        "postState" : {
            "0x2adc25665018aa1fe0e6bc666dac8fc2697ff9ba" : {
                "balance" : "0x29a2241af62ca2e4",
                "code" : "",
                "nonce" : "0x00",
                "storage" : {
                }
            },
            "0xa94f5374fce5edbc8e2a8697c15331677e6ebf0b" : {
                "balance" : "0x174876451c",
                "code" : "",
                "nonce" : "0x01",
                "storage" : {
                }
            },
            "0xabcdabcdabcdabcdabcdabcdabcdabcdabcdabcd" : {
                "balance" : "0x174876e800",
                "code" : "0x0061736d01000000010e0360017f017f60027f7f0060000002380208657468657265756d1367657445787465726e616c436f646553697a65000008657468657265756d0c73746f7261676553746f72650001030201020503010001071102066d656d6f72790200046d61696e00020a14011200412041c00010003602004100412010010b0b1b010041c0000b14deadbeef00000000000000000000000000000000",
                "nonce" : "0x00",
                "storage" : {
                    "0x00" : "0x0800000000000000000000000000000000000000000000000000000000000000"
                }
            },
            "0xdeadbeef00000000000000000000000000000000" : {
                "balance" : "0x174876e800",
                "code" : "0x0061736d01000000",
                "nonce" : "0x00",
                "storage" : {
                }
            }
        },
        "pre" : {
            "0xa94f5374fce5edbc8e2a8697c15331677e6ebf0b" : {
                "balance" : "0x174876e800",
                "code" : "",
                "nonce" : "0x00",
                "storage" : {
                }
            },
            "0xabcdabcdabcdabcdabcdabcdabcdabcdabcdabcd" : {
                "balance" : "0x174876e800",
                "code" : "0x0061736d01000000010e0360017f017f60027f7f0060000002380208657468657265756d1367657445787465726e616c436f646553697a65000008657468657265756d0c73746f7261676553746f72650001030201020503010001071102066d656d6f72790200046d61696e00020a14011200412041c00010003602004100412010010b0b1b010041c0000b14deadbeef00000000000000000000000000000000",
                "nonce" : "0x00",
                "storage" : {
                }
            },
            "0xdeadbeef00000000000000000000000000000000" : {
                "balance" : "0x174876e800",
                "code" : "0x0061736d01000000",
                "nonce" : "0x00",
                "storage" : {
                }
            }
        },
        "sealEngine" : "NoProof"
    }
}