{
    "getExternalBalance_d0g0v0_Byzantium" : {
        "_info" : {
            "comment" : "",
            "filledwith" : "testeth 1.5.0-alpha.6",
            "lllcversion" : "Version: 0.5.0-develop.2018.11.8+commit.20481055.Linux.g++",
            "source" : "src/BlockchainTestsFiller/GeneralStateTests/stEWASMTests/getExternalBalance_d0g0v0Filler.json",
            "sourceHash" : "62da29c2839e983b07a9ad20dd107db371fb0fae93fa073f15ef07568d885150"
        },
        "blocks" : [
            {
                "blockHeader" : {
                    "bloom" : "0x00000000000000000000000000000000000000000000000000000000000000000000000000000000000000000000000000000000000000000000000000000000000000000000000000000000000000000000000000000000000000000000000000000000000000000000000000000000000000000000000000000000000000000000000000000000000000000000000000000000000000000000000000000000000000000000000000000000000000000000000000000000000000000000000000000000000000000000000000000000000000000000000000000000000000000000000000000000000000000000000000000000000000000000000000000000",
                    "coinbase" : "0x2adc25665018aa1fe0e6bc666dac8fc2697ff9ba",
                    "difficulty" : "0x020000",
                    "extraData" : "",
                    "gasLimit" : "0x05500000",
                    "gasUsed" : "0xa1ba",
                    "hash" : "0xc1e8ff0d2315df6492cabaaf79914a4fc1b4fa503ccacc946ceef9735dffd13e",
                    "mixHash" : "0x0000000000000000000000000000000000000000000000000000000000000000",
                    "nonce" : "0x0000000000000000",
                    "number" : "0x01",
                    "parentHash" : "0x98f0d1448d6378ca1a5cb7485582793b582dbb88fa7138b419beb309153da29a",
                    "receiptTrie" : "0x64f10426af1989984733abed622ae5a279d1ba6351d7e39b6ca0d372069ef2ab",
                    "stateRoot" : "0x477a6b8eda1006a8936730de3c73f6c67fb1c3c13863374aa635405692d6196c",
                    "timestamp" : "0x03e8",
                    "transactionsTrie" : "0x5bd1a2ebf4e314b21bbf41328304c4bd0faff6be76f51cee8a13361949c39335",
                    "uncleHash" : "0x1dcc4de8dec75d7aab85b567b6ccd41ad312451b948a7413f0a142fd40d49347"
                },
                "rlp" : "0xf90260f901f8a098f0d1448d6378ca1a5cb7485582793b582dbb88fa7138b419beb309153da29aa01dcc4de8dec75d7aab85b567b6ccd41ad312451b948a7413f0a142fd40d49347942adc25665018aa1fe0e6bc666dac8fc2697ff9baa0477a6b8eda1006a8936730de3c73f6c67fb1c3c13863374aa635405692d6196ca05bd1a2ebf4e314b21bbf41328304c4bd0faff6be76f51cee8a13361949c39335a064f10426af1989984733abed622ae5a279d1ba6351d7e39b6ca0d372069ef2abb90100000000000000000000000000000000000000000000000000000000000000000000000000000000000000000000000000000000000000000000000000000000000000000000000000000000000000000000000000000000000000000000000000000000000000000000000000000000000000000000000000000000000000000000000000000000000000000000000000000000000000000000000000000000000000000000000000000000000000000000000000000000000000000000000000000000000000000000000000000000000000000000000000000000000000000000000000000000000000000000000000000000000000000000000000000000008302000001840550000082a1ba8203e880a00000000000000000000000000000000000000000000000000000000000000000880000000000000000f862f8608001836acfc094deadbeef0000000000000000000000000000000080801ba0a21087accdb027346ee8b55298ff57617d9cad3603a3574972ac11ec9446a1a3a05d1d80da82d8318ba637f279d6ce3a891e72e53869465d37021e6ac11308d4e0c0",
                "transactions" : [
                    {
                        "data" : "0x",
                        "gasLimit" : "0x6acfc0",
                        "gasPrice" : "0x01",
                        "nonce" : "0x00",
                        "r" : "0xa21087accdb027346ee8b55298ff57617d9cad3603a3574972ac11ec9446a1a3",
                        "s" : "0x5d1d80da82d8318ba637f279d6ce3a891e72e53869465d37021e6ac11308d4e0",
                        "to" : "0xdeadbeef00000000000000000000000000000000",
                        "v" : "0x1b",
                        "value" : "0x00"
                    }
                ],
                "uncleHeaders" : [
                ]
            }
        ],
        "genesisBlockHeader" : {
            "bloom" : "0x00000000000000000000000000000000000000000000000000000000000000000000000000000000000000000000000000000000000000000000000000000000000000000000000000000000000000000000000000000000000000000000000000000000000000000000000000000000000000000000000000000000000000000000000000000000000000000000000000000000000000000000000000000000000000000000000000000000000000000000000000000000000000000000000000000000000000000000000000000000000000000000000000000000000000000000000000000000000000000000000000000000000000000000000000000000",
            "coinbase" : "0x2adc25665018aa1fe0e6bc666dac8fc2697ff9ba",
            "difficulty" : "0x020000",
            "extraData" : "0x42",
            "gasLimit" : "0x05500000",
            "gasUsed" : "0x00",
            "hash" : "0x98f0d1448d6378ca1a5cb7485582793b582dbb88fa7138b419beb309153da29a",
            "mixHash" : "0x56e81f171bcc55a6ff8345e692c0f86e5b48e01b996cadc001622fb5e363b421",
            "nonce" : "0x0102030405060708",
            "number" : "0x00",
            "parentHash" : "0x0000000000000000000000000000000000000000000000000000000000000000",
            "receiptTrie" : "0x56e81f171bcc55a6ff8345e692c0f86e5b48e01b996cadc001622fb5e363b421",
            "stateRoot" : "0x272bc992e44dcafc2ed35367319e1b88cc5ba819446ec4d66760c0fb9328c40e",
            "timestamp" : "0x03b6",
            "transactionsTrie" : "0x56e81f171bcc55a6ff8345e692c0f86e5b48e01b996cadc001622fb5e363b421",
            "uncleHash" : "0x1dcc4de8dec75d7aab85b567b6ccd41ad312451b948a7413f0a142fd40d49347"
        },
        "genesisRLP" : "0xf901fbf901f6a00000000000000000000000000000000000000000000000000000000000000000a01dcc4de8dec75d7aab85b567b6ccd41ad312451b948a7413f0a142fd40d49347942adc25665018aa1fe0e6bc666dac8fc2697ff9baa0272bc992e44dcafc2ed35367319e1b88cc5ba819446ec4d66760c0fb9328c40ea056e81f171bcc55a6ff8345e692c0f86e5b48e01b996cadc001622fb5e363b421a056e81f171bcc55a6ff8345e692c0f86e5b48e01b996cadc001622fb5e363b421b901000000000000000000000000000000000000000000000000000000000000000000000000000000000000000000000000000000000000000000000000000000000000000000000000000000000000000000000000000000000000000000000000000000000000000000000000000000000000000000000000000000000000000000000000000000000000000000000000000000000000000000000000000000000000000000000000000000000000000000000000000000000000000000000000000000000000000000000000000000000000000000000000000000000000000000000000000000000000000000000000000000000000000000000000000000000083020000808405500000808203b642a056e81f171bcc55a6ff8345e692c0f86e5b48e01b996cadc001622fb5e363b421880102030405060708c0c0",
        "lastblockhash" : "0xc1e8ff0d2315df6492cabaaf79914a4fc1b4fa503ccacc946ceef9735dffd13e",
        "network" : "Byzantium",
        "postState" : {
            "0x2adc25665018aa1fe0e6bc666dac8fc2697ff9ba" : {
                "balance" : "0x29a2241af62ca1ba",
                "code" : "",
                "nonce" : "0x00",
                "storage" : {
                }
            },
            "0xa94f5374fce5edbc8e2a8697c15331677e6ebf0b" : {
                "balance" : "0x1748764646",
                "code" : "",
                "nonce" : "0x01",
                "storage" : {
                }
            },
            "0xdeadbeef00000000000000000000000000000000" : {
                "balance" : "0x174876e800",
                "code" : "0x0061736d01000000010d0360027f7f0060017f00600000024d0308657468657265756d1267657445787465726e616c42616c616e6365000008657468657265756d0c73746f7261676553746f7265000008657468657265756d0a676574416464726573730001030201020503010001071102066d656d6f72790200046d61696e00030a1701150041001002410041e400100041c80141e40010010b",
                "nonce" : "0x00",
                "storage" : {
                    "0x00" : "0xe8764817000000000000000000000000000000000000000000000000000000"
                }
            }
        },
        "pre" : {
            "0xa94f5374fce5edbc8e2a8697c15331677e6ebf0b" : {
                "balance" : "0x174876e800",
                "code" : "",
                "nonce" : "0x00",
                "storage" : {
                }
            },
            "0xdeadbeef00000000000000000000000000000000" : {
                "balance" : "0x174876e800",
                "code" : "0x0061736d01000000010d0360027f7f0060017f00600000024d0308657468657265756d1267657445787465726e616c42616c616e6365000008657468657265756d0c73746f7261676553746f7265000008657468657265756d0a676574416464726573730001030201020503010001071102066d656d6f72790200046d61696e00030a1701150041001002410041e400100041c80141e40010010b",
                "nonce" : "0x00",
                "storage" : {
                }
            }
        },
        "sealEngine" : "NoProof"
    }
}