{
    "getGasLeftUseAllGas_d0g0v0_Byzantium" : {
        "_info" : {
            "comment" : "",
            "filledwith" : "testeth 1.5.0-alpha.6",
            "lllcversion" : "Version: 0.5.0-develop.2018.11.8+commit.20481055.Linux.g++",
            "source" : "src/BlockchainTestsFiller/GeneralStateTests/stEWASMTests/getGasLeftUseAllGas_d0g0v0Filler.json",
            "sourceHash" : "050f7347cdd714ab300158d2d87062491903283d6185bb83b70809b04aa513b8"
        },
        "blocks" : [
            {
                "blockHeader" : {
                    "bloom" : "0x00000000000000000000000000000000000000000000000000000000000000000000000000000000000000000000000000000000000000000000000000000000000000000000000000000000000000000000000000000000000000000000000000000000000000000000000000000000000000000000000000000000000000000000000000000000000000000000000000000000000000000000000000000000000000000000000000000000000000000000000000000000000000000000000000000000000000000000000000000000000000000000000000000000000000000000000000000000000000000000000000000000000000000000000000000000",
                    "coinbase" : "0x2adc25665018aa1fe0e6bc666dac8fc2697ff9ba",
                    "difficulty" : "0x020000",
                    "extraData" : "",
                    "gasLimit" : "0x05500000",
                    "gasUsed" : "0x500000",
                    "hash" : "0x03a11b4ab285bd1620156a3e07f6217dd46986b87164cac1699f42a3cc82c9be",
                    "mixHash" : "0x0000000000000000000000000000000000000000000000000000000000000000",
                    "nonce" : "0x0000000000000000",
                    "number" : "0x01",
                    "parentHash" : "0xa3c89ef8ba601d6bfecbdda0f95b2b257e4b011fb66e45b3290b1a4399a5c579",
                    "receiptTrie" : "0xc24a2e6f9881e28fa498da718dbf516fc0bfc5ecd364bc4edd30d98a7874e2ae",
                    "stateRoot" : "0xc83aaed3448d1200ebdcf5f72cba95e1d86d086c500055d6bd5a422a9e4e9b98",
                    "timestamp" : "0x03e8",
                    "transactionsTrie" : "0x82d32c39f6a49762ebe3b29259c8f263e2735713a1245f9ea7ef7a4575981d0f",
                    "uncleHash" : "0x1dcc4de8dec75d7aab85b567b6ccd41ad312451b948a7413f0a142fd40d49347"
                },
                "rlp" : "0xf90261f901f9a0a3c89ef8ba601d6bfecbdda0f95b2b257e4b011fb66e45b3290b1a4399a5c579a01dcc4de8dec75d7aab85b567b6ccd41ad312451b948a7413f0a142fd40d49347942adc25665018aa1fe0e6bc666dac8fc2697ff9baa0c83aaed3448d1200ebdcf5f72cba95e1d86d086c500055d6bd5a422a9e4e9b98a082d32c39f6a49762ebe3b29259c8f263e2735713a1245f9ea7ef7a4575981d0fa0c24a2e6f9881e28fa498da718dbf516fc0bfc5ecd364bc4edd30d98a7874e2aeb901000000000000000000000000000000000000000000000000000000000000000000000000000000000000000000000000000000000000000000000000000000000000000000000000000000000000000000000000000000000000000000000000000000000000000000000000000000000000000000000000000000000000000000000000000000000000000000000000000000000000000000000000000000000000000000000000000000000000000000000000000000000000000000000000000000000000000000000000000000000000000000000000000000000000000000000000000000000000000000000000000000000000000000000000000000000083020000018405500000835000008203e880a00000000000000000000000000000000000000000000000000000000000000000880000000000000000f862f86080018350000094b94f5374fce5edbc8e2a8697c15331677e6ebf0b80801ca07d0243352d8abd1de483feac582ce5590e8168f192129f5decbfeb2e8b498ba9a04c570154c3b7487b2ce90daf1a92ffba7a3a4f4afad9e3e6811f5257a9793056c0",
                "transactions" : [
                    {
                        "data" : "0x",
                        "gasLimit" : "0x500000",
                        "gasPrice" : "0x01",
                        "nonce" : "0x00",
                        "r" : "0x7d0243352d8abd1de483feac582ce5590e8168f192129f5decbfeb2e8b498ba9",
                        "s" : "0x4c570154c3b7487b2ce90daf1a92ffba7a3a4f4afad9e3e6811f5257a9793056",
                        "to" : "0xb94f5374fce5edbc8e2a8697c15331677e6ebf0b",
                        "v" : "0x1c",
                        "value" : "0x00"
                    }
                ],
                "uncleHeaders" : [
                ]
            }
        ],
        "genesisBlockHeader" : {
            "bloom" : "0x00000000000000000000000000000000000000000000000000000000000000000000000000000000000000000000000000000000000000000000000000000000000000000000000000000000000000000000000000000000000000000000000000000000000000000000000000000000000000000000000000000000000000000000000000000000000000000000000000000000000000000000000000000000000000000000000000000000000000000000000000000000000000000000000000000000000000000000000000000000000000000000000000000000000000000000000000000000000000000000000000000000000000000000000000000000",
            "coinbase" : "0x2adc25665018aa1fe0e6bc666dac8fc2697ff9ba",
            "difficulty" : "0x020000",
            "extraData" : "0x42",
            "gasLimit" : "0x05500000",
            "gasUsed" : "0x00",
            "hash" : "0xa3c89ef8ba601d6bfecbdda0f95b2b257e4b011fb66e45b3290b1a4399a5c579",
            "mixHash" : "0x56e81f171bcc55a6ff8345e692c0f86e5b48e01b996cadc001622fb5e363b421",
            "nonce" : "0x0102030405060708",
            "number" : "0x00",
            "parentHash" : "0x0000000000000000000000000000000000000000000000000000000000000000",
            "receiptTrie" : "0x56e81f171bcc55a6ff8345e692c0f86e5b48e01b996cadc001622fb5e363b421",
            "stateRoot" : "0xd1233b27e624be633a4da762bc178941a1d819945d5409313de31367c65c20b9",
            "timestamp" : "0x03b6",
            "transactionsTrie" : "0x56e81f171bcc55a6ff8345e692c0f86e5b48e01b996cadc001622fb5e363b421",
            "uncleHash" : "0x1dcc4de8dec75d7aab85b567b6ccd41ad312451b948a7413f0a142fd40d49347"
        },
        "genesisRLP" : "0xf901fbf901f6a00000000000000000000000000000000000000000000000000000000000000000a01dcc4de8dec75d7aab85b567b6ccd41ad312451b948a7413f0a142fd40d49347942adc25665018aa1fe0e6bc666dac8fc2697ff9baa0d1233b27e624be633a4da762bc178941a1d819945d5409313de31367c65c20b9a056e81f171bcc55a6ff8345e692c0f86e5b48e01b996cadc001622fb5e363b421a056e81f171bcc55a6ff8345e692c0f86e5b48e01b996cadc001622fb5e363b421b901000000000000000000000000000000000000000000000000000000000000000000000000000000000000000000000000000000000000000000000000000000000000000000000000000000000000000000000000000000000000000000000000000000000000000000000000000000000000000000000000000000000000000000000000000000000000000000000000000000000000000000000000000000000000000000000000000000000000000000000000000000000000000000000000000000000000000000000000000000000000000000000000000000000000000000000000000000000000000000000000000000000000000000000000000000000083020000808405500000808203b642a056e81f171bcc55a6ff8345e692c0f86e5b48e01b996cadc001622fb5e363b421880102030405060708c0c0",
        "lastblockhash" : "0x03a11b4ab285bd1620156a3e07f6217dd46986b87164cac1699f42a3cc82c9be",
        "network" : "Byzantium",
        "postState" : {
            "0x2adc25665018aa1fe0e6bc666dac8fc2697ff9ba" : {
                "balance" : "0x29a2241af67c0000",
                "code" : "",
                "nonce" : "0x00",
                "storage" : {
                }
            },
            "0xa94f5374fce5edbc8e2a8697c15331677e6ebf0b" : {
                "balance" : "0x174826e800",
                "code" : "",
                "nonce" : "0x01",
                "storage" : {
                }
            },
            "0xb94f5374fce5edbc8e2a8697c15331677e6ebf0b" : {
                "balance" : "0x174876e800",
                "code" : "0x0061736d0100000001110460027f7f006000017e60017e0060000002410308657468657265756d0c73746f7261676553746f7265000008657468657265756d0a6765744761734c656674000108657468657265756d067573654761730002030201030503010001071102046d61696e0003066d656d6f727902000a1801160042f8dbbe021002412010013703004100412010000b",
                "nonce" : "0x00",
                "storage" : {
                }
            }
        },
        "pre" : {
            "0xa94f5374fce5edbc8e2a8697c15331677e6ebf0b" : {
                "balance" : "0x174876e800",
                "code" : "",
                "nonce" : "0x00",
                "storage" : {
                }
            },
            "0xb94f5374fce5edbc8e2a8697c15331677e6ebf0b" : {
                "balance" : "0x174876e800",
                "code" : "0x0061736d0100000001110460027f7f006000017e60017e0060000002410308657468657265756d0c73746f7261676553746f7265000008657468657265756d0a6765744761734c656674000108657468657265756d067573654761730002030201030503010001071102046d61696e0003066d656d6f727902000a1801160042f8dbbe021002412010013703004100412010000b",
                "nonce" : "0x00",
                "storage" : {
                }
            }
        },
        "sealEngine" : "NoProof"
    }
}