{
    "getTxOrigin_d0g0v0_Byzantium" : {
        "_info" : {
            "comment" : "",
            "filledwith" : "testeth 1.5.0-alpha.6",
            "lllcversion" : "Version: 0.5.0-develop.2018.11.8+commit.20481055.Linux.g++",
            "source" : "src/BlockchainTestsFiller/GeneralStateTests/stEWASMTests/getTxOrigin_d0g0v0Filler.json",
            "sourceHash" : "9a56da7f105144012045fd20eba7d1d44786203b561092cf93cfc1dee06046bf"
        },
        "blocks" : [
            {
                "blockHeader" : {
                    "bloom" : "0x00000000000000000000000000000000000000000000000000000000000000000000000000000000000000000000000000000000000000000000000000000000000000000000000000000000000000000000000000000000000000000000000000000000000000000000000000000000000000000000000000000000000000000000000000000000000000000000000000000000000000000000000000000000000000000000000000000000000000000000000000000000000000000000000000000000000000000000000000000000000000000000000000000000000000000000000000000000000000000000000000000000000000000000000000000000",
                    "coinbase" : "0x2adc25665018aa1fe0e6bc666dac8fc2697ff9ba",
                    "difficulty" : "0x020000",
                    "extraData" : "",
                    "gasLimit" : "0x05500000",
                    "gasUsed" : "0xa0b2",
                    "hash" : "0xaecd8142f5f0fd83f881ef8cbf28e45227cfcc6c9b53755321dc81ffa60b18c9",
                    "mixHash" : "0x0000000000000000000000000000000000000000000000000000000000000000",
                    "nonce" : "0x0000000000000000",
                    "number" : "0x01",
                    "parentHash" : "0x99a045150bee1b611c4b878e54a473a9d0bdd017ab1599a66552d96ffd818387",
                    "receiptTrie" : "0xfd979275362ef9c5fbd5709164e16351e8b007d39badd3d4ea8d3fa895cd684f",
                    "stateRoot" : "0x1a000eaacc13c71a240dab9d6d49b942d76efff58977e344eef78b582cdd346d",
                    "timestamp" : "0x03e8",
                    "transactionsTrie" : "0x544ce9c019a2f652c4bd2a7feb8be343c5012987e064fd4edad55b72ed4d57b6",
                    "uncleHash" : "0x1dcc4de8dec75d7aab85b567b6ccd41ad312451b948a7413f0a142fd40d49347"
                },
                "rlp" : "0xf90263f901f8a099a045150bee1b611c4b878e54a473a9d0bdd017ab1599a66552d96ffd818387a01dcc4de8dec75d7aab85b567b6ccd41ad312451b948a7413f0a142fd40d49347942adc25665018aa1fe0e6bc666dac8fc2697ff9baa01a000eaacc13c71a240dab9d6d49b942d76efff58977e344eef78b582cdd346da0544ce9c019a2f652c4bd2a7feb8be343c5012987e064fd4edad55b72ed4d57b6a0fd979275362ef9c5fbd5709164e16351e8b007d39badd3d4ea8d3fa895cd684fb90100000000000000000000000000000000000000000000000000000000000000000000000000000000000000000000000000000000000000000000000000000000000000000000000000000000000000000000000000000000000000000000000000000000000000000000000000000000000000000000000000000000000000000000000000000000000000000000000000000000000000000000000000000000000000000000000000000000000000000000000000000000000000000000000000000000000000000000000000000000000000000000000000000000000000000000000000000000000000000000000000000000000000000000000000000000008302000001840550000082a0b28203e880a00000000000000000000000000000000000000000000000000000000000000000880000000000000000f865f8638001840500000194deadbeef000000000000000000000000000000008082ffff1ba04fdc8af8d0b7491007060a5ec0d354aa4244a6a0281dfe1bd9323004393098d4a024f0961320b1a07c63bb5eab1b6b1051bf51ce034068ee76556856d61b37570dc0",
                "transactions" : [
                    {
                        "data" : "0xffff",
                        "gasLimit" : "0x05000001",
                        "gasPrice" : "0x01",
                        "nonce" : "0x00",
                        "r" : "0x4fdc8af8d0b7491007060a5ec0d354aa4244a6a0281dfe1bd9323004393098d4",
                        "s" : "0x24f0961320b1a07c63bb5eab1b6b1051bf51ce034068ee76556856d61b37570d",
                        "to" : "0xdeadbeef00000000000000000000000000000000",
                        "v" : "0x1b",
                        "value" : "0x00"
                    }
                ],
                "uncleHeaders" : [
                ]
            }
        ],
        "genesisBlockHeader" : {
            "bloom" : "0x00000000000000000000000000000000000000000000000000000000000000000000000000000000000000000000000000000000000000000000000000000000000000000000000000000000000000000000000000000000000000000000000000000000000000000000000000000000000000000000000000000000000000000000000000000000000000000000000000000000000000000000000000000000000000000000000000000000000000000000000000000000000000000000000000000000000000000000000000000000000000000000000000000000000000000000000000000000000000000000000000000000000000000000000000000000",
            "coinbase" : "0x2adc25665018aa1fe0e6bc666dac8fc2697ff9ba",
            "difficulty" : "0x020000",
            "extraData" : "0x42",
            "gasLimit" : "0x05500000",
            "gasUsed" : "0x00",
            "hash" : "0x99a045150bee1b611c4b878e54a473a9d0bdd017ab1599a66552d96ffd818387",
            "mixHash" : "0x56e81f171bcc55a6ff8345e692c0f86e5b48e01b996cadc001622fb5e363b421",
            "nonce" : "0x0102030405060708",
            "number" : "0x00",
            "parentHash" : "0x0000000000000000000000000000000000000000000000000000000000000000",
            "receiptTrie" : "0x56e81f171bcc55a6ff8345e692c0f86e5b48e01b996cadc001622fb5e363b421",
            "stateRoot" : "0xe34b1b100e58e246bd84bedc47131eda47560491c14f6496233d458fd2331dab",
            "timestamp" : "0x03b6",
            "transactionsTrie" : "0x56e81f171bcc55a6ff8345e692c0f86e5b48e01b996cadc001622fb5e363b421",
            "uncleHash" : "0x1dcc4de8dec75d7aab85b567b6ccd41ad312451b948a7413f0a142fd40d49347"
        },
        "genesisRLP" : "0xf901fbf901f6a00000000000000000000000000000000000000000000000000000000000000000a01dcc4de8dec75d7aab85b567b6ccd41ad312451b948a7413f0a142fd40d49347942adc25665018aa1fe0e6bc666dac8fc2697ff9baa0e34b1b100e58e246bd84bedc47131eda47560491c14f6496233d458fd2331daba056e81f171bcc55a6ff8345e692c0f86e5b48e01b996cadc001622fb5e363b421a056e81f171bcc55a6ff8345e692c0f86e5b48e01b996cadc001622fb5e363b421b901000000000000000000000000000000000000000000000000000000000000000000000000000000000000000000000000000000000000000000000000000000000000000000000000000000000000000000000000000000000000000000000000000000000000000000000000000000000000000000000000000000000000000000000000000000000000000000000000000000000000000000000000000000000000000000000000000000000000000000000000000000000000000000000000000000000000000000000000000000000000000000000000000000000000000000000000000000000000000000000000000000000000000000000000000000000083020000808405500000808203b642a056e81f171bcc55a6ff8345e692c0f86e5b48e01b996cadc001622fb5e363b421880102030405060708c0c0",
        "lastblockhash" : "0xaecd8142f5f0fd83f881ef8cbf28e45227cfcc6c9b53755321dc81ffa60b18c9",
        "network" : "Byzantium",
        "postState" : {
            "0x2adc25665018aa1fe0e6bc666dac8fc2697ff9ba" : {
                "balance" : "0x29a2241af62ca0b2",
                "code" : "",
                "nonce" : "0x00",
                "storage" : {
                }
            },
            "0xa94f5374fce5edbc8e2a8697c15331677e6ebf0b" : {
                "balance" : "0x174876474e",
                "code" : "",
                "nonce" : "0x01",
                "storage" : {
                }
            },
            "0xdeadbeef00000000000000000000000000000000" : {
                "balance" : "0x174876e800",
                "code" : "0x0061736d01000000010d0360017f0060027f7f0060000002300208657468657265756d0b67657454784f726967696e000008657468657265756d0c73746f7261676553746f72650001030201020503010001071102066d656d6f72790200046d61696e00020a0f010d004100100041e400410010010b",
                "nonce" : "0x00",
                "storage" : {
                    "0x00" : "0xa94f5374fce5edbc8e2a8697c15331677e6ebf0b000000000000000000000000"
                }
            }
        },
        "pre" : {
            "0xa94f5374fce5edbc8e2a8697c15331677e6ebf0b" : {
                "balance" : "0x174876e800",
                "code" : "",
                "nonce" : "0x00",
                "storage" : {
                }
            },
            "0xdeadbeef00000000000000000000000000000000" : {
                "balance" : "0x174876e800",
                "code" : "0x0061736d01000000010d0360017f0060027f7f0060000002300208657468657265756d0b67657454784f726967696e000008657468657265756d0c73746f7261676553746f72650001030201020503010001071102066d656d6f72790200046d61696e00020a0f010d004100100041e400410010010b",
                "nonce" : "0x00",
                "storage" : {
                }
            }
        },
        "sealEngine" : "NoProof"
    }
}