{
    "initMalformedBytecodeMissingMemoryExport_d0g0v0_Byzantium" : {
        "_info" : {
            "comment" : "",
            "filledwith" : "testeth 1.5.0-alpha.6",
            "lllcversion" : "Version: 0.5.0-develop.2018.11.8+commit.20481055.Linux.g++",
            "source" : "src/BlockchainTestsFiller/GeneralStateTests/stEWASMTests/initMalformedBytecodeMissingMemoryExport_d0g0v0Filler.json",
            "sourceHash" : "a8318cd61531da9f1d929a19bf207136b9d25fff612f5e8eb9a53f0983cf6056"
        },
        "blocks" : [
            {
                "blockHeader" : {
                    "bloom" : "0x00000000000000000000000000000000000000000000000000000000000000000000000000000000000000000000000000000000000000000000000000000000000000000000000000000000000000000000000000000000000000000000000000000000000000000000000000000000000000000000000000000000000000000000000000000000000000000000000000000000000000000000000000000000000000000000000000000000000000000000000000000000000000000000000000000000000000000000000000000000000000000000000000000000000000000000000000000000000000000000000000000000000000000000000000000000",
                    "coinbase" : "0x2adc25665018aa1fe0e6bc666dac8fc2697ff9ba",
                    "difficulty" : "0x020000",
                    "extraData" : "",
                    "gasLimit" : "0x05500000",
                    "gasUsed" : "0x04ec64e6",
                    "hash" : "0x40b31d0cce72d423c65b4c1414f93fe5f520f125ee1a1a8547e6bb8285c627b3",
                    "mixHash" : "0x0000000000000000000000000000000000000000000000000000000000000000",
                    "nonce" : "0x0000000000000000",
                    "number" : "0x01",
                    "parentHash" : "0x826b6bb8f6f3a6e960dcdabe0c9bf2d4a8583c830eaf4f6732db27f3727244b5",
                    "receiptTrie" : "0xb3589b3789852bf7b0a4c6978978d17f10a2ea14692a6bd5e841d489436a5c1c",
                    "stateRoot" : "0xd42938c855f589aad28d1f1216b93dda701ab52255b54b7b8c2e987546bf1d50",
                    "timestamp" : "0x03e8",
                    "transactionsTrie" : "0x882b1c358a1d87f01fabb237a81abe5a95042cf80da82598bd07e9872acb8711",
                    "uncleHash" : "0x1dcc4de8dec75d7aab85b567b6ccd41ad312451b948a7413f0a142fd40d49347"
                },
                "rlp" : "0xf90263f901faa0826b6bb8f6f3a6e960dcdabe0c9bf2d4a8583c830eaf4f6732db27f3727244b5a01dcc4de8dec75d7aab85b567b6ccd41ad312451b948a7413f0a142fd40d49347942adc25665018aa1fe0e6bc666dac8fc2697ff9baa0d42938c855f589aad28d1f1216b93dda701ab52255b54b7b8c2e987546bf1d50a0882b1c358a1d87f01fabb237a81abe5a95042cf80da82598bd07e9872acb8711a0b3589b3789852bf7b0a4c6978978d17f10a2ea14692a6bd5e841d489436a5c1cb9010000000000000000000000000000000000000000000000000000000000000000000000000000000000000000000000000000000000000000000000000000000000000000000000000000000000000000000000000000000000000000000000000000000000000000000000000000000000000000000000000000000000000000000000000000000000000000000000000000000000000000000000000000000000000000000000000000000000000000000000000000000000000000000000000000000000000000000000000000000000000000000000000000000000000000000000000000000000000000000000000000000000000000000000000000000000830200000184055000008404ec64e68203e880a00000000000000000000000000000000000000000000000000000000000000000880000000000000000f863f8618001840500000194abcdabcdabcdabcdabcdabcdabcdabcdabcdabcd80801ba0f807fae80e9698f65191da8f5313e9305935910cf97108e3102867a08513ed56a07b530915faf7b73ed7b8fa11e754b044dc8e9301aa1e635b687ee239fd03ee53c0",
                "transactions" : [
                    {
                        "data" : "0x",
                        "gasLimit" : "0x05000001",
                        "gasPrice" : "0x01",
                        "nonce" : "0x00",
                        "r" : "0xf807fae80e9698f65191da8f5313e9305935910cf97108e3102867a08513ed56",
                        "s" : "0x7b530915faf7b73ed7b8fa11e754b044dc8e9301aa1e635b687ee239fd03ee53",
                        "to" : "0xabcdabcdabcdabcdabcdabcdabcdabcdabcdabcd",
                        "v" : "0x1b",
                        "value" : "0x00"
                    }
                ],
                "uncleHeaders" : [
                ]
            }
        ],
        "genesisBlockHeader" : {
            "bloom" : "0x00000000000000000000000000000000000000000000000000000000000000000000000000000000000000000000000000000000000000000000000000000000000000000000000000000000000000000000000000000000000000000000000000000000000000000000000000000000000000000000000000000000000000000000000000000000000000000000000000000000000000000000000000000000000000000000000000000000000000000000000000000000000000000000000000000000000000000000000000000000000000000000000000000000000000000000000000000000000000000000000000000000000000000000000000000000",
            "coinbase" : "0x2adc25665018aa1fe0e6bc666dac8fc2697ff9ba",
            "difficulty" : "0x020000",
            "extraData" : "0x42",
            "gasLimit" : "0x05500000",
            "gasUsed" : "0x00",
            "hash" : "0x826b6bb8f6f3a6e960dcdabe0c9bf2d4a8583c830eaf4f6732db27f3727244b5",
            "mixHash" : "0x56e81f171bcc55a6ff8345e692c0f86e5b48e01b996cadc001622fb5e363b421",
            "nonce" : "0x0102030405060708",
            "number" : "0x00",
            "parentHash" : "0x0000000000000000000000000000000000000000000000000000000000000000",
            "receiptTrie" : "0x56e81f171bcc55a6ff8345e692c0f86e5b48e01b996cadc001622fb5e363b421",
            "stateRoot" : "0xbc5a4a6a97ee932de32de77ece03c54c7ad8996ed38be5c090bb12f428f995b5",
            "timestamp" : "0x03b6",
            "transactionsTrie" : "0x56e81f171bcc55a6ff8345e692c0f86e5b48e01b996cadc001622fb5e363b421",
            "uncleHash" : "0x1dcc4de8dec75d7aab85b567b6ccd41ad312451b948a7413f0a142fd40d49347"
        },
        "genesisRLP" : "0xf901fbf901f6a00000000000000000000000000000000000000000000000000000000000000000a01dcc4de8dec75d7aab85b567b6ccd41ad312451b948a7413f0a142fd40d49347942adc25665018aa1fe0e6bc666dac8fc2697ff9baa0bc5a4a6a97ee932de32de77ece03c54c7ad8996ed38be5c090bb12f428f995b5a056e81f171bcc55a6ff8345e692c0f86e5b48e01b996cadc001622fb5e363b421a056e81f171bcc55a6ff8345e692c0f86e5b48e01b996cadc001622fb5e363b421b901000000000000000000000000000000000000000000000000000000000000000000000000000000000000000000000000000000000000000000000000000000000000000000000000000000000000000000000000000000000000000000000000000000000000000000000000000000000000000000000000000000000000000000000000000000000000000000000000000000000000000000000000000000000000000000000000000000000000000000000000000000000000000000000000000000000000000000000000000000000000000000000000000000000000000000000000000000000000000000000000000000000000000000000000000000000083020000808405500000808203b642a056e81f171bcc55a6ff8345e692c0f86e5b48e01b996cadc001622fb5e363b421880102030405060708c0c0",
        "lastblockhash" : "0x40b31d0cce72d423c65b4c1414f93fe5f520f125ee1a1a8547e6bb8285c627b3",
        "network" : "Byzantium",
        "postState" : {
            "0x2adc25665018aa1fe0e6bc666dac8fc2697ff9ba" : {
                "balance" : "0x29a2241afb1864e6",
                "code" : "",
                "nonce" : "0x00",
                "storage" : {
                }
            },
            "0xa94f5374fce5edbc8e2a8697c15331677e6ebf0b" : {
                "balance" : "0x17438a831a",
                "code" : "",
                "nonce" : "0x01",
                "storage" : {
                }
            },
            "0xabcdabcdabcdabcdabcdabcdabcdabcdabcdabcd" : {
                "balance" : "0x174876e800",
                "code" : "0x0061736d0100000001110360047f7f7f7f017f60027f7f00600000022b0208657468657265756d06637265617465000008657468657265756d0c73746f7261676553746f72650001030201020503010001071102066d656d6f72790200046d61696e00020a42014001077f410021004120210141c000210241e00021034180012104418002210541c70021062003200420052006200110003602002000200110012002200310010b0b9901030041000b2000000000000000000000000000000000000000000000000000000000000000000041c0000b200000000000000000000000000000000000000000000000000000000000000001004180020b470061736d0100000001090260027f7f0060000002130108657468657265756d0666696e6973680000030201010503010001070801046d61696e00010a0a0108004100410010000b",
                "nonce" : "0x01",
                "storage" : {
                    "0x01" : "0x0100000000000000000000000000000000000000000000000000000000000000"
                }
            }
        },
        "pre" : {
            "0xa94f5374fce5edbc8e2a8697c15331677e6ebf0b" : {
                "balance" : "0x174876e800",
                "code" : "",
                "nonce" : "0x00",
                "storage" : {
                }
            },
            "0xabcdabcdabcdabcdabcdabcdabcdabcdabcdabcd" : {
                "balance" : "0x174876e800",
                "code" : "0x0061736d0100000001110360047f7f7f7f017f60027f7f00600000022b0208657468657265756d06637265617465000008657468657265756d0c73746f7261676553746f72650001030201020503010001071102066d656d6f72790200046d61696e00020a42014001077f410021004120210141c000210241e00021034180012104418002210541c70021062003200420052006200110003602002000200110012002200310010b0b9901030041000b2000000000000000000000000000000000000000000000000000000000000000000041c0000b200000000000000000000000000000000000000000000000000000000000000001004180020b470061736d0100000001090260027f7f0060000002130108657468657265756d0666696e6973680000030201010503010001070801046d61696e00010a0a0108004100410010000b",
                "nonce" : "0x00",
                "storage" : {
                }
            }
        },
        "sealEngine" : "NoProof"
    }
}