{
    "returnDataCopyFullyOOB_d0g0v0_Byzantium" : {
        "_info" : {
            "comment" : "",
            "filledwith" : "testeth 1.5.0-alpha.6",
            "lllcversion" : "Version: 0.5.0-develop.2018.11.8+commit.20481055.Linux.g++",
            "source" : "src/BlockchainTestsFiller/GeneralStateTests/stEWASMTests/returnDataCopyFullyOOB_d0g0v0Filler.json",
            "sourceHash" : "099b61257a344ae8a9a22a8c725f7a6c6f9d740b54d8180e8fa5b4963d3755ea"
        },
        "blocks" : [
            {
                "blockHeader" : {
                    "bloom" : "0x00000000000000000000000000000000000000000000000000000000000000000000000000000000000000000000000000000000000000000000000000000000000000000000000000000000000000000000000000000000000000000000000000000000000000000000000000000000000000000000000000000000000000000000000000000000000000000000000000000000000000000000000000000000000000000000000000000000000000000000000000000000000000000000000000000000000000000000000000000000000000000000000000000000000000000000000000000000000000000000000000000000000000000000000000000000",
                    "coinbase" : "0x2adc25665018aa1fe0e6bc666dac8fc2697ff9ba",
                    "difficulty" : "0x020000",
                    "extraData" : "",
                    "gasLimit" : "0x05500000",
                    "gasUsed" : "0x6acfc0",
                    "hash" : "0x1072be499bc9a7fcccc2f09d6c94fe3e706b89aa5193d357e56eb292bfdd4923",
                    "mixHash" : "0x0000000000000000000000000000000000000000000000000000000000000000",
                    "nonce" : "0x0000000000000000",
                    "number" : "0x01",
                    "parentHash" : "0x784493b02b1ef023c9cc456502b7bfb51e135f726a62b1a18fa642c4862eac35",
                    "receiptTrie" : "0xf5e363cde3e4f35c049a324bc4f12b97d4026a4d3e18175fa175dc877ce185e4",
                    "stateRoot" : "0x525e632cfa9de308afa598d323a1e601a8975a763a7f5beed9429705c3f7fa50",
                    "timestamp" : "0x03e8",
                    "transactionsTrie" : "0x05ddd80b5e3c46aa87d743841f86264cdea27175564d1fac771498761687de1c",
                    "uncleHash" : "0x1dcc4de8dec75d7aab85b567b6ccd41ad312451b948a7413f0a142fd40d49347"
                },
                "rlp" : "0xf90261f901f9a0784493b02b1ef023c9cc456502b7bfb51e135f726a62b1a18fa642c4862eac35a01dcc4de8dec75d7aab85b567b6ccd41ad312451b948a7413f0a142fd40d49347942adc25665018aa1fe0e6bc666dac8fc2697ff9baa0525e632cfa9de308afa598d323a1e601a8975a763a7f5beed9429705c3f7fa50a005ddd80b5e3c46aa87d743841f86264cdea27175564d1fac771498761687de1ca0f5e363cde3e4f35c049a324bc4f12b97d4026a4d3e18175fa175dc877ce185e4b901000000000000000000000000000000000000000000000000000000000000000000000000000000000000000000000000000000000000000000000000000000000000000000000000000000000000000000000000000000000000000000000000000000000000000000000000000000000000000000000000000000000000000000000000000000000000000000000000000000000000000000000000000000000000000000000000000000000000000000000000000000000000000000000000000000000000000000000000000000000000000000000000000000000000000000000000000000000000000000000000000000000000000000000000000000000083020000018405500000836acfc08203e880a00000000000000000000000000000000000000000000000000000000000000000880000000000000000f862f8600401836acfc094deadbeef0000000000000000000000000000000080801ba054fab9c25ddebd47f2c4d9ffe393cfbb4d189067d9957389c7b06ed5bf52b672a03760f513d0faba1640fbdc5def8a3d2d65f508b15eed071e41c4ad84b77a8f29c0",
                "transactions" : [
                    {
                        "data" : "0x",
                        "gasLimit" : "0x6acfc0",
                        "gasPrice" : "0x01",
                        "nonce" : "0x04",
                        "r" : "0x54fab9c25ddebd47f2c4d9ffe393cfbb4d189067d9957389c7b06ed5bf52b672",
                        "s" : "0x3760f513d0faba1640fbdc5def8a3d2d65f508b15eed071e41c4ad84b77a8f29",
                        "to" : "0xdeadbeef00000000000000000000000000000000",
                        "v" : "0x1b",
                        "value" : "0x00"
                    }
                ],
                "uncleHeaders" : [
                ]
            }
        ],
        "genesisBlockHeader" : {
            "bloom" : "0x00000000000000000000000000000000000000000000000000000000000000000000000000000000000000000000000000000000000000000000000000000000000000000000000000000000000000000000000000000000000000000000000000000000000000000000000000000000000000000000000000000000000000000000000000000000000000000000000000000000000000000000000000000000000000000000000000000000000000000000000000000000000000000000000000000000000000000000000000000000000000000000000000000000000000000000000000000000000000000000000000000000000000000000000000000000",
            "coinbase" : "0x2adc25665018aa1fe0e6bc666dac8fc2697ff9ba",
            "difficulty" : "0x020000",
            "extraData" : "0x42",
            "gasLimit" : "0x05500000",
            "gasUsed" : "0x00",
            "hash" : "0x784493b02b1ef023c9cc456502b7bfb51e135f726a62b1a18fa642c4862eac35",
            "mixHash" : "0x56e81f171bcc55a6ff8345e692c0f86e5b48e01b996cadc001622fb5e363b421",
            "nonce" : "0x0102030405060708",
            "number" : "0x00",
            "parentHash" : "0x0000000000000000000000000000000000000000000000000000000000000000",
            "receiptTrie" : "0x56e81f171bcc55a6ff8345e692c0f86e5b48e01b996cadc001622fb5e363b421",
            "stateRoot" : "0x691d6dc50461b8fff2f729eafebf54bee19848e67d393e9de4acb40818e56403",
            "timestamp" : "0x03b6",
            "transactionsTrie" : "0x56e81f171bcc55a6ff8345e692c0f86e5b48e01b996cadc001622fb5e363b421",
            "uncleHash" : "0x1dcc4de8dec75d7aab85b567b6ccd41ad312451b948a7413f0a142fd40d49347"
        },
        "genesisRLP" : "0xf901fbf901f6a00000000000000000000000000000000000000000000000000000000000000000a01dcc4de8dec75d7aab85b567b6ccd41ad312451b948a7413f0a142fd40d49347942adc25665018aa1fe0e6bc666dac8fc2697ff9baa0691d6dc50461b8fff2f729eafebf54bee19848e67d393e9de4acb40818e56403a056e81f171bcc55a6ff8345e692c0f86e5b48e01b996cadc001622fb5e363b421a056e81f171bcc55a6ff8345e692c0f86e5b48e01b996cadc001622fb5e363b421b901000000000000000000000000000000000000000000000000000000000000000000000000000000000000000000000000000000000000000000000000000000000000000000000000000000000000000000000000000000000000000000000000000000000000000000000000000000000000000000000000000000000000000000000000000000000000000000000000000000000000000000000000000000000000000000000000000000000000000000000000000000000000000000000000000000000000000000000000000000000000000000000000000000000000000000000000000000000000000000000000000000000000000000000000000000000083020000808405500000808203b642a056e81f171bcc55a6ff8345e692c0f86e5b48e01b996cadc001622fb5e363b421880102030405060708c0c0",
        "lastblockhash" : "0x1072be499bc9a7fcccc2f09d6c94fe3e706b89aa5193d357e56eb292bfdd4923",
        "network" : "Byzantium",
        "postState" : {
            "0x2adc25665018aa1fe0e6bc666dac8fc2697ff9ba" : {
                "balance" : "0x29a2241af696cfc0",
                "code" : "",
                "nonce" : "0x00",
                "storage" : {
                }
            },
            "0xa94f5374fce5edbc8e2a8697c15331677e6ebf0b" : {
                "balance" : "0x17480c1840",
                "code" : "",
                "nonce" : "0x05",
                "storage" : {
                }
            },
            "0xdeadbeef00000000000000000000000000000000" : {
                "balance" : "0x00",
                "code" : "0x0061736d01000000011c0560057e7f7f7f7f017f6000017f60037f7f7f0060027f7f0060000002600408657468657265756d0463616c6c000008657468657265756d1167657452657475726e4461746153697a65000108657468657265756d0e72657475726e44617461436f7079000208657468657265756d0c73746f7261676553746f72650003030201040503010001071102066d656d6f72790200046d61696e00040a54015201087f410021044120210541c000210641e000210741a0012101418004210320074101360200200142a08d06200341004100410010003602001001210220062002200210022004200610032005200710030b0b1b01004180040b14deadbeef00000000000000000000000000000001",
                "nonce" : "0x00",
                "storage" : {
                }
            },
            "0xdeadbeef00000000000000000000000000000001" : {
                "balance" : "0x00",
                "code" : "0x0061736d0100000001090260027f7f0060000002130108657468657265756d0666696e6973680000030201010503010001071102066d656d6f72790200046d61696e00010a15011301027f4180102100410421012000200110000b0b0b01004180100b04deadbeef",
                "nonce" : "0x00",
                "storage" : {
                }
            }
        },
        "pre" : {
            "0xa94f5374fce5edbc8e2a8697c15331677e6ebf0b" : {
                "balance" : "0x174876e800",
                "code" : "",
                "nonce" : "0x04",
                "storage" : {
                }
            },
            "0xdeadbeef00000000000000000000000000000000" : {
                "balance" : "0x00",
                "code" : "0x0061736d01000000011c0560057e7f7f7f7f017f6000017f60037f7f7f0060027f7f0060000002600408657468657265756d0463616c6c000008657468657265756d1167657452657475726e4461746153697a65000108657468657265756d0e72657475726e44617461436f7079000208657468657265756d0c73746f7261676553746f72650003030201040503010001071102066d656d6f72790200046d61696e00040a54015201087f410021044120210541c000210641e000210741a0012101418004210320074101360200200142a08d06200341004100410010003602001001210220062002200210022004200610032005200710030b0b1b01004180040b14deadbeef00000000000000000000000000000001",
                "nonce" : "0x00",
                "storage" : {
                }
            },
            "0xdeadbeef00000000000000000000000000000001" : {
                "balance" : "0x00",
                "code" : "0x0061736d0100000001090260027f7f0060000002130108657468657265756d0666696e6973680000030201010503010001071102066d656d6f72790200046d61696e00010a15011301027f4180102100410421012000200110000b0b0b01004180100b04deadbeef",
                "nonce" : "0x00",
                "storage" : {
                }
            }
        },
        "sealEngine" : "NoProof"
    }
}