{
    "returnDataCopy_d0g0v0_Byzantium" : {
        "_info" : {
            "comment" : "",
            "filledwith" : "testeth 1.5.0-alpha.6",
            "lllcversion" : "Version: 0.5.0-develop.2018.11.8+commit.20481055.Linux.g++",
            "source" : "src/BlockchainTestsFiller/GeneralStateTests/stEWASMTests/returnDataCopy_d0g0v0Filler.json",
            "sourceHash" : "f650258e1bfae16bd86823690809cd4bd18d3e6b66d0ac72ee48572a9180ad9a"
        },
        "blocks" : [
            {
                "blockHeader" : {
                    "bloom" : "0x00000000000000000000000000000000000000000000000000000000000000000000000000000000000000000000000000000000000000000000000000000000000000000000000000000000000000000000000000000000000000000000000000000000000000000000000000000000000000000000000000000000000000000000000000000000000000000000000000000000000000000000000000000000000000000000000000000000000000000000000000000000000000000000000000000000000000000000000000000000000000000000000000000000000000000000000000000000000000000000000000000000000000000000000000000000",
                    "coinbase" : "0x2adc25665018aa1fe0e6bc666dac8fc2697ff9ba",
                    "difficulty" : "0x020000",
                    "extraData" : "",
                    "gasLimit" : "0x05500000",
                    "gasUsed" : "0xb674",
                    "hash" : "0x9812f2b987aea3a614302b4e74f15089cf5a4392083c1248eff0bd0f72f25f1b",
                    "mixHash" : "0x0000000000000000000000000000000000000000000000000000000000000000",
                    "nonce" : "0x0000000000000000",
                    "number" : "0x01",
                    "parentHash" : "0x6da4f49e9d8c595eb0d69e9ab2a90787fb0b575835ccbc2149509b7329cf2914",
                    "receiptTrie" : "0x74bf8da31ed8238130b1d5b311b5b225b487f4ff8af168887dc85c67ffbc18af",
                    "stateRoot" : "0xcd3eb2f9c0743e43eb71b2055e413acf92b3c76958506856edf526193af2b7c0",
                    "timestamp" : "0x03e8",
                    "transactionsTrie" : "0x05ddd80b5e3c46aa87d743841f86264cdea27175564d1fac771498761687de1c",
                    "uncleHash" : "0x1dcc4de8dec75d7aab85b567b6ccd41ad312451b948a7413f0a142fd40d49347"
                },
                "rlp" : "0xf90260f901f8a06da4f49e9d8c595eb0d69e9ab2a90787fb0b575835ccbc2149509b7329cf2914a01dcc4de8dec75d7aab85b567b6ccd41ad312451b948a7413f0a142fd40d49347942adc25665018aa1fe0e6bc666dac8fc2697ff9baa0cd3eb2f9c0743e43eb71b2055e413acf92b3c76958506856edf526193af2b7c0a005ddd80b5e3c46aa87d743841f86264cdea27175564d1fac771498761687de1ca074bf8da31ed8238130b1d5b311b5b225b487f4ff8af168887dc85c67ffbc18afb90100000000000000000000000000000000000000000000000000000000000000000000000000000000000000000000000000000000000000000000000000000000000000000000000000000000000000000000000000000000000000000000000000000000000000000000000000000000000000000000000000000000000000000000000000000000000000000000000000000000000000000000000000000000000000000000000000000000000000000000000000000000000000000000000000000000000000000000000000000000000000000000000000000000000000000000000000000000000000000000000000000000000000000000000000000000008302000001840550000082b6748203e880a00000000000000000000000000000000000000000000000000000000000000000880000000000000000f862f8600401836acfc094deadbeef0000000000000000000000000000000080801ba054fab9c25ddebd47f2c4d9ffe393cfbb4d189067d9957389c7b06ed5bf52b672a03760f513d0faba1640fbdc5def8a3d2d65f508b15eed071e41c4ad84b77a8f29c0",
                "transactions" : [
                    {
                        "data" : "0x",
                        "gasLimit" : "0x6acfc0",
                        "gasPrice" : "0x01",
                        "nonce" : "0x04",
                        "r" : "0x54fab9c25ddebd47f2c4d9ffe393cfbb4d189067d9957389c7b06ed5bf52b672",
                        "s" : "0x3760f513d0faba1640fbdc5def8a3d2d65f508b15eed071e41c4ad84b77a8f29",
                        "to" : "0xdeadbeef00000000000000000000000000000000",
                        "v" : "0x1b",
                        "value" : "0x00"
                    }
                ],
                "uncleHeaders" : [
                ]
            }
        ],
        "genesisBlockHeader" : {
            "bloom" : "0x00000000000000000000000000000000000000000000000000000000000000000000000000000000000000000000000000000000000000000000000000000000000000000000000000000000000000000000000000000000000000000000000000000000000000000000000000000000000000000000000000000000000000000000000000000000000000000000000000000000000000000000000000000000000000000000000000000000000000000000000000000000000000000000000000000000000000000000000000000000000000000000000000000000000000000000000000000000000000000000000000000000000000000000000000000000",
            "coinbase" : "0x2adc25665018aa1fe0e6bc666dac8fc2697ff9ba",
            "difficulty" : "0x020000",
            "extraData" : "0x42",
            "gasLimit" : "0x05500000",
            "gasUsed" : "0x00",
            "hash" : "0x6da4f49e9d8c595eb0d69e9ab2a90787fb0b575835ccbc2149509b7329cf2914",
            "mixHash" : "0x56e81f171bcc55a6ff8345e692c0f86e5b48e01b996cadc001622fb5e363b421",
            "nonce" : "0x0102030405060708",
            "number" : "0x00",
            "parentHash" : "0x0000000000000000000000000000000000000000000000000000000000000000",
            "receiptTrie" : "0x56e81f171bcc55a6ff8345e692c0f86e5b48e01b996cadc001622fb5e363b421",
            "stateRoot" : "0xd0512933eaa4e56cd666c43ede049b7115100d2c914592937dac7e8884604bb6",
            "timestamp" : "0x03b6",
            "transactionsTrie" : "0x56e81f171bcc55a6ff8345e692c0f86e5b48e01b996cadc001622fb5e363b421",
            "uncleHash" : "0x1dcc4de8dec75d7aab85b567b6ccd41ad312451b948a7413f0a142fd40d49347"
        },
        "genesisRLP" : "0xf901fbf901f6a00000000000000000000000000000000000000000000000000000000000000000a01dcc4de8dec75d7aab85b567b6ccd41ad312451b948a7413f0a142fd40d49347942adc25665018aa1fe0e6bc666dac8fc2697ff9baa0d0512933eaa4e56cd666c43ede049b7115100d2c914592937dac7e8884604bb6a056e81f171bcc55a6ff8345e692c0f86e5b48e01b996cadc001622fb5e363b421a056e81f171bcc55a6ff8345e692c0f86e5b48e01b996cadc001622fb5e363b421b901000000000000000000000000000000000000000000000000000000000000000000000000000000000000000000000000000000000000000000000000000000000000000000000000000000000000000000000000000000000000000000000000000000000000000000000000000000000000000000000000000000000000000000000000000000000000000000000000000000000000000000000000000000000000000000000000000000000000000000000000000000000000000000000000000000000000000000000000000000000000000000000000000000000000000000000000000000000000000000000000000000000000000000000000000000000083020000808405500000808203b642a056e81f171bcc55a6ff8345e692c0f86e5b48e01b996cadc001622fb5e363b421880102030405060708c0c0",
        "lastblockhash" : "0x9812f2b987aea3a614302b4e74f15089cf5a4392083c1248eff0bd0f72f25f1b",
        "network" : "Byzantium",
        "postState" : {
            "0x2adc25665018aa1fe0e6bc666dac8fc2697ff9ba" : {
                "balance" : "0x29a2241af62cb674",
                "code" : "",
                "nonce" : "0x00",
                "storage" : {
                }
            },
            "0xa94f5374fce5edbc8e2a8697c15331677e6ebf0b" : {
                "balance" : "0x174876318c",
                "code" : "",
                "nonce" : "0x05",
                "storage" : {
                }
            },
            "0xdeadbeef00000000000000000000000000000000" : {
                "balance" : "0x174876e800",
                "code" : "0x0061736d01000000011c0560057e7f7f7f7f017f60027f7f006000017f60037f7f7f0060000002600408657468657265756d0463616c6c000008657468657265756d0c73746f7261676553746f7265000108657468657265756d1167657452657475726e4461746153697a65000208657468657265756d0e72657475726e44617461436f70790003030201040503010001071102066d656d6f72790200046d61696e00040a60015e01097f410021004120210141c000210241e0002103418001210441a001210541c00121072003410036020020044100360200200742a08d06200020032004410010003602002001200710011002210820054100200810032002200510010b0b65030041000b14deadbeef000000000000000000000000000000010041200b2000000000000000000000000000000000000000000000000000000000000000010041c0000b200000000000000000000000000000000000000000000000000000000000000002",
                "nonce" : "0x00",
                "storage" : {
                    "0x02" : "0xdeadbeef00000000000000000000000000000000000000000000000000000000"
                }
            },
            "0xdeadbeef00000000000000000000000000000001" : {
                "balance" : "0x00",
                "code" : "0x0061736d0100000001090260027f7f0060000002130108657468657265756d0666696e6973680000030201010503010001071102066d656d6f72790200046d61696e00010a15011301027f4180042100410421012000200110000b0b0b01004180040b04deadbeef",
                "nonce" : "0x00",
                "storage" : {
                }
            }
        },
        "pre" : {
            "0xa94f5374fce5edbc8e2a8697c15331677e6ebf0b" : {
                "balance" : "0x174876e800",
                "code" : "",
                "nonce" : "0x04",
                "storage" : {
                }
            },
            "0xdeadbeef00000000000000000000000000000000" : {
                "balance" : "0x174876e800",
                "code" : "0x0061736d01000000011c0560057e7f7f7f7f017f60027f7f006000017f60037f7f7f0060000002600408657468657265756d0463616c6c000008657468657265756d0c73746f7261676553746f7265000108657468657265756d1167657452657475726e4461746153697a65000208657468657265756d0e72657475726e44617461436f70790003030201040503010001071102066d656d6f72790200046d61696e00040a60015e01097f410021004120210141c000210241e0002103418001210441a001210541c00121072003410036020020044100360200200742a08d06200020032004410010003602002001200710011002210820054100200810032002200510010b0b65030041000b14deadbeef000000000000000000000000000000010041200b2000000000000000000000000000000000000000000000000000000000000000010041c0000b200000000000000000000000000000000000000000000000000000000000000002",
                "nonce" : "0x00",
                "storage" : {
                }
            },
            "0xdeadbeef00000000000000000000000000000001" : {
                "balance" : "0x00",
                "code" : "0x0061736d0100000001090260027f7f0060000002130108657468657265756d0666696e6973680000030201010503010001071102066d656d6f72790200046d61696e00010a15011301027f4180042100410421012000200110000b0b0b01004180040b04deadbeef",
                "nonce" : "0x00",
                "storage" : {
                }
            }
        },
        "sealEngine" : "NoProof"
    }
}