{
    "selfDestruct_d0g0v0_Byzantium" : {
        "_info" : {
            "comment" : "",
            "filledwith" : "testeth 1.5.0-alpha.6",
            "lllcversion" : "Version: 0.5.0-develop.2018.11.8+commit.20481055.Linux.g++",
            "source" : "src/BlockchainTestsFiller/GeneralStateTests/stEWASMTests/selfDestruct_d0g0v0Filler.json",
            "sourceHash" : "6e5e7e96b2155f7f0449d7bdc1d99032e09860485b6fcb78a8d57e44dfcd9b1e"
        },
        "blocks" : [
            {
                "blockHeader" : {
                    "bloom" : "0x00000000000000000000000000000000000000000000000000000000000000000000000000000000000000000000000000000000000000000000000000000000000000000000000000000000000000000000000000000000000000000000000000000000000000000000000000000000000000000000000000000000000000000000000000000000000000000000000000000000000000000000000000000000000000000000000000000000000000000000000000000000000000000000000000000000000000000000000000000000000000000000000000000000000000000000000000000000000000000000000000000000000000000000000000000000",
                    "coinbase" : "0x2adc25665018aa1fe0e6bc666dac8fc2697ff9ba",
                    "difficulty" : "0x020000",
                    "extraData" : "",
                    "gasLimit" : "0x05500000",
                    "gasUsed" : "0x32c9",
                    "hash" : "0x2178144848c7e0fb7a185489c67c7946ab74fb6fa7fc39f073882d3bf32c469e",
                    "mixHash" : "0x0000000000000000000000000000000000000000000000000000000000000000",
                    "nonce" : "0x0000000000000000",
                    "number" : "0x01",
                    "parentHash" : "0xc70b348cef29e4b745683d7338a3911554a48e42f498d35887297773f4319500",
                    "receiptTrie" : "0x2b45ed9a604e7be0845b2b2e8db393eeecfc9c13758c9da8b749ffcc71ada9a7",
                    "stateRoot" : "0xd1ad2f3dee483a557d3152a7a1fbd8473674fcf2b7a074f08bde6b3f552ff580",
                    "timestamp" : "0x03e8",
                    "transactionsTrie" : "0x82d32c39f6a49762ebe3b29259c8f263e2735713a1245f9ea7ef7a4575981d0f",
                    "uncleHash" : "0x1dcc4de8dec75d7aab85b567b6ccd41ad312451b948a7413f0a142fd40d49347"
                },
                "rlp" : "0xf90260f901f8a0c70b348cef29e4b745683d7338a3911554a48e42f498d35887297773f4319500a01dcc4de8dec75d7aab85b567b6ccd41ad312451b948a7413f0a142fd40d49347942adc25665018aa1fe0e6bc666dac8fc2697ff9baa0d1ad2f3dee483a557d3152a7a1fbd8473674fcf2b7a074f08bde6b3f552ff580a082d32c39f6a49762ebe3b29259c8f263e2735713a1245f9ea7ef7a4575981d0fa02b45ed9a604e7be0845b2b2e8db393eeecfc9c13758c9da8b749ffcc71ada9a7b9010000000000000000000000000000000000000000000000000000000000000000000000000000000000000000000000000000000000000000000000000000000000000000000000000000000000000000000000000000000000000000000000000000000000000000000000000000000000000000000000000000000000000000000000000000000000000000000000000000000000000000000000000000000000000000000000000000000000000000000000000000000000000000000000000000000000000000000000000000000000000000000000000000000000000000000000000000000000000000000000000000000000000000000000000000000000830200000184055000008232c98203e880a00000000000000000000000000000000000000000000000000000000000000000880000000000000000f862f86080018350000094b94f5374fce5edbc8e2a8697c15331677e6ebf0b80801ca07d0243352d8abd1de483feac582ce5590e8168f192129f5decbfeb2e8b498ba9a04c570154c3b7487b2ce90daf1a92ffba7a3a4f4afad9e3e6811f5257a9793056c0",
                "transactions" : [
                    {
                        "data" : "0x",
                        "gasLimit" : "0x500000",
                        "gasPrice" : "0x01",
                        "nonce" : "0x00",
                        "r" : "0x7d0243352d8abd1de483feac582ce5590e8168f192129f5decbfeb2e8b498ba9",
                        "s" : "0x4c570154c3b7487b2ce90daf1a92ffba7a3a4f4afad9e3e6811f5257a9793056",
                        "to" : "0xb94f5374fce5edbc8e2a8697c15331677e6ebf0b",
                        "v" : "0x1c",
                        "value" : "0x00"
                    }
                ],
                "uncleHeaders" : [
                ]
            }
        ],
        "genesisBlockHeader" : {
            "bloom" : "0x00000000000000000000000000000000000000000000000000000000000000000000000000000000000000000000000000000000000000000000000000000000000000000000000000000000000000000000000000000000000000000000000000000000000000000000000000000000000000000000000000000000000000000000000000000000000000000000000000000000000000000000000000000000000000000000000000000000000000000000000000000000000000000000000000000000000000000000000000000000000000000000000000000000000000000000000000000000000000000000000000000000000000000000000000000000",
            "coinbase" : "0x2adc25665018aa1fe0e6bc666dac8fc2697ff9ba",
            "difficulty" : "0x020000",
            "extraData" : "0x42",
            "gasLimit" : "0x05500000",
            "gasUsed" : "0x00",
            "hash" : "0xc70b348cef29e4b745683d7338a3911554a48e42f498d35887297773f4319500",
            "mixHash" : "0x56e81f171bcc55a6ff8345e692c0f86e5b48e01b996cadc001622fb5e363b421",
            "nonce" : "0x0102030405060708",
            "number" : "0x00",
            "parentHash" : "0x0000000000000000000000000000000000000000000000000000000000000000",
            "receiptTrie" : "0x56e81f171bcc55a6ff8345e692c0f86e5b48e01b996cadc001622fb5e363b421",
            "stateRoot" : "0x5ad3f0649e74cc94ad48027e76adacc1bda73e22ad4b2c2626113420fdbdc71e",
            "timestamp" : "0x03b6",
            "transactionsTrie" : "0x56e81f171bcc55a6ff8345e692c0f86e5b48e01b996cadc001622fb5e363b421",
            "uncleHash" : "0x1dcc4de8dec75d7aab85b567b6ccd41ad312451b948a7413f0a142fd40d49347"
        },
        "genesisRLP" : "0xf901fbf901f6a00000000000000000000000000000000000000000000000000000000000000000a01dcc4de8dec75d7aab85b567b6ccd41ad312451b948a7413f0a142fd40d49347942adc25665018aa1fe0e6bc666dac8fc2697ff9baa05ad3f0649e74cc94ad48027e76adacc1bda73e22ad4b2c2626113420fdbdc71ea056e81f171bcc55a6ff8345e692c0f86e5b48e01b996cadc001622fb5e363b421a056e81f171bcc55a6ff8345e692c0f86e5b48e01b996cadc001622fb5e363b421b901000000000000000000000000000000000000000000000000000000000000000000000000000000000000000000000000000000000000000000000000000000000000000000000000000000000000000000000000000000000000000000000000000000000000000000000000000000000000000000000000000000000000000000000000000000000000000000000000000000000000000000000000000000000000000000000000000000000000000000000000000000000000000000000000000000000000000000000000000000000000000000000000000000000000000000000000000000000000000000000000000000000000000000000000000000000083020000808405500000808203b642a056e81f171bcc55a6ff8345e692c0f86e5b48e01b996cadc001622fb5e363b421880102030405060708c0c0",
        "lastblockhash" : "0x2178144848c7e0fb7a185489c67c7946ab74fb6fa7fc39f073882d3bf32c469e",
        "network" : "Byzantium",
        "postState" : {
            "0x2adc25665018aa1fe0e6bc666dac8fc2697ff9ba" : {
                "balance" : "0x29a2241af62c32c9",
                "code" : "",
                "nonce" : "0x00",
                "storage" : {
                }
            },
            "0xa94f5374fce5edbc8e2a8697c15331677e6ebf0b" : {
                "balance" : "0x174876b537",
                "code" : "",
                "nonce" : "0x01",
                "storage" : {
                }
            }
        },
        "pre" : {
            "0xa94f5374fce5edbc8e2a8697c15331677e6ebf0b" : {
                "balance" : "0x174876e800",
                "code" : "",
                "nonce" : "0x00",
                "storage" : {
                }
            },
            "0xb94f5374fce5edbc8e2a8697c15331677e6ebf0b" : {
                "balance" : "0x00",
                "code" : "0x0061736d0100000001080260017f00600000022e0208657468657265756d0c73656c664465737472756374000008657468657265756d0967657443616c6c65720000030201010503010001071102046d61696e0002066d656d6f727902000a0c010a0041201001412010000b",
                "nonce" : "0x00",
                "storage" : {
                }
            }
        },
        "sealEngine" : "NoProof"
    }
}