{
    "storedMalformedBytecodeHasStartFromTx_d0g0v0_Byzantium" : {
        "_info" : {
            "comment" : "",
            "filledwith" : "testeth 1.5.0-alpha.6",
            "lllcversion" : "Version: 0.5.0-develop.2018.11.8+commit.20481055.Linux.g++",
            "source" : "src/BlockchainTestsFiller/GeneralStateTests/stEWASMTests/storedMalformedBytecodeHasStartFromTx_d0g0v0Filler.json",
            "sourceHash" : "b2665a2c8e7fbba8113c9d42f16691aa3395acb51510a52447a6b2acaf3cefc2"
        },
        "blocks" : [
            {
                "blockHeader" : {
                    "bloom" : "0x00000000000000000000000000000000000000000000000000000000000000000000000000000000000000000000000000000000000000000000000000000000000000000000000000000000000000000000000000000000000000000000000000000000000000000000000000000000000000000000000000000000000000000000000000000000000000000000000000000000000000000000000000000000000000000000000000000000000000000000000000000000000000000000000000000000000000000000000000000000000000000000000000000000000000000000000000000000000000000000000000000000000000000000000000000000",
                    "coinbase" : "0x2adc25665018aa1fe0e6bc666dac8fc2697ff9ba",
                    "difficulty" : "0x020000",
                    "extraData" : "",
                    "gasLimit" : "0x05500000",
                    "gasUsed" : "0x05000001",
                    "hash" : "0x8e6ed9cb24883b1170631642beb053074d6afe16105a745895bdd3e40bfdcf8d",
                    "mixHash" : "0x0000000000000000000000000000000000000000000000000000000000000000",
                    "nonce" : "0x0000000000000000",
                    "number" : "0x01",
                    "parentHash" : "0x9b7ba1f3dfb4664f1ede285dbc488b8a686a0c479b89772e9f1368a65b2ea363",
                    "receiptTrie" : "0xadd511b2e236adfaa58861d2dbf9583d9a4670d94f3541f4c4742059aa9b731f",
                    "stateRoot" : "0x6874809c6d22119245363a78e89506bd886115883fbd2750ea2fca6613e1a57d",
                    "timestamp" : "0x03e8",
                    "transactionsTrie" : "0x0cad79ab8cd7114107122ca975f4028b966c5a95354486c64942b192700b552d",
                    "uncleHash" : "0x1dcc4de8dec75d7aab85b567b6ccd41ad312451b948a7413f0a142fd40d49347"
                },
                "rlp" : "0xf90394f901faa09b7ba1f3dfb4664f1ede285dbc488b8a686a0c479b89772e9f1368a65b2ea363a01dcc4de8dec75d7aab85b567b6ccd41ad312451b948a7413f0a142fd40d49347942adc25665018aa1fe0e6bc666dac8fc2697ff9baa06874809c6d22119245363a78e89506bd886115883fbd2750ea2fca6613e1a57da00cad79ab8cd7114107122ca975f4028b966c5a95354486c64942b192700b552da0add511b2e236adfaa58861d2dbf9583d9a4670d94f3541f4c4742059aa9b731fb90100000000000000000000000000000000000000000000000000000000000000000000000000000000000000000000000000000000000000000000000000000000000000000000000000000000000000000000000000000000000000000000000000000000000000000000000000000000000000000000000000000000000000000000000000000000000000000000000000000000000000000000000000000000000000000000000000000000000000000000000000000000000000000000000000000000000000000000000000000000000000000000000000000000000000000000000000000000000000000000000000000000000000000000000000000000008302000001840550000084050000018203e880a00000000000000000000000000000000000000000000000000000000000000000880000000000000000f90193f90190800184050000018080b901410061736d0100000001090260027f7f0060000002130108657468657265756d0666696e6973680000030201010503010001071102066d656d6f72790200046d61696e00010a0b010900410041e60110000b0bed01010041000be6010061736d01000000010d0360027f7f0060017f00600000022f0208657468657265756d0c73746f7261676553746f7265000008657468657265756d0a67657441646472657373000103030202020503010001071102046d61696e0002066d656d6f727902000801030a2d021601027f4120210041002101200010012001200010000b1401027f41c000210041e00021012000200110000b0b4d020041c0000b2000000000000000000000000000000000000000000000000000000000000000010041e0000b2000000000000000000000000000000000000000000000000000000000000000011ba05a9b488751714bc284ef7789963fa216a72125d6a6c8ca5e98b81cc827ac664ca032094bdbecaaa06662673419e722e64651a7a7fca7456c3a836d7fad865ee886c0",
                "transactions" : [
                    {
                        "data" : "0x0061736d0100000001090260027f7f0060000002130108657468657265756d0666696e6973680000030201010503010001071102066d656d6f72790200046d61696e00010a0b010900410041e60110000b0bed01010041000be6010061736d01000000010d0360027f7f0060017f00600000022f0208657468657265756d0c73746f7261676553746f7265000008657468657265756d0a67657441646472657373000103030202020503010001071102046d61696e0002066d656d6f727902000801030a2d021601027f4120210041002101200010012001200010000b1401027f41c000210041e00021012000200110000b0b4d020041c0000b2000000000000000000000000000000000000000000000000000000000000000010041e0000b200000000000000000000000000000000000000000000000000000000000000001",
                        "gasLimit" : "0x05000001",
                        "gasPrice" : "0x01",
                        "nonce" : "0x00",
                        "r" : "0x5a9b488751714bc284ef7789963fa216a72125d6a6c8ca5e98b81cc827ac664c",
                        "s" : "0x32094bdbecaaa06662673419e722e64651a7a7fca7456c3a836d7fad865ee886",
                        "to" : "",
                        "v" : "0x1b",
                        "value" : "0x00"
                    }
                ],
                "uncleHeaders" : [
                ]
            }
        ],
        "genesisBlockHeader" : {
            "bloom" : "0x00000000000000000000000000000000000000000000000000000000000000000000000000000000000000000000000000000000000000000000000000000000000000000000000000000000000000000000000000000000000000000000000000000000000000000000000000000000000000000000000000000000000000000000000000000000000000000000000000000000000000000000000000000000000000000000000000000000000000000000000000000000000000000000000000000000000000000000000000000000000000000000000000000000000000000000000000000000000000000000000000000000000000000000000000000000",
            "coinbase" : "0x2adc25665018aa1fe0e6bc666dac8fc2697ff9ba",
            "difficulty" : "0x020000",
            "extraData" : "0x42",
            "gasLimit" : "0x05500000",
            "gasUsed" : "0x00",
            "hash" : "0x9b7ba1f3dfb4664f1ede285dbc488b8a686a0c479b89772e9f1368a65b2ea363",
            "mixHash" : "0x56e81f171bcc55a6ff8345e692c0f86e5b48e01b996cadc001622fb5e363b421",
            "nonce" : "0x0102030405060708",
            "number" : "0x00",
            "parentHash" : "0x0000000000000000000000000000000000000000000000000000000000000000",
            "receiptTrie" : "0x56e81f171bcc55a6ff8345e692c0f86e5b48e01b996cadc001622fb5e363b421",
            "stateRoot" : "0x19fc38351a22fc05c8add29df0767dc26ab2635d0b4ed11caf7d7cb6fed2ea4d",
            "timestamp" : "0x03b6",
            "transactionsTrie" : "0x56e81f171bcc55a6ff8345e692c0f86e5b48e01b996cadc001622fb5e363b421",
            "uncleHash" : "0x1dcc4de8dec75d7aab85b567b6ccd41ad312451b948a7413f0a142fd40d49347"
        },
        "genesisRLP" : "0xf901fbf901f6a00000000000000000000000000000000000000000000000000000000000000000a01dcc4de8dec75d7aab85b567b6ccd41ad312451b948a7413f0a142fd40d49347942adc25665018aa1fe0e6bc666dac8fc2697ff9baa019fc38351a22fc05c8add29df0767dc26ab2635d0b4ed11caf7d7cb6fed2ea4da056e81f171bcc55a6ff8345e692c0f86e5b48e01b996cadc001622fb5e363b421a056e81f171bcc55a6ff8345e692c0f86e5b48e01b996cadc001622fb5e363b421b901000000000000000000000000000000000000000000000000000000000000000000000000000000000000000000000000000000000000000000000000000000000000000000000000000000000000000000000000000000000000000000000000000000000000000000000000000000000000000000000000000000000000000000000000000000000000000000000000000000000000000000000000000000000000000000000000000000000000000000000000000000000000000000000000000000000000000000000000000000000000000000000000000000000000000000000000000000000000000000000000000000000000000000000000000000000083020000808405500000808203b642a056e81f171bcc55a6ff8345e692c0f86e5b48e01b996cadc001622fb5e363b421880102030405060708c0c0",
        "lastblockhash" : "0x8e6ed9cb24883b1170631642beb053074d6afe16105a745895bdd3e40bfdcf8d",
        "network" : "Byzantium",
        "postState" : {
            "0x2adc25665018aa1fe0e6bc666dac8fc2697ff9ba" : {
                "balance" : "0x29a2241afb2c0001",
                "code" : "",
                "nonce" : "0x00",
                "storage" : {
                }
            },
            "0xa94f5374fce5edbc8e2a8697c15331677e6ebf0b" : {
                "balance" : "0x174376e7ff",
                "code" : "",
                "nonce" : "0x01",
                "storage" : {
                }
            }
        },
        "pre" : {
            "0xa94f5374fce5edbc8e2a8697c15331677e6ebf0b" : {
                "balance" : "0x174876e800",
                "code" : "",
                "nonce" : "0x00",
                "storage" : {
                }
            }
        },
        "sealEngine" : "NoProof"
    }
}