{
    "validateBytecodeMissingVersionOneByteIsInvalid_d0g0v0_Byzantium" : {
        "_info" : {
            "comment" : "",
            "filledwith" : "testeth 1.5.0-alpha.6",
            "lllcversion" : "Version: 0.5.0-develop.2018.11.8+commit.20481055.Linux.g++",
            "source" : "src/BlockchainTestsFiller/GeneralStateTests/stEWASMTests/validateBytecodeMissingVersionOneByteIsInvalid_d0g0v0Filler.json",
            "sourceHash" : "e1921f7baa49ecd436ed4a7e896dc7dec88c3c3f50abf35be1b53e67d18b9cad"
        },
        "blocks" : [
            {
                "blockHeader" : {
                    "bloom" : "0x00000000000000000000000000000000000000000000000000000000000000000000000000000000000000000000000000000000000000000000000000000000000000000000000000000000000000000000000000000000000000000000000000000000000000000000000000000000000000000000000000000000000000000000000000000000000000000000000000000000000000000000000000000000000000000000000000000000000000000000000000000000000000000000000000000000000000000000000000000000000000000000000000000000000000000000000000000000000000000000000000000000000000000000000000000000",
                    "coinbase" : "0x2adc25665018aa1fe0e6bc666dac8fc2697ff9ba",
                    "difficulty" : "0x020000",
                    "extraData" : "",
                    "gasLimit" : "0x05500000",
                    "gasUsed" : "0x04ec64e6",
                    "hash" : "0x779793b57d95a3dec193fcdd369a6126a4f4f8ffa4cf7beac4a6639cdfaa17c7",
                    "mixHash" : "0x0000000000000000000000000000000000000000000000000000000000000000",
                    "nonce" : "0x0000000000000000",
                    "number" : "0x01",
                    "parentHash" : "0x7301f7810a4091fb0e3d0a373ebbba9b1132a5038464c39368ef827c50f6f5ef",
                    "receiptTrie" : "0xb3589b3789852bf7b0a4c6978978d17f10a2ea14692a6bd5e841d489436a5c1c",
                    "stateRoot" : "0x20ff8670b909cd64b9bbede13cf857c4d6acf4148c5ef288f189a14d9f44eae6",
                    "timestamp" : "0x03e8",
                    "transactionsTrie" : "0x882b1c358a1d87f01fabb237a81abe5a95042cf80da82598bd07e9872acb8711",
                    "uncleHash" : "0x1dcc4de8dec75d7aab85b567b6ccd41ad312451b948a7413f0a142fd40d49347"
                },
                "rlp" : "0xf90263f901faa07301f7810a4091fb0e3d0a373ebbba9b1132a5038464c39368ef827c50f6f5efa01dcc4de8dec75d7aab85b567b6ccd41ad312451b948a7413f0a142fd40d49347942adc25665018aa1fe0e6bc666dac8fc2697ff9baa020ff8670b909cd64b9bbede13cf857c4d6acf4148c5ef288f189a14d9f44eae6a0882b1c358a1d87f01fabb237a81abe5a95042cf80da82598bd07e9872acb8711a0b3589b3789852bf7b0a4c6978978d17f10a2ea14692a6bd5e841d489436a5c1cb9010000000000000000000000000000000000000000000000000000000000000000000000000000000000000000000000000000000000000000000000000000000000000000000000000000000000000000000000000000000000000000000000000000000000000000000000000000000000000000000000000000000000000000000000000000000000000000000000000000000000000000000000000000000000000000000000000000000000000000000000000000000000000000000000000000000000000000000000000000000000000000000000000000000000000000000000000000000000000000000000000000000000000000000000000000000000830200000184055000008404ec64e68203e880a00000000000000000000000000000000000000000000000000000000000000000880000000000000000f863f8618001840500000194abcdabcdabcdabcdabcdabcdabcdabcdabcdabcd80801ba0f807fae80e9698f65191da8f5313e9305935910cf97108e3102867a08513ed56a07b530915faf7b73ed7b8fa11e754b044dc8e9301aa1e635b687ee239fd03ee53c0",
                "transactions" : [
                    {
                        "data" : "0x",
                        "gasLimit" : "0x05000001",
                        "gasPrice" : "0x01",
                        "nonce" : "0x00",
                        "r" : "0xf807fae80e9698f65191da8f5313e9305935910cf97108e3102867a08513ed56",
                        "s" : "0x7b530915faf7b73ed7b8fa11e754b044dc8e9301aa1e635b687ee239fd03ee53",
                        "to" : "0xabcdabcdabcdabcdabcdabcdabcdabcdabcdabcd",
                        "v" : "0x1b",
                        "value" : "0x00"
                    }
                ],
                "uncleHeaders" : [
                ]
            }
        ],
        "genesisBlockHeader" : {
            "bloom" : "0x00000000000000000000000000000000000000000000000000000000000000000000000000000000000000000000000000000000000000000000000000000000000000000000000000000000000000000000000000000000000000000000000000000000000000000000000000000000000000000000000000000000000000000000000000000000000000000000000000000000000000000000000000000000000000000000000000000000000000000000000000000000000000000000000000000000000000000000000000000000000000000000000000000000000000000000000000000000000000000000000000000000000000000000000000000000",
            "coinbase" : "0x2adc25665018aa1fe0e6bc666dac8fc2697ff9ba",
            "difficulty" : "0x020000",
            "extraData" : "0x42",
            "gasLimit" : "0x05500000",
            "gasUsed" : "0x00",
            "hash" : "0x7301f7810a4091fb0e3d0a373ebbba9b1132a5038464c39368ef827c50f6f5ef",
            "mixHash" : "0x56e81f171bcc55a6ff8345e692c0f86e5b48e01b996cadc001622fb5e363b421",
            "nonce" : "0x0102030405060708",
            "number" : "0x00",
            "parentHash" : "0x0000000000000000000000000000000000000000000000000000000000000000",
            "receiptTrie" : "0x56e81f171bcc55a6ff8345e692c0f86e5b48e01b996cadc001622fb5e363b421",
            "stateRoot" : "0xd9935e4db975390101d59964c6a66c8cfd136eff0d03f37cebac3dbd88a2d0c1",
            "timestamp" : "0x03b6",
            "transactionsTrie" : "0x56e81f171bcc55a6ff8345e692c0f86e5b48e01b996cadc001622fb5e363b421",
            "uncleHash" : "0x1dcc4de8dec75d7aab85b567b6ccd41ad312451b948a7413f0a142fd40d49347"
        },
        "genesisRLP" : "0xf901fbf901f6a00000000000000000000000000000000000000000000000000000000000000000a01dcc4de8dec75d7aab85b567b6ccd41ad312451b948a7413f0a142fd40d49347942adc25665018aa1fe0e6bc666dac8fc2697ff9baa0d9935e4db975390101d59964c6a66c8cfd136eff0d03f37cebac3dbd88a2d0c1a056e81f171bcc55a6ff8345e692c0f86e5b48e01b996cadc001622fb5e363b421a056e81f171bcc55a6ff8345e692c0f86e5b48e01b996cadc001622fb5e363b421b901000000000000000000000000000000000000000000000000000000000000000000000000000000000000000000000000000000000000000000000000000000000000000000000000000000000000000000000000000000000000000000000000000000000000000000000000000000000000000000000000000000000000000000000000000000000000000000000000000000000000000000000000000000000000000000000000000000000000000000000000000000000000000000000000000000000000000000000000000000000000000000000000000000000000000000000000000000000000000000000000000000000000000000000000000000000083020000808405500000808203b642a056e81f171bcc55a6ff8345e692c0f86e5b48e01b996cadc001622fb5e363b421880102030405060708c0c0",
        "lastblockhash" : "0x779793b57d95a3dec193fcdd369a6126a4f4f8ffa4cf7beac4a6639cdfaa17c7",
        "network" : "Byzantium",
        "postState" : {
            "0x2adc25665018aa1fe0e6bc666dac8fc2697ff9ba" : {
                "balance" : "0x29a2241afb1864e6",
                "code" : "",
                "nonce" : "0x00",
                "storage" : {
                }
            },
            "0xa94f5374fce5edbc8e2a8697c15331677e6ebf0b" : {
                "balance" : "0x17438a831a",
                "code" : "",
                "nonce" : "0x01",
                "storage" : {
                }
            },
            "0xabcdabcdabcdabcdabcdabcdabcdabcdabcdabcd" : {
                "balance" : "0x174876e800",
                "code" : "0x0061736d0100000001110360047f7f7f7f017f60027f7f00600000022b0208657468657265756d06637265617465000008657468657265756d0c73746f7261676553746f72650001030201020503010001071102066d656d6f72790200046d61696e00020a41013f01077f410021004120210141c000210241e000210341800121044180022105410521062003200420052006200110003602002000200110012002200310010b0b57030041000b2000000000000000000000000000000000000000000000000000000000000000000041c0000b200000000000000000000000000000000000000000000000000000000000000001004180020b050061736d01",
                "nonce" : "0x01",
                "storage" : {
                    "0x01" : "0x0100000000000000000000000000000000000000000000000000000000000000"
                }
            }
        },
        "pre" : {
            "0xa94f5374fce5edbc8e2a8697c15331677e6ebf0b" : {
                "balance" : "0x174876e800",
                "code" : "",
                "nonce" : "0x00",
                "storage" : {
                }
            },
            "0xabcdabcdabcdabcdabcdabcdabcdabcdabcdabcd" : {
                "balance" : "0x174876e800",
                "code" : "0x0061736d0100000001110360047f7f7f7f017f60027f7f00600000022b0208657468657265756d06637265617465000008657468657265756d0c73746f7261676553746f72650001030201020503010001071102066d656d6f72790200046d61696e00020a41013f01077f410021004120210141c000210241e000210341800121044180022105410521062003200420052006200110003602002000200110012002200310010b0b57030041000b2000000000000000000000000000000000000000000000000000000000000000000041c0000b200000000000000000000000000000000000000000000000000000000000000001004180020b050061736d01",
                "nonce" : "0x00",
                "storage" : {
                }
            }
        },
        "sealEngine" : "NoProof"
    }
}