{
    "validateBytecodeInvalidNamespaceFromTxIsInvalid_d0g0v0_Byzantium" : {
        "_info" : {
            "comment" : "",
            "filledwith" : "testeth 1.5.0-alpha.6",
            "lllcversion" : "Version: 0.5.0-develop.2018.11.8+commit.20481055.Linux.g++",
            "source" : "src/BlockchainTestsFiller/GeneralStateTests/stEWASMTests/validateBytecodeInvalidNamespaceFromTxIsInvalid_d0g0v0Filler.json",
            "sourceHash" : "b98d4ffede6ae70c7510b673b233ece45cc7cc615805b940c0e4266fc21ef681"
        },
        "blocks" : [
            {
                "blockHeader" : {
                    "bloom" : "0x00000000000000000000000000000000000000000000000000000000000000000000000000000000000000000000000000000000000000000000000000000000000000000000000000000000000000000000000000000000000000000000000000000000000000000000000000000000000000000000000000000000000000000000000000000000000000000000000000000000000000000000000000000000000000000000000000000000000000000000000000000000000000000000000000000000000000000000000000000000000000000000000000000000000000000000000000000000000000000000000000000000000000000000000000000000",
                    "coinbase" : "0x2adc25665018aa1fe0e6bc666dac8fc2697ff9ba",
                    "difficulty" : "0x020000",
                    "extraData" : "",
                    "gasLimit" : "0x05500000",
                    "gasUsed" : "0x05000001",
                    "hash" : "0xc8844c20ade7f070de7edcc99f140ebf8a53d40adedf8ca0f9f0e08dd2ceeb54",
                    "mixHash" : "0x0000000000000000000000000000000000000000000000000000000000000000",
                    "nonce" : "0x0000000000000000",
                    "number" : "0x01",
                    "parentHash" : "0x9b7ba1f3dfb4664f1ede285dbc488b8a686a0c479b89772e9f1368a65b2ea363",
                    "receiptTrie" : "0xadd511b2e236adfaa58861d2dbf9583d9a4670d94f3541f4c4742059aa9b731f",
                    "stateRoot" : "0x6874809c6d22119245363a78e89506bd886115883fbd2750ea2fca6613e1a57d",
                    "timestamp" : "0x03e8",
                    "transactionsTrie" : "0x935d990098f83bbf8f825b7da18bfb63526245396b4fd59f370fae1b09e09f1d",
                    "uncleHash" : "0x1dcc4de8dec75d7aab85b567b6ccd41ad312451b948a7413f0a142fd40d49347"
                },
                "rlp" : "0xf9029ef901faa09b7ba1f3dfb4664f1ede285dbc488b8a686a0c479b89772e9f1368a65b2ea363a01dcc4de8dec75d7aab85b567b6ccd41ad312451b948a7413f0a142fd40d49347942adc25665018aa1fe0e6bc666dac8fc2697ff9baa06874809c6d22119245363a78e89506bd886115883fbd2750ea2fca6613e1a57da0935d990098f83bbf8f825b7da18bfb63526245396b4fd59f370fae1b09e09f1da0add511b2e236adfaa58861d2dbf9583d9a4670d94f3541f4c4742059aa9b731fb90100000000000000000000000000000000000000000000000000000000000000000000000000000000000000000000000000000000000000000000000000000000000000000000000000000000000000000000000000000000000000000000000000000000000000000000000000000000000000000000000000000000000000000000000000000000000000000000000000000000000000000000000000000000000000000000000000000000000000000000000000000000000000000000000000000000000000000000000000000000000000000000000000000000000000000000000000000000000000000000000000000000000000000000000000000000008302000001840550000084050000018203e880a00000000000000000000000000000000000000000000000000000000000000000880000000000000000f89ef89c800184050000018080b84e0061736d0100000001090260027f7f0060000002110106666f6f6261720666696e6973680000030201010503010001071102066d656d6f72790200046d61696e00010a0a0108004100410010000b1ca0fbf325793e4c433eab798f28ab83c66c189c125d249d1f216c2e475665ce7d11a061918d63a8dd928a9c93fa3558e6bc27f3d99343d92ba76346d86f453c6add9fc0",
                "transactions" : [
                    {
                        "data" : "0x0061736d0100000001090260027f7f0060000002110106666f6f6261720666696e6973680000030201010503010001071102066d656d6f72790200046d61696e00010a0a0108004100410010000b",
                        "gasLimit" : "0x05000001",
                        "gasPrice" : "0x01",
                        "nonce" : "0x00",
                        "r" : "0xfbf325793e4c433eab798f28ab83c66c189c125d249d1f216c2e475665ce7d11",
                        "s" : "0x61918d63a8dd928a9c93fa3558e6bc27f3d99343d92ba76346d86f453c6add9f",
                        "to" : "",
                        "v" : "0x1c",
                        "value" : "0x00"
                    }
                ],
                "uncleHeaders" : [
                ]
            }
        ],
        "genesisBlockHeader" : {
            "bloom" : "0x00000000000000000000000000000000000000000000000000000000000000000000000000000000000000000000000000000000000000000000000000000000000000000000000000000000000000000000000000000000000000000000000000000000000000000000000000000000000000000000000000000000000000000000000000000000000000000000000000000000000000000000000000000000000000000000000000000000000000000000000000000000000000000000000000000000000000000000000000000000000000000000000000000000000000000000000000000000000000000000000000000000000000000000000000000000",
            "coinbase" : "0x2adc25665018aa1fe0e6bc666dac8fc2697ff9ba",
            "difficulty" : "0x020000",
            "extraData" : "0x42",
            "gasLimit" : "0x05500000",
            "gasUsed" : "0x00",
            "hash" : "0x9b7ba1f3dfb4664f1ede285dbc488b8a686a0c479b89772e9f1368a65b2ea363",
            "mixHash" : "0x56e81f171bcc55a6ff8345e692c0f86e5b48e01b996cadc001622fb5e363b421",
            "nonce" : "0x0102030405060708",
            "number" : "0x00",
            "parentHash" : "0x0000000000000000000000000000000000000000000000000000000000000000",
            "receiptTrie" : "0x56e81f171bcc55a6ff8345e692c0f86e5b48e01b996cadc001622fb5e363b421",
            "stateRoot" : "0x19fc38351a22fc05c8add29df0767dc26ab2635d0b4ed11caf7d7cb6fed2ea4d",
            "timestamp" : "0x03b6",
            "transactionsTrie" : "0x56e81f171bcc55a6ff8345e692c0f86e5b48e01b996cadc001622fb5e363b421",
            "uncleHash" : "0x1dcc4de8dec75d7aab85b567b6ccd41ad312451b948a7413f0a142fd40d49347"
        },
        "genesisRLP" : "0xf901fbf901f6a00000000000000000000000000000000000000000000000000000000000000000a01dcc4de8dec75d7aab85b567b6ccd41ad312451b948a7413f0a142fd40d49347942adc25665018aa1fe0e6bc666dac8fc2697ff9baa019fc38351a22fc05c8add29df0767dc26ab2635d0b4ed11caf7d7cb6fed2ea4da056e81f171bcc55a6ff8345e692c0f86e5b48e01b996cadc001622fb5e363b421a056e81f171bcc55a6ff8345e692c0f86e5b48e01b996cadc001622fb5e363b421b901000000000000000000000000000000000000000000000000000000000000000000000000000000000000000000000000000000000000000000000000000000000000000000000000000000000000000000000000000000000000000000000000000000000000000000000000000000000000000000000000000000000000000000000000000000000000000000000000000000000000000000000000000000000000000000000000000000000000000000000000000000000000000000000000000000000000000000000000000000000000000000000000000000000000000000000000000000000000000000000000000000000000000000000000000000000083020000808405500000808203b642a056e81f171bcc55a6ff8345e692c0f86e5b48e01b996cadc001622fb5e363b421880102030405060708c0c0",
        "lastblockhash" : "0xc8844c20ade7f070de7edcc99f140ebf8a53d40adedf8ca0f9f0e08dd2ceeb54",
        "network" : "Byzantium",
        "postState" : {
            "0x2adc25665018aa1fe0e6bc666dac8fc2697ff9ba" : {
                "balance" : "0x29a2241afb2c0001",
                "code" : "",
                "nonce" : "0x00",
                "storage" : {
                }
            },
            "0xa94f5374fce5edbc8e2a8697c15331677e6ebf0b" : {
                "balance" : "0x174376e7ff",
                "code" : "",
                "nonce" : "0x01",
                "storage" : {
                }
            }
        },
        "pre" : {
            "0xa94f5374fce5edbc8e2a8697c15331677e6ebf0b" : {
                "balance" : "0x174876e800",
                "code" : "",
                "nonce" : "0x00",
                "storage" : {
                }
            }
        },
        "sealEngine" : "NoProof"
    }
}