{
    "wasmGrowMemory_d0g0v0_Byzantium" : {
        "_info" : {
            "comment" : "",
            "filledwith" : "testeth 1.5.0-alpha.6",
            "lllcversion" : "Version: 0.5.0-develop.2018.11.8+commit.20481055.Linux.g++",
            "source" : "src/BlockchainTestsFiller/GeneralStateTests/stEWASMTests/wasmGrowMemory_d0g0v0Filler.json",
            "sourceHash" : "ae693c3f700357d8d6a3eadc91a5ca2f4e896b3fd04860af2936fd8ca9c26f35"
        },
        "blocks" : [
            {
                "blockHeader" : {
                    "bloom" : "0x00000000000000000000000000000000000000000000000000000000000000000000000000000000000000000000000000000000000000000000000000000000000000000000000000000000000000000000000000000000000000000000000000000000000000000000000000000000000000000000000000000000000000000000000000000000000000000000000000000000000000000000000000000000000000000000000000000000000000000000000000000000000000000000000000000000000000000000000000000000000000000000000000000000000000000000000000000000000000000000000000000000000000000000000000000000",
                    "coinbase" : "0x2adc25665018aa1fe0e6bc666dac8fc2697ff9ba",
                    "difficulty" : "0x020000",
                    "extraData" : "",
                    "gasLimit" : "0x05500000",
                    "gasUsed" : "0xa028",
                    "hash" : "0xea80a4fbddb7cc8b5b90790337173e6f598861a7e9ff083af114b9e4c38f842f",
                    "mixHash" : "0x0000000000000000000000000000000000000000000000000000000000000000",
                    "nonce" : "0x0000000000000000",
                    "number" : "0x01",
                    "parentHash" : "0x90e013e06c4e05c9ac292d53a7ce28abd8d1f034c36f26220080c6a42e58e486",
                    "receiptTrie" : "0xdbab3cf2c63a18cde7a7f7e97b28ab7a4f2d7133160dbad0eaac9ef17109c16f",
                    "stateRoot" : "0x0ac9111be66564250cd9469494e1a76db891c6413026732f4d3f11e7145a55be",
                    "timestamp" : "0x03e8",
                    "transactionsTrie" : "0x5ded1f7fe58c8d7136ff694da829142b84f61ac74a8bb7c838d31153fde15977",
                    "uncleHash" : "0x1dcc4de8dec75d7aab85b567b6ccd41ad312451b948a7413f0a142fd40d49347"
                },
                "rlp" : "0xf90261f901f8a090e013e06c4e05c9ac292d53a7ce28abd8d1f034c36f26220080c6a42e58e486a01dcc4de8dec75d7aab85b567b6ccd41ad312451b948a7413f0a142fd40d49347942adc25665018aa1fe0e6bc666dac8fc2697ff9baa00ac9111be66564250cd9469494e1a76db891c6413026732f4d3f11e7145a55bea05ded1f7fe58c8d7136ff694da829142b84f61ac74a8bb7c838d31153fde15977a0dbab3cf2c63a18cde7a7f7e97b28ab7a4f2d7133160dbad0eaac9ef17109c16fb90100000000000000000000000000000000000000000000000000000000000000000000000000000000000000000000000000000000000000000000000000000000000000000000000000000000000000000000000000000000000000000000000000000000000000000000000000000000000000000000000000000000000000000000000000000000000000000000000000000000000000000000000000000000000000000000000000000000000000000000000000000000000000000000000000000000000000000000000000000000000000000000000000000000000000000000000000000000000000000000000000000000000000000000000000000000008302000001840550000082a0288203e880a00000000000000000000000000000000000000000000000000000000000000000880000000000000000f863f8618001840500000194b94f5374fce5edbc8e2a8697c15331677e6ebf0b80801ca0d580067a71e891b3eb9d00858225ac024e99eed5ec731c82414ab9b735161c90a00681f984a463efc98ac83bbe803816f6eb972a6e8d49d87defae73e4d37632b7c0",
                "transactions" : [
                    {
                        "data" : "0x",
                        "gasLimit" : "0x05000001",
                        "gasPrice" : "0x01",
                        "nonce" : "0x00",
                        "r" : "0xd580067a71e891b3eb9d00858225ac024e99eed5ec731c82414ab9b735161c90",
                        "s" : "0x0681f984a463efc98ac83bbe803816f6eb972a6e8d49d87defae73e4d37632b7",
                        "to" : "0xb94f5374fce5edbc8e2a8697c15331677e6ebf0b",
                        "v" : "0x1c",
                        "value" : "0x00"
                    }
                ],
                "uncleHeaders" : [
                ]
            }
        ],
        "genesisBlockHeader" : {
            "bloom" : "0x00000000000000000000000000000000000000000000000000000000000000000000000000000000000000000000000000000000000000000000000000000000000000000000000000000000000000000000000000000000000000000000000000000000000000000000000000000000000000000000000000000000000000000000000000000000000000000000000000000000000000000000000000000000000000000000000000000000000000000000000000000000000000000000000000000000000000000000000000000000000000000000000000000000000000000000000000000000000000000000000000000000000000000000000000000000",
            "coinbase" : "0x2adc25665018aa1fe0e6bc666dac8fc2697ff9ba",
            "difficulty" : "0x020000",
            "extraData" : "0x42",
            "gasLimit" : "0x05500000",
            "gasUsed" : "0x00",
            "hash" : "0x90e013e06c4e05c9ac292d53a7ce28abd8d1f034c36f26220080c6a42e58e486",
            "mixHash" : "0x56e81f171bcc55a6ff8345e692c0f86e5b48e01b996cadc001622fb5e363b421",
            "nonce" : "0x0102030405060708",
            "number" : "0x00",
            "parentHash" : "0x0000000000000000000000000000000000000000000000000000000000000000",
            "receiptTrie" : "0x56e81f171bcc55a6ff8345e692c0f86e5b48e01b996cadc001622fb5e363b421",
            "stateRoot" : "0x1a13c9de4886fa94eb03f5f974a7537481f3babc4ac988c5399a551647799f3d",
            "timestamp" : "0x03b6",
            "transactionsTrie" : "0x56e81f171bcc55a6ff8345e692c0f86e5b48e01b996cadc001622fb5e363b421",
            "uncleHash" : "0x1dcc4de8dec75d7aab85b567b6ccd41ad312451b948a7413f0a142fd40d49347"
        },
        "genesisRLP" : "0xf901fbf901f6a00000000000000000000000000000000000000000000000000000000000000000a01dcc4de8dec75d7aab85b567b6ccd41ad312451b948a7413f0a142fd40d49347942adc25665018aa1fe0e6bc666dac8fc2697ff9baa01a13c9de4886fa94eb03f5f974a7537481f3babc4ac988c5399a551647799f3da056e81f171bcc55a6ff8345e692c0f86e5b48e01b996cadc001622fb5e363b421a056e81f171bcc55a6ff8345e692c0f86e5b48e01b996cadc001622fb5e363b421b901000000000000000000000000000000000000000000000000000000000000000000000000000000000000000000000000000000000000000000000000000000000000000000000000000000000000000000000000000000000000000000000000000000000000000000000000000000000000000000000000000000000000000000000000000000000000000000000000000000000000000000000000000000000000000000000000000000000000000000000000000000000000000000000000000000000000000000000000000000000000000000000000000000000000000000000000000000000000000000000000000000000000000000000000000000000083020000808405500000808203b642a056e81f171bcc55a6ff8345e692c0f86e5b48e01b996cadc001622fb5e363b421880102030405060708c0c0",
        "lastblockhash" : "0xea80a4fbddb7cc8b5b90790337173e6f598861a7e9ff083af114b9e4c38f842f",
        "network" : "Byzantium",
        "postState" : {
            "0x2adc25665018aa1fe0e6bc666dac8fc2697ff9ba" : {
                "balance" : "0x29a2241af62ca028",
                "code" : "",
                "nonce" : "0x00",
                "storage" : {
                }
            },
            "0xa94f5374fce5edbc8e2a8697c15331677e6ebf0b" : {
                "balance" : "0x17487647d8",
                "code" : "",
                "nonce" : "0x01",
                "storage" : {
                }
            },
            "0xb94f5374fce5edbc8e2a8697c15331677e6ebf0b" : {
                "balance" : "0x174876e800",
                "code" : "0x0061736d0100000001090260027f7f0060000002190108657468657265756d0c73746f7261676553746f72650000030201010503010001071102066d656d6f72790200046d61696e00010a20011e01027f4100210041202101410240001a20013f003a00002000200110000b",
                "nonce" : "0x00",
                "storage" : {
                    "0x00" : "0x0300000000000000000000000000000000000000000000000000000000000000"
                }
            }
        },
        "pre" : {
            "0xa94f5374fce5edbc8e2a8697c15331677e6ebf0b" : {
                "balance" : "0x174876e800",
                "code" : "",
                "nonce" : "0x00",
                "storage" : {
                }
            },
            "0xb94f5374fce5edbc8e2a8697c15331677e6ebf0b" : {
                "balance" : "0x174876e800",
                "code" : "0x0061736d0100000001090260027f7f0060000002190108657468657265756d0c73746f7261676553746f72650000030201010503010001071102066d656d6f72790200046d61696e00010a20011e01027f4100210041202101410240001a20013f003a00002000200110000b",
                "nonce" : "0x00",
                "storage" : {
                }
            }
        },
        "sealEngine" : "NoProof"
    }
}